:100000000C941C080C9463080C9463080C9463080B
:100010000C9463080C9463080C9463080C946308B4
:100020000C9463080C9463080C947F300C94513149
:100030000C9453260C9463080C9463080C94630886
:100040000C9463080C9463080C9463080C94630884
:100050000C9463080C94C7260C9463080C946308F2
:100060000C9463080C9463080C9463080C94630864
:100070000C9463080C9463080C9463080C94630854
:100080000C9463080C9463080C9463080C94630844
:100090000C9463080C9463080C9463080C94630834
:1000A0000C9463080C9463080C9463087A0A7C0A25
:1000B000870A7E0A800A820A840A860A890A8B0ACB
:1000C0008D0A980A8F0A910A930A950A970A9A0A42
:1000D000CD1BCD1BFF1BFF1B3F1CB01DB01DB01D5A
:1000E0005F1CB01D0C1D0C1D7C1D851DB01DA91DA8
:1000F000191D191D191D191D191D191D191D191D50
:10010000191D191D191D191D191D191D191D191D3F
:10011000281D361D3D1D441D4E1D3B1E3B1E4D1E04
:100120004D1E441E4D1E4D1E4D1E3B1E3B1E491EA8
:100130004D1E4D1E491EE128CF28F3285727CC29F4
:10014000CC29CC28CC29CC292029CC293429AC296C
:10015000CC29CC29CC29CC296829CC29CC295129D6
:10016000CC290C29CC29CC29C629C629C629C629BF
:10017000C629C629C629C629C629C829CC29E128E5
:10018000C428CC29CC29CC29CC29CC29CC29CC29D0
:10019000CC29CC29CC29C829CC29CC29CC28CC29BC
:1001A000C429C429C429C429C429C429C429C429E7
:1001B000C429C829BE31E531D732E531D7323132D1
:1001C0005432D732AA32B932290014001A0008007A
:1001D000150017001C0018000C00120013002A0064
:1001E0002B0004001600070009000A000B000D0098
:1001F0000E000F0000002800E10000001D001B00A1
:100200000600190005001100100038005200E5003A
:10021000E000E300E20000002C412C42000000005E
:100220000000500051004F0035001E001F0020004C
:1002300021002200230024002500260027004C0076
:1002400039003A003B003C0049004A004B002F00B7
:1002500030002E0000002800E10000003D003E00BC
:100260003F004C004D004E00330034008000E5009C
:10027000E000E3007F0000002C002A0000000000E6
:100280000000BC008100BB003A003B003C003D0088
:100290003E003F0040004100420043004400450052
:1002A0000000BF5CBE5CC15C0000000000000000FC
:1002B000000000000000000000000000C05CBD5C09
:1002C00000000000000000003600370000000000C1
:1002D000DE5C0000000000000000000000000000E4
:1002E000000000000000000044454255473A2064E9
:1002F000697361626C65642E0A0044454255473A51
:1003000020656E61626C65642E0A000A002530313A
:100310003662003A200025303258000A722F6320DE
:10032000303132333435363738394142434445462B
:100330000A007267626C696768742074696D65721F
:100340002064697361626C652E0A007267626C6971
:100350006768742074696D657220656E61626C6592
:10036000642E0A007267626C696768742073657432
:1003700020687376205B4E4F454550524F4D5D3A95
:100380002025752C25752C25750A007267626C690D
:100390006768742073657420687376205B454550E8
:1003A000524F4D5D3A2025752C25752C25750A0078
:1003B0007267626C69676874207261696E626F77D8
:1003C00020736574206873763A2025642C25642C8C
:1003D00025642C25750A007267626C696768742051
:1003E00064697361626C65205B454550524F4D5D99
:1003F0003A207267626C696768745F636F6E6669E2
:10040000672E656E61626C65203D2025750A00725D
:1004100067626C6967687420656E61626C65205BF9
:10042000454550524F4D5D3A207267626C6967686E
:10043000745F636F6E6669672E656E61626C6520BE
:100440003D2025750A007267626C696768742074C4
:100450006F67676C65205B454550524F4D5D3A2094
:100460007267626C696768745F636F6E6669672E36
:10047000656E61626C65203D2025750A00726762B9
:100480006C69676874206D6F6465205B4E4F4545ED
:1004900050524F4D5D3A2025750A007267626C69B3
:1004A000676874206D6F6465205B454550524F4D01
:1004B0005D3A2025750A007267626C696768745F2F
:1004C000696E6974207267626C696768745F636FD4
:1004D0006E6669672E6D6F6465203D20302E205753
:1004E000726974652064656661756C742076616CF0
:1004F00075657320746F20454550524F4D2E0A008C
:100500007267626C696768745F696E69742065659B
:10051000636F6E666967206973206E6F7420656E05
:1005200061626C65642E0A007267626C6967687448
:100530005F696E6974207374617274210A00726756
:10054000626C696768745F696E69742063616C6C62
:1005500065642E0A007267626C696768745F636F16
:100560006E6669672E7370656564203D2025640A98
:10057000007267626C696768745F636F6E66696753
:100580002E76616C203D2025640A007267626C69DA
:100590006768745F636F6E6669672E736174203D70
:1005A0002025640A007267626C696768745F636F14
:1005B0006E6669672E687565203D2025640A0072A5
:1005C00067686C696768745F636F6E6669672E6DD4
:1005D0006F6465203D2025640A007267626C69675C
:1005E00068745F636F6E6669672E656E61626C65C5
:1005F000203D2025640A007267626C696768745F39
:10060000636F6E666967206570726F6D0A00000423
:100610007F3F1F643214643214783C1E1E140A0596
:100620002223252628292A2C2D2F303233353638FF
:100630003A3B3D3E4042434547494A4C4E50515358
:100640005557595A5C5E6062646668696B6D6F717C
:10065000737577797B7D7F81838587898A8C8E907E
:10066000929496989A9C9E9FA1A3A5A7A8AAACAE87
:10067000AFB1B3B4B6B8B9BBBCBEBFC1C2C3C5C6C7
:10068000C7C9CACBCCCDCED0D1D2D2D3D4D5D6D770
:10069000D7D8D9D9DADADBDBDBDCDCDCDCDCDDDDAE
:1006A000DDDDDCDCDCDCDCDBDBDBDADAD9D9D8D79E
:1006B000D7D6D5D4D3D2D2D1D0CECDCCCBCAC9C740
:1006C000C6C5C3C2C1BFBEBCBBB9B8B6B4B3B1AF77
:1006D000AEACAAA8A7A5A3A19F9E9C9A9896949217
:1006E000908E8C8A89878583817F7D7B79777573EE
:1006F000716F6D6B6968666462605E5C5A595755CC
:100700005351504E4C4A4947454342403E3D3B3A87
:100710003836353332302F2D2C2A2928262523220E
:10072000FFAA7F554000000000000000000000010B
:1007300001010101010101010202020202020202A1
:10074000030303030303030404040404050505056C
:100750000506060606060707070708080808090928
:10076000090A0A0A0B0B0B0C0C0C0D0D0D0E0E0ECC
:100770000F0F101010111112121313141415151657
:10078000161717181819191A1A1B1C1C1D1D1E1FC5
:100790001F20212122232324252526272828292A12
:1007A0002B2C2C2D2E2F3031313233343536373837
:1007B000393A3B3C3D3E3F40414243444546474831
:1007C000494B4C4D4E4F50525354555758595A5C03
:1007D0005D5E606163646567686A6B6C6E6F7172A1
:1007E000747677797A7C7D7F8182848687898B8D08
:1007F0008E9092949597999B9D9FA1A2A4A6A8AA3A
:10080000ACAEB0B2B4B6B9BBBDBFC1C3C5C8CACC2B
:10081000CED0D3D5D7DADCDEE1E3E6E8EAEDEFF2DD
:10082000F4F7F9FCFF0A002530325820006B657997
:10083000626F6172645F7265706F72743A20000A51
:100840000025303258006B6579626F6172645F73A6
:1008500065745F6C65643A200064656C5F6B6579F4
:100860005F6269743A2063616E27742064656C3A34
:1008700020253032580A006164645F6B65795F62DD
:1008800069743A2063616E2774206164643A20259C
:100890003032580A003F00433E20004C25640A00D5
:1008A00074696D65725F72656164333228293A201C
:1008B0002530346C580A006B65796D61705F636F29
:1008C0006E6669672E6E6B726F3A2025580A006B50
:1008D0006579626F6172645F69646C653A2025585E
:1008E0000A006B6579626F6172645F70726F746F1A
:1008F000636F6C3A2025580A00686F73745F6B65EC
:1009000079626F6172645F6C65647328293A20258F
:10091000580A000A092D20537461747573202D0A3A
:10092000004743433A20342E392E32204156522D6F
:100930004C4942433A20312E382E3073766E204196
:1009400056525F415243483A20617672350A004F51
:100950005054494F4E533A204C5546412045585427
:1009600052414B455920434F4E534F4C4520434F26
:100970004D4D414E44204E4B524F20343039360AB3
:10098000004255494C443A2022302E362E33383519
:100990002D382D6764393363353322202831303ABE
:1009A00030353A3234204D617920323120323031C5
:1009B00039290A005649443A2030784645454428AA
:1009C00048616E204368656E29205049443A2030C2
:1009D000783630373228414D4A3430292056455236
:1009E0003A203078303030320A00444553433A20C0
:1009F000716D6B20706F7274206F6620414D4A34A8
:100A000030207632205043420A000A092D205665D4
:100A10007273696F6E202D0A000A092D20436F6ED4
:100A2000736F6C65202D0A4553432F713A09717518
:100A300069740A000A092D204D61676963202D0A37
:100A4000443A094465627567204D65737361676553
:100A500020546F67676C650A583A094D6174726972
:100A600078204465627567204D6F646520546F6718
:100A7000676C65202D2053686F77206B65797072E5
:100A8000657373657320696E206D61747269782077
:100A9000677269640A4B3A094B6579626F617264E7
:100AA00020446562756720546F67676C65202D2050
:100AB00053686F77206B6579707265737320726508
:100AC000706F72740A4D3A094465627567204D6F04
:100AD00075736520546F67676C650A563A095665E9
:100AE0007273696F6E0A533A095374617475730AAD
:100AF000433A09416374697661746520436F6E738C
:100B00006F6C65204D6F64650A46312D4631303A71
:100B10000953776974636820746F204C617965723A
:100B200020302D392028463130203D204C30290AF4
:100B3000302D393A0953776974636820746F204CFB
:100B40006179657220302D390A47524156453A097C
:100B500053776974636820746F204C6179657220E3
:100B6000302028616C7465726E617465290A423A9E
:100B7000094A756D7020746F20426F6F746C6F61DD
:100B80006465720A4553433A094A756D7020746F63
:100B900020426F6F746C6F616465722028616C74A1
:100BA00065726E617465290A453A095072696E74FE
:100BB00020454550524F4D2053657474696E6773DC
:100BC0000A4253504143453A09436C6561722045DE
:100BD0004550524F4D0A4E3A094E4B524F20546FDA
:100BE00067676C650A000A002575002E6C657665DE
:100BF0006C3A20000A002575002E656E61626C65F6
:100C00003A20000A0025303258006261636B6C693B
:100C10006768745F636F6E6669672E7261773A20EA
:100C2000000A002575002E6E6B726F3A20000A00D4
:100C30002575002E737761705F6261636B736C6101
:100C400073685F6261636B73706163653A20000A69
:100C5000002575002E737761705F67726176655F3E
:100C60006573633A20000A002575002E6E6F5F677A
:100C700075693A20000A002575002E737761705F50
:100C800072616C745F726775693A20000A0025759D
:100C9000002E737761705F6C616C745F6C6775694F
:100CA0003A20000A002575002E636170736C6F6333
:100CB0006B5F746F5F636F6E74726F6C3A20000AC3
:100CC000002575002E737761705F636F6E74726FAD
:100CD0006C5F636170736C6F636B3A20000A002570
:100CE000303258006B65796D61705F636F6E666955
:100CF000672E7261773A20000A002575002E6D6F0D
:100D00007573653A20000A002575002E6B657962BF
:100D10006F6172643A20000A002575002E6D6174BF
:100D20007269783A20000A002575002E656E6162AE
:100D30006C653A20000A00253032580064656275FF
:100D4000675F636F6E6669672E7261773A20000A8B
:100D50000025750064656661756C745F6C6179650A
:100D6000723A20003F004E4B524F3A206F66660A9F
:100D7000004E4B524F3A206F6E0A000A6D6F75732A
:100D8000653A206F66660A000A6D6F7573653A20D2
:100D90006F6E0A000A6B6579626F6172643A206F48
:100DA00066660A000A6B6579626F6172643A206F49
:100DB0006E0A000A6D61747269783A206F66660A7D
:100DC000000A6D61747269783A206F6E0A000A64D5
:100DD000656275673A206F66660A000A6465627527
:100DE000673A206F6E0A000A0A4A756D70696E676D
:100DF00020746F20626F6F746C6F616465722E2E49
:100E00002E2000433E2000436C656172696E6720AE
:100E1000454550524F4D0A006565636F6E666967C0
:100E20003A0A006261636B6C696768742073746569
:100E3000703A2025750A006261636B6C696768749B
:100E40002064697361626C650A006261636B6C693E
:100E500067687420656E61626C650A006261636B2D
:100E60006C6967687420746F67676C653A202575D4
:100E70000A006261636B6C69676874206465637201
:100E8000656173653A2025750A006261636B6C6960
:100E900067687420696E6372656173653A202575B1
:100EA0000A005B735D004B6579626F617264207349
:100EB000746172742E0A005B575D005B535D005BCA
:100EC000525D005B445D005B435D00040330000045
:100ED000000C0341004D004A0034003000000012B5
:100EE00003480061006E0020004300680065006E4A
:100EF0000000000403090409025B00030100A0FADA
:100F0000090400000103010100092111010001226F
:100F100040000705810308000A09040100010300DD
:100F20000000092111010001227100070582032040
:100F3000000A090402000203000000092111010057
:100F40000122220007058303200001070503032077
:100F500000011201100100000008EDFE72600200A5
:100F6000010203010631FF0974A10109751500266C
:100F7000FF009520750881020976150026FF00956F
:100F80002075089102C005010980A10185031601A1
:100F9000002603001A81002A830075109501810044
:100FA000C0050C0901A1018504160100269C021A46
:100FB00001002A9C02751095018100C005010906F7
:100FC000A1018505050719E029E715002501950808
:100FD0007501810205081901290595057501910220
:100FE0009501750391010507190029EF15002501E9
:100FF00095F075018102C005010906A101050719D7
:10100000E029E71500250195087501810295017514
:1010100008810105081901290595057501910295B9
:1010200001750391010507190029FF150026FF002E
:10103000950675088100C00011241FBECFEFDAE0CD
:10104000DEBFCDBF04B603FE27C080916A02909137
:101050006B02A0916C02B0916D028730904BA7405B
:10106000B04BD1F410926A0210926B0210926C0293
:1010700010926D0214BE84B7877F84BF0FB6F894B8
:10108000A895809160008861809360001092600054
:101090000FBEE0E0F8E3099511E0A0E0B1E0EEEC6E
:1010A000F7E602C005900D92A236B107D9F722E00B
:1010B000A2E6B1E001C01D92AA36B207E1F70E9494
:1010C000982D0C94E5330C940000FF93EF93E0917E
:1010D0006201F0916301309709F00995EF91FF915A
:1010E0000895FC018591803011F0EFDFFBCF08956A
:1010F000FF27E0E230E247FF0CC0419597FF09C0AF
:10110000EDE26095709580959095611D711D811D32
:10111000911D27FF02C0219530E350E2AA27660FF8
:10112000771F881F991FAA1FA41710F0A41B63958F
:101130005A95A9F7AA3008F0A95FA05DAF93F3957F
:10114000611571058105910541F7ED3211F4EF93B9
:10115000F395F21718F43F93F395FBCF8F91B5DF1A
:10116000FA95E1F70895E991F9918591803021F0A0
:10117000853219F0AADFF9CF089520E0E89455915F
:101180005532C1F3503311F4689455915A3348F4F1
:10119000505390F3220F022E220F220F200D250F05
:1011A000F4CF0EF4219589919991533619F3533761
:1011B00029F1533559F1BC0188279927E8945C3609
:1011C00021F48991999168945591543639F446EFF8
:1011D0007EF077FF0DC08FEF9FEF0AC055374AE0D2
:1011E00039F0583540E121F0523642E009F00895D7
:1011F000FF93EF937DDFEF91FF91B7CFFF93EF93D5
:10120000FC0181918030B9F360DFFBCFFF93EF9356
:1012100068DFF1CFDF93CF93CDB7DEB72596A3DF9D
:10122000CF91DF9108950C94A80E229A08950E9400
:10123000A70E0C94150981FF02C02A9808952A9AD6
:10124000089581E0089581E008950C9423091F9387
:10125000CF93DF9300D000D01F92CDB7DEB7498384
:101260005A832091980189819A81211112C06623A5
:1012700049F00E946023182F682F89819A810E946B
:10128000052303C00E943423182F69817A81812F9E
:1012900004C00E94602369817A810F900F900F90A3
:1012A0000F900F90DF91CF911F910C94FA0BFC01DE
:1012B000408151816281738184810C9427090C944F
:1012C0001309E82FE295EF70F0E032A1282F2F707C
:1012D00081E090E001C0880F2A95EAF7809583238A
:1012E00082A30895CF92DF92EF92FF92853030F47F
:1012F000811105C0909180009F7D04C084E0909191
:101300008000906290938000282F30E0AFEFBFEF15
:101310000E947633DC01CB0142E0B695A795979504
:1013200087954A95D1F78C3724E19207A105B1053D
:1013300028F469E070E00E94263327C08A50974D58
:10134000AF4FBF4F6627782F892F9A2F25EF38E2AE
:1013500041E050E00E944E3369017A01CA01B901AF
:101360000E940A339B01AC01C701B6010E940A33F7
:10137000BB27A92F982F872F009721E0A207B1053F
:1013800011F0BC0102C06FEF7FEF70938B00609390
:101390008A00FF90EF90DF90CF900895269A86E321
:1013A0000E94610982E28093800089E1809381003C
:1013B0008FEF9FEF90938700809386000C94212AF3
:1013C0000E94C524811102C00E9448250E94CE09B6
:1013D0000C9417090C941B0908950E942B1E0E945F
:1013E000EC092FEF84E39CE0215080409040E1F72E
:1013F00000C000000C94ED260F931F93CF93DF9352
:10140000EC010E9457098C01BE010E942509882326
:1014100029F1BE01C8010E94DB178823F9F00A3CBC
:101420008CE51807E9F008F019C1033C8CE51807B2
:10143000F1F040F505318CE5180708F0AEC0023038
:101440008CE51807B0F501158CE5180709F082C086
:10145000CA81CC2309F4C4C10E94ED09C0E0C0C117
:10146000CA81CC2309F4BCC10E94A213F7CFCA8160
:10147000CC2309F4B5C10E94E0238272B9F00E9426
:10148000D515ECCF063C8CE5180709F4BBC008F075
:10149000CBC0043C8CE5180709F0BBC0CA81CC2343
:1014A00009F49EC10E94E023827249F30E94C8158C
:1014B000D5CF8A81882309F450C00E94C5248111A8
:1014C00002C00E9448250E94D82490E090935B02BD
:1014D00080935A02F801E350FC45E231F10530F403
:1014E000EA5AFF4F80915A020C94703380915A024D
:1014F000816027C0826025C0846023C0806121C0D4
:1015000080621FC080641DC080681BC084608860CA
:1015100018C08E7F16C08D7F14C08B7F12C08F7E47
:1015200010C08F7D0EC08F7B0CC08F770AC08B7F61
:10153000877F07C087FB222720F991E0922790FB45
:1015400087F980935A0280915A020E94DC240E94FB
:101550002B1E84CF01301C4539F0CE01DF91CF9195
:101560001F910F910C942109CA81CC2309F438C131
:1015700080911C02C82FC095C170C0FB80F9809378
:101580001C02CC2329F08AEF92E00E94710866CFFA
:1015900088EE92E00E94710823C106318CE518079D
:1015A00031F50E94E023282F8A814091100150914B
:1015B0001101882379F02A7A91E009F490E0909360
:1015C0006401911102C069E201C065E3CA010E9491
:1015D000D1250AC080916401811102C069E201C075
:1015E00065E3CA010E94DC250E942C2437CF023C0F
:1015F0001C4509F0B2CFCA81CC2309F4F1C00E9486
:1016000088162CCFCA81CC2309F4EAC00E94661345
:1016100025CF053C1C4509F0A0CFCA81CC2309F495
:10162000DFC00E9459131ACFCA81083C8CE5180705
:1016300031F4CC2309F4D4C00E9484130FCF093CA9
:101640001C4530F4CC2309F4CBC00E94751306CF9F
:10165000CC2309F4C5C00E94931300CF013D8CE553
:10166000180779F4CA81CC2309F4BAC00E948F11FB
:101670008F3028F00E948F11843108F417CF8FE04B
:101680000EC0023D8CE5180708F058C00D3C8CE5F3
:10169000180741F4CA81CC2309F4A2C081E00E945A
:1016A000D815DCCE0E3C8CE51807B0F40B3C8CE56D
:1016B000180739F4CA81CC2309F492C00E9497110B
:1016C000CDCE0C3C1C4509F048CFCA81CC2309F48F
:1016D00087C00E94A811C2CECA810F3C8CE51807B2
:1016E00071F4CC2309F47CC00E948F11863028F05D
:1016F0000E948F11883008F4D9CE86E0D0CF003D0B
:101700001C4570F4CC2309F46BC00E948F11823009
:1017100028F00E948F11853008F4C8CE82E0BFCF38
:10172000CC2309F45DC00E948F11893028F00E94FB
:101730008F118E3008F4BACE89E0B1CF053D8CE52B
:10174000180731F4CA81CC2309F44AC083E2A7CF39
:10175000063D8CE5180730F5CA81033D8CE5180776
:1017600021F4CC23E9F188E19ACF043D1C4568F4CB
:10177000CC23B1F10E948F11853128F00E948F1186
:10178000873108F493CE85E18ACFCC2349F10E94BA
:101790008F11893128F00E948F11823208F486CE91
:1017A00089E17DCF0D3D8CE5180739F4CA81CC2342
:1017B000B9F082E00E94422E51CE0E3D8CE5180712
:1017C00031F4CA81CC2361F00E94482547CE0C3DFC
:1017D0001C4509F0C2CECA81CC2311F080E0EACFCB
:1017E0008C2FDF91CF911F910F91089580E090E0B1
:1017F000089508959CE0799FF001112490E3899F5A
:10180000E00DF11D1124E60FF11DEE0FFF1FE8534F
:10181000FE4F859194910895880F991FFC01E55F13
:10182000FC4F859194910895CF93DF930E94FA0B1A
:101830000E94070EEC01811521E5920708F042C0D5
:10184000811560E5960708F031C1883E910500F5E5
:10185000803E910508F0D7C1883A910570F4853A29
:10186000910508F0A6C08130910509F4CCC108F4B7
:101870007DC1049708F0C7C179C18F3B910508F479
:10188000A3C0803C910508F471C1805C9109FDC042
:10189000C11580E3D80780F4C11590E2D90708F09C
:1018A000F2C0C03FD10508F461C1CF3FD10511F0AE
:1018B00008F0A9C1D065A7C1C11520E4D20708F07E
:1018C000F2C0E7C0811569E5960760F5C11588E5A6
:1018D000D80708F037C1C11594E5D90778F4C115C8
:1018E00023E5D20708F013C1C11562E5D60708F059
:1018F000F8C0DC2FCC27C16FD06A85C1C11585E542
:10190000D80708F41AC1C11596E5D90708F02EC109
:101910008C2F0E94840E8F71C82FD0E0DC2FCC2733
:10192000D06271C18D3B2CE5920709F416C1F0F429
:10193000CB3B8CE5D80709F40AC108F00BC1C115EF
:101940002AE5D20708F012C18C2F8F700E94840EF6
:1019500094E0D695C7959A95E1F7CF70D0E0DC2F4B
:10196000CC27D06A8F70806EC82B4DC1803C9C45BF
:1019700009F4F9C0C13C8CE5D80760F4CE3B9CE586
:10198000D90709F4EDC0CF3BDC4509F0EFC0C0E05A
:10199000D2ED39C1CE0190568115904208F0E6C0D3
:1019A0008D2F8F710E94840EDD27D0628F71D82B0E
:1019B0002AC1853A910509F4DCC0863A910509F0FF
:1019C000DBC0C2E8D0E41FC1883A910509F4D7C052
:1019D000893A910509F4D6C08A3A910509F4D5C02F
:1019E0008B3A910509F4D4C08C3A910509F4D3C01F
:1019F0008B3B910509F4D2C08C3B910509F4D1C011
:101A00008D3A910509F4D0C0803B910509F4CFC00F
:101A10008E3A910509F4CEC08F3A910509F4CDC0F4
:101A2000813B910509F4CCC0823B910509F4CBC000
:101A3000833B910509F4CAC0843B910509F4C9C0F0
:101A4000853B910509F4C8C0863B910509F4C7C0E0
:101A5000873B910509F4C6C0883B910509F4C5C0D0
:101A6000893B910509F4C4C08D3B910509F4C3C0BD
:101A70008E3B910509F4C2C08A3B910509F4C1C0AF
:101A8000C0E0D4E4C0C0CE019F700E940C0CEC01F9
:101A9000BAC0CE019927D3FF03C0EC01D86CB3C004
:101AA000EC01D06CB0C0DF70D06AADC0837021E0B3
:101AB00030E002C0220F331F8A95E2F73C68CE0166
:101AC00074E0969587957A95E1F78370382BCF70FF
:101AD000C695C69580E2C89FE0011124C22BD32B86
:101AE00092C04C2F4695469590E2499FA001112443
:101AF000C370DD2721E030E0C90102C0880F991FC3
:101B0000CA95E2F7EC01C42BD52BDC687CC04C2FC6
:101B10004695469580E2489FA0011124C370DD27B9
:101B200021E030E0C90102C0880F991FCA95E2F791
:101B3000EC01C42BD52BDA6866C0DC2FCC27C46F30
:101B4000D06A61C0DC2FCC27C06FD06A5CC0C0E017
:101B5000D4ED59C0C0E0D5ED56C0C0E0D1ED53C0C2
:101B6000C0E0D0ED50C0C0E0D3ED4DC0C0E0D0E04B
:101B70004AC0C1E8D0E447C0C3E8D0E444C0C2EEE4
:101B8000D4E441C0C9EED4E43EC0CAEED4E43BC0C4
:101B9000C5EBD4E438C0C6EBD4E435C0C3EBD4E421
:101BA00032C0C4EBD4E42FC0C7EBD4E42CC0CCECDF
:101BB000D4E429C0CDECD4E426C0C3E8D5E423C0E6
:101BC000CAE8D5E420C0C2E9D5E41DC0C4E9D5E423
:101BD0001AC0C1E2D6E417C0C3E2D6E414C0C4E21E
:101BE000D6E411C0C5E2D6E40EC0C6E2D6E40BC00E
:101BF000C7E2D6E408C0CFE6D4E405C0C0E7D4E429
:101C000002C0CAE2D6E4CE01DF91CF9108958238B6
:101C1000910549F1B0F48133910509F458C048F4B5
:101C20008932910509F44EC08A32910509F454C0F5
:101C300008958533910509F440C08933910599F0E1
:101C40000895833E910529F138F4803E910591F085
:101C5000823E9105A1F00895863E9105F9F0873EF8
:101C6000910531F1089520915A0220FD3AC021FDDD
:101C700038C0089580915A0280FD35C032C08091ED
:101C80005A0282FF32C080915A0284FD30C083EE36
:101C900039C080915A0282FD28C0F5CF80915A0246
:101CA00083FF27C080915A0284FD21C087EE2AC09D
:101CB00080915A0283FD1DC0F5CF80915A0285FDA7
:101CC0001AC01BC080915A0285FD17C014C08091B4
:101CD0005A0286FD14C015C080915A0286FD11C0BB
:101CE0000EC080EE0FC089E30DC082EE0BC080E015
:101CF00009C086EE07C089E205C085E303C08AE219
:101D000001C081E390E0089590915A0292FF0DC0C6
:101D1000282F2871283019F4877F846006C0282F67
:101D20002471243011F48B7F886093FF0DC0282F1D
:101D30002871283119F4877E846106C0282F247108
:101D4000243111F48B7E886194FD877E0895089577
:101D50000895E82FF0E0EE0FFF1FEB59FE4F808152
:101D600091810895CF92DF92EF92FF920F931F938C
:101D7000CF93DF938BE193E00E94710885E6E82E14
:101D800081E0F82EC0E0D0E096E1C92E93E0D92E94
:101D90000DE013E0DF93CF93DF92CF920E940A0908
:101DA00083E193E00E947108F701819191917F0195
:101DB0000E94AB249F938F931F930F930E940A0955
:101DC0008BE093E00E94710821968DB79EB708962C
:101DD0000FB6F8949EBF0FBE8DBFC430D105D1F6AB
:101DE000DF91CF911F910F91FF90EF90DF90CF90F7
:101DF0000895E9E2F1E041E050E024E02E0F9191F6
:101E0000A92FA295AF70B0E091963C9191979F70E9
:101E1000BA0102C0660F771F9A95E2F7CB01809551
:101E2000832391968C932E13EACFADE1B1E041E08C
:101E300050E02CE02A0F8D91E82FE295EF70F0E052
:101E400031A18F70BA0102C0660F771F8A95E2F741
:101E5000CB01962F9095932391A392A1892B82A3D6
:101E60002A13E9CF10926E0110926D011092660153
:101E7000109265011092700110926F01109268012A
:101E800010926701109272011092710110926A0112
:101E900010926901109274011092730110926C01FA
:101EA00010926B0184E00E94EF0F0C94E0094F92B6
:101EB0005F927F928F929F92AF92BF92CF92DF926A
:101EC000EF92FF920F931F93CF93DF9329E2422E5D
:101ED00021E0522EADE6B1E020E001E010E05D012E
:101EE0008D909C90119711961C921E92E2018991FF
:101EF0002E01E82FE295EF70F0E031A18F70A8017C
:101F000002C0440F551F8A95E2F7CA01342B31A352
:101F100042A1382F3095432342A350EA5A95F1F756
:101F20009DE1C92E91E0D92E40E050E0E601799084
:101F30006E01672D62956F7070E0EB01E8A06D9106
:101F40007C911197F12CD72DDF7002C0F594E794A6
:101F5000DA95E2F7E0FC08C07801042E02C0EE0C2E
:101F6000FF1C0A94E2F702C0E12CF12C6E297F29B4
:101F700011967C936E934F5F5F4F4C305105B1F6D5
:101F800091A1392331A392A1892B82A3129681E0DA
:101F9000F501408151818416950609F480E0282BD3
:101FA000F1E0A537BF0709F09ACF44E065E671E09C
:101FB0008DE691E00E94F00F0E945F0981E0DF91C1
:101FC000CF911F910F91FF90EF90DF90CF90BF9036
:101FD000AF909F908F907F905F904F90089508955D
:101FE000FF920F931F93CF93DF93F82E092F162F95
:101FF000D72FC42F222349F081E0809377010E94DC
:1020000085269093760180937501809177018823CE
:10201000D9F080917501909176010E949D260697D6
:1020200098F0EF2DF02FA12FBD2F80E090E04C2FE6
:1020300050E08417950734F4219131912D933D930D
:102040000196F7CF10927701DF91CF911F910F91F9
:10205000FF900895CF92DF92EF92FF920F931F931C
:10206000CF93DF937B01282F382FE82FF0E0F1107A
:1020700006C0EB5DF84F6491762F862F7BC00F2D45
:1020800010E046E0649FC0011124CFEFD0E0BE0114
:102090000E942633AB016BEA6403C001659F900D7B
:1020A00011248E0D911D8E0D911D982F990F980F53
:1020B000BE01601B710B6E9FD0016F9FB00D7E9FA4
:1020C000B00D11248B2F9F9DB0011124672F77270E
:1020D0007E01E61AF70AB7016E9F70016F9FF00C40
:1020E0007E9FF00C11246E01C91AD108C09EB00168
:1020F000C19E700DD09E700D1124672F7727C61BCF
:10210000D70BCE9F8001CF9F100DDE9F100D1124A5
:10211000712F4230510591F04CF441155105D9F021
:1021200041305105B1F4722F2F2D15C044305105A7
:1021300061F044F04630510571F00BC02B2F812F18
:10214000732F09C07F2D2B2F02C0212F7B2F832FB0
:1021500002C07B2F8F2DE22FF0E0EB5DF84F6491F2
:10216000E72FF0E0EB5DF84F7491E82FF0E0EB5DC6
:10217000F84F8491DF91CF911F910F91FF90EF90D5
:10218000DF90CF9008950895CF93DF93762FE901E4
:10219000682F842F0E942A10698378838A83DF91B5
:1021A000CF91089580914502282F269530E0211582
:1021B000310519F48170826005C02532310524F0A3
:1021C0008170886480934502089588E090E00C94C3
:1021D000A533CF93DF9300D000D0CDB7DEB7AB01EE
:1021E000BC0149835A836B837C830E94D21049814E
:1021F0005A816B817C8188E090E00F900F900F9066
:102200000F90DF91CF910C94C333E5E4F2E083E0CB
:10221000808311828FEF8283838314826081718136
:10222000828193810C94E91080911C0280FF08C088
:1022300087EF95E09F938F930E940A090F900F906C
:1022400080911C0280FF0FC08091450281701F9217
:102250008F938AED95E09F938F930E940A090F90C8
:102260000F900F900F9080911C0280FF0FC0809103
:10227000450286951F928F938FEB95E09F938F93E6
:102280000E940A090F900F900F900F9080911C02EE
:1022900080FF0EC0809146021F928F9385EA95E0E1
:1022A0009F938F930E940A090F900F900F900F90A9
:1022B00080911C0280FF0EC0809147021F928F9375
:1022C0008BE895E09F938F930E940A090F900F90DF
:1022D0000F900F9080911C0280FF0EC080914802E9
:1022E0001F928F9381E795E09F938F930E940A0935
:1022F0000F900F900F900F9080911C0280FF0EC0E6
:10230000809149021F928F9385E595E09F938F936B
:102310000E940A090F900F900F900F9008958091DE
:10232000450280FF02C08695089580E0089580915F
:102330004902833018F48F5F80934902609145020F
:102340007091460280914702909148020C94E910E6
:1023500080914902882319F081508093490260914D
:1023600045027091460280914702909148020C9478
:10237000E9106091040170E08091450280FF0AC07D
:1023800080917C0123E0829FC0011124865B9D4FD8
:102390000C946B1780917B0190910301891780F752
:1023A000E82FF0E09F01220F331FE20FF31FE65BDF
:1023B000FD4F1182108212828F5FF0CF9091450203
:1023C00090FF16C090917B0120910301921770F449
:1023D000E92FF0E0DF01AA0FBB1FEA0FFB1FE65B4E
:1023E000FD4F8183608342839F5FF0CF0C94B911CE
:1023F0000895CF93DF9300D01F92CDB7DEB79091B1
:10240000450290FF0AC09E012F5F3F4F0E94C410FB
:102410004B8169818A810E94DE110F900F900F908D
:10242000DF91CF910895CF93DF93EC01EC81F0E041
:10243000E05EF94F4491E5E4F2E0628181810E941F
:10244000F9118C818F5F8C83DF91CF910895CF93A9
:10245000DF93EC01E5E4F2E0438162818C810E942C
:10246000F9118C818F5F8C83DF91CF9108950F9349
:102470001F93CF93DF9300D01F92CDB7DEB78C01AF
:102480008091780181110AC09E012F5F3F4F4FEF6D
:102490006FEF0E94C4108A8180937801F8018481D3
:1024A000813051F028F0823061F4409178010AC007
:1024B0008091780140E007C06091780140E080E0C1
:1024C00003C040E080E060E00E94DE11F80124815A
:1024D00030E0C901019663E070E00E943A338483E2
:1024E0000F900F900F90DF91CF911F910F91089552
:1024F0006F927F928F929F92AF92BF92CF92DF9214
:10250000EF92FF920F931F93CF93DF9300D000D0F1
:10251000CDB7DEB7182FD62E042FB22E90914502DC
:1025200090FFAAC0E92FE695AE2FB0E0A35DBE4FA5
:102530008C91809384019E7F923061F49E012F5F85
:102540003F4F812F0E94C4104B8169818A810E9474
:10255000DE1160C0823019F4009148025BC0863001
:1025600019F41091460256C08930D9F3893109F027
:1025700051C0E9518E2F80958170C82EE695F0E00C
:10258000E05EF84FE590F490A12CFF2420EB822E22
:1025900023E0922E60910201A616D0F56A2C712CD0
:1025A0006E9CC0016F9C900D7E9C900D112470E07C
:1025B0000E942633812FCC2011F0860F01C0861B8C
:1025C00090911C0290FF13C0FF92EF921F92CF9246
:1025D0001F928F931F92AF929F928F928C830E9433
:1025E0000A090FB6F894DEBF0FBECDBF8C81909163
:1025F0007B01690E711C9301220F331F260D371DBD
:10260000265B3D4F402F6D2D0E94C410A394C2CF76
:102610000E94B91110934602D092470200934802DB
:10262000BB20C9F06091450270914602809147023B
:10263000909148020E94E910809148021F928F9366
:10264000809147021F928F93809146021F928F9331
:102650008BE893E008C01F920F931F92DF921F92A6
:102660001F9384E693E09F938F930E940A090FB60D
:10267000F894DEBF0FBECDBF0F900F900F900F905C
:10268000DF91CF911F910F91FF90EF90DF90CF904E
:10269000BF90AF909F908F907F906F900895E5E4EA
:1026A000F2E09181282F438162818AE0890F0C94A6
:1026B000781281E00C944F13E5E4F2E09181282F29
:1026C0004381628186EF890F0C94781281E00C942B
:1026D0005C13E5E4F2E0628121E1620F08F46FEF40
:1026E000282F438181810C94781281E00C94691326
:1026F000E5E4F2E0628121E1621B08F460E0282F4A
:10270000438181810C94781281E00C947813E5E484
:10271000F2E0438121E1420F08F44FEF282F62815C
:1027200081810C94781281E00C948713E5E4F2E047
:10273000438121E1421B08F440E0282F628181811E
:102740000C94781281E00C94961320E00C9478128B
:10275000FF920F931F93CF93DF93EC01F12C0FEFB8
:1027600010E060910201F616E8F420917B0130E060
:102770002F0D311DC901880F991F280F391F265BA6
:102780003D4F70E0C8010E943A33962F8C814091F2
:10279000480260914702F99E800D11240E94C410E6
:1027A000F394DFCF0E94B9119A818C8190FF02C00F
:1027B0008F5F01C081508C83DF91CF911F910F916A
:1027C000FF900895BF92CF92DF92EF92FF920F9306
:1027D0001F93CF93DF93FC01828180FF02C00FEF34
:1027E00001C001E010E0809102011817E0F5C12E50
:1027F000D12C80917B01E601C80FD11DCE01880F3D
:10280000991FC80FD91FC65BDD4F198218821A8223
:1028100034E0E32EF12CB12C80917A018B0D87FFEF
:1028200003C090910201890F082E000C990BC81665
:10283000D90691F4809148028E9DA0018F9D500D84
:10284000112455954795559547959E0160914702EE
:10285000809146020E94C410B00EF1E0EF1AF10818
:10286000D9F61F5FC0CF0E94B91180917A01013063
:1028700031F4811102C080910201815007C090E0C3
:1028800001966091020170E00E943A3380937A01D0
:10289000DF91CF911F910F91FF90EF90DF90CF903C
:1028A000BF900895CF9380917B0190910301891788
:1028B00070F4E82FF0E09F01220F331FE20FF31FA7
:1028C000E65BFD4F1182108212828F5FF0CFC0E075
:1028D00060910201C617B8F5EC2FF0E070E0CF016F
:1028E0000E943A3340917B01480F80917901082E74
:1028F000000C990B50E0E817F907C4F02091010192
:10290000022E000C330B2E173F0784F09A01220F82
:10291000331F240F351F265B3D4F409148026091C5
:102920004702809146020E94C4100BC0FA01EE0FCC
:10293000FF1F4E0F5F1FFA01E65BFD4F11821082F1
:102940001282CF5FC5CF0E94B91120910001809102
:102950007901820F8093790190910101920F9093F8
:10296000010119165CF4082E000C990B409102012C
:1029700050E041505109841795071CF02195209390
:102980000001CF9108950F931F93CF93DF938C0194
:10299000FC018481958101968170992795838483B8
:1029A000C0E0D5E580910201C817F8F420917B01C1
:1029B00030E02C0F311DC901880F991F280F391FD6
:1029C000265B3D4F4C2F4695F80184819581840FFD
:1029D000911D817040914802609147028D9F802D2A
:1029E00011240E94C410CF5FDDCFDF91CF911F91E2
:1029F0000F910C94B9110F931F93CF93DF93EC01B8
:102A000000E010E080910201282F30E00217130748
:102A100024F590917B019801290F311DA901440FE4
:102A2000551F240F351F265B3D4F869590E04C8146
:102A3000081719071CF4442331F002C0411103C0E8
:102A40004091480201C040E06091470280914602F7
:102A50000E94C4100F5F1F4FD5CF0E94B9112C8167
:102A600030E02F5F3F4F217033272C83DF91CF91D0
:102A70001F910F91089560914502669570E04BE0BB
:102A800050E085E091E00E949033892B19F481E0B9
:102A9000809385010E94852690937E0180937D011D
:102AA00080911C0280FF08C08BE493E09F938F937A
:102AB0000E940A090F900F9008951092850180914D
:102AC0001C0280FF08C082E393E09F938F930E94D3
:102AD0000A090F900F9008959091450290FF4CC005
:102AE0009170811102C0926006C0853210F0986426
:102AF00002C0880F982B90934502662391F0609155
:102B000045027091460280914702909148020E94CE
:102B1000E9108091450286951F928F938BE994E08E
:102B200007C08091450286951F928F938DE794E0B0
:102B30009F938F930E940A090F900F900F900F9010
:102B400060914502669570E04BE050E085E091E0D1
:102B50000E949033892B19F00E945D1502C00E94DB
:102B60003B1581E0809380014091480260914702CB
:102B7000809146020C94A5130895682F9091450208
:102B8000969581E0890F853208F081E00C946C15F0
:102B900081E00C94BD15682F9091450296958FEFBA
:102BA000890F09F484E20C946C1581E00C94CB1528
:102BB00061E00C946C15CF93DF93C5E4D2E088817B
:102BC000816088831F9281E08F938FE094E09F93D0
:102BD0008F930E940A090F900F900F900F90888199
:102BE0008695DF91CF910C94D81560E00C946C150C
:102BF00080918301811161C080911C02816080936A
:102C00001C028EE395E09F938F930E940A098091A6
:102C10001C020F900F9080FF08C088E295E09F9300
:102C20008F930E940A090F900F900E94C524811172
:102C300010C080911C0280FF08C080E095E09F9347
:102C40008F930E940A090F900F900E9448250E94BE
:102C500005110E94E510609345027093460280932F
:102C60004702909348026E7FC1F480911C0280FF5E
:102C700008C087EB94E09F938F930E940A090F90FE
:102C80000F900E9405110E94E51060934502709319
:102C9000460280934702909348020E94D2100E94FD
:102CA0001411109285018091450280FF03C0869522
:102CB0000E94F51581E0809383010895CF93DF93FF
:102CC000C5E4D2E088818E7F8883688179818A819A
:102CD0009B810E94E910888181701F928F9387EDFC
:102CE00093E09F938F930E940A090E945D152FEF36
:102CF00080E792E0215080409040E1F700C0000062
:102D00000F900F900F900F90DF91CF910C94B9110D
:102D100080914502809581701F928F9386E494E0A4
:102D20009F938F930E940A09809145020F900F9004
:102D30000F900F9080FD0C945E160C94DB150F9392
:102D40001F93CF93DF9380918501882309F48CC072
:102D500080918401E0914502E695E81BE0937F01B4
:102D6000823049F4F0E0E45EF94FE491CE2FD0E0F8
:102D700003E112E149C0863049F4F0E0E75EF94F23
:102D8000E491CE2FD0E007E212E13EC0893051F449
:102D9000E695F0E0EA5EF94FE491CE2FD0E008EA44
:102DA00013E132C08F3051F4E695F0E0ED5EF94F5B
:102DB000E491CE2FD0E002EE13E126C0853149F434
:102DC000F0E0E05FF94FE491CE2FD0E002E514E1AE
:102DD0001BC0883181F0833239F4EEE0F6E0C59112
:102DE000D49107E312E110C0843251F4C4EFD1E072
:102DF0000BEF14E109C0C8EED3E003EC14E104C00A
:102E0000C0EDD7E003EC10E180918001882389F0C8
:102E1000109280010E9485269E0120953095820F98
:102E2000931F90937E0180937D01109282011092F6
:102E3000810180917D0190917E010E949D268C17D9
:102E40009D0790F0E0917D01F0917E01CE0FDF1F94
:102E5000D0937E01C0937D018DE791E0F801DF9171
:102E6000CF911F910F910994DF91CF911F910F91F5
:102E700008952BB1342F309523233BB1432B3FB71B
:102E8000F894FC01680F791FE617F70789F0819124
:102E900098E04BB9000000C087FF2BB9880F0000F5
:102EA00000C000C000C02BB900C09A9591F7ECCFCC
:102EB0003FBF08952AB1242B2AB99B01220F331F4B
:102EC000620F731F0E94391787EC90E00197F1F7AA
:102ED00000C00000089548E00C945A170F931F9308
:102EE000CF93DF93C62FD42F022FFC01828188233A
:102EF000C9F0609388010E94852690938701809392
:102F0000860180E28C0F883008F050C0C77081E0E5
:102F100001C0880FCA95EAF7DF91CF911F910F91F9
:102F20000C94891B10918801161330C08091860182
:102F3000909187010E949D26883C910538F5C0E25A
:102F4000CD0F1D17B9F080E2810F883040F4177063
:102F500081E001C0880F1A95EAF70E94901BC830E3
:102F600048F481E09D2F977001C0880F9A95EAF789
:102F70000E94891B802F0E94761BC830B8F4D7703E
:102F800081E001C0880FDA95EAF70AC080E28C0F71
:102F9000883060F4C77081E001C0880FCA95EAF7F5
:102FA000DF91CF911F910F910C94901BDF91CF91E6
:102FB0001F910F9108959C01CB01203F4CE53407F0
:102FC000F9F078F4283DFCE53F07B9F0293D4CE5E0
:102FD000340711F1273D3C4531F526E241EE61EE23
:102FE0001EC0223FFCE53F0799F070F0233F3C45AF
:102FF000D1F427E245EE66EE12C027E245EE0EC0A0
:1030000026E241EE60EE0BC027E245EE64EE07C01B
:1030100026E241EE62EE03C028E241E065EE0E9446
:103020006E1780E00895FC018281882319F01092C8
:103030008801089581E0089590938E0180938D0119
:103040000895E0918D01F0918E01309721F001906B
:10305000F081E02D099480E00895EF92FF921F9394
:10306000CF93DF93FC01A0918D01B0918E01109759
:1030700009F442C080911C01882341F080915A02DA
:1030800087FF04C08081818385E08083EF011296F1
:10309000ED91FC911397CE01099580911C0282FF5E
:1030A0002BC080FF04C08DE298E00E94710818E0F8
:1030B00087E2E82E88E0F82E80911C0280FF0BC08A
:1030C00088811F928F93FF92EF920E940A090F90BE
:1030D0000F900F900F90115021961111EDCF80910C
:1030E0001C0280FF09C085E298E0DF91CF911F911B
:1030F000FF90EF900C947108DF91CF911F91FF909A
:10310000EF90089520918B0130918C0182179307E5
:1031100071F090938C0180938B01E0918D01F0917F
:103120008E01309721F00680F781E02D09940895F3
:103130002091890130918A018217930771F0909351
:103140008A0180938901E0918D01F0918E01309781
:1031500021F00084F185E02D0994089585B78068F9
:1031600085BF85B7806885BF0895089508950C943C
:10317000B61808950C94B9180E94AE180E94B5189C
:103180000C94B71881E008950E947C260E94F90EE5
:103190000E9411270E94212A0E94F8150C94BA1847
:1031A000CF93C82F80911C0282FF1EC080FF04C0F5
:1031B00086E498E00E94710880911C0280FF0CC098
:1031C0001F92CF9381E498E09F938F930E940A0906
:1031D0000F900F900F900F9080911C0280FF04C001
:1031E0008FE398E00E9471088C2FCF910C94EA092C
:1031F0004F925F927F928F929F92AF92BF92CF92A7
:10320000DF92EF92FF920F931F93CF93DF93CDB78F
:10321000DEB72A970FB6F894DEBF0FBECDBF0E946F
:10322000570F0E94C218811111C08FEF89838A83C2
:103230001B820E9485268160782F9D838C83498123
:103240005A816B818D810E94B41957C090E9C92EB3
:1032500091E0D92E00E010E0AA24A394B12C702EA6
:10326000802F0E94A90E4C01F601419051906F01F0
:10327000482659264114510431F40F5F1F4F043082
:10328000110569F7D2CF80911C0281FD0E94B20E18
:1032900020E030E07501022E02C0EE0CFF1C0A9403
:1032A000E2F7C70184219521892B09F12E837F82C2
:1032B0008E209F2091E0892809F490E098870E9451
:1032C00085268160782F9A8789874E815F816885FE
:1032D0008A850E94B419000F111FF801E057FE4FB4
:1032E00080819181E826F926F182E08206C02F5F75
:1032F0003F4F2C30310571F6C0CF10918F010E94E5
:1033000021181817D9F00E94211880938F012A964E
:103310000FB6F894DEBF0FBECDBFDF91CF911F91E6
:103320000F91FF90EF90DF90CF90BF90AF909F9064
:103330008F907F905F904F900C94D0182A960FB684
:10334000F894DEBF0FBECDBFDF91CF911F910F91DB
:10335000FF90EF90DF90CF90BF90AF909F908F90B5
:103360007F905F904F900895CF93DF93CDB7DEB7F6
:103370002B970FB6F894DEBF0FBECDBF4F83588793
:1033800069877A878B87DE01119686E0FD011192AD
:103390008A95E9F785E0FE01379601900D928A95AE
:1033A000E1F749815A816B817C818D819E810E94E8
:1033B000D5202B960FB6F894DEBF0FBECDBFDF91A0
:1033C000CF910895FC01808191810E94A1230895ED
:1033D000CF93DF931F92CDB7DEB7882309F423C1C3
:1033E000682F8238C1F40E94211881FD1CC169E355
:1033F00080911001909111010E94D1250E942C24EE
:103400002FEF81EE94E0215080409040E1F700C022
:10341000000069E319C0833811F50E94211880FD6E
:1034200002C163E580911001909111010E94D125A4
:103430000E942C242FEF81EE94E021508040904098
:10344000E1F700C0000063E5809110019091110147
:103450000E94DC250F90DF91CF910C942C248438AE
:10346000C1F40E94211882FDDEC067E48091100142
:10347000909111010E94D1250E942C242FEF81EE02
:1034800094E0215080409040E1F700C0000067E4E4
:10349000DBCF8CEF860F813A70F4862F69830E9410
:1034A000D82969818111BFC08091100190911101CB
:1034B0000E94D125CFCF80E2860F883048F4677014
:1034C00081E001C0880F6A95EAF70E94E323C2CF2A
:1034D0008BE5860F833088F4653A29F0663A31F03F
:1034E00083E890E005C081E890E002C082E890E0C7
:1034F0000F90DF91CF910C94821888E5860F873169
:1035000008F091C0683A09F445C0693A09F445C029
:103510006A3A09F445C06B3A09F445C06C3A09F4BB
:1035200045C06B3B09F445C06C3B09F445C06D3A9E
:1035300009F445C0603B09F445C06E3A09F445C042
:103540006F3A09F445C0613B09F445C0623B09F498
:1035500045C0633B09F445C0643B09F445C0653B85
:1035600009F445C0663B09F445C0673B09F445C012
:10357000683B09F445C0693B09F445C06D3B09F45B
:1035800045C06E3B09F445C06A3B09F445C080E084
:1035900090E044C082EE90E041C089EE90E03EC0F1
:1035A0008AEE90E03BC085EB90E038C086EB90E07F
:1035B00035C083EB90E032C084EB90E02FC087EB06
:1035C00090E02CC08CEC90E029C08DEC90E026C0FF
:1035D00083E891E023C08AE891E020C082E991E08D
:1035E0001DC084E991E01AC081E292E017C083E235
:1035F00092E014C084E292E011C085E292E00EC035
:1036000086E292E00BC087E292E008C08FE690E08D
:1036100005C080E790E002C08AE292E00F90DF915F
:10362000CF910C9498180F90DF91CF910895882333
:1036300009F45BC0682F823879F40E94211881FF59
:1036400054C069E380911001909111010E94D1252D
:103650000E942C2469E310C08338B1F40E94211821
:1036600080FF43C063E580911001909111010E9499
:10367000D1250E942C2463E58091100190911101C5
:103680000E94DC250C942C24843879F40E942118A3
:1036900082FF2BC067E480911001909111010E947C
:1036A000D1250E942C2467E4E7CF8CEF860F813A66
:1036B00018F380E2860F883048F4677081E001C01B
:1036C000880F6A95EAF70E94E923DCCF8BE5860F25
:1036D000833020F480E090E00C948218685A6731BF
:1036E00020F480E090E00C9498180895CF93C82FB0
:1036F0000E94E819C93349F42FEF83EC99E0215077
:1037000080409040E1F700C000008C2FCF910C94D6
:10371000171B882321F00E94E3230C942C24089586
:10372000882321F00E94E9230C942C2408954F92C1
:103730005F926F927F92BF92CF92DF92EF92FF9251
:103740000F931F93CF93DF937C01D62FC72FFC01DC
:10375000058102950F70128111110E9400240E94B0
:10376000D923882379F0112369F080E28D0F883006
:1037700048F082E00E9477240E94D92391E0B82E7D
:10378000B92601C0B12CCC2EC2948FE0C822D12C16
:10379000F601E859FF4F0C9470338C2F807FCF7067
:1037A000882311F0C295C07F112399F0CC2309F42E
:1037B0008EC180E28D0F883010F0D11104C08C2FA3
:1037C0000E94E32303C08C2F0E94F3230E942C2429
:1037D0007EC18D2F0E94171BCC2309F4C1C180E24A
:1037E0008D0F883010F0D11104C08C2F0E94E92376
:1037F00003C08C2F0E94F9230E942C24B1C18C2F6E
:10380000807FCF70803211F0C295C07FDD2319F028
:10381000D130C9F022C0112371F0002341F00130F2
:1038200031F40E9413248C2B0E94192499C10E9408
:1038300013248C2B1DC0002319F0013009F490C112
:103840000E9422241AC0112321F0063008F088C1FA
:103850000EC0053008F084C110C0112361F00023B0
:1038600031F0F701858180FF32C18F7085838C2F05
:103870000E94891B75C101113BC18C2FE6C08C2FA2
:1038800086958695837090E0009719F0019761F016
:1038900067C1112321F08D2F9C2F937002C080E00F
:1038A00090E00E9482186CC1112321F08D2F9C2F73
:1038B000937002C080E090E00E94981861C18C2F44
:1038C000837009F050C0111157C18D2F82958695D4
:1038D0008770880F880F9D2F9F70492E512C612C67
:1038E000712C082E04C0440C551C661C771C0A94CD
:1038F000D2F7D4FF14C00FE010E020E030E0B901AF
:10390000A80104C0440F551F661F771F8A95D2F780
:10391000CB01BA01609570958095909503C060E0E9
:1039200070E0CB01C695C695C370D0E0C230D1051A
:1039300061F0C330D10581F0642975298629972962
:10394000219771F00E941A2217C1642975298629CE
:1039500097290E942C2210C10E941A22C301B20191
:103960000E94082209C1112319F08C2F817001C017
:103970008695882309F400C18D2F829586958770DE
:10398000880F880F9D2F9F70492E512C612C712C10
:10399000082E04C0440C551C661C771C0A94D2F7F0
:1039A000D4FF14C00FE010E020E030E0B901A8011E
:1039B00004C0440F551F661F771F8A95D2F7CB01AD
:1039C000BA01609570958095909503C060E070E0B5
:1039D000CB01C695C695C3704C2F50E042305105BF
:1039E00069F04330510589F06429752986299729A2
:1039F0004130510571F00E94E022BEC06429752952
:103A0000862997290E94F222B7C00E94E022C301B2
:103A1000B2010E94CE22B0C08D2F90E0FC01E05E8A
:103A2000F109E531F10508F04EC0E858FF4F0C945C
:103A30007033DF708C2F8F71112321F00E94672269
:103A40008D2F16CF0E9488228D2F0E94901B88C038
:103A5000112341F0053008F083C08C2F8F710E9434
:103A6000AD227EC0063008F07BC0F7CF112339F0BD
:103A70008C2F8F710E94672273C01123C9F38C2F82
:103A80008F710E9488226CC0112329F08C2F8F71B6
:103A90000E94522265C00E944D2262C0112349F04B
:103AA000CF718C2F0E94672263E08C2F0E946224CA
:103AB00057C081E00E947724023008F451C082E0B0
:103AC0000E9477244DC0112331F0002389F28D2FFD
:103AD0000E94E81945C0002391F2D93349F45FEF01
:103AE00063EC79E0515060407040E1F700C00000A5
:103AF0008D2F0E94171B34C04C2F4F706D2FC701A4
:103B00000E94F60B0E9479213BC0111139C0CF7081
:103B1000D0E0C230D10599F03CF4209769F02197AC
:103B2000F9F40E946E2A2CC0C430D10571F054F013
:103B30002597B1F480E00AC00E943E2A21C00E946D
:103B4000D82A1EC00E94F42A1BC084E00E942A2B9F
:103B500017C04C2F4F706D2FC7010E94F90B10C07A
:103B600088E0C816D10441F05CF0EAE0CE1AD10832
:103B7000F2E0CF16D10420F40E9421180E94EA0935
:103B8000BB20F1F00E94D52380FD1AC0F7011282FC
:103B90000E94CF230E946722C7010E94EE1D0E944F
:103BA000CF23DF91CF911F910F91FF90EF90DF9086
:103BB000CF90BF907F906F905F904F900C94882231
:103BC000DF91CF911F910F91FF90EF90DF90CF90F9
:103BD000BF907F906F905F904F9008950F931F93C9
:103BE000CF93DF93EC01888199812B813C81232B3A
:103BF000B9F09F3F11F48F3F99F0CE010E94FC096C
:103C0000882371F0688179818A810E94AC238C01BC
:103C10000E9404230E940522B801CE010E94971B36
:103C2000DF91CF911F910F9108950E9400240E946F
:103C300010240E942C2480E090E00E94821880E0F2
:103C400090E00C94981880911001909111010E94BD
:103C5000E7250C94151E0E94F0230C94231EE92FD7
:103C6000E295EF70F0E03297EE30F105B0F4E357F3
:103C7000FF4F0C947033803F91F018F4803E68F44D
:103C80000EC0843F51F40BC0803E48F0813F29F4C0
:103C900006C093FB882780F9089580E0089581E0AD
:103CA00008950E94A1230E942F1E0895CF93DF93B1
:103CB00000D000D01F92CDB7DEB70F900F900F90BD
:103CC0000F900F90DF91CF910895CF93DF9300D0A5
:103CD00000D000D0CDB7DEB726960FB6F894DEBF81
:103CE0000FBECDBFDF91CF9108951F93CF93DF9388
:103CF000C091990116E080919A01C81799F0D0E01F
:103D00001C9FF0011D9FF00D1124E556FE4F4081D0
:103D1000518162817381848195810E94651E219603
:103D2000C770E9CFDF91CF911F9108954091CB01EA
:103D30005091CC016091CD017091CE018091CF0165
:103D40009091D0010C94651E8091D00182958F7066
:103D500009F054C08091CD01882309F44FC08091AF
:103D60009901A0919A016091CB017091CC01409191
:103D7000CE015091CF01B6E08A1709F43FC090E020
:103D800041155105C1F17F3F11F46F3FA1F1B89F7B
:103D9000F001B99FF00D1124E556FE4F21817213F9
:103DA0002AC02081621327C02281211124C02381CF
:103DB00034812417350710F421503109241B350BA9
:103DC000283C3105C0F42091D0012F702061209350
:103DD000D00126E0289FF001299FF00D1124E05624
:103DE000FE4F80818F70806180838BEC91E00E9418
:103DF000EE1D0C94751E01968770BECF0895CF926C
:103E0000DF92EF92FF920F931F93CF93DF93CDB783
:103E1000DEB762970FB6F894DEBF0FBECDBF8C0140
:103E200085E0F801DE011D9601900D928A95E1F77B
:103E3000D8014C9111965C91119712966C91129742
:103E40001396CD90DC9014973091CB017091CC01FA
:103E50008091CE019091CF01009709F46BC17F3F13
:103E600019F43F3F09F466C1E090CD01EE2009F45A
:103E7000C0C02091D001C816D90628F0F601E81B71
:103E8000F90BCF0104C0809590958C0D9D1DFF24EA
:103E9000F394883C910578F0F12C207F09F0C6C09E
:103EA0007C2DD98AC88A89890E94561E8BEC91E0A4
:103EB0000E94EE1DB1C0822F807F09F046C07513AD
:103EC00014C0341312C0611110C02F7020612093F0
:103ED000D0010E94961E8BEC91E00E94EE1D809115
:103EE000D001D80115968C932EC0CD2819F15F3FD3
:103EF00011F44F3FF9F0F62E61111CC08091990129
:103F000020919A0136E0821709F45AC090E0389F58
:103F1000F001399FF00D1124E556FE4F71815713C2
:103F200006C07081471303C07281711103C00196EE
:103F30008770E9CFF62E662309F427C18091D0015E
:103F400081608093D001F12C20C1751308C0341317
:103F500006C0611104C08091D001D801C3C04D8753
:103F60005E878D859E856A8B0E94511E6A89882393
:103F7000E1F16623D1F12091D001822F82958F70DB
:103F800090E0029774F08091CB019091CC019887DA
:103F90008F831986DB86CA862C87CE0107960E94FE
:103FA000EE1D86E0F801ABECB1E001900D928A9530
:103FB000E1F70E94A41E0E94961EFF24F394E5C020
:103FC0004D875E878D859E850E94A123292F22958E
:103FD0002F7030E0223031050CF0CBC09F7009F01B
:103FE000C5C0805E883008F4D0C0C8010E94EE1DB4
:103FF000E4CFC816D90608F453C0F601E81BF90B44
:10400000CF01883C910508F450C0F12C7C2DD98A51
:10401000C88A89890E94561EEBECF1E086E0DF0138
:104020001D928A95E9F70E94961EAFC0751314C0C1
:10403000341312C0611110C08091D001F801858342
:10404000C8010E94EE1D86E0EBECF1E0DF011D925D
:104050008A95E9F7FE2C99C04D875E878D859E85F0
:104060006A8B0E94511E6A89882309F4BECF662399
:1040700009F4BBCF2091D001822F82958F7090E000
:1040800002970CF48ECF8091CB019091CC019A8352
:1040900089831B82DD82CC822E83CE0101967FCF65
:1040A000809590958C0D9D1DACCFF62E662309F45E
:1040B0009CCF75132EC034132CC02091D00120FD4D
:1040C0001FC0822F82958F70D9F0D80115962C933E
:1040D00015978F3049F08F5F982F9295907F822FA0
:1040E0008F70892B15968C93C8010E94EE1D86E077
:1040F000F801ABECB1E001900D928A95E1F793CF16
:1041000086E0F801ABECB1E001900D928A95E1F701
:104110003CC04D875E878D859E850E94511E811112
:1041200040CF8091D00181608093D001C8010E946E
:10413000EE1D2BC0662309F458CF4D875E878D8511
:104140009E850E94511EF82E882309F44ECF86E0EA
:10415000F801ABECB1E001900D928A95E1F78BECA0
:1041600091E00E94E2190E94A41E5DCF811139CF17
:104170000CC0243031050CF038CF9F7009F431CFDA
:10418000F8019581907F09F02CCF8F2D62960FB6A4
:10419000F894DEBF0FBECDBFDF91CF911F910F917D
:1041A000FF90EF90DF90CF9008951F93CF93DF9310
:1041B000CDB7DEB72C970FB6F894DEBF0FBECDBFDC
:1041C0004F83588769877A878B879C87CE010796AC
:1041D0000E94FF1E882369F08F8198852A853B8580
:1041E000232BF1F19F3F09F063C08F3F09F060C0BE
:1041F00037C086E0FE013796DE01119601900D92E0
:104200008A95E1F76F817885EA85FB85309741F1E2
:104210007F3F11F46F3F21F120919A0130E0C901F5
:104220000196877099274091990150E0841795076E
:1042300009F447C069837A83FD83EC8396E0929FFB
:10424000D001939FB00D1124A556BE4FFE013196AB
:1042500001900D929A95E1F780939A010E94751E44
:1042600016E08091990190919A018917C1F1189FE8
:10427000C001112485569E4F0E94FF1E882379F1AC
:10428000E09199011E9FF0011124E556FE4F4081F7
:10429000518162817381848195810E94651E809124
:1042A000990190E001968770992780939901D9CF61
:1042B0004F81588569857A858B859C850E94651E0E
:1042C000CFCF0E942B1E10929A0110929901EBEC15
:1042D000F1E086E0DF011D928A95E9F7C1CF2C96C7
:1042E0000FB6F894DEBF0FBECDBFDF91CF911F9107
:1042F0000895EF92FF920F931F93CF93DF938C015A
:10430000892B09F46CC0F12CEE24E394E80121968A
:10431000F8018491843740F4843008F051C0813032
:1043200081F0823019F15BC0853709F444C0A8F1EF
:104330009CE7980F903708F052C08F770E94171BA8
:1043400041C00E5F1F4FFE01C49180E28C0F883088
:1043500048F4C7708E2D01C0880FCA95EAF70E94F5
:10436000032414C08C2F0E94E8192DC00E5F1F4F2C
:10437000FE01C49180E28C0F883058F4C7708E2DF6
:1043800001C0880FCA95EAF70E9409240E942C24D4
:104390001AC08C2F0E94171B16C00E5F1F4FFE0104
:1043A000C491CC2381F08FE99FE00197F1F700C021
:1043B0000000C150F6CF0E5F1F4FFE01F49003C006
:1043C0000E94E8198E018F2D882309F49FCFEFE911
:1043D000FFE03197F1F700C000008150F5CFDF9189
:1043E000CF911F910F91FF90EF90089508950C9435
:1043F000F6210E94F7216093F3017093F4018093FA
:10440000F5019093F6010C94151E08950C94F92172
:104410000F931F930091F3011091F4012091F50186
:104420003091F601602B712B822B932B1F910F91F2
:104430000C94F9210F931F930091F3011091F40153
:104440002091F5013091F60160237123822393239B
:104450001F910F910C94F9210F931F930091F30179
:104460001091F4012091F5013091F6016027712738
:10447000822793271F910F910C94F92108950C9492
:104480003E220E943F226093EF017093F0018093DF
:10449000F1019093F2010C94151E60E070E0CB01E5
:1044A0000C9441220F931F9341E050E060E070E0D4
:1044B0008A019B0104C0000F111F221F331F8A9520
:1044C000D2F7C901B8011F910F910C9441220F93AB
:1044D0001F9341E050E060E070E004C0440F551FBE
:1044E000661F771F8A95D2F78091EF019091F001B6
:1044F000A091F101B091F2018A019B01082B192BC7
:104500002A2B3B2BC901B8011F910F910C9441221A
:104510000F931F9341E050E060E070E004C0440F4F
:10452000551F661F771F8A95D2F740955095609565
:1045300070958091EF019091F001A091F101B091FF
:10454000F2018A019B01082319232A233B23C90175
:10455000B8011F910F910C9441220F931F9341E0DA
:1045600050E060E070E004C0440F551F661F771FE5
:104570008A95D2F78091EF019091F001A091F1011D
:10458000B091F2018A019B01082719272A273B27AE
:10459000C901B8011F910F910C9441220F931F93F1
:1045A0000091EF011091F0012091F1013091F201A1
:1045B000602B712B822B932B1F910F910C94412216
:1045C0000F931F930091EF011091F0012091F101E1
:1045D0003091F20160237123822393231F910F9165
:1045E0000C9441220F931F930091EF011091F00161
:1045F0002091F1013091F2016027712782279327E2
:104600001F910F910C94412208952CE0929F800DF0
:104610001124A82FA695A695A695877051E001C0F4
:10462000550F8A95EAF785E0A89FD001112420E074
:1046300030E070E0F901EA0FFB1FEF52FE4F4081BE
:10464000CB01022E02C0969587950A94E2F78170FD
:104650009927819584278523842780832F5F3F4F67
:104660002530310539F708952CE0929F800D1124F3
:10467000682F669566956695982F977085E0689F78
:10468000B001112440E050E080E0FA01E60FF71F8E
:10469000EF52FE4F208130E0092E02C0369527955B
:1046A0000A94E2F721703327042E01C0220F0A94E6
:1046B000EAF7822B4F5F5F4F4530510531F7089580
:1046C000BF92CF92DF92EF92FF920F931F93CF93FF
:1046D000DF938C01C090F301D090F401E090F501DC
:1046E000F090F6018091EF019091F001A091F1011D
:1046F000B091F201C82AD92AEA2AFB2ACFE1D0E0F8
:10470000D701C6010C2E04C0B695A795979587953D
:104710000A94D2F780FF07C0BC2EB8018C2F0E94EC
:10472000140C019719F4219758F7B12C8B2DDF91B8
:10473000CF911F910F91FF90EF90DF90CF90BF909E
:104740000895CF93DF93EC010E946023BE010E9485
:10475000140CDF91CF9108951F93CF93DF93EB015A
:1047600090919801992321F0CB010E94A12313C0BD
:10477000882349F0CB010E946023182F682FCE01B7
:104780000E94052304C0CB010E943423182FBE01D0
:10479000812F0E94140CDF91CF911F910895809179
:1047A000F70185958595859508958091F701877026
:1047B00008959091F701977081E009F480E00895E1
:1047C00080911B02089590911B02892B80931B02FC
:1047D0000895809590911B02892380931B02089570
:1047E00010921B02089590911A02892B80931A024D
:1047F0000895809590911A02892380931A02089552
:1048000010921A02089590911902892B809319022F
:104810000895809590911902892380931902089533
:104820001092190208958091F801089508950C944A
:1048300016249091F801981721F08093F8010C94B8
:10484000172408958091F801882329F01092F80127
:1048500080E00C9417240895E0911001F09111016B
:1048600080911B028083E0911001F09111019081F1
:1048700080911A02892B8083E0911001F09111013F
:10488000908180911902892B80838091F80188237F
:1048900081F0E0911001F09111019081892B8083CA
:1048A00080911001909111010E944A2581110E946E
:1048B000222480911001909111010C942D180895DB
:1048C0000C945F2498E0899F90011124262B20935B
:1048D000F7010E9467228091F7018595859585955E
:1048E0000C9460241092F70180E00C9460242091D5
:1048F000F701809582238093F701982F977079F4C0
:1049000030E0482F082E000C550B2417350739F0DE
:104910008595859585950E9488220C94722408952A
:10492000909363018093620108958295982F9C7CF7
:10493000392F36953695282F237344E0249FC001E4
:104940001124932F982B292F2A7A2695892F857544
:10495000880F822B08951F93CF93DF931F92CDB7BB
:10496000DEB799830E949524182F9981892F0E9480
:104970009524212F30E0322F2227A901482BCA018C
:104980000F90DF91CF911F91089580E090E00E94F9
:10499000AB3321E08D3E9E4F09F020E0822F089539
:1049A00082E090E00C949D3383E090E00C949D3382
:1049B00084E090E00C949D33682F84E090E00C94A8
:1049C000B13386E090E00C949D33682F86E090E050
:1049D0000C94B133AB01BC018FE090E00C94C33375
:1049E000AB01BC0183E190E00C94C33360E070E064
:1049F000CB010C94F02460E070E0CB010E94EA242B
:104A00000C94F6246DEE7EEF80E090E00E94CF33B0
:104A100060E082E090E00E94B13360E083E090E0EB
:104A20000E94B1331092F3011092F4011092F5013B
:104A30001092F60160E084E090E00E94B13360E003
:104A400085E090E00E94B13360E086E090E00E9453
:104A5000B1336FEF87E090E00E94B13340E050E067
:104A6000BA0188E090E00E94C33360E08DE090E0FE
:104A70000E94B13340E050E0BA0188E190E00E942A
:104A8000C33360E087E190E00E94B1330C94FB24D3
:104A90000C940225FC01329680911C01882331F090
:104AA00080915A0287FF02C09EE101C096E080E03B
:104AB000915028F021912223D9F38F5FF9CF0895E7
:104AC0009C01FC0132969FEF80E04191461789F0EE
:104AD0009F3F19F4411101C0982F8F5F8630A9F7CD
:104AE0009F3F39F0F901E90FF11D97FDFA956283B7
:104AF00008950895FC01329608962081261301C07E
:104B000010823196E817F907C1F70895262F2695E8
:104B1000269526952E3170F4FC01E20FF11D677089
:104B200021E030E001C0220F6A95EAF78281282B4C
:104B30002283089580911C0280FF0CC01F926F9306
:104B400087E798E09F938F930E940A090F900F9038
:104B50000F900F900895262F2695269526952E3195
:104B600078F4FC01E20FF11D677021E030E001C034
:104B7000220F6A95EAF720958281282322830895DF
:104B800080911C0280FF0CC01F926F9389E598E012
:104B90009F938F930E940A090F900F900F900F9090
:104BA000089520911C01222329F020915A0227FD0B
:104BB0000C9486250C94602520911C01222329F059
:104BC00020915A0227FD0C94AB250C947A25209154
:104BD0001C01FC013296222331F080915A0287FF9A
:104BE00002C08EE101C086E0DF011D928A95E9F7DF
:104BF000089508950C94F9250E94FA258091610288
:104C0000843061F110921D0220E488E190E00FB63B
:104C1000F894A895809360000FBE2093600080E018
:104C20000E94720980E00E94EA090E94FA2583B777
:104C3000817F846083BF83B7816083BF78948895C8
:104C400083B78E7F83BF0FB6F894A89580916000DC
:104C5000886180936000109260000FBE08950895EF
:104C60000895CF930E942F260E94570F0E9430264E
:104C7000C0E08C2F0E94A90E892B29F4CF5FC4308D
:104C8000C1F780E001C081E0CF91089508950C94B0
:104C900046260E942B1E0E94212A0E9421180E9453
:104CA000EA090C9447261F920F920FB60F92112417
:104CB0008F939F93AF93BF9380911D02811113C077
:104CC0008091560290915702A0915802B0915902DA
:104CD0004196A11DB11D8093560290935702A09357
:104CE0005802B0935902BF91AF919F918F910F904D
:104CF0000FBE0F901F90189582E084BD93E095BD84
:104D00009AEF97BD80936E0008952FB7F894809125
:104D1000560290915702A0915802B09159022FBFAC
:104D200008952FB7F89460915602709157028091C0
:104D30005802909159022FBF0895CF92DF92EF92BF
:104D4000FF920F931F932FB7F89440915602509102
:104D5000570260915802709159022FBF6A017B017E
:104D6000EE24FF248C0120E030E0C016D106E206DC
:104D7000F30610F4415051099A01281B390BC9015F
:104D80001F910F91FF90EF90DF90CF90089578944E
:104D90001F920F920FB60F9211248F939F93AF9390
:104DA000BF938091560290915702A0915802B09102
:104DB00059020196A11DB11D80935602909357028E
:104DC000A0935802B0935902BF91AF919F918F91D8
:104DD0000F900FBE0F901F90189581E08093E00018
:104DE00080E28093D8001092C9008FE19EE4019781
:104DF000F1F700C0000087E090EBDC0180936A02CD
:104E000090936B02A0936C02B0936D029CE088E1DA
:104E10000FB6F894A895809360000FBE9093600041
:104E2000FFCF0E94C524811102C00E9448250E9424
:104E3000D02480931C020E94D82490E090935B02BF
:104E400080935A020E94D424682F70E080E090E0A2
:104E50000C940622CF93C82F1F928F938BE998E072
:104E60009F938F930E940A0981E090E0A0E0B0E058
:104E7000BC01CD0104C0660F771F881F991FCA951A
:104E8000D2F70E9406220F900F900F900F90CF91B3
:104E90000C942B1ECF93482F50E0FA013597EF3337
:104EA000F10508F079C2E556FF4F0C94703388E1A4
:104EB0009EE00E94710884E59DE00E9471080E94B6
:104EC000D4241F928F9381E59DE09F938F930E943E
:104ED0000A098FE49DE00E9471080E94D024C82F27
:104EE0008CE39DE00E9471081F92CF9387E39DE0C1
:104EF0009F938F930E940A0985E39DE00E947108A9
:104F00008BE29DE00E9471088C2F81701F928F931D
:104F100088E29DE09F938F930E940A0986E29DE0BC
:104F20000E9471088CE19DE00E947108C1FB8827F6
:104F300080F91F928F9389E19DE09F938F930E9448
:104F40000A0987E19DE00E9471088BE09DE00E94C4
:104F50007108C2FB882780F91F928F9388E09DE03B
:104F60009F938F930E940A0986E09DE00E9471083A
:104F70008DEF9CE00E947108C3FBCC27C0F91F9203
:104F8000CF938AEF9CE09F938F930E940A0988EF4A
:104F90009CE00E9471080E94D824C82F84EE9CE0F7
:104FA0000E9471081F92CF938FED9CE09F938F9387
:104FB0000E940A098DED9CE00E94710884EC9CE03F
:104FC0000E9471088C2F81701F928F9381EC9CE05E
:104FD0009F938F930E940A098DB79EB780960FB654
:104FE000F8949EBF0FBE8DBF8FEB9CE00E947108AE
:104FF00088EA9CE00E947108C1FB882780F91F9213
:105000008F9385EA9CE09F938F930E940A0983EA1D
:105010009CE00E94710881E99CE00E947108C2FB3B
:10502000882780F91F928F938EE89CE09F938F933F
:105030000E940A098CE89CE00E9471088AE79CE0C3
:105040000E947108C3FB882780F91F928F9387E71E
:105050009CE09F938F930E940A0985E79CE00E9441
:1050600071088BE69CE00E947108C4FB882780F9D8
:105070001F928F9388E69CE09F938F930E940A096A
:1050800086E69CE00E94710884E59CE00E9471081D
:10509000C5FB882780F91F928F9381E59CE09F9341
:1050A0008F930E940A098FE49CE00E94710883E3B9
:1050B0009CE00E947108C6FB882780F91F928F939D
:1050C00080E39CE09F938F930E940A098EE29CE00C
:1050D0000E94710886E29CE00E947108C7FBCC2701
:1050E000C0F91F92CF9383E29CE09F938F930E941D
:1050F0000A0981E29CE00E9471080E94E124C82F05
:105100008AE09CE00E9471081F92CF9385E09CE0AA
:105110009F938F930E940A098DB79EB780960FB612
:10512000F8949EBF0FBE8DBF83E09CE00E94710883
:1051300089EF9BE00E9471088C2F81701F928F93E2
:1051400086EF9BE09F938F930E940A0984EF9BE078
:105150000E9471088BEE9BE00E947108C6951F9219
:10516000CF9388EE9BE09F938F930E940A0986EE6F
:105170009BE00E9471088DB79EB708960FB6F89411
:105180009EBF0FBE8DBF06C087E09EE00E947108E3
:105190000E944825C1E005C184E39AE07FC0809168
:1051A0001C02817F8E7F80931C0289E19AE00E941D
:1051B000710883E09EE00E94710881E080931E02E6
:1051C000E9CF0E942B1E87EE9DE00E9471089FEFA1
:1051D00023ED80E3915020408040E1F700C00000C3
:1051E0000E94ED26D7CF80911C02C82FC095C170B8
:1051F000C0FB80F980931C02CC2319F08BED9DE05D
:10520000BDC08EEC9DE00E94710880911C02897FD8
:10521000877F80931C02BECF90911C0291FBCC270C
:10522000C0F981E0C827892FC0FB81F980931C0257
:10523000CC2319F081EC9DE027C083EB9DE02EC0CC
:1052400090911C0292FBCC27C0F981E0C827892FDE
:10525000C0FB82F980931C02CC2319F084EA9DE004
:1052600013C084E99DE01AC090911C0293FBCC27E7
:10527000C0F981E0C827892FC0FB83F980931C0205
:10528000CC2351F088E89DE00E94710880911C02B7
:10529000816080931C0285C08BE79DE00E947108AD
:1052A00079CF8AE09AE00E9471088AEE99E00E9424
:1052B000710884EB99E00E94710881E899E00E94EE
:1052C00071088FE499E00E94710881E299E0E6CFCD
:1052D00083E199E00E9471080E9421181F928F9328
:1052E00089EF98E09F938F930E940A0980911C0197
:1052F0001F928F9382EE98E09F938F930E940A09EA
:10530000809143021F928F938FEC98E09F938F932D
:105310000E940A0980915A0287FB882780F91F9210
:105320008F9387EB98E09F938F930E940A090E94C6
:1053300091269F938F937F936F9380EA98E09F933A
:105340008F930E940A098DB79EB746960FB6F894C0
:105350009EBF0FBE8DBF1ECF0E942B1E90915A0282
:1053600097FBCC27C0F981E0C827892FC0FB87F9BC
:1053700080935A02CC2329F081E79DE00E947108B6
:1053800010C086E69DE08ACF895303C08D5101C0CD
:1053900080E00E942A27FECE84E69DE00E947108EC
:1053A000C0E08C2FCF91089580E0089580E00895AB
:1053B000CF93C82F80911E02882319F0813031F0DD
:1053C00038C00E94E0238232B1F504C00E94E0237D
:1053D000823261F48C2F0E94D429811104C08C2F59
:1053E0000E944A2724C081E090E021C08C2F0E94B7
:1053F000D62981111BC0C43189F018F4CB3029F0B3
:1054000010C0C93259F0C83361F489E19AE00E94B2
:10541000710887E998E00E94710808C010921E0286
:105420000CC085E998E00E94710807C081E0817096
:1054300006C010921E0280E002C080E0F8CFCF913B
:1054400008950E94C524811102C00E9448250E942F
:10545000E12480935C02282F269530E02530310529
:1054600024F08170886080935C0280915C0280FFF0
:1054700002C0869501C080E00C94720920915C0204
:10548000822F8695482F50E04430510544F48F5FB9
:10549000982F990F822F8170892B80935C028091C5
:1054A0005C02816080935C020E94E52480911C0272
:1054B00080FF0FC080915C0286951F928F938AE8CF
:1054C0009EE09F938F930E940A090F900F900F9078
:1054D0000F9080915C0286950C94720980915C0219
:1054E000982F969591F09158990F8170892B809300
:1054F0005C028E7F91E009F490E080915C0290FB69
:1055000080F980935C020E94E52480911C0280FF58
:105510000FC080915C0286951F928F9382E79EE078
:105520009F938F930E940A090F900F900F900F90F6
:1055300080915C0286950C94720980915C0280FDDA
:105540001DC0816080935C02813019F483E08093F8
:105550005C0280915C020E94E52480911C0280FF25
:1055600008C08AE49EE09F938F930E940A090F90DF
:105570000F9080915C0286950C9472090895809139
:105580005C0280FF14C08E7F80935C020E94E52441
:1055900080911C0280FF08C087E39EE09F938F9359
:1055A0000E940A090F900F9080E00C9472090895F0
:1055B000CF93C0915C02C17080911C0280FF0CC02F
:1055C0001F92CF938CE59EE09F938F930E940A09D0
:1055D0000F900F900F900F90CC2319F0CF910C9457
:1055E000BF2ACF910C949D2A90915C02892F8695B9
:1055F0008F5F8F779170853028F4880F892B809387
:105600005C0202C090935C0280915C028E7F91E00C
:1056100009F490E080915C0290FB80F980935C0239
:105620000E94E52480911C0280FF0FC080915C02E3
:1056300086951F928F9383E29EE09F938F930E94A3
:105640000A090F900F900F900F9080915C02869541
:105650000C947209853008F084E0880F90915C0208
:105660009170892B80935C028E7F91E009F490E029
:1056700080915C0290FB80F980935C020E94E5249B
:1056800080915C0286950C94720980914202089583
:1056900008959FB7F894109221029FBF90916102E4
:1056A000943009F057C09091E9009F703091EC0060
:1056B000232F217030FD20E8922B23E02093E90076
:1056C0002091EB0020FF43C02091EE0027FF3FC058
:1056D00020911F02222321F02091E80025FF37C0EE
:1056E00010921F0226E03091E80035FD15C0309180
:1056F0006102343061F53091EB0035FD28C0215056
:1057000021F481E080931F0222C0EFE9FFE031978E
:10571000F1F700C00000E7CF8093F1008091E8002E
:1057200085FD0AC08091E80080FFFCCF8091E800F1
:105730008E778093E80006C08FB7F89421E020931D
:1057400021028FBF9F709093E90080E008959F70C1
:105750009093E9008FEF08950F931F93CF93DF93FA
:1057600000D01F92CDB7DEB78C010E94522E82303E
:1057700011F0843021F584E089831B830A8382E061
:105780008093E9008FEF9091E800815095FD06C06D
:1057900095ED9A95F1F700008111F5CF8091E80021
:1057A00085FF0DC040E050E063E070E0CE0101965F
:1057B0000E946F2E8091E8008E778093E8000F9012
:1057C0000F900F90DF91CF911F910F910895CF937C
:1057D000DF9300D01F92CDB7DEB720916102243055
:1057E00031F523E02983805891099B838A8382E0E5
:1057F0008093E9008FEF9091E800815095FD06C0FD
:1058000095ED9A95F1F700008111F5CF8091E800B0
:1058100085FF0DC040E050E063E070E0CE010196EE
:105820000E946F2E8091E8008E778093E8000F90A1
:105830000F900F90DF91CF910895CF93DF93EC01FC
:105840000E94522E823011F08430D9F580911C01D3
:10585000882339F080915A0287FF03C060E282E01A
:1058600002C068E081E08093E9008FEF9091E8004A
:10587000815095FD06C095ED9A95F1F700008111D4
:10588000F5CF8091E80085FF1CC080911C0181113B
:1058900005C040E050E068E070E003C070E040E028
:1058A00050E0CE010E946F2E8091E8008E778093A9
:1058B000E80080E2FE01A2E2B2E001900D928A953A
:1058C000E1F7DF91CF91089587EC9EE00E94710887
:1058D00080916002811109C00E9404300E946130F1
:1058E0008091E20084608093E200089583EC9EE062
:1058F0000E9471081092600208958FEB9EE00C9454
:1059000071088BEB9EE00C94710887EB9EE00E947F
:1059100071080C944926209120022F5F822F62E3A8
:105920000E941A33992319F02093200208951092AF
:10593000200280912102882371F1809161028430DC
:1059400041F58091E9008F702091EC00922F9170C9
:1059500020FD90E8892B93E09093E9009091EB0073
:1059600090FF14C09091EE0097FF10C09091E80056
:1059700095FF03C01092F100F9CF9091E80090FFDD
:1059800005C09091E8009E779093E8008F70809317
:10599000E90010922102089542E061EC81E00E944A
:1059A0007E2F42E261EC82E00E947E2F42E261ECB7
:1059B00083E00C947E2F80916302833009F460C0F1
:1059C00030F4813071F0823009F499C008958A3042
:1059D00009F485C08B3009F46BC0893009F0A7C089
:1059E00020C080916202813A09F0A1C08091E80054
:1059F000877F8093E8008091660290916702892BEF
:105A000021F460E282E292E003C060E080E090E096
:105A100070E00E94BA2E8091E8008B778093E800B6
:105A2000089580916202813209F081C080916602FE
:105A300090916702029708F07AC08091E800877F12
:105A40008093E8008091E80082FD05C080916102AA
:105A50008111F8CF6CC02091F3008091F20090E0AA
:105A6000922B029729F48091F1008B7F813021F4F1
:105A70008091F100809342028091E8008B7753C0BF
:105A800080916202813A09F052C080916602909141
:105A90006702892B09F04BC08091E800877F8093D3
:105AA000E8008091E80080FFFCCF80911C0136C0A7
:105AB000809162028132D9F58091660290916702ED
:105AC000892BA9F58091E800877F8093E8000E94E8
:105AD000B32F8091640280931C010C942B1E809143
