:100000000C9432050C9479050C9479050C947905BF
:100010000C9479050C9479050C9479050C94790568
:100020000C9479050C9479050C94B5240C948825CE
:100030000C949D1B0C9479050C9479050C9479050E
:100040000C9479050C9479050C9479050C94790538
:100050000C9479050C94051C0C9479050C94790585
:100060000C9479050C9479050C9479050C94790518
:100070000C9479050C9479050C9479050C94790508
:100080000C9479050C9479050C9479050C947905F8
:100090000C9479050C9479050C9479050C947905E8
:1000A0000C9479050C9479050C94790529001400B9
:1000B0001A000800150017001C0018000C001200A0
:1000C00013002A002B0004001600070009000A0094
:1000D0000B000D000E000F0000002800E1001D00C5
:1000E0001B00060019000500110010003600520028
:1000F00000003700E000E300E2002C0000002C00CC
:10010000000001515000510000004F003500240054
:10011000250026002D002E002F0030003100380071
:100120003300340000702100220023000100010090
:1001300001000100010001000000010001001E009B
:100140001F0020000100010001000100010001006A
:100150000000010001000100270001000000010073
:100160000000010001000100000001000100010089
:100170000100010001000100010001000100010077
:100180000100010001000100010001000100010067
:100190000100010001000100000001000100010058
:1001A0000100010001000100010001000100010047
:1001B0000000010001000100010001000000010039
:1001C0000000010001000100000001000100010029
:1001D0000100010001000100010001000100010017
:1001E0000100010001000100010001000100010007
:1001F00001000100010001000000010001000100F8
:1002000001000100010001000100010001000100E6
:1002100000000100010001000100010000000100D8
:1002200000000100010001000000010001000100C8
:1002300001000100010001000100010001000100B6
:1002400001000100010001000100010001000100A6
:100250000100010001000100000001000100010097
:100260000100010001000100010001000100010086
:100270000000010001000100010001000000010078
:100280000000010001000100000001000100010068
:100290000100010001000100010001000100010056
:1002A0000100010001000100010001000100010046
:1002B0000100010001000100000001000100010037
:1002C0000100010001000100010001000100010026
:1002D0000000010001000100010001000000010018
:1002E0000000010001000100000001000100010008
:1002F00001000100010001000100010001000100F6
:1003000001000100010001000100010001000100E5
:1003100001000100010001000000010001000100D6
:1003200001000100010001000100010001000100C5
:1003300000000100010001000100010000000100B7
:1003400000000100010001000000010001000100A7
:100350000100010001000100010001000100010095
:100360000100010001000100010001000100010085
:100370000100010001000100000001000100010076
:100380000100010001000100010001000100010065
:100390000000010001000100010001000000010057
:1003A0000000010001000100000001000100010047
:1003B0000100010001000100010001000100010035
:1003C0000100010001000100010001000100010025
:1003D0000100010001000100000001000100010016
:1003E0000100010001000100010001000100010005
:1003F00000000100010001000100010000000100F7
:1004000000000100010001000000010001000100E6
:1004100001000100010001000100010001000100D4
:1004200001000100010001000100010001000100C4
:1004300001000100010001000000010001000100B5
:1004400001000100010001000100010001000100A4
:100450000000010001000100010001000000010096
:100460000000010001000100000001000100010086
:100470000100010001000100010001000100010074
:100480000100010001000100010001000100010064
:100490000100010001000100000001000100010055
:1004A0000100010001000100010001000100010044
:1004B0000000010001000100010001000000010036
:1004C0000000010001000100000001000100010026
:1004D0000100010001000100010001000100010014
:1004E0000100010001000100010001000100010004
:1004F00001000100010001000000010001000100F5
:1005000001000100010001000100010001000100E3
:1005100000000100010001000100010000000100D5
:1005200000000100010001000000010001000100C5
:1005300001000100010001000100010001000100B3
:1005400001000100010001000100010001000100A3
:100550000100010001000100000001000100010094
:100560000100010001000100010001000100010083
:100570000000010001000100010001000000010075
:100580000000010001000100000001000100010065
:100590000100010001000100010001000100010053
:1005A0000100010001000100010001000100010043
:1005B0000100010001000100000001000100010034
:1005C0000100010001000100010001000100010023
:1005D0000000010001000100010001000000010015
:1005E0000000010001000100000001000100010005
:1005F00001000100010001000100010001000100F3
:1006000001000100010001000100010001000100E2
:1006100001000100010001000000010001000100D3
:1006200001000100010001000100010001000100C2
:1006300000000100010001000100010000000100B4
:1006400000000100010001000000010001000100A4
:100650000100010001000100010001000100010092
:100660000100010001000100010001000100010082
:100670000100010001000100000001000100010073
:100680000100010001000100010001000100010062
:100690000000010001000100010001000000010054
:1006A0000000010001000100000001006432146438
:1006B0003214783C1E1E140A0500000000010101DE
:1006C0000202030405050607090A0B0C0E0F11129E
:1006D000141517191B1D1F212325282A2C2F3134EF
:1006E00036393B3E414346494C4F5255585A5D615D
:1006F00064676A6D707376797C7F8386898C8F924C
:1007000095989B9EA2A5A7AAADB0B3B6B9BCBEC131
:10071000C4C6C9CBCED0D3D5D7DADCDEE0E2E4E67E
:10072000E8EAEBEDEEF0F1F3F4F5F6F8F9FAFAFB9E
:10073000FCFDFDFEFEFEFFFFFFFFFFFFFFFEFEFED6
:10074000FDFDFCFBFAFAF9F8F6F5F4F3F1F0EEED45
:10075000EBEAE8E6E4E2E0DEDCDAD7D5D3D0CECBD4
:10076000C9C6C4C1BEBCB9B6B3B0ADAAA7A5A29E46
:100770009B9895928F8C898683807C797673706D37
:100780006A6764615D5A5855524F4C494643413E31
:100790003B393634312F2C2A282523211F1D1B19C4
:1007A00017151412110F0E0C0B0A09070605050484
:1007B000030202010101000000000000000001012D
:1007C0000101010101010102020202020202020210
:1007D00003030303030303030404040404040505DF
:1007E00005050506060606060707070708080808A0
:1007F0000909090A0A0A0A0B0B0B0C0C0C0D0D0D4A
:100800000E0E0F0F0F1010111111121213131414DA
:10081000151516161717181819191A1A1B1C1C1D4E
:100820001D1E1F1F202021222223242525262727A5
:1008300028292A2B2B2C2D2E2F2F303132333435D3
:1008400036363738393A3B3C3D3E3F4041424344DF
:10085000464748494A4B4C4D4F50515253555657B5
:10086000585A5B5C5E5F606263646667696A6C6D60
:100870006E707173747678797B7C7E8081838486D8
:10088000888A8B8D8F91929496989A9B9D9FA1A315
:10089000A5A7A9ABADAFB1B3B5B7B9BBBDBFC1C417
:1008A000C6C8CACCCFD1D3D6D8DADCDFE1E4E6E8DB
:1008B000EBEDF0F2F5F7FAFCFF12036B006500793F
:1008C0000062006F00610072006400000016037196
:1008D000006D006B006200750069006C00640065CB
:1008E00000720000000403090409026D0004010005
:1008F000A0FA09040000010301010009211101000F
:10090000012240000705810308000A0904010001D3
:1009100003010200092111010001224D0007058297
:100920000308000A09040200010300000009211164
:100930000100012236000705830308000A090403A9
:100940000001030000000921110100012239000704
:100950000584032000011201100100000008EDFED3
:10096000606001000102000105010906A1010507FF
:1009700019E029E715002501950875018102050890
:1009800019012905950575019102950175039101DC
:100990000507190029F71500250195F87501810251
:1009A000C005010980A10185021601002603001A75
:1009B00081002A8300751095018100C0050C090192
:1009C000A1018503160100269C021A01002A9C023F
:1009D000751095018100C005010902A1010901A15D
:1009E00000050919012905150025019505750181E5
:1009F0000295017503810105010930093115812531
:100A00007F95027508810609381581257F95017546
:100A1000088106050C0A38021581257F95017508A5
:100A20008106C0C005010906A101050719E029E7F3
:100A30001500250195087501810295017508810150
:100A400005081901290595057501910295017503A0
:100A500091010507190029FF150026FF009506756D
:100A6000088100C011241FBECFEFDAE0DEBFCDBF8A
:100A700004B603FE27C08091500290915102A091CC
:100A80005202B09153028730904BA740B04BD1F443
:100A90001092500210925102109252021092530280
:100AA00014BE84B7877F84BF0FB6F894A895809151
:100AB0006000886180936000109260000FBEE0E0EB
:100AC000F8E3099511E0A0E0B1E0E6ECF1E502C041
:100AD00005900D92A833B107D9F722E0A8E3B1E061
:100AE00001C01D92A035B207E1F70E9402220C94CA
:100AF000E1280C94000090E080E0089508950895A6
:100B000081E00895089581E008950C9480050E9485
:100B1000FC132FEF84E39CE0215080409040E1F7EC
:100B200000C000000C942A1CFF920F931F93CF93D8
:100B3000DF938C01FC01C081D181809183018111FF
:100B400048C08281882309F43FC0CE010E94631906
:100B5000F82E682FCE010E940919BE018F2D0E9428
:100B60005B07EC01B8010E948505882309F478C071
:100B7000B801CE010E948B09882309F471C0C633E5
:100B8000F0E7DF0709F484C0C0F5C53190E7D90765
:100B900028F5C230E0E7DE0708F099C0C115F0E79C
:100BA000DF0709F458C0C130D04709F460C081E0C4
:100BB00080933A0180933B01C801DF91CF911F914F
:100BC0000F91FF900C948305CE010E943819F82EE6
:100BD000C4CFCE010E946319BE01C1CFC43390E7D8
:100BE000D90709F44EC0C533D04709F7F80182810F
:100BF0008823B1F10E94800D33C0CA33F0E7DF07CC
:100C000009F457C070F4F8018281C833F0E7DF07B8
:100C100009F44AC008F443C0882311F10E94C40CAF
:100C20001FC0CC33E0E7DE0709F4D5C008F448C0A4
:100C3000CD33D04709F0BBCFF8018281882309F476
:100C4000F1C010923B010E94CF1B90933901809319
:100C5000380180E2CDC0F801828181110E948705B0
:100C600080E0DF91CF911F910F91FF900895F801DF
:100C700082818823A9F38091070281608093070213
:100C8000EFCFF8018281882359F30E948A0DE8CFC3
:100C9000F8018281882321F30E94750CE1CF88231B
:100CA000F9F20E948D0CDCCF8823D1F20E94AC0CAB
:100CB000D7CFF8018281882399F20E94DC0CD0CF33
:100CC000F8018281882361F20E94F40CC9CFF801F7
:100CD0008281882309F470CF0E94201B811102C0F9
:100CE0000E94FA1A0E943D1B90E09093410280936B
:100CF0004002FE01E350F047809140028160E23102
:100D0000F105C8F4EA57F94F0C948E289806A4060A
:100D1000A806AC06B006B406B806BC06C006C406F3
:100D2000C806CC06D006D406D806DC06E006E406E3
:100D300080914002826080934002809140020E9434
:100D4000411B0E94FC138CCF809140028460F3CF42
:100D5000809140028860EFCF809140028061EBCFAC
:100D6000809140028062E7CF809140028064E3CFAF
:100D7000809140028068DFCF809140028460EACF9A
:100D8000809140028E7FD7CF809140028D7FD3CF5C
:100D9000809140028B7FCFCF80914002877FCBCF65
:100DA000809140028F7EC7CF809140028F7DC3CF5C
:100DB000809140028F7BBFCF809140028F77BBCF65
:100DC000809140028B7FEACF90914002892F97FB60
:100DD00087F98058B0CFF8018281882361F01092A2
:100DE0003A010E94CF1B909339018093380182E031
:100DF0000E94661135CF80913A0181110FC0809118
:100E00003801909139010E94DB1B883C910530F438
:100E100086E20E943B1086E20E94171182E00E9447
:100E20006D111ECF80913B0181110FC0809138015F
:100E3000909139010E94DB1B883C910530F487E2D8
:100E40000E943B1087E20E94171180E2E8CF0C94C9
:100E5000DC09279A2F988FEF9FEF9093870080935C
:100E600086008AE08093800089E1809381000C9461
:100E7000C81F0E9429070C94DA092F9881110AC013
:100E800080918000877F8093800010928D00109267
:100E90008C000895809180008860809380008FEF9F
:100EA0009FEF90938D0080938C0008950C948205A1
:100EB0000C9456070895972F70E02CE0929F600DD8
:100EC000711D1124FB0190E3899FE00DF11D112498
:100ED000EE0FFF1FE455FF4F859194910895FC019B
:100EE000EE0FFF1FE455F94F8591949108950E94EC
:100EF0005B070E940A09811520E5920708F040C0AF
:100F0000811530E4930708F0FAC0883E910518F582
:100F1000803E910508F07DC1883A910580F4853ABC
:100F2000910508F087C08130910509F472C120F065
:100F30008430910508F06DC190E080E008958D3B0C
:100F4000910508F482C0803C9105B0F3805C910962
:100F50000E946F070895811540E2940750F48115AF
:100F600021E0920708F055C1803F910528F3906574
:100F70000895811530E3930708F0BEC09F70E8CF55
:100F8000811545E5940760F5811524E5920708F081
:100F9000E5C0811532E5930750F4811541E59407CA
:100FA00008F4B0C0982F8827816F906A0895282F81
:100FB00026952695AC01437055278115934508F079
:100FC000BEC081E090E002C0880F991F4A95E2F709
:100FD00040E2249F90011124822B932B9C6808955A
:100FE000803340E7940798F4803220E7920708F0B6
:100FF000BFC0811536E5930708F4B5C09C01305693
:101000009F702115304108F097CF90620895813389
:1010100020E7920709F4B3C008F4AEC0823340E77A
:10102000940709F4AFC08333904709F085CF80E07F
:1010300093ED0895853A910509F4A7C0863A910584
:1010400009F0A6C082E890E40895883A910509F471
:10105000A2C0893A910509F4A1C08A3A910509F420
:10106000A0C08B3A910509F49FC08C3A910509F410
:101070009EC08B3B910509F49DC08C3B910509F402
:101080009CC08D3A910509F49BC0803B910509F401
:101090009AC08E3A910509F499C08F3A910509F4E6
:1010A00098C0813B910509F497C0823B910509F4F2
:1010B00096C0833B910509F495C0843B910509F4E2
:1010C00094C0853B910509F493C0863B910509F4D2
:1010D00092C0873B910509F491C0883B910509F4C2
:1010E00090C0893B910509F48FC08A3B910509F4B2
:1010F0008EC080E094E408959927906C08959F70C5
:10110000906A08959C0154E0369527955A95E1F729
:10111000922F9370482F437021E030E002C0220FDD
:10112000331F4A95E2F73C68392B86958695837084
:1011300040E2849FC0011124822B932B089581E00B
:1011400090E002C0880F991F4A95E2F740E2249F81
:1011500090011124822B932B9A680895982F882749
:10116000846F906A0895982F882788279F714DCFA4
:1011700080529047946D089580E091ED089580E04D
:1011800090ED089580E092ED089581E890E408954F
:1011900083E890E4089582EE94E4089589EE94E45F
:1011A00008958AEE94E4089585EB94E4089586EB1F
:1011B00094E4089583EB94E4089584EB94E4089513
:1011C00087EB94E408958CEC94E408958DEC94E41A
:1011D000089583E895E408958AE895E4089582E9FE
:1011E00095E4089584E995E4089581E296E40895EC
:1011F00083E296E4089584E296E4089585E296E415
:10120000089586E296E4089587E296E408958AE2D6
:1012100096E408958238910549F1B0F4813391053F
:1012200009F45CC048F48932910509F452C08A324D
:10123000910509F458C008958533910509F444C017
:101240008933910599F00895833E910531F138F481
:10125000803E910591F0823E9105B1F00895863E61
:10126000910511F1873E910541F1089520914002C9
:101270002370C9F080EE90E008952091400220FF95
:1012800012C089E390E008952091400222FF0BC034
:1012900024FF2EC090E080E008952091400222FDBE
:1012A0002AC024FDF7CF08952091400223FFFBCFF1
:1012B00024FDF0CF87EE90E008952091400223FFB7
:1012C000F0CF86EE90E008952091400225FD16C0F3
:1012D00008952091400225FD14C0089520914002F8
:1012E00026FD12C008952091400226FD10C00895E9
:1012F00083EE90E0089582EE90E0089589E290E018
:10130000089585E390E008958AE290E0089581E3EE
:1013100090E0C9CF08950F931F93CF938C01FB01E9
:101320008281811106C0C1E08C2FCF911F910F9156
:101330000895C0914901C11125C00531104799F7A1
:101340000E948A0981E0809349010E94CF1B9093FB
:1013500048018093470110923C0110923E01109287
:101360003D011092400110923F01109242011092F3
:1013700041011092440110924301109246011092D3
:101380004501D2CF80914701909148010E94DB1B1B
:10139000883C910540F680913C01E82FF0E0EE0F8B
:1013A000FF1FE35CFE4F118300838F5F80933C013E
:1013B000C0E0BACF0C947E050C947F05CF93DF93E9
:1013C00085B7806885BF85B7806885BFA0E2B1E03A
:1013D00044E251E0C1E0D0E08D91E82FE295EF705A
:1013E000F0E061A18F709E0101C0220F8A95EAF79B
:1013F000922F9095962391A382A1822B82A34A17C4
:101400005B0751F7A4E1B1E040E251E0C1E0D0E078
:101410008D91E82FE295EF70F0E061A18F709E0151
:1014200001C0220F8A95EAF7922F9095962391A3F7
:1014300082A1822B82A34A175B0751F710925301B6
:101440001092520110924B0110924A0110925501D4
:101450001092540110924D0110924C0110925701BC
:101460001092560110924F0110924E0110925901A4
:10147000109258011092510110925001DF91CF91BA
:101480000C9439074F925F927F928F929F92AF9206
:10149000BF92CF92DF92EF92FF920F931F93CF9361
:1014A000DF93CAE4D1E000E211E094E2A92E91E0DA
:1014B000B92EEE24E394F12C99249394C880D9801A
:1014C00019821882D8018D918D01E82FE295EF7075
:1014D000F0E091A18F70970101C0220F8A95EAF781
:1014E000892F822B81A382A1822E8094882182A3BE
:1014F000B0EABA95F1F784E1482E81E0582E90E0E9
:1015000080E0D2017D912D01472F42954F7050E030
:10151000DA0190967C90488159817F70D70102C092
:10152000AA0FBB1F7A95E2F7BD01672109F068C0D9
:10153000B701082E02C0660F771F0A94E2F7462B08
:10154000572B5983488301968C309105D1F681A1A0
:10155000882281A282A1282B22A388819981C81682
:10156000D90641F090925A010E94CF1B90935C01E2
:1015700080935B012296A016B10609F09FCF80915F
:101580005A01882351F180915B0190915C010E9486
:10159000DB1B069710F180914A0190914B019093CB
:1015A00053018093520180914C0190914D01909391
:1015B00055018093540180914E0190914F01909379
:1015C0005701809356018091500190915101909361
:1015D00059018093580110925A010E94270781E017
:1015E000DF91CF911F910F91FF90EF90DF90CF90FF
:1015F000BF90AF909F908F907F905F904F90089595
:1016000070E060E09CCFE82FF0E0EE0FFF1FEE5A95
:10161000FE4F80819181089508953EB1242F209539
:1016200023233EB1432B3FB7F894FC01680F791F89
:10163000E617F70711F43FBF0895819198E04EB97E
:10164000000000C087FF2EB9880F000000C000C056
:1016500000C02EB900C09A9591F7EACF2DB1242B86
:101660002DB99B01220F331F620F731F0E940D0BB8
:1016700087EC90E00197F1F700C00000089544E086
:101680000C942E0BCF92DF92EF92FF920F931F9349
:10169000CF93DF93E901662309F466C0E42EF12CB1
:1016A000EFEFF0E0E61BF109EE9D8001EF9D100DDC
:1016B000FE9D100D1124212FE12FFF27EE1AFF0AA6
:1016C0005CE3C52ED12CB6010E946628FB01BC014B
:1016D000E69EC001E79E900DF69E900D1124B60186
:1016E0000E946628E230F10589F168F4812F262FE7
:1016F000210F309781F0242F461B319761F080E055
:1017000020E040E008C0E430F10551F128F1842FD9
:10171000861B3597A1F7E42FF0E0E754F84F44918A
:10172000E22FF0E0E754F84F9491E82FF0E0E7540F
:10173000F84FE49149839883EA83DF91CF911F9119
:101740000F91FF90EF90DF90CF900895862F810F3B
:10175000E42F412F2E2FDFCFE42FE61B842FF9CF6C
:10176000842F462F410FD7CF842F242FD4CF88E04A
:1017700090E00C94A128AB01BC0188E090E00C94AF
:10178000BF28E4E3F2E083E08083109235028FEF1C
:101790008283838360913402709135028091360296
:1017A000909137020C94BB0B70E060E08CE392E008
:1017B0000C943F0BEF92FF920F931F93CF93DF9305
:1017C00000D01F92CDB7DEB7182FE92EF62E042FCA
:1017D0008091340290913502A0913602B091370287
:1017E0008093380290933902A0933A02B0933B025F
:1017F0008091340280FF1CC09E012F5F3F4F812FDC
:101800009E2D0E94420B8091380210FB87F9809335
:1018100038021695809139028078812BE0FA87F999
:1018200080933902F0923A0200933B020E94D40B5B
:101830000F900F900F90DF91CF911F910F91FF901C
:10184000EF9008950F931F93CF93DF93EC01062F32
:10185000142F9091340290FF43C0892F8E778230ED
:1018600021F5CE010E94DA0B80913402C0FB87F98A
:1018700080933402C695809135028078C82BD0FBC6
:10188000C7F9C09335020093360210933702609176
:101890003402709135028091360290913702DF91C7
:1018A000CF911F910F910C94BB0B892F86958F734D
:1018B0002EE3280F2F73243018F410913702D4CF61
:1018C000865C8F73893080F6991F9927991FD09174
:1018D0003502CD2FCC0FC92BD7FBDD27D0F9C4CFD4
:1018E000DF91CF911F910F910895E4E3F2E0208101
:1018F000221F2227221F30913502432F440F842FAD
:10190000822B37FB992790F9089668E671E00E94D0
:101910007A28438162810C94220C20913402221F88
:101920002227221F30913502432F440F842F822B10
:1019300037FB992790F98830910540F4805A9E4FE3
:1019400040913702609136020C94220C089768E6A9
:1019500071E00E947A28F4CF60913602683F90F4DB
:10196000685F80913402881F8827881F9091350214
:10197000292F220F97FB992790F940913702822B4C
:101980000C94220C6FEFEDCF60913602683090F02E
:10199000685080913402881F8827881F90913502F3
:1019A000292F220F97FB992790F940913702822B1C
:1019B0000C94220C60E0EDCF40913702483F90F448
:1019C000485F80913402881F8827881F90913502D4
:1019D000292F220F97FB992790F960913602822BCD
:1019E0000C94220C4FEFEDCF40913702483090F02D
:1019F000485080913402881F8827881F90913502B3
:101A0000292F220F97FB992790F960913602822B9C
:101A10000C94220C40E0EDCF9091340290FF3BC03B
:101A20009178811126C092609093340260913402C3
:101A30007091350280913602909137020E94BB0B63
:101A400080913402982F9E779230D9F410927201CF
:101A5000881F8827881F90913502292F220F97FB16
:101A6000992790F94091370260913602822B0C94AD
:101A7000220C893110F09063D7CF8F73880F982B89
:101A8000D3CF982F9695925C9F73963108F791E08B
:101A900090937201DDCF0895809107028160809359
:101AA000070281E0809373010E94201B811104C012
:101AB0000E94FA1A0E94C10B0E94B70B6093340275
:101AC0007093350280933602909337026E7761F4FB
:101AD0000E94C10B0E94B70B6093340270933502D1
:101AE000809336029093370281E080937201809157
:101AF000340280FF04C086958F730C940C0D0895FA
:101B00008091340286958F738F5F893108F081E070
:101B10000C940C0D90913402892F8E7F90FF816080
:101B200080933402609134027091350280913602C4
:101B3000909137020E94BB0B8091340280FF04C059
:101B400086958F730C940C0D109272012FEF80E725
:101B500092E0215080409040E1F700C000000C94DA
:101B6000D40BCF93C82F80917001909171010E9486
:101B7000DB1BEC2FF0E0EB54F94FE491E81719066A
:101B800009F010F50E94CF1B9093710180937001B2
:101B9000E0916F01F0E0E754F94F449180913402F5
:101BA000881F8827881F90913502292F220F97FBC5
:101BB000992790F960913602822B0E94DA0B80916E
:101BC0006F018F5F80936F01CF910895CF93C82FDE
:101BD00080916D0190916E010E94DB1BEC2FF0E073
:101BE000EE54F94FE491E817190609F0E8F40E9461
:101BF000CF1B90936E0180936D01409137026091ED
:101C0000360280916B0190916C010E94DA0B8091F9
:101C10006B0190916C01019668E671E00E94662864
:101C200090936C0180936B01CF910895CF93C82F4F
:101C30008091690190916A010E94DB1BEC2FE6956F
:101C4000F0E0EE54F94FE491E817190609F0B8F402
:101C50000E94CF1B90936A01809369010E94D40B6C
:101C60008091670190916801C0FF0BC0019668E602
:101C700071E00E9466289093680180936701CF917C
:101C800008950197F8CFCF93DF93C82FDFEF80FF40
:101C9000D1E080916501909166010E94DB1BC695A1
:101CA000EC2FF0E0E155F94FE491E817190609F03F
:101CB00088F40E94CF1B90936601809365010E9477
:101CC000D40BD13061F480916401811106C08FEF93
:101CD00080936401DF91CF9108958150F9CF0E94E4
:101CE0009428CF93C82F80916201909163010E9444
:101CF000DB1BEC2FF0E0E455F94FE491E8171906EF
:101D000009F0B0F40E94CF1B9093630180936201AD
:101D10000E94D40B9091000180916101913071F487
:101D20008A3F44F489EF809361018FEF8093000133
:101D3000CF910895815080936101FACF87302CF0C4
:101D400086E08093610181E0F1CF8F5FF4CF8091D5
:101D50005F01909160010E94DB1B883E934098F0E8
:101D60000E94CF1B9093600180935F0180915D0181
:101D700090915E0101968170992790935E01809306
:101D80005D010C94D40B089580917201882371F148
:101D90008091340286958F739EE3980F9F739430E1
:101DA00018F482500C94B10D9AE3980F9F739330FE
:101DB00018F486500C94E60D97E3980F9F739630B5
:101DC00018F489500C94160E91E3980F9F73963077
:101DD00018F48F500C94430E9BE2980F9F7393302E
:101DE00018F485510C94710E0C94A70E08959093DD
:101DF0007901809378010895E0917801F09179015B
:101E0000309721F00190F081E02D099480E0089551
:101E1000E0917801F0917901309721F00280F3810F
:101E2000E02D09940895E0917801F09179013097BF
:101E300021F00480F581E02D099408952091760128
:101E4000309177012817390771F0909377018093CB
:101E50007601E0917801F0917901309721F00680C8
:101E6000F781E02D09940895209174013091750156
:101E70002817390771F09093750180937401E091F0
:101E80007801F0917901309721F00084F185E02DFF
:101E90000994089508950C944A0F0E94C61B0E944D
:101EA000DE090E94971C0E94C81F0C944C0D5F9283
:101EB0006F927F928F929F92AF92BF92CF92DF925A
:101EC000EF92FF920F931F93CF93DF93CDB7DEB7BF
:101ED0002A970FB6F894DEBF0FBECDBF0E94420A0C
:101EE0009BE7A92E91E0B92E10E000E088248394AE
:101EF000912C502E802F0E94030B7C01F501C19084
:101F0000D1905F01C816D90609F45EC0809107021E
:101F100081FD0E940C0B90E080E0CE24DF24340190
:101F2000082E02C0660C771C0A94E2F7960126215F
:101F30003721232B09F443C08E835F82E620F720EC
:101F400081E0EF2809F480E088870E94CF1B816040
:101F5000782F9A8789874E815F8168858A850E945C
:101F60001110000F111FF801E558FE4F808191817B
:101F700068267926718260820E941A1F0E94FC0ED8
:101F800090917A018917B9F10E94FC0E80937A0131
:101F90002A960FB6F894DEBF0FBECDBFDF91CF916A
:101FA0001F910F91FF90EF90DF90CF90BF90AF9077
:101FB0009F908F907F906F905F900C945807019640
:101FC0008C30910509F0ABCF0F5F1F4F0430110526
:101FD00009F08FCF8FEF89838A831B820E94CF1BEA
:101FE0008160782F9D838C8349815A816B818D819B
:101FF0000E941110C1CF2A960FB6F894DEBF0FBE13
:10200000CDBFDF91CF911F910F91FF90EF90DF90A7
:10201000CF90BF90AF909F908F907F906F905F9088
:102020000895CF93DF93CDB7DEB72B970FB6F89413
:10203000DEBF0FBECDBF4F83588769877A878B87F6
:102040001E821D8285E0FE013796DE011196019009
:102050000D928A95E1F749815A816B817C818D814E
:102060009E812B960FB6F894DEBF0FBECDBFDF91D9
:10207000CF910C94AE16882309F4D8C0823871F43D
:102080000E94FC0E81FDD2C089E30E94031A0E94C7
:10209000CB1A89E30E94401A0C94CB1A833859F466
:1020A0000E94FC0E80FDC2C083E50E94031A0E94BC
:1020B000CB1A83E5EFCF843859F40E94FC0E82FDE1
:1020C000B5C087E40E94031A0E94CB1A87E4E2CFCE
:1020D0009CEF980F913A18F40E94031ADDCF90E21A
:1020E000980F983050F4877091E001C0990F8A954D
:1020F000EAF7892F0E94821ACFCF9BE5980F933081
:1021000070F4853A31F0863A39F083E890E00C9427
:102110001E0F81E890E0FBCF82E890E0F8CF98E5D1
:10212000980F953108F082C0883A09F440C0893A86
:1021300009F440C08A3A09F440C08B3A09F440C01F
:102140008C3A09F440C08B3B09F440C08C3B09F445
:1021500040C08D3A09F440C0803B09F440C08E3A3B
:1021600009F440C08F3A09F440C0813B09F440C0F3
:10217000823B09F440C0833B09F440C0843B09F42E
:1021800040C0853B09F440C0863B09F440C0873B12
:1021900009F440C0883B09F440C0893B09F440C0C1
:1021A0008A3B09F440C090E080E00C94340F82EE4A
:1021B00090E0FBCF89EE90E0F8CF8AEE90E0F5CF8B
:1021C00085EB90E0F2CF86EB90E0EFCF83EB90E0F1
:1021D000ECCF84EB90E0E9CF87EB90E0E6CF8CEC9E
:1021E00090E0E3CF8DEC90E0E0CF83E891E0DDCFAD
:1021F0008AE891E0DACF82E991E0D7CF84E991E0F3
:10220000D4CF81E292E0D1CF83E292E0CECF84E2DC
:1022100092E0CBCF85E292E0C8CF86E292E0C5CFD4
:1022200087E292E0C2CF8AE292E0BFCF089588238E
:1022300009F44BC0823871F40E94FC0E81FF45C046
:1022400089E30E94031A0E94CB1A89E30E94401A74
:102250000C94CB1A833859F40E94FC0E80FF35C0D1
:1022600083E50E94031A0E94CB1A83E5EFCF8438DE
:1022700059F40E94FC0E82FF28C087E40E94031AD2
:102280000E94CB1A87E4E2CF9CEF980F913AF0F2CC
:1022900090E2980F983050F4877091E001C0990F48
:1022A0008A95EAF7892F0E94881AD2CF9BE5980F6A
:1022B000933020F490E080E00C941E0F885A853112
:1022C00020F490E080E00C94340F0895882321F0EE
:1022D0000E94821A0C94CB1A0895882321F00E9440
:1022E000881A0C94CB1A08958F929F92AF92BF9246
:1022F000DF92EF92FF920F931F93CF93DF937C01B6
:10230000D62FC72FFC01058102950F701281111184
:102310000E94A11A0E94FC19D82E882371F0112363
:1023200021F180E28D0F883000F182E00E94E619F1
:102330000E94FC1991E0D82ED926EC2FE295EF707F
:10234000F0E0EB55FE4E0C948E28B711B711071232
:10235000071249126512E411E4117012E411081316
:1023600008137B138413E411A413D12CE6CF0C2F94
:102370000F70C07F11F00295007F1123A9F0002398
:1023800059F080E28D0F883010F0D11109C0802FF4
:102390000E94821A0E94CB1A8D2F0E943B1014C0FB
:1023A000802F0E94931AF6CF8D2F0E9417110023C1
:1023B00059F080E28D0F883010F0D11124C0802FA9
:1023C0000E94881A0E94CB1ADD2009F4C4C10E9421
:1023D000D91980FDC0C1F70112820E94D3190E9451
:1023E0004D18C7010E94B7130E94D319DF91CF91F6
:1023F0001F910F91FF90EF90DF90BF90AF909F9053
:102400008F900C946E18802F0E94991ADBCFFC2FAE
:10241000FF70BF2EC07FC03219F0B29480EFB82297
:10242000DD2369F0D13029F1112369F1002359F03E
:10243000F701858180FFB0CF8F70858304C01123A1
:1024400061F0011104C08B2D0E946611BDCF8B2D50
:102450000130D1F70E94B51AB7CF011106C00E9412
:10246000B81A8B2D0E946D11AFCF013009F4ACCF9B
:10247000F6CF112321F0063008F0A6CFE4CF0530C7
:1024800008F0A2CFEECF002361F38D2F0E94171129
:102490009BCF8C2F86958695837069F0813009F0EB
:1024A00093CF8D2F9C2F9370111102C090E080E08C
:1024B0000E94340F89CF8D2F9C2F9370111102C071
:1024C00090E080E00E941E0F7FCF8D2F112329F016
:1024D0000E94231E0E940F1F77CF0E948B1EFACFEF
:1024E0008C2F837009F047C011116ECF2D2F2295CC
:1024F00026952770220F220F6D2F6F70862E912C3C
:10250000B12CA12C022E04C0880C991CAA1CBB1C47
:102510000A94D2F760E070E0CB01D4FF0FC06FE007
:1025200070E080E090E004C0660F771F881F991F5D
:102530002A95D2F76095709580959095C695C69529
:10254000C370C23051F080F4682979298A299B2907
:10255000C13071F00E94F61737CF682979298A298E
:102560009B290E94121830CF0E94F617C501B401B2
:102570000E94DA1729CF8695112311F08C2F8170D4
:10258000882309F421CF2D2F229526952770220F1D
:10259000220F6D2F6F70862E912CB12CA12C022E44
:1025A00004C0880C991CAA1CBB1C0A94D2F760E0DA
:1025B00070E0CB01D4FF0FC06FE070E080E090E0EE
:1025C00004C0660F771F881F991F2A95D2F7609560
:1025D000709580959095C695C695C370C23051F0A0
:1025E00080F4682979298A299B29C13071F00E94D9
:1025F000D018EACE682979298A299B290E94EC18EB
:10260000E3CE0E94D018C501B4010E94B418DCCEFC
:10261000E0E2ED0FE53108F062C0F0E0EE5EFC4E66
:102620000C948E28271327132713271327132713F8
:1026300027132713271327132713271327132713CA
:102640002713271334134213491350135A13DF70FF
:102650008C2F8F71112321F00E944D188D2FF4CEF5
:102660000E946E188D2FFECE112341F0053008F028
:10267000ABCE8C2F8F710E949318A6CE063008F037
:10268000A3CEF7CF8C2F8F71112339F00E944D18F4
:102690009BCE8C2F8F711123C9F30E946E1894CE9C
:1026A000112329F08C2F8F710E9438188DCE0E9433
:1026B0002E188ACE112349F0CF718C2F0E944D180D
:1026C00063E08C2F0E94DD197FCE81E00E94E61925
:1026D000023008F479CE82E00E94E61975CE11230B
:1026E00029F0011159CE8C2F8F71D0CF0111CDCE91
:1026F0008C2F8F71D2CF4C2F4F706D2FC7010E943E
:102700007B050E94571760CE11115ECECF70C2308C
:10271000A9F040F4CC2379F0C13009F055CE0E94E5
:10272000E51F52CEC33069F0C43009F04DCE8D2F75
:102730000E942F2049CE0E94D91F46CE0E94FE1F24
:1027400043CE0E94112040CE4C2F4F706D2FC701F9
:102750000E945A0739CEDF91CF911F910F91FF90C0
:10276000EF90DF90BF90AF909F908F9008950F9360
:102770001F93CF93DF93EC01988189812B813C815A
:10278000232B39F08F3F19F481E09F3F19F080E04F
:1027900001C081E080FD17C0CE010E94940588230E
:1027A00091F0688179818A810E94AF198C010E9421
:1027B00008190E94CF17B801CE01DF91CF911F9168
:1027C0000F910C947411DF91CF911F910F91089587
:1027D0000E94A11A0E94B21A0E94741A0E94CB1A77
:1027E0000E94BC1F0E940F1F90E080E00E941E0FFD
:1027F00090E080E00C94340F0E94901A0C94E8133F
:102800000E94A519E92FE295EF70E250EE30E0F456
:10281000F0E0E35FFB4E0C948E281B141B14241471
:10282000241426142414241424141B141B142B14F1
:10283000241424142B14803F19F020F4803E20F43B
:1028400081E00895843FE1F380E00895803EC0F385
:10285000813FD1F7F5CF93FB882780F90895CF9377
:10286000DF9300D000D01F92CDB7DEB70F900F904E
:102870000F900F900F90DF91CF910895CF93DF933A
:1028800000D000D000D0CDB7DEB726960FB6F894B2
:10289000DEBF0FBECDBFDF91CF9108951F93CF93C1
:1028A000DF93C091840116E0809185018C1304C0F0
:1028B000DF91CF911F910895D0E01C9FF0011D9FE3
:1028C000F00D1124EA57FE4F4081518162817381DE
:1028D000848195810E943E142196C770E5CF409176
:1028E000B6015091B7016091B8017091B901809122
:1028F000BA019091BB010C943E141F93CF93DF93C8
:102900008091BB01807FD1F48091B8018823B1F020
:1029100080918401D0918501B091B601C091B70139
:102920004091B9015091BA01A1E0BF3F09F0A0E088
:10293000BA016095709516E0D81304C0DF91CF916D
:102940001F91089521E04115510521F02A2FCF3F15
:1029500009F020E090E020FD38C0189FF001199F99
:10296000F00D1124EA57FE4F21812C132EC0208137
:102970002B132BC02281211128C0238134812417DD
:10298000350700F1241B350B283C3105F0F420916C
:10299000BB012F7020612093BB0126E0289FF0012E
:1029A000299FF00D1124E557FE4F80818F708061C3
:1029B000808386EB91E00E94B713DF91CF911F9146
:1029C0000C944E14260F371FDFCF01968770B4CFBB
:1029D000AF92BF92CF92DF92EF92FF920F931F932D
:1029E000CF93DF93CDB7DEB761970FB6F894DEBF14
:1029F0000FBECDBF8C0185E0F801DE011D96019070
:102A00000D928A95E1F7D8014C9111965C9111973E
:102A10001296EC903091B6016091B7018091B901A6
:102A20009091BA0121E0009731F06F3F19F421E055
:102A30003F3F09F020E0B22FB170BB2E20FD80C1D6
:102A4000F801C380D480A090B801AA2009F427C15E
:102A5000C816D906D0F1D601A81BB90BCD01FF24A9
:102A6000F394883C910508F0F12C8091BB01982FDC
:102A7000907FFF2009F4CAC0911187C0FE2C651316
:102A800029C0341327C0E11025C08F708061809366
:102A9000BB010E946F1486EB91E00E94B7138091F6
:102AA000BB01F80185838F2D61960FB6F894DEBFC8
:102AB0000FBECDBFDF91CF911F910F91FF90EF908F
:102AC000DF90CF90BF90AF900895809590958C0D3A
:102AD0009D1DC5CF81E0CD2831F05F3F19F481E025
:102AE0004F3F09F080E080FD24C081E08E25F82F63
:102AF000F170DF2E80FF3FC080918401209185011D
:102B000036E0821318C04D875E878D859E850E94B2
:102B1000A519292F22952F70223008F1243030F585
:102B20009F7009F1D80115969C91907FE1F4FB2CE0
:102B3000BACF80E0DCCF90E0389FF001399FF00DF4
:102B40001124EA57FE4F6181561306C06081461377
:102B500003C062816E110FC001968770D2CF9F7043
:102B600011F0882321F3805E883008F3C8010E94A9
:102B7000B713BD2CDCCFEE2009F495CF8091BB01BB
:102B800081608093BB01F12C8ECF651312C034138A
:102B900010C0E1100EC0F8018583C8010E94B71370
:102BA00086E0F801A6EBB1E001900D928A95E1F77D
:102BB00041C04D875E878D859E850E9400148823C5
:102BC00009F4C8C0EE2009F4C5C08091BB01803271
:102BD00070F02091B6013091B70138872F831986A4
:102BE000DB86CA868C87CE0107960E94B71386E0E3
:102BF000F801A6EBB1E001900D928A95E1F70E94F1
:102C00007D140E946F14FF24F3944DCF911115C0D1
:102C10007C2DD98AC88A6E2D89890E942F1486EB53
:102C200091E00E94B71386E0E6EBF1E0DF011D9230
:102C30008A95E9F70E946F1436CF651312C03413DA
:102C400010C0E1100EC0F8018583C8010E94B713BF
:102C5000E6EBF1E086E0DF011D928A95E9F7FA2CB8
:102C600022CF4D875E878D859E850E940014882324
:102C700009F470C0EE2009F46DC08091BB01803270
:102C800008F4B5CF2091B6013091B7013A8329837A
:102C90001B82DD82CC828E83CE010196A6CFC81620
:102CA000D90638F1F601E81BF90BCF01F12C883C6D
:102CB000910508F03DC0FE2CEE2009F44BC06513D1
:102CC00026C0341324C08091BB0180FD17C0982F0B
:102CD000907FA1F0D80115968C931597903F09F439
:102CE0005CCF982F907F905F8F70892B15968C9377
:102CF00054CF809590958C0D9D1DD8CF86E0F8011E
:102D0000A6EBB1E001900D928A95E1F7CCCE4D870C
:102D10005E878D859E850E940014811168CF809109
:102D2000BB0181608093BB01C8010E94B713BBCE79
:102D30007C2DD98AC88A6E2D89890E942F1473CF61
:102D4000EE2041F04D875E878D859E850E940014A0
:102D500081114DCFC8010E94B71355CF1F93CF9358
:102D6000DF93CDB7DEB72C970FB6F894DEBF0FBE5A
:102D7000CDBF4F83588769877A878B879C87CE0121
:102D800007960E94E814882309F442C09F81888531
:102D90002A853B85232B39F08F3F19F481E09F3F33
:102DA00019F080E001C081E080FD08C04F815885A6
:102DB00069857A858B859C850E943E1416E08091FA
:102DC000840190918501891709F467C0819FC00132
:102DD00011248A579E4F0E94E814882309F45DC08D
:102DE000E09184011E9FF0011124EA57FE4F4081BB
:102DF000518162817381848195810E943E1480910A
:102E0000840190E001968770992780938401D7CF41
:102E100086E0FE013796DE01119601900D928A95AB
:102E2000E1F79F8188852A853B85232B39F08F3FE9
:102E300019F481E09F3F19F080E001C081E080FD3E
:102E4000BDCF2091850130E0C90101968770992797
:102E5000409184014817190699F096E0929FD0019D
:102E6000939FB00D1124AA57BE4FFE0131960190D9
:102E70000D929A95E1F7809385010E944E149ECFA2
:102E80000E94FC13109285011092840186E0E6EB0B
:102E9000F1E0DF011D928A95E9F72C960FB6F894C0
:102EA000DEBF0FBECDBFDF91CF911F910895EF928E
:102EB000FF920F931F93CF93DF938C01892B81F0A7
:102EC000F12CEE24E394E8012196F80184918437F3
:102ED00070F4843008F05FC08130B1F08230A1F12D
:102EE000DF91CF911F910F91FF90EF90089585375B
:102EF00009F44CC008F43DC09CE7980F903780F768
:102F00008F770E94171149C00E5F1F4FFE018491F9
:102F100090E2980F983060F48770FE2D01C0FF0F8B
:102F20008A95EAF78F2F0E94A41A0E94CB1A02C03A
:102F30000E943B108F2D815030F2EFE9FFE0319776
:102F4000F1F700C00000F7CF0E5F1F4FFE01849124
:102F500090E2980F983050F48770FE2D01C0FF0F5B
:102F60008A95EAF78F2F0E94AA1ADFCF0E941711C5
:102F7000E1CF0E5F1F4FFE01C491C150D8F28FE91F
:102F80009FE00197F1F700C00000F7CF0E5F1F4FE1
:102F9000FE01F490CFCF0E943B108E01CBCF08955D
:102FA0006093DE017093DF018093E0019093E10173
:102FB0000C94E8130F931F930091DE011091DF0131
:102FC0002091E0013091E101DC01CB01802B912BBC
:102FD000A22BB32B8093DE019093DF01A093E0013D
:102FE000B093E1011F910F910C94E8130F931F937D
:102FF0000091DE011091DF012091E0013091E101AB
:10300000DC01CB0180239123A223B3238093DE0133
:103010009093DF01A093E001B093E1011F910F9124
:103020000C94E8130F931F930091DE011091DF01C0
:103030002091E0013091E101DC01CB018027912753
:10304000A227B3278093DE019093DF01A093E001D4
:10305000B093E1011F910F910C94E8131092DA01E3
:103060001092DB011092DC011092DD010C94E81348
:1030700041E050E060E070E004C0440F551F661F5F
:10308000771F8A95D2F74093DA015093DB01609362
:10309000DC017093DD010C94E81341E050E060E046
:1030A00070E004C0440F551F661F771F8A95D2F742
:1030B0008091DA019091DB01A091DC01B091DD01FA
:1030C000842B952BA62BB72B8093DA019093DB01F1
:1030D000A093DC01B093DD010C94E81341E050E0D3
:1030E00060E070E004C0440F551F661F771F8A958B
:1030F000D2F740955095609570958091DA01909146
:10310000DB01A091DC01B091DD0184239523A6238E
:10311000B7238093DA019093DB01A093DC01B09395
:10312000DD010C94E81341E050E060E070E004C081
:10313000440F551F661F771F8A95D2F78091DA01D9
:103140009091DB01A091DC01B091DD0184279527EE
:10315000A627B7278093DA019093DB01A093DC01C7
:10316000B093DD010C94E8130F931F930091DA01E3
:103170001091DB012091DC013091DD01DC01CB01FC
:10318000802B912BA22BB32B8093DA019093DB0140
:10319000A093DC01B093DD011F910F910C94E81313
:1031A0000F931F930091DA011091DB012091DC0154
:1031B0003091DD01DC01CB0180239123A223B323D5
:1031C0008093DA019093DB01A093DC01B093DD01E1
:1031D0001F910F910C94E8130F931F930091DA0144
:1031E0001091DB012091DC013091DD01DC01CB018C
:1031F00080279127A227B3278093DA019093DB01E0
:10320000A093DC01B093DD011F910F910C94E813A2
:1032100008952CE0929F800D1124982F977071E0F3
:1032200001C0770F9A95EAF786958695869525E0F1
:10323000829FC001112450E040E0A62FB0E0FC01C5
:10324000E40FF51FE454FE4F60819D01042E02C07F
:10325000369527950A94E2F7217021952627272392
:10326000262720834F5F5F4F4530510541F7089572
:103270002CE0929F800D1124982F9770869586954B
:10328000869525E0829FA001112470E060E080E037
:10329000FA01E60FF71FE454FE4F208130E0092EBB
:1032A00002C0369527950A94E2F721703327062E3F
:1032B00001C0220F0A94EAF7822B6F5F7F4F6530BF
:1032C000710531F70895BF92CF92DF92EF92FF928E
:1032D0000F931F93CF93DF938C01C090DA01D090AE
:1032E000DB01E090DC01F090DD018091DE01909146
:1032F000DF01A091E001B091E101C82AD92AEA2AB0
:10330000FB2ACFE1D0E0BC2ED701C6010C2E04C0B1
:10331000B695A795979587950A94D2F780FD0EC02C
:10332000219788F7B12C8B2DDF91CF911F910F91B1
:10333000FF90EF90DF90CF90BF900895B8018C2F51
:103340000E947707019761F3EECFCF93DF93EC01F3
:103350000E946319BE01DF91CF910C9477071F93F0
:10336000CF93DF93EB0190918301992331F0CB014F
:10337000DF91CF911F910C94A519882379F0CB018F
:103380000E946319182F682FCE010E940919BE01EF
:10339000812FDF91CF911F910C947707CB010E9471
:1033A0003819182FF4CF8091E20185958595859580
:1033B00008958091E2018770089598E0899F9001B7
:1033C0001124622B6093E2010C944D189091E2015C
:1033D000809589238093E201282F277061F4282F9C
:1033E000082E000C330B9217130629F0859585954E
:1033F00085950C946E1808959091E201977081E084
:1034000009F480E00895909113019923E1F09091DF
:10341000400297FF18C0E82FE695E695E695EF3154
:1034200039F12091010130910201E20FF32FF11DDA
:10343000877021E030E001C0220F8A95EAF7818190
:10344000822B818308952091010130910201F901BD
:1034500032969FEF40E05191851751F09F3F19F44C
:10346000511101C0942F4F5F4E31A9F79F3F09F4CE
:103470000895290F311D97FD3A95F901828308952A
:10348000909113019923F1F09091400297FF1AC097
:10349000E82FE695E695E695EF3129F120910101B7
:1034A00030910201E20FF32FF11D282F277081E0E8
:1034B00090E001C0880F2A95EAF7809591818923D1
:1034C000818308952091010130910201F901329622
:1034D000205E3F4F9191891303C0DF0111971C9229
:1034E000E217F307B9F7089581E090E0E091010158
:1034F000F0910201E80FF91F1082019680329105C8
:10350000A9F7089590910602892B809306020895E9
:10351000982F909580910602892380930602089542
:1035200010920602089590910502892B809305025E
:103530000895982F90958091050289238093050224
:10354000089510920502089590910402892B8093AA
:1035500004020895982F9095809104028923809306
:10356000040208951092040208958093E3010895DF
:103570001092E30108952091010130910201F901B7
:103580003196205E3F4F80E0919191118F5FE2175D
:10359000F307D1F70895E0910101F09102018091C4
:1035A00006028083E0910101F091020180819091F7
:1035B0000502892B8083E0910101F0910201808155
:1035C00090910402892B80839091E301992361F00B
:1035D000E0910101F09102018081892B80830E949A
:1035E000BB1A81111092E3018091010190910201B7
:1035F0000C94080F6DEE7EEF90E080E00E94CB28E7
:1036000060E082E090E00E94AD2860E083E090E01E
:103610000E94AD2860E084E090E00E94AD2860E068
:1036200085E090E00E94AD2860E086E090E00E9496
:10363000AD2840E050E0BA0188E090E00C94BF284B
:1036400090E080E00E94A72821E08D3E9E4F09F087
:1036500020E0822F089582E090E00C949928682F52
:1036600082E090E00C94AD2883E090E00C949928DF
:10367000682F83E090E00C94AD2884E090E00C94F7
:103680009928682F84E090E00C94AD2886E090E0C3
:103690000C949928682F86E090E00C94AD288091D6
:1036A0004702843051F11092080288E190E020E452
:1036B0000FB6F894A895809360000FBE2093600029
:1036C00080E00E943D0780E00E94580783B7817F19
:1036D000846083BF83B7816083BF7894889583B704
:1036E0008E7F83BF0FB6F894A895809160008861A3
:1036F00080936000109260000FBE089508950895B1
:10370000CF930E947E1B0E94420A0E947F1BC0E052
:103710008C2F0E94030B892B31F4CF5FC430C1F78B
:1037200080E0CF91089581E0FCCF0E94FC130E94BD
:10373000C81F0E94FC0E0C9458071F920F920FB6E0
:103740000F9211248F939F93AF93BF9380910802A0
:10375000811113C080913C0290913D02A0913E02E4
:10376000B0913F024196A11DB11D80933C02909300
:103770003D02A0933E02B0933F02BF91AF919F9153
:103780008F910F900FBE0F901F90189582E084BD0F
:1037900093E095BD9AEF97BD80936E0008952FB783
:1037A000F89480913C0290913D02A0913E02B0912C
:1037B0003F022FBF0895CF92DF92EF92FF920F93B7
:1037C0001F932FB7F89440913C0250913D026091B5
:1037D0003E0270913F022FBF6A017B01EE24FF245D
:1037E0008C0130E020E0C016D106E206F30650F06E
:1037F000481B590BCA011F910F91FF90EF90DF906A
:10380000CF90089541505109F3CF1F920F920FB6F8
:103810000F9211248F939F93AF93BF9380913C029B
:1038200090913D02A0913E02B0913F020196A11DF0
:10383000B11D80933C0290933D02A0933E02B09351
:103840003F02BF91AF919F918F910F900FBE0F904C
:103850001F9018950E943A24F8942FEF87EA91E67A
:10386000215080409040E1F700C0000087E090EBDD
:10387000DC018093500290935102A0935202B093C6
:10388000530288E19CE00FB6F894A89580936000FD
:103890000FBE90936000FFCFAF92BF92CF92DF92A6
:1038A000EF92FF920F931F93CF93C0E0CC24C39469
:1038B000D12CE82EF12C8C2F0E94030B5C0110E020
:1038C00000E0C601002E02C0880F991F0A94E2F79B
:1038D0008A219B21892B99F40F5F1F4F0C30110512
:1038E00081F7CF5FC43039F780E0CF911F910F91FE
:1038F000FF90EF90DF90CF90BF90AF900895602F32
:103900007C2F80E00E945B07E816F90629F781E02A
:10391000ECCFCF93C82F8CE20E944C1C882321F05F
:103920008C2FCF910C944C1C80E0CF910895CF93B5
:103930000E94201B811102C00E94FA1AC5E608C02D
:103940000E94420A8FE39CE90197F1F700C0000052
:10395000C150B1F789E20E94891C8111EFC08AE24F
:103960000E94891C81110E94FA1A85E00E94891C1C
:1039700081110E942A1C0E942B1B8093070287E062
:103980000E94891C882371F08BE10E94891C882386
:1039900009F4B1C090910702892F8D7F91FF826059
:1039A00080930702809107020E942F1B0E943D1BFB
:1039B00090E0909341028093400280EE0E94891C27
:1039C000882341F090914002892F8E7F90FF816083
:1039D0008093400289E30E94891C882341F09091E2
:1039E0004002892F8D7F91FF82608093400282EE9A
:1039F0000E94891C882341F090914002892F8B7F7F
:103A000092FF84608093400286EE0E94891C882386
:103A100041F090914002892F877F93FF88608093C7
:103A2000400283EE0E94891C882341F0909140025D
:103A3000892F8F7E94FF80618093400285E30E94EE
:103A4000891C882341F090914002892F8F7D95FF3A
:103A500080628093400281E30E94891C882341F0A8
:103A600090914002892F8F7B96FF80648093400263
:103A700081E10E94891C882341F090914002892FA6
:103A800097FB87F9805880934002809140020E9402
:103A9000411B87E20E94891CC82F8EE10E94891C6D
:103AA0008111C2608FE10E94891C8111C46080E293
:103AB0000E94891C8111C86081E20E94891C8111C9
:103AC000C06182E20E94891C8111C06283E20E946F
:103AD000891C8111C06484E20E94891C882341F101
:103AE000C0688C2F0E94381B6C2F70E090E080E043
:103AF000CF910C94D0178EE00E94891C882339F056
:103B000090910702892F8B7F92FF846049CF80E1DB
:103B10000E94891C90910702882329F0892F877FB2
:103B200093FF88603DCF892F8E7F90FF816038CFD3
:103B3000C111D7CF0E94341B682FD7CFCF910895E2
:103B400080910B0280FF12C06091060185E0689FA2
:103B5000B001112475956795759567956038710565
:103B6000A8F561157105A1F1862F089581FF09C09F
:103B70006091060185E0689FB001112475956795F5
:103B8000EDCF82FF07C06091060185E0689FB0011C
:103B90001124E4CF20910C022223A9F09091050179
:103BA0006091060185E0689FB00111242917B0F6E5
:103BB000269FA001279F500D1124692F70E0CA0194
:103BC0000E947A28CBCF65E070E0CECF8FE70895D2
:103BD00081E0089580910B0280FF0CC06091040188
:103BE00070E075956795759567956115710549F153
:103BF000862F089581FF06C06091040170E07595DD
:103C00006795F3CF6091040182FD0BC090910C0287
:103C10009923A1F06091030180910401961738F077
:103C2000682F70E06038710500F38FE70895899F71
:103C3000C001112470E00E947A28F4CF61E070E0A6
:103C4000D7CF81E00895803F31F40E94A01D819577
:103C500080930F020895813F19F40E94A01DF8CFB0
:103C6000823F31F40E94A01D819580930E02089539
:103C7000833F19F40E94A01DF8CF893F29F40E94C8
:103C8000EA1D8093100208958A3F21F40E94EA1DE4
:103C90008195F7CF8B3F31F40E94EA1D8195809387
:103CA000110208958C3F19F40E94EA1DF8CF843F59
:103CB00031F480910D02816080930D020895853F5B
:103CC00021F480910D028260F7CF863F21F480912C
:103CD0000D028460F1CF873F21F480910D0288604E
:103CE000EBCF883F21F480910D028061E5CF8D3FBD
:103CF00031F480910B02816080930B0208958E3F16
:103D000021F480910B028260F7CF8F3FB9F7809149
:103D10000B028460F1CF803FC1F480910F0287FDD8
:103D200010920F0280910E0281110EC080910F023D
:103D300081110AC080911002811106C08091110288
:103D4000811102C010920C020895813F29F48091E4
:103D50000F0218162CF3E6CF90910E02823F29F441
:103D600097FFE0CF10920E02DDCF833F19F41916B2
:103D7000CCF3D8CF893F39F480911002181694F60D
:103D800010921002CFCF8A3F29F48091100287FF52
:103D9000C9CFF6CF8B3F39F48091110287FFC2CF94
:103DA00010921102BFCF8C3F29F480911102181696
:103DB000BCF3B8CF843F31F480910D028E7F8093A5
:103DC0000D02B0CF853F21F480910D028D7FF7CF9A
:103DD000863F21F480910D028B7FF1CF873F21F444
:103DE00080910D02877FEBCF883F21F480910D02F7
:103DF0008F7EE5CF8D3F31F480910B028E7F8093D3
:103E00000B0290CF8E3F21F480910B028D7FF7CF74
:103E10008F3F09F087CF80910B028B7FF0CF8DE031
:103E200092E00E94130F0E94CF1B90930A0280938E
:103E3000090208951F93CF93DF9380910902909117
:103E40000A020E94DB1BAC0190910C022091070139
:103E500030E0911106C0209108018AE0289F90016E
:103E600011244217530780F080910E02C0910F0277
:103E700010911002D091110281110AC0C11178C0B5
:103E8000111176C0D11174C0DF91CF911F910895A7
:103E90009F3F19F09F5F90930C02181624F40E9424
:103EA000A01D80930E0280910E0287FF05C00E9424
:103EB000A01D819580930E021C1624F40E94A01D63
:103EC00080930F0280910F0287FF05C00E94A01D02
:103ED000819580930F0260910E02662331F1C091AB
:103EE0000F02CC2311F1062E000C770B880B990BD7
:103EF0000E946D2723E333E343E35FE30E94D1276E
:103F00000E94352760930E026C2FCC0F770B880B25
:103F1000990B0E946D2723E333E343E35FE30E94A1
:103F2000D1270E94352760930F02111624F40E94B6
:103F3000EA1D809310028091100287FF05C00E9445
:103F4000EA1D8195809310021D1624F40E94EA1D3B
:103F5000809311028091110287FF05C00E94EA1D23
:103F6000819580931102DF91CF911F910C940F1FC7
:103F70009F3F09F08FCFA0CF85E0EDE0F2E0DF01B9
:103F80001D928A95E9F710920C0210920B02089587
:103F90000E94201B811102C00E94FA1A0E94461B37
:103FA0008093420280FF03C086950C943D0780E019
:103FB000FCCF809142028160809342020E944A1BA2
:103FC0008091420286950C943D0780914202982F81
:103FD0009E7F79F08250809342028E7F91E009F4B7
:103FE00090E08091420290FB80F9809342020E940F
:103FF0004A1B8091420286950C943D0790914202A3
:10400000892F8E7F90FF8160809342020E944A1B1D
:104010008091420280FF03C086950C943D0780E0AA
:10402000FCCF809142028E5F80934202982F9E7F48
:1040300019F0817080934202809142028E7F91E05C
:1040400009F490E08091420290FB80F98093420253
:104050000E944A1B8091420286950C943D079091E4
:104060004202292F26958227880F9170982B9093D2
:1040700042029E7F21E009F420E08091420220FB71
:1040800080F9809342020E944A1B809142028695E9
:104090000C943D07809132020895CF93DF9300D0B6
:1040A0001F92CDB7DEB79C0180914702843019F58D
:1040B00093E099833B832A839093E9008FEF90915B
:1040C000E800815095FD06C095ED9A95F1F7000046
:1040D0008111F5CF8091E80085FF0DC050E040E0F0
:1040E00063E070E0CE0101960E94AA228091E80070
:1040F0008E778093E8000F900F900F90DF91CF9113
:104100000895CF93DF9300D01F92CDB7DEB72091F3
:104110004702243031F522E02983805891099B839E
:104120008A8383E08093E9008FEF9091E8008150CB
:1041300095FD06C095ED9A95F1F700008111F5CF38
:104140008091E80085FF0DC050E040E063E070E042
:10415000CE0101960E94AA228091E8008E7780937A
:10416000E8000F900F900F90DF91CF9108959C0180
:10417000809147028430F9F482E08093E9009FEF58
:104180008091E800915085FD06C085ED8A95F1F794
:1041900000009111F5CF8091E80085FF0CC050E040
:1041A00040E065E070E0C9010E94AA228091E80029
:1041B0008E778093E8000895CF93DF93EC01809190
:1041C00047028430F1F4909113019923E9F0909122
:1041D000400297FF19C08093E9008FEF9091E800AB
:1041E000815095FD06C095E19A95F1F70000811187
:1041F000F5CF8091E80050E040E060E270E085FD9E
:104200001AC0DF91CF91089581E08093E9008FEF8C
:104210009091E800815095FD06C095ED9A95F1F7D3
:1042200000008111F5CF8091E80085FFEACF50E0D2
:1042300040E068E070E0CE010E94AA228091E80090
:104240008E778093E80080E2FE01A2E1B2E0019067
:104250000D928A95E1F7D5CF80914602811109C070
:104260000E943A240E9497248091E2008460809307
:10427000E2000895109246020895089508950C945E
:10428000951B42E061EC81E00E94B82342E061ECC2
:1042900082E00E94B82342E061EC83E00E94B823F0
:1042A00042E261EC84E00C94B823809149028330AF
:1042B00009F455C030F4813071F1823009F491C0B5
:1042C00008958A3009F47DC08B3009F463C08930C9
:1042D00009F044C080914802813209F03FC08091CA
:1042E0004C0290914D02009711F00397B9F580911F
:1042F000E800877F8093E8008091E80082FF2AC071
:104300008091F100809332028091E8008B77809356
:10431000E8000C94EC2380914802813AF9F48091F2
:10432000E800877F8093E80080914C0290914D02D5
:10433000892B61F460E282E192E070E00E94F92250
:104340008091E8008B778093E800089560E090E02A
:1043500080E0F3CF809147028111CECF0895809104
:104360004802813AD9F780914C0290914D02892BF5
:10437000A9F78091E800877F8093E8008091E800AA
:1043800080FFFCCF809113018093F1008091E800C1
:104390008E77BDCF80914802813201F780914C0227
:1043A00090914D02892BD1F68091E800877F809310
:1043B000E8000E94EC2380914A02809313010C9440
:1043C000FC1380914802813249F68091E800877F92
:1043D0008093E8000E94EC2380914B02809333028B
:1043E000089580914802813A09F0B8CF8091E800A1
:1043F000877F8093E8008091E80080FFFCCF809168
:104400003302C2CF84B7877F84BF0FB6F894A895D4
:1044100080916000886180936000109260000FBE00
:1044200080E880936100109261000E944B0F0E940F
:104430003A240E9497248091E20084608093E200F5
:1044400078940E9419270E944D0F89E091E00E9404
:10445000F70E80914702853029F00E94570F0E9485
:10446000C40EF7CF0E944F1B80914502882389F329
:104470000E94801B882369F30E949422EACF292F8F
:1044800033272330310579F158F421303105F1F02B
:104490002230310519F190E080E030E020E01AC0D0
:1044A0002132310599F122323105A9F7643098F7AC
:1044B00070E0FB01EE0FFF1FE85DFE4F20813181B0
:1044C0006C5D7E4FFB01808190E004C082E190E052
:1044D00026E539E0FA013183208308958DE690E0E6
:1044E00029EE38E0F7CF99278130910561F028F067
:1044F000029789F6E9EBF8E002C0E5EEF8E0849176
:1045000090E09F01E7CFEDECF8E0F9CF643008F0E0
:10451000C2CFE62FF0E0EE0FFF1FE05DFE4F2081DF
:10452000318189E090E0D6CF80E189BD82E189BD0B
:1045300009B400FEFDCF8091D8008F7D8093D80014
:104540008091E00082608093E0008091E00081FD36
:10455000FCCF0895AF92BF92CF92DF92FF920F935C
:104560001F93CF93DF936C01EB018A010E940B2410
:10457000F82E811123C00115110539F0F801808151
:104580009181C81BD90BC80ED91EB12CA12C209724
:10459000A9F08091E80085FD22C08091E8008E7727
:1045A0008093E80001151105A1F0F8018081918147
:1045B000A80EB91EB182A08285E0F82E8F2DDF9162
:1045C000CF911F910F91FF90DF90CF90BF90AF9050
:1045D00008950E940B248823D1F2F82EEFCFF60124
:1045E00081916F018093F1002197FFEFAF1ABF0A0D
:1045F000CECFFC0180914E0290914F028617970713
:10460000A0F06115710529F49091E8009E779093D0
:10461000E80090E06115710551F4911108C0809196
:10462000E80082FF35C080E00895BC01F2CF8091A0
:1046300047028823C9F18530C9F18091E80083FDE4
:1046400031C08091E80082FDEACF8091E80080FFD0
:10465000E1CF2091F3008091F200322F282F6115D5
:10466000710519F02830310558F091E028303105F6
:1046700009F090E02091E8002E772093E800CACF5F
:1046800081918093F100615071092F5F3F4FE7CF17
:1046900080914702882341F0853041F08091E80005
:1046A00083FFBDCF81E0089582E0089583E00895FF
:1046B000FC0180914E0290914F0286179707A0F05F
:1046C0006115710529F48091E8008E778093E800E8
:1046D00090E06115710551F4911108C08091E800D6
:1046E00082FF36C080E00895BC01F2CF809147027E
:1046F0008823D1F18530D1F18091E80083FD32C06B
:104700008091E80082FDEACF8091E80080FFE1CF50
:104710002091F3008091F200322F282F611571054E
:1047200019F02830310558F091E02830310509F0B2
:1047300090E08091E8008E778093E800CACF849162
:104740008093F1003196615071092F5F3F4FE6CFA2
:1047500080914702882341F0853041F08091E80044
:1047600083FFBCCF81E0089582E0089583E008953F
:10477000982F973028F08F708093E90081E008959A
:104780009093E900242F762F50E0981731F0709124
:10479000EC002091ED005091F00021FD02C09F5FE0
:1047A000E8CF3091EB003E7F3093EB003091ED008D
:1047B0003D7F3093ED003091EB0031603093EB00A2
:1047C0007093EC002093ED005093F0002091EE00E8
:1047D00027FDE5CF80E008958091480287FF13C050
:1047E0008091E80082FF06C08091E8008B7780937B
:1047F000E80004C0809147028111F2CF08958091B2
:1048000047028823D9F38091E80080FFF8CF809198
:10481000E8008E77ECCF2091E4003091E50085E64A
:104820009091EC0090FF06C09091E80090FF06C0C8
:1048300080E008959091E80092FDFACF90914702B0
:10484000992391F0953091F09091EB0095FD10C077
:104850004091E4005091E5002417350709F3815099
:104860009A01F1F684E0089582E0089583E00895C6
:1048700081E008950E94A8240E94B024E0EEF0E0B8
:10488000808181608083E8EDF0E080818F77808394
:1048900019BCA7EDB0E08C918E7F8C9380818F7EC8
:1048A00080831092460208950F931F93CF93DF9356
:1048B0000E94A8240E94B024C8EDD0E088818F77A0
:1048C000888388818068888388818F7D888319BCEC
:1048D0001092470210924302109245021092440235
:1048E00000EE10E0F80180818B7F808388818160F9
:1048F000888342E060E080E00E94B823E1EEF0E0CF
:1049000080818E7F8083E2EEF0E080818160808311
:10491000808188608083F80180818E7F8083888198
:1049200080618883DF91CF911F910F910895E8ED09
:10493000F0E080818F7E8083E7EDF0E08081816010
:10494000808384E082BF81E0809346020C945424EB
:10495000E8EDF0E080818E7F80831092E200089580
:104960001092DA001092E10008951F920F920FB694
:104970000F9211242F933F934F935F936F937F93E5
:104980008F939F93AF93BF93EF93FF938091E10039
:1049900082FF0BC08091E20082FF07C08091E1009E
:1049A0008B7F8093E1000E9418278091DA0080FFBE
:1049B00019C08091D80080FF15C08091DA008E7FE9
:1049C0008093DA008091D90080FF94C080E189BD96
:1049D00082E189BD09B400FEFDCF81E080934702EA
:1049E0000E942C218091E10080FF19C08091E2009B
:1049F00080FF15C08091E2008E7F8093E20080915D
:104A0000E20080618093E2008091D8008062809310
:104A1000D80019BC85E0809347020E943E21809116
:104A2000E10084FF29C08091E20084FF25C080E17D
:104A300089BD82E189BD09B400FEFDCF8091D80017
:104A40008F7D8093D8008091E1008F7E8093E1007C
:104A50008091E2008F7E8093E2008091E20081608D
:104A60008093E20080914302882309F449C084E0E6
:104A7000809347020E943F218091E10083FF29C07B
:104A80008091E20083FF25C08091E100877F8093C1
:104A9000E10082E080934702109243028091E1009E
:104AA0008E7F8093E1008091E2008E7F8093E20010
:104AB0008091E20080618093E20042E060E080E06B
:104AC0000E94B8238091F00088608093F0000E94DB
:104AD0003D21FF91EF91BF91AF919F918F917F9178
:104AE0006F915F914F913F912F910F900FBE0F905B
:104AF0001F90189519BC109247020E943A2172CF5C
:104B00008091E30087FD02C081E0B2CF83E0B0CFA7
:104B10001F920F920FB60F9211242F933F934F9332
:104B20005F936F937F938F939F93AF93BF93CF9335
:104B3000EF93FF93C091E900CF708091EC00109249
:104B4000E9008091F000877F8093F00078940E94C4
:104B5000C4251092E9008091F00088608093F000F5
:104B6000C093E900FF91EF91CF91BF91AF919F91D9
:104B70008F917F916F915F914F913F912F910F9006
:104B80000FBE0F901F9018951F93CF93DF93CDB753
:104B9000DEB7AA970FB6F894DEBF0FBECDBFE8E42C
:104BA000F2E08091F100819322E0E035F207C9F74D
:104BB0000E9455218091E80083FF42C08091480205
:104BC000909149029A3008F03BC0E92FF0E0E5519E
:104BD000FA4D0C948E28F525192620261926202614
:104BE000742696262026EB26F826803879F082381F
:104BF00039F580914C028F708093E9008091EB0031
:104C000085FB882780F91092E90006C08091440254
:104C100090914502911182609091E800977F909366
:104C2000E8008093F1001092F1008091E8008E7707
:104C30002DC0282F2D7F21F48823D1F0823059F107
:104C40008091E80083FF0AC08091E800877F80930D
:104C5000E8008091EB0080628093EB00AA960FB68B
:104C6000F894DEBF0FBECDBFDF91CF911F910895A5
:104C700080914A02813021F7933009F080E08093DF
:104C800045021092E9008091E800877F8093E80058
:104C90000E94EC23D5CF80914A028111F2CF8091FE
:104CA0004C028F7069F28093E9002091EB0020FFA5
:104CB000E8CF933031F48091EB0080628093EB0079
:104CC000E0CF9091EB0090619093EB0021E030E019
:104CD00001C0220F8A95EAF72093EA001092EA00B9
:104CE0008091EB008860EACF8111AACF10914A022F
:104CF0001F778091E3008078812B8093E30080917F
:104D0000E800877F8093E8000E94EC238091E80010
:104D100080FFFCCF8091E30080688093E30083E014
:104D2000111101C082E0809347028ACF80588230FF
:104D300008F086CF80914A0290914B028C3D23E08F
:104D40009207A1F583E08A838AE289834FB7F894BA
:104D5000DE01139620E03EE051E2E32FF0E05093B5
:104D60005700E49120FF03C0E295EF703F5FEF70C2
:104D70008E2F90E0EA30C0F0C7968D939D932F5F01
:104D8000243159F74FBF8091E800877F8093E80076
:104D90006AE270E0CE0101960E94F9228091E8005B
:104DA0008B778093E8004CCFC096E7CFAE014F5F82
:104DB0005F4F60914C020E943F22BC01892B09F495
:104DC0003FCF9091E800977F9093E80089819A8186
:104DD0000E945823E3CF803809F032CF8091E80059
:104DE000877F8093E800809143028093F1001DCF7C
:104DF000811126CF90914A02923008F021CF809104
:104E0000E800877F8093E800909343020E94EC23A0
:104E100080914302882331F084E0809347020E940E
:104E200041210ECF8091E30087FDF6CF81E0F5CFE1
:104E30000895CF9380914702882399F0C091E900AB
:104E4000CF708091EC0080FD0EC080E0C82B1092E6
:104E5000E9008091E80083FD0E94C425CF70C093D3
:104E6000E900CF91089580E8F1CF0E943C27689433
:104E7000B1110C94CB2708950E94B02788F09F575A
:104E800098F0B92F9927B751B0F0E1F0660F771F6E
:104E9000881F991F1AF0BA95C9F714C0B13091F064
:104EA0000E94CA27B1E008950C94CA27672F782F73
:104EB0008827B85F39F0B93FCCF386957795679529
:104EC000B395D9F73EF490958095709561957F4F95
:104ED0008F4F9F4F0895E89409C097FB3EF490953B
:104EE0008095709561957F4F8F4F9F4F9923A9F0C3
:104EF000F92F96E9BB279395F69587957795679552
:104F0000B795F111F8CFFAF4BB0F11F460FF1BC095
:104F10006F5F7F4F8F4F9F4F16C0882311F096E928
:104F200011C0772321F09EE8872F762F05C06623D6
:104F300071F096E8862F70E060E02AF09A95660F8F
:104F4000771F881FDAF7880F9695879597F9089548
:104F500057FD9058440F551F59F05F3F71F047952A
:104F6000880F97FB991F61F09F3F79F0879508950F
:104F7000121613061406551FF2CF4695F1DF08C02E
:104F8000161617061806991FF1CF8695710561054B
:104F900008940895E894BB2766277727CB0197F9F3
:104FA00008950E94E4270C9455280E94472838F061
:104FB0000E944E2820F0952311F00C943E280C946A
:104FC000442811240C94CB270E94A82770F3959FA6
:104FD000C1F3950F50E0551F629FF001729FBB27F0
:104FE000F00DB11D639FAA27F00DB11DAA1F649F8C
:104FF0006627B00DA11D661F829F2227B00DA11D3F
:10500000621F739FB00DA11D621F839FA00D611DC4
:10501000221F749F3327A00D611D231F849F600DE5
:10502000211D822F762F6A2F11249F5750409AF00E
:10503000F1F088234AF0EE0FFF1FBB1F661F771F9A
:10504000881F91505040A9F79E3F510580F00C9465
:105050003E280C94CB275F3FE4F3983ED4F386952B
:1050600077956795B795F795E7959F5FC1F7FE2B05
:10507000880F911D9695879597F9089597F99F67E1
:1050800080E870E060E008959FEF80EC08950024D0
:105090000A941616170618060906089500240A949D
:1050A00012161306140605060895092E0394000C23
:1050B00011F4882352F0BB0F40F4BF2B11F460FFB2
:1050C00004C06F5F7F4F8F4F9F4F0895AA1BBB1B7C
:1050D00051E107C0AA1FBB1FA617B70710F0A61BF8
:1050E000B70B881F991F5A95A9F780959095BC0119
:1050F000CD01089597FB072E16F4009407D077FD95
:1051000009D00E94662807FC05D03EF49095819551
:105110009F4F0895709561957F4F0895EE0FFF1F83
:105120000590F491E02D099481E090E0F8940C94BE
:10513000E128F999FECF92BD81BDF89A992780B5F3
:105140000895A6E1B0E044E050E00C94D328A8E133
:10515000B0E042E050E00C94D328262FF999FECF1E
:1051600092BD81BDF89A019700B4021639F01FBABA
:1051700020BD0FB6F894FA9AF99A0FBE08950396D7
:10518000272F0E94AE280E94AD28252F0E94AE280E
:10519000242F0C94AE280196272F0E94AE280C9441
:1051A000AD28DC01CB01FC01F999FECF06C0F2BDB0
:1051B000E1BDF89A319600B40D9241505040B8F7D5
:0651C0000895F894FFCFF2
:1051C600FFE4012808140A321E4A20DC20B7208199
:1051D600204D200130F5F6F76766363534979694FC
:1051E60091F4F1F0404D3639240AD709A10968092E
:0851F600FB0814092D0946090C
:00000001FF
