:100000000C94CA020C9411030C9411030C94110368
:100010000C9411030C9411030C9411030C94110310
:100020000C9411030C9411030C9475240C94472523
:100030000C94761E0C9411030C9411030C94110370
:100040000C9411030C947C030C9411030C94110375
:100050000C94A1030C94DE1E0C9411030C94110358
:100060000C9411030C9411030C9411030C941103C0
:100070000C9411030C9411030C9411030C941103B0
:100080000C9411030C9411030C9411030C941103A0
:100090000C9411030C9411030C9411030C94110390
:1000A0000C9411030C9411030C941103F404F60442
:1000B0000105F804FA04FC04FE0400050305050527
:1000C0000705120509050B050D050F05110514059A
:1000D0004714471479147914B9142A162A162A16C3
:1000E000D9142A1686158615F615FF152A16231615
:1000F00093159315931593159315931593159315C0
:1001000093159315931593159315931593159315AF
:10011000A215B015B715BE15C815B516B516C71674
:10012000C716BE16C716C716C716B516B516C31618
:10013000C716C716C316B425DB25CD26DB25CD266D
:1001400027264A26CD26A026AF26290014001A000D
:100150000800150017001C0018000C001200130006
:100160002B0004001600070009000A000B000D0018
:100170000E000F002800E1001D001B000600190002
:1001800005001100100036003700E5000000E00017
:10019000E20000002C422C4100006500E700000056
:1001A0002A0035002400250026002D002E003300F3
:1001B0002F003000380031002B00210022002300E6
:1001C000C25CC35CC55CC75CC95CCB5C2800E10059
:1001D0001E001F0020000000C45CC65CC85CCA5C36
:1001E000CC5CE5000000E000270000002C000100CE
:1001F0000000E600E4000000340000004000410080
:1002000042004300440045007F008100800046001A
:1002100039003D003E003F000000500052005100F8
:100220004F0000000000E1003A003B003C000000ED
:100230004A004B004E004D000000E5000000E000C9
:10024000E200000001002A000000E600E4000000D7
:100250004C0000047F3F1F643214643214783C1E4B
:100260001E140A052223252628292A2C2D2F303258
:10027000333536383A3B3D3E4042434547494A4C88
:100280004E5051535557595A5C5E606264666869B6
:100290006B6D6F71737577797B7D7F8183858789BE
:1002A0008A8C8E90929496989A9C9E9FA1A3A5A7C3
:1002B000A8AAACAEAFB1B3B4B6B8B9BBBCBEBFC1EF
:1002C000C2C3C5C6C7C9CACBCCCDCED0D1D2D2D37A
:1002D000D4D5D6D7D7D8D9D9DADADBDBDBDCDCDC8E
:1002E000DCDCDDDDDDDDDCDCDCDCDCDBDBDBDADA51
:1002F000D9D9D8D7D7D6D5D4D3D2D2D1D0CECDCCC8
:10030000CBCAC9C7C6C5C3C2C1BFBEBCBBB9B8B6DC
:10031000B4B3B1AFAEACAAA8A7A5A3A19F9E9C9A67
:1003200098969492908E8C8A89878583817F7D7B35
:1003300079777573716F6D6B6968666462605E5C16
:100340005A5957555351504E4C4A494745434240DC
:100350003E3D3B3A3836353332302F2D2C2A292872
:1003600026252322FFAA7F55400000000000000040
:10037000000000010101010101010101020202026C
:10038000020202020303030303030304040404043C
:1003900005050505050606060606070707070808FA
:1003A00008080909090A0A0A0B0B0B0C0C0C0D0DA5
:1003B0000D0E0E0E0F0F1010101111121213131438
:1003C00014151516161717181819191A1A1B1C1CAC
:1003D0001D1D1E1F1F202121222323242525262702
:1003E0002828292A2B2C2C2D2E2F30313132333432
:1003F00035363738393A3B3C3D3E3F404142434435
:1004000045464748494B4C4D4E4F50525354555713
:1004100058595A5C5D5E606163646567686A6B6CBD
:100420006E6F7172747677797A7C7D7F8182848633
:1004300087898B8D8E9092949597999B9D9FA1A271
:10044000A4A6A8AAACAEB0B2B4B6B9BBBDBFC1C376
:10045000C5C8CACCCED0D3D5D7DADCDEE1E3E6E836
:10046000EAEDEFF2F4F7F9FCFF0403300000000CB2
:100470000344006100690073007900000012034B1F
:10048000002E0054002E0045002E0043002E0000D8
:10049000000403090409023B00020100A0FA090458
:1004A00000000103010100092111010001224000A7
:1004B0000705810308000A09040100010300000088
:1004C0000921110100012271000705820320000AA1
:1004D0001201100100000008091228230105010281
:1004E000030105010980A10185031601002603000F
:1004F0001A81002A8300751095018100C0050C093E
:1005000001A1018504160100269C021A01002A9C03
:1005100002751095018100C005010906A10185053C
:10052000050719E029E715002501950875018102E5
:1005300005081901290595057501910295017503B5
:1005400091010507190029EF1500250195F07501A6
:100550008102C005010906A101050719E029E71577
:100560000025019508750181029501750881010535
:1005700008190129059505750191029501750391E9
:10058000010507190029FF150026FF0095067508CB
:100590008100C00011241FBECFEFDAE0DEBFCDBF67
:1005A00004B603FE27C08091600290916102A09181
:1005B0006202B09163028730904BA740B04BD1F4F8
:1005C0001092600210926102109262021092630215
:1005D00014BE84B7877F84BF0FB6F894A895809126
:1005E0006000886180936000109260000FBEEEE3AF
:1005F000F6E3099511E0A0E0B1E0E4EAFFE402C00F
:1006000005900D92A235B107D9F722E0A2E5B1E03D
:1006100001C01D92A036B207E1F70E9497210C9409
:10062000D0270C94000081FF02C03E9A01C03E9882
:1006300046980C94630481E0089581E008950C9439
:100640001D031F93CF93DF9300D000D01F92CDB72F
:10065000DEB749835A832091860189819A812111CD
:1006600012C0662349F00E94DA1B182F682F898177
:100670009A810E947F1B03C00E94AE1B182F6981C4
:100680007A81812F04C00E94DA1B69817A810F90E0
:100690000F900F900F900F90DF91CF911F910C94BE
:1006A0008506FC01408151816281738184810C94B3
:1006B00021030C943609E82FE295EF70F0E032A1A7
:1006C000282F2F7081E090E001C0880F2A95EAF76B
:1006D0008095832382A30895E82FE295EF70F0E0E0
:1006E00032A1282F2F7081E090E001C0880F2A9559
:1006F000EAF7832B82A308951F920F920FB60F92F1
:1007000011242F933F934F935F936F937F938F9316
:100710009F93AF93BF93EF93FF9380E90E946C0385
:10072000FF91EF91BF91AF919F918F917F916F91C9
:100730005F914F913F912F910F900FBE0F901F909F
:1007400018951F920F920FB60F9211242F933F937B
:100750004F935F936F937F938F939F93AF93BF93C9
:10076000EF93FF93809188009091890081309140B0
:1007700018F080E90E945B03FF91EF91BF91AF9168
:100780009F918F917F916F915F914F913F912F91A9
:100790000F900FBE0F901F901895CF92DF92EF929F
:1007A000FF92CF93C82F8730B0F4811115C080918C
:1007B000880090918900892BF9F080916F008D7FDE
:1007C00080936F0080916F008E7F80936F0080E92F
:1007D0000E946C0311C0C6E080918800909189004E
:1007E000892B51F480916F00826080936F0080911B
:1007F0006F00816080936F002C2F30E0AFEFBFEF70
:100800000E94612726E030E040E050E00E94392756
:100810002C3784E138074105510530F4C90169E0FE
:1008200070E00E94112729C0DA01C9018A50974D52
:10083000AF4FBF4F6627782F892F9A2F25EF38E2C9
:1008400041E050E00E94392769017A01CA01B901EB
:100850000E9401279B01AC01C701B6010E9401273C
:10086000BB27A92F982F872F009721E0A207B1055A
:1008700011F0BC0102C06FEF7FEF709389006093AD
:100880008800CF91FF90EF90DF90CF900895509A1D
:1008900080E90E945B0382E08093800089E180937D
:1008A00081008FEF9FEF90938700809386000C94D8
:1008B000411F0E940A1D811102C00E948D1D0E94CD
:1008C00047040C94330908950C94130308950E946F
:1008D000A5160E9466042FEF84E39CE0215080401F
:1008E0009040E1F700C000000C94041F0F931F9389
:1008F000CF93DF938C010E945103EC01B8010E9459
:100900001F03882309F4F7C1B801CE010E94D0105B
:10091000882309F4F0C1CA3CFCE5DF0741F4F80183
:100920008281882309F4E7C10E942B0DE4C1CB3CEE
:100930008CE5D80708F012C1C33C9CE5D90761F4E7
:10094000F8018281882309F4D6C10E945A1C827260
:10095000E1F00E94440FCFC1C43CECE5DE07C0F0DB
:10096000C63C9CE5D90709F4CAC008F0DCC0C43C09
:10097000FCE5DF0709F0CBC0F8018281882309F488
:10098000BAC10E945A1C827221F30E94370FB3C170
:10099000C531FCE5DF0708F07BC0C2308CE5D80725
:1009A00008F452C0F8018281882309F454C00E94DF
:1009B0000A1D811102C00E948D1D0E941D1D90E024
:1009C0009093510280935002FE01E350FC45E231C6
:1009D000F10530F4EA5AFF4F809150020C945B27E6
:1009E00080915002816027C0826025C0846023C04E
:1009F000806121C080621FC080641DC080681BC0F0
:100A00008460886018C08E7F16C08D7F14C08B7F75
:100A100012C08F7E10C08F7D0EC08F7B0CC08F7771
:100A20000AC08B7F877F07C087FB222720F991E0D0
:100A3000922790FB87F980935002809150020E9488
:100A4000211D0E94A51657C1C1159CE5D90751F07B
:100A5000C130DC4579F0C801DF91CF911F910F9132
:100A60000C941B03F8018281882309F444C10E947D
:100A7000670441C1F8018281882309F43CC1809157
:100A80000A02982F909590FB80F980930A0233C157
:100A9000C631FCE5DF0739F50E945A1C282FF80102
:100AA00082814091100150911101882379F02A7AB6
:100AB00091E009F490E090935201911102C069E233
:100AC00001C065E3CA010E94F41D0AC08091520171
:100AD000811102C069E201C065E3CA010E94FF1DE5
:100AE0000E94A61C08C1C23CDC4509F0B4CFF80145
:100AF0008281882309F4FFC00E94520FFCC0F801D4
:100B00008281882309F4F7C00E94EF0CF4C0C53C31
:100B1000DC4509F0A0CFF8018281882309F4EBC0FD
:100B20000E94E20CE8C0F8018281C83CFCE5DF07C6
:100B300031F4882309F4DFC00E940D0DDCC0C93CEC
:100B4000DC4530F4882309F4D6C00E94FE0CD3C0E3
:100B5000882309F4D0C00E941C0DCDC0C13DECE536
:100B6000DE0791F4F8018281882309F4C4C00E9451
:100B70005D0B8F3028F00E945D0B843108F405CFA7
:100B80008FE00E94470FB7C0C23DFCE5DF0708F0C9
:100B90005AC0CD3C8CE5D80739F4F801828188230E
:100BA00009F4A9C081E0EDCFCE3C9CE5D907C0F4A3
:100BB000CB3CECE5DE0741F4F8018281882309F49F
:100BC0009AC00E94650B97C0CC3CDC4509F043CF2E
:100BD000F8018281882309F48EC00E94760B8BC0B5
:100BE000F8018281CF3CFCE5DF0771F4882309F42A
:100BF00082C00E945D0B863028F00E945D0B883019
:100C000008F4C3CE86E0BDCFC03DDC4570F4882338
:100C100009F471C00E945D0B823028F00E945D0BC8
:100C2000853008F4B2CE82E0ACCF882309F463C0EB
:100C30000E945D0B893028F00E945D0B8E3008F415
:100C4000A4CE89E09ECFC53DECE5DE0739F4F8017E
:100C50008281882309F44FC083E293CFC63DFCE52F
:100C6000DF0740F5F8018281C33DFCE5DF0729F489
:100C7000882309F440C088E184CFC43DDC4568F492
:100C80008823C9F10E945D0B853128F00E945D0B1D
:100C9000873108F47ACE85E174CF882361F10E9410
:100CA0005D0B893128F00E945D0B823208F46DCE15
:100CB00089E167CFCD3DECE5DE0741F4F8018281A3
:100CC0008823C9F082E00E94382215C0CE3DFCE5A1
:100CD000DF0739F4F8018281882369F00E948D1DB5
:100CE0000AC0CC3DDC4509F0B6CEF80182818823EC
:100CF00011F080E0E8CF80E0DF91CF911F910F915C
:100D0000089580E090E0089508959BE0799FF001B8
:100D100011249CE2899FE00DF11D1124E60FF11DC5
:100D2000EE0FFF1FE65BFE4F859194910895880FAB
:100D3000991FFC01EE5AFD4F859194910895CF9330
:100D4000DF930E9485060E949208EC01811521E53F
:100D5000920708F042C0811560E5960708F031C19E
:100D6000883E910500F5803E910508F0D7C1883A8C
:100D7000910570F4853A910508F0A6C0813091057F
:100D800009F4CCC108F47DC1049708F0C7C179C14A
:100D90008F3B910508F4A3C0803C910508F471C114
:100DA000805C9109FDC0C11580E3D80780F4C115AE
:100DB00090E2D90708F0F2C0C03FD10508F461C144
:100DC000CF3FD10511F008F0A9C1D065A7C1C11569
:100DD00020E4D20708F0F2C0E7C0811569E5960764
:100DE00060F5C11588E5D80708F037C1C11594E54D
:100DF000D90778F4C11523E5D20708F013C1C1154E
:100E000062E5D60708F0F8C0DC2FCC27C16FD06AA6
:100E100085C1C11585E5D80708F41AC1C11596E545
:100E2000D90708F02EC18C2F0E940F098F71C82F8F
:100E3000D0E0DC2FCC27D06271C18D3B2CE592072E
:100E400009F416C1F0F4CB3B8CE5D80709F40AC1CC
:100E500008F00BC1C1152AE5D20708F012C18C2F8A
:100E60008F700E940F0994E0D695C7959A95E1F787
:100E7000CF70D0E0DC2FCC27D06A8F70806EC82B6B
:100E80004DC1803C9C4509F4F9C0C13C8CE5D807B4
:100E900060F4CE3B9CE5D90709F4EDC0CF3BDC45BF
:100EA00009F0EFC0C0E0D2ED39C1CE0190568115F6
:100EB000904208F0E6C08D2F8F710E940F09DD2748
:100EC000D0628F71D82B2AC1853A910509F4DCC014
:100ED000863A910509F0DBC0C2E8D0E41FC1883A28
:100EE000910509F4D7C0893A910509F4D6C08A3A28
:100EF000910509F4D5C08B3A910509F4D4C08C3A18
:100F0000910509F4D3C08B3B910509F4D2C08C3B09
:100F1000910509F4D1C08D3A910509F4D0C0803B08
:100F2000910509F4CFC08E3A910509F4CEC08F3AED
:100F3000910509F4CDC0813B910509F4CCC0823BF9
:100F4000910509F4CBC0833B910509F4CAC0843BE9
:100F5000910509F4C9C0853B910509F4C8C0863BD9
:100F6000910509F4C7C0873B910509F4C6C0883BC9
:100F7000910509F4C5C0893B910509F4C4C08D3BB6
:100F8000910509F4C3C08E3B910509F4C2C08A3BA8
:100F9000910509F4C1C0C0E0D4E4C0C0CE019F7087
:100FA0000E949706EC01BAC0CE019927D3FF03C077
:100FB000EC01D86CB3C0EC01D06CB0C0DF70D06A6B
:100FC000ADC0837021E030E002C0220F331F8A954C
:100FD000E2F73C68CE0174E0969587957A95E1F743
:100FE0008370382BCF70C695C69580E2C89FE0010C
:100FF0001124C22BD32B92C04C2F4695469590E2DC
:10100000499FA0011124C370DD2721E030E0C90110
:1010100002C0880F991FCA95E2F7EC01C42BD52BAB
:10102000DC687CC04C2F4695469580E2489FA00125
:101030001124C370DD2721E030E0C90102C0880F10
:10104000991FCA95E2F7EC01C42BD52BDA6866C06C
:10105000DC2FCC27C46FD06A61C0DC2FCC27C06FD7
:10106000D06A5CC0C0E0D4ED59C0C0E0D5ED56C038
:10107000C0E0D1ED53C0C0E0D0ED50C0C0E0D3ED32
:101080004DC0C0E0D0E04AC0C1E8D0E447C0C3E8EA
:10109000D0E444C0C2EED4E441C0C9EED4E43EC0C2
:1010A000CAEED4E43BC0C5EBD4E438C0C6EBD4E40C
:1010B00035C0C3EBD4E432C0C4EBD4E42FC0C7EBDB
:1010C000D4E42CC0CCECD4E429C0CDECD4E426C0CC
:1010D000C3E8D5E423C0CAE8D5E420C0C2E9D5E41A
:1010E0001DC0C4E9D5E41AC0C1E2D6E417C0C3E20A
:1010F000D6E414C0C4E2D6E411C0C5E2D6E40EC002
:10110000C6E2D6E40BC0C7E2D6E408C0CFE6D4E41A
:1011100005C0C0E7D4E402C0CAE2D6E4CE01DF9144
:10112000CF9108958238910549F1B0F4813391054A
:1011300009F458C048F48932910509F44EC08A3246
:10114000910509F454C008958533910509F440C010
:101150008933910599F00895833E910529F138F47A
:10116000803E910591F0823E9105A1F00895863E62
:101170009105F9F0873E910531F1089520915002D3
:1011800020FD3AC021FD38C008958091500280FDB5
:1011900035C032C08091500282FF32C0809150022F
:1011A00084FD30C083EE39C08091500282FD28C09A
:1011B000F5CF8091500283FF27C08091500284FDBB
:1011C00021C087EE2AC08091500283FD1DC0F5CF5B
:1011D0008091500285FD1AC01BC08091500285FD90
:1011E00017C014C08091500286FD14C015C08091B4
:1011F000500286FD11C00EC080EE0FC089E30DC005
:1012000082EE0BC080E009C086EE07C089E205C00F
:1012100085E303C08AE201C081E390E008959091E4
:10122000500292FF0DC0282F2871283019F4877FB3
:10123000846006C0282F2471243011F48B7F8860CD
:1012400093FF0DC0282F2871283119F4877E8461FF
:1012500006C0282F2471243111F48B7E886194FDFF
:10126000877E089508950C94320908950C943509E9
:10127000E82FF0E0EE0FFF1FED5AFE4F80819181C5
:1012800008950895E8E2F1E041E050E024E02E0FF7
:101290009191A92FA295AF70B0E091963C91919752
:1012A0009F70BA0102C0660F771F9A95E2F7CB01D3
:1012B0008095832391968C932E13EACFADE1B1E014
:1012C00041E050E02BE02A0F8D91E82FE295EF707E
:1012D000F0E031A18F70BA0102C0660F771F8A95C6
:1012E000E2F7CB01962F9095932391A392A1892B9E
:1012F00082A32A13E9CF10925C0110925B01109235
:1013000054011092530110925E0110925D011092EF
:101310005601109255011092600110925F011092D7
:1013200058011092570110926201109261011092BF
:101330005A011092590184E00E94380A0C94590411
:101340004F925F927F928F929F92AF92BF92CF9275
:10135000DF92EF92FF920F931F93CF93DF9328E2D8
:10136000422E21E0522EABE5B1E020E001E010E09A
:101370005D018D909C90119711961C921E92E20136
:1013800089912E01E82FE295EF70F0E031A18F7086
:10139000A80102C0440F551F8A95E2F7CA01342BF9
:1013A00031A342A1382F3095432342A350EA5A95E6
:1013B000F1F79DE1C92E91E0D92E40E050E0E60121
:1013C00079906E01672D62956F7070E0EB01E8A077
:1013D0006D917C911197F12CD72DDF7002C0F5949F
:1013E000E794DA95E2F7E0FC08C07801042E02C029
:1013F000EE0CFF1C0A94E2F702C0E12CF12C6E29DE
:101400007F2911967C936E934F5F5F4F4B30510550
:10141000B1F691A1392331A392A1892B82A312960F
:1014200081E0F501408151818416950609F480E040
:10143000282BF1E0A336BF0709F09ACF44E063E51B
:1014400071E08BE591E00E94390A0E94590381E026
:10145000DF91CF911F910F91FF90EF90DF90CF9090
:10146000BF90AF909F908F907F905F904F90089526
:101470000895FF920F931F93CF93DF93F82E092FB8
:10148000162FD72FC42F222349F081E080936501C6
:101490000E94A81E9093640180936301809165016E
:1014A0008823D9F080916301909164010E94B41E59
:1014B000069798F0EF2DF02FA12FBD2F80E090E040
:1014C0004C2F50E08417950734F4219131912D93DE
:1014D0003D930196F7CF10926501DF91CF911F9157
:1014E0000F91FF900895CF92DF92EF92FF920F93AA
:1014F0001F93CF93DF937B01282F382FE82FF0E045
:10150000F11006C0E759FC4F6491762F862F7BC0FF
:101510000F2D10E046E0649FC0011124CFEFD0E012
:10152000BE010E941127AB016BEA6403C001659FF5
:10153000900D11248E0D911D8E0D911D982F990FD8
:10154000980FBE01601B710B6E9FD0016F9FB00D95
:101550007E9FB00D11248B2F9F9DB0011124672F0A
:1015600077277E01E61AF70AB7016E9F70016F9F19
:10157000F00C7E9FF00C11246E01C91AD108C09E98
:10158000B001C19E700DD09E700D1124672F77277A
:10159000C61BD70BCE9F8001CF9F100DDE9F100D75
:1015A0001124712F4230510591F04CF44115510531
:1015B000D9F041305105B1F4722F2F2D15C04430B0
:1015C000510561F044F04630510571F00BC02B2FEE
:1015D000812F732F09C07F2D2B2F02C0212F7B2F2E
:1015E000832F02C07B2F8F2DE22FF0E0E759FC4FB5
:1015F0006491E72FF0E0E759FC4F7491E82FF0E099
:10160000E759FC4F8491DF91CF911F910F91FF908B
:10161000EF90DF90CF9008950895CF93DF93762FCA
:10162000E901682F842F0E94730A698378838A8373
:10163000DF91CF91089580912F02282F269530E0D9
:101640002115310519F48170826005C025323105FC
:1016500024F08170886480932F02089588E090E0E0
:101660000C949027CF93DF9300D000D0CDB7DEB796
:10167000AB01BC0149835A836B837C830E941B0BA3
:1016800049815A816B817C8188E090E00F900F90B6
:101690000F900F90DF91CF910C94AE27EFE2F2E024
:1016A00083E0808311828FEF828383831482608141
:1016B0007181828193810C94320B80912F0280FF83
:1016C00002C08695089580E00895809133028330AA
:1016D00018F48F5F8093330260912F027091300273
:1016E00080913102909132020C94320B809133023E
:1016F000882319F081508093330260912F027091FA
:10170000300280913102909132020C94320B609140
:10171000040170E080912F0280FF0AC080916A016D
:1017200023E0829FC00111248C5C9D4F0C946010BB
:101730008091690190910301891780F7E82FF0E00B
:101740009F01220F331FE20FF31FEC5CFD4F11824C
:10175000108212828F5FF0CF90912F0290FF16C0FF
:101760009091690120910301921770F4E92FF0E044
:10177000DF01AA0FBB1FEA0FFB1FEC5CFD4F81834B
:10178000608342839F5FF0CF0C94870B0895CF93C3
:10179000DF9300D01F92CDB7DEB790912F0290FF5C
:1017A0000AC09E012F5F3F4F0E940D0B4B81698144
:1017B0008A810E94AC0B0F900F900F90DF91CF9118
:1017C0000895CF93DF93EC01EC81F0E0EC59FD4FED
:1017D0004491EFE2F2E0628181810E94C70B8C812B
:1017E0008F5F8C83DF91CF910895CF93DF93EC01CE
:1017F000EFE2F2E0438162818C810E94C70B8C8111
:101800008F5F8C83DF91CF9108950F931F93CF93B8
:10181000DF9300D01F92CDB7DEB78C0180916601B7
:1018200081110AC09E012F5F3F4F4FEF6FEF0E9463
:101830000D0B8A8180936601F8018481813051F01B
:1018400028F0823061F4409166010AC080916601FF
:1018500040E007C06091660140E080E003C040E0E6
:1018600080E060E00E94AC0BF801248130E0C90107
:10187000019663E070E00E94252784830F900F900B
:101880000F90DF91CF911F910F910895AF92BF926A
:10189000CF92DF92EF92FF920F931F93CF93DF933C
:1018A00000D01F92CDB7DEB7182FF62E042FE22EF0
:1018B00090912F0290FF6EC0E92FE695AE2FB0E019
:1018C000A45DBE4F8C91809372019E7F923061F433
:1018D0009E012F5F3F4F812F0E940D0B4B8169812D
:1018E0008A810E94AC0B44C0823019F4009132020C
:1018F0003FC0863019F4109130023AC08930D9F3D4
:101900008931B1F5E9518E2F8170D82EE695F0E03E
:10191000EC59FC4FA590B490C12CBB2460910201FE
:10192000C61620F5EC2DF0E0EA9DC001EB9D900D70
:10193000FA9D900D112470E00E941127812FD11083
:1019400002C0860F01C0861B90916901E90FF11D4D
:101950009F01220F331FE20FF31F9F012C5C3D4FAD
:10196000402F6F2D0E940D0BC394D8CF0E94870B80
:1019700010933002F092310200933202EE2051F0C7
:1019800060912F0270913002809131029091320269
:101990000E94320B0F900F900F90DF91CF911F910B
:1019A0000F91FF90EF90DF90CF90BF90AF90089590
:1019B000EFE2F2E09181282F438162818CE0890F70
:1019C0000C94460C81E00C94D80CEFE2F2E091818B
:1019D000282F4381628184EF890F0C94460C81E0AB
:1019E0000C94E50CEFE2F2E0628129E1620F08F469
:1019F0006FEF282F438181810C94460C81E00C9479
:101A0000F20CEFE2F2E0628129E1621B08F460E08F
:101A1000282F438181810C94460C81E00C94010DA8
:101A2000EFE2F2E043812CE0420F08F44FEF282F61
:101A3000628181810C94460C81E00C94100DEFE2E0
:101A4000F2E043812CE0421B08F440E0282F628141
:101A500081810C94460C81E00C941F0D20E00C94C5
:101A6000460CFF920F931F93CF93DF93EC01F12C61
:101A70000FEF10E060910201F616E8F42091690181
:101A800030E02F0D311DC901880F991F280F391F14
:101A90002C5C3D4F70E0C8010E942527962F8C8159
:101AA0004091320260913102F99E800D11240E9412
:101AB0000D0BF394DFCF0E94870B9A818C8190FFEE
:101AC00002C08F5F01C081508C83DF91CF911F9145
:101AD0000F91FF900895BF92CF92DF92EF92FF9205
:101AE0000F931F93CF93DF93FC01828180FF02C08D
:101AF0000FEF01C001E010E0809102011817E0F53E
:101B0000C12ED12C80916901E601C80FD11DCE01F3
:101B1000880F991FC80FD91FCC5CDD4F198218821E
:101B20001A8234E0E32EF12CB12C809168018B0DE8
:101B300087FF03C090910201890F082E000C990BBA
:101B4000C816D90691F4809132028E9DA0018F9D16
:101B5000500D112455954795559547959E016091D7
:101B60003102809130020E940D0BB00EF1E0EF1AAD
:101B7000F108D9F61F5FC0CF0E94870B80916801E2
:101B8000013031F4811102C080910201815007C0FF
:101B900090E001966091020170E00E9425278093F9
:101BA0006801DF91CF911F910F91FF90EF90DF902F
:101BB000CF90BF900895CF938091690190910301D8
:101BC000891770F4E82FF0E09F01220F331FE20F16
:101BD000F31FEC5CFD4F1182108212828F5FF0CFF9
:101BE000C0E060910201C617B8F5EC2FF0E070E09C
:101BF000CF010E94252740916901480F809167011C
:101C0000082E000C990B50E0E817F907C4F020915A
:101C10000101022E000C330B2E173F0784F09A01AE
:101C2000220F331F240F351F2C5C3D4F4091320291
:101C300060913102809130020E940D0B0BC0FA01BD
:101C4000EE0FFF1F4E0F5F1FFA01EC5CFD4F11827C
:101C500010821282CF5FC5CF0E94870B20910001B6
:101C600080916701820F8093670190910101920F2B
:101C70009093010119165CF4082E000C990B409109
:101C8000020150E041505109841795071CF021953D
:101C900020930001CF9108950F931F93CF93DF936B
:101CA0008C01FC018481958101968170992795832F
:101CB0008483C0E0D5E580910201C817F8F4209133
:101CC000690130E02C0F311DC901880F991F280FC1
:101CD000391F2C5C3D4F4C2F4695F801848195812E
:101CE000840F911D817040913202609131028D9F6D
:101CF000802D11240E940D0BCF5FDDCFDF91CF919E
:101D00001F910F910C94870B0F931F93CF93DF9329
:101D1000EC0100E010E080910201282F30E0021772
:101D2000130724F5909169019801290F311DA9012C
:101D3000440F551F240F351F2C5C3D4F869590E0B6
:101D40004C81081719071CF4442331F002C04111DB
:101D500003C04091320201C040E0609131028091A5
:101D600030020E940D0B0F5F1F4FD5CF0E94870BD3
:101D70002C8130E02F5F3F4F217033272C83DF9180
:101D8000CF911F910F910895EFE2F2E080818E7F55
:101D9000808360817181828193810E94320B1092D5
:101DA00073012FEF80E792E0215080409040E1F7EF
:101DB00000C000000C94870B60912F02669570E0C4
:101DC0004BE050E085E091E00E947B27892B19F4DD
:101DD00081E0809373010E94A81E90936C01809310
:101DE0006B01089590912F0290FF35C09170811181
:101DF00002C0926006C0853210F0986402C0880F5D
:101E0000982B90932F02662351F060912F027091CE
:101E1000300280913102909132020E94320B609127
:101E20002F02669570E04BE050E085E091E00E9463
:101E30007B27892B19F01092730102C00E94DC0EDF
:101E400081E080936E014091320260913102809175
:101E500030020C942E0D0895682F90912F029695C4
:101E600081E0890F853208F081E00C94F20E81E068
:101E70000C942C0F682F90912F0296958FEF890F5D
:101E800009F484E20C94F20E81E00C943A0F61E0C4
:101E90000C94F20EEFE2F2E08081816080838695FF
:101EA0000C94470F80912F0280FD0C94C40E0C946B
:101EB0004A0F60E00C94F20E80917101811133C0E1
:101EC00080910A02816080930A020E940A1D81119A
:101ED00004C00E948D1D0E944E0B0E942E0B609329
:101EE0002F027093300280933102909332026E7F02
:101EF00061F40E944E0B0E942E0B60932F02709390
:101F0000300280933102909332020E941B0B109298
:101F1000730180912F0280FF03C086950E94590FA4
:101F200081E08093710108950F931F93CF93DF9306
:101F300080917301882309F48CC080917201E09133
:101F40002F02E695E81BE0936D01823049F4F0E042
:101F5000E05AFD4FE491CE2FD0E001EE1BE049C0E6
:101F6000863049F4F0E0E35AFD4FE491CE2FD0E003
:101F700005EF1BE03EC0893051F4E695F0E0E65AEB
:101F8000FD4FE491CE2FD0E001E31DE032C08F3051
:101F900051F4E695F0E0E95AFD4FE491CE2FD0E000
:101FA0000BE61DE026C0853149F4F0E0EC5AFD4F08
:101FB000E491CE2FD0E00BED1DE01BC0883181F005
:101FC000833239F4E2E5F2E0C591D49105E01CE0FA
:101FD00010C0843251F4C4EFD1E004E81EE009C01F
:101FE000C8EED3E00CE41EE004C0C0EDD7E00CE086
:101FF0001BE080916E01882389F010926E010E948F
:10200000A81E9E0120953095820F931F90936C011E
:1020100080936B011092700110926F0180916B019F
:1020200090916C010E94B41E8C179D0790F0E09176
:102030006B01F0916C01CE0FDF1FD0936C01C09348
:102040006B018BE691E0F801DF91CF911F910F9129
:102050000994DF91CF911F910F91089528B1342FEA
:102060003095232338B1432B3FB7F894FC01680F18
:10207000791FE617F70789F0819198E048B90000C9
:1020800000C087FF28B9880F000000C000C000C052
:1020900028B900C09A9591F7ECCF3FBF089527B1BA
:1020A000242B27B99B01220F331F620F731F0E943D
:1020B0002E1087EC90E00197F1F700C00000089522
:1020C00040E80C944F100F931F93CF93DF93C62FCC
:1020D000D42F022FFC0182818823C9F060937601FE
:1020E0000E94A81E909375018093740180E28C0F6A
:1020F000883008F050C0C77081E001C0880FCA95D1
:10210000EAF7DF91CF911F910F910C940314109176
:102110007601161330C080917401909175010E9470
:10212000B41E883C910538F5C0E2CD0F1D17B9F0FB
:1021300080E2810F883040F4177081E001C0880F81
:102140001A95EAF70E940A14C83048F481E09D2FDE
:10215000977001C0880F9A95EAF70E940314802FA8
:102160000E94F013C830B8F4D77081E001C0880F26
:10217000DA95EAF70AC080E28C0F883060F4C77005
:1021800081E001C0880FCA95EAF7DF91CF911F91D6
:102190000F910C940A14DF91CF911F910F91089524
:1021A0009C01CB01203F4CE53407F9F078F4283D41
:1021B000FCE53F07B9F0293D4CE5340711F1273D17
:1021C0003C4531F526E241EE61EE1EC0223FFCE5C2
:1021D0003F0799F070F0233F3C45D1F427E245EEEC
:1021E00066EE12C027E245EE0EC026E241EE60EE3A
:1021F0000BC027E245EE64EE07C026E241EE62EE38
:1022000003C028E241E065EE0E94631080E008957B
:10221000FC018281882319F010927601089581E0F3
:10222000089590937C0180937B010895E0917B0158
:10223000F0917C01309721F00190F081E02D09941C
:1022400080E00895E0917B01F0917C01309799F056
:1022500020911C01222359F02091500227FF07C032
:10226000DC012C9111962C93119725E02C93028080
:10227000F381E02D099408952091790130917A013C
:102280008217930771F090937A0180937901E0911E
:102290007B01F0917C01309721F00680F781E02DE1
:1022A000099408952091770130917801821793075E
:1022B00071F09093780180937701E0917B01F09128
:1022C0007C01309721F00084F185E02D0994089578
:1022D00085B7806885BF85B7806885BF08950895F4
:1022E00008950C94701108950C9473110E94681154
:1022F0000E946F110C94711181E008950E949F1E3D
:102300000E9442090E94281F0E94411F0E945C0FE8
:102310000C9474114F925F927F928F929F92AF9222
:10232000BF92CF92DF92EF92FF920F931F93CF93C2
:10233000DF93CDB7DEB72A970FB6F894DEBF0FBE96
:10234000CDBF0E94A0090E947C11811111C08FEFA6
:1023500089838A831B820E94A81E8160782F9D83B7
:102360008C8349815A816B818D810E94461257C0AE
:102370009EE7C92E91E0D92E00E010E0AA24A39494
:10238000B12C702E802F0E9438094C01F60141902B
:1023900051906F01482659264114510431F40F5FC2
:1023A0001F4F0430110569F7D2CF80910A0281FDD9
:1023B0000E94410920E030E07501022E02C0EE0CBF
:1023C000FF1C0A94E2F7C70184219521892B09F1AA
:1023D0002E837F828E209F2091E0892809F490E04F
:1023E00098870E94A81E8160782F9A8789874E81DE
:1023F0005F8168858A850E944612000F111FF801CF
:10240000E258FE4F80819181E826F926F182E08230
:1024100006C02F5F3F4F2B30310571F6C0CF1091B2
:102420007D010E9416111817D9F00E941611809391
:102430007D012A960FB6F894DEBF0FBECDBFDF91A7
:10244000CF911F910F91FF90EF90DF90CF90BF90B1
:10245000AF909F908F907F905F904F900C9464040A
:102460002A960FB6F894DEBF0FBECDBFDF91CF9195
:102470001F910F91FF90EF90DF90CF90BF90AF90A2
:102480009F908F907F905F904F900895CF93DF93B0
:10249000CDB7DEB72B970FB6F894DEBF0FBECDBF1A
:1024A0004F83588769877A878B87DE01119686E08C
:1024B000FD0111928A95E9F785E0FE0137960190BA
:1024C0000D928A95E1F749815A816B817C818D81DA
:1024D0009E810E944F192B960FB6F894DEBF0FBE57
:1024E000CDBFDF91CF910895FC01808191810E9441
:1024F0001B1C0895882309F413C1682F8238C1F486
:102500000E94161181FD0CC169E380911001909128
:1025100011010E94F41D0E94A61C2FEF81EE94E091
:10252000215080409040E1F700C0000069E319C0ED
:102530008338F9F40E94161180FDF2C063E58091A2
:102540001001909111010E94F41D0E94A61C2FEF12
:1025500081EE94E0215080409040E1F700C00000FF
:1025600063E580911001909111010E94FF1D0C9470
:10257000A61C8438C1F40E94161182FDD1C067E404
:1025800080911001909111010E94F41D0E94A61CDF
:102590002FEF81EE94E0215080409040E1F700C0A1
:1025A000000067E4DECF8CEF860F813A38F480912B
:1025B0001001909111010E94F41DD9CF80E2860F85
:1025C000883048F4677081E001C0880F6A95EAF7A7
:1025D0000E945D1CCCCF8BE5860F833070F4653A8A
:1025E00029F0663A31F083E890E005C081E890E098
:1025F00002C082E890E00C943C1188E5860F873198
:1026000008F08EC0683A09F445C0693A09F445C03B
:102610006A3A09F445C06B3A09F445C06C3A09F4CA
:1026200045C06B3B09F445C06C3B09F445C06D3AAD
:1026300009F445C0603B09F445C06E3A09F445C051
:102640006F3A09F445C0613B09F445C0623B09F4A7
:1026500045C0633B09F445C0643B09F445C0653B94
:1026600009F445C0663B09F445C0673B09F445C021
:10267000683B09F445C0693B09F445C06D3B09F46A
:1026800045C06E3B09F445C06A3B09F445C080E093
:1026900090E044C082EE90E041C089EE90E03EC000
:1026A0008AEE90E03BC085EB90E038C086EB90E08E
:1026B00035C083EB90E032C084EB90E02FC087EB15
:1026C00090E02CC08CEC90E029C08DEC90E026C00E
:1026D00083E891E023C08AE891E020C082E991E09C
:1026E0001DC084E991E01AC081E292E017C083E244
:1026F00092E014C084E292E011C085E292E00EC044
:1027000086E292E00BC087E292E008C08FE690E09C
:1027100005C080E790E002C08AE292E00C9452117A
:102720000895882309F45BC0682F823879F40E94E9
:10273000161181FF54C069E380911001909111013D
:102740000E94F41D0E94A61C69E310C08338B1F4F6
:102750000E94161180FF43C063E5809110019091A3
:1027600011010E94F41D0E94A61C63E580911001D6
:10277000909111010E94FF1D0C94A61C843879F4DD
:102780000E94161182FF2BC067E480911001909186
:1027900011010E94F41D0E94A61C67E4E7CF8CEF94
:1027A000860F813A18F380E2860F883048F467700C
:1027B00081E001C0880F6A95EAF70E94631CDCCFB4
:1027C0008BE5860F833020F480E090E00C943C1180
:1027D000685A673120F480E090E00C94521108951B
:1027E000CF93C82F0E947A12C93349F42FEF83EC9C
:1027F00099E0215080409040E1F700C000008C2F0C
:10280000CF910C949113882321F00E945D1C0C94AD
:10281000A61C0895882321F00E94631C0C94A61C1A
:1028200008954F925F926F927F92BF92CF92DF9204
:10283000EF92FF920F931F93CF93DF937C01D62FDC
:10284000C72FFC01058102950F70128111110E94A2
:102850007A1C0E94531C882379F0112369F080E2CE
:102860008D0F883048F082E00E94F11C0E94531CBA
:1028700091E0B82EB92601C0B12CCC2EC2948FE0C5
:10288000C822D12CF601E859FF4F0C945B278C2FFE
:10289000807FCF70882311F0C295C07F112399F0FB
:1028A000CC2309F48EC180E28D0F883010F0D11155
:1028B00004C08C2F0E945D1C03C08C2F0E946D1CD5
:1028C0000E94A61C7EC18D2F0E949113CC2309F477
:1028D000C1C180E28D0F883010F0D11104C08C2F5F
:1028E0000E94631C03C08C2F0E94731C0E94A61CB4
:1028F000B1C18C2F807FCF70803211F0C295C07F24
:10290000DD2319F0D130C9F022C0112371F000236A
:1029100041F0013031F40E948D1C8C2B0E94931CDD
:1029200099C10E948D1C8C2B1DC0002319F0013011
:1029300009F490C10E949C1C1AC0112321F006309A
:1029400008F088C10EC0053008F084C110C0112302
:1029500061F0002331F0F701858180FF32C18F7073
:1029600085838C2F0E94031475C101113BC18C2FEC
:10297000E6C08C2F86958695837090E0009719F0BD
:10298000019761F067C1112321F08D2F9C2F937067
:1029900002C080E090E00E943C116CC1112321F044
:1029A0008D2F9C2F937002C080E090E00E94521106
:1029B00061C18C2F837009F050C0111157C18D2F48
:1029C000829586958770880F880F9D2F9F70492E5E
:1029D000512C612C712C082E04C0440C551C661C13
:1029E000771C0A94D2F7D4FF14C00FE010E020E067
:1029F00030E0B901A80104C0440F551F661F771FBE
:102A00008A95D2F7CB01BA01609570958095909523
:102A100003C060E070E0CB01C695C695C370D0E0FE
:102A2000C230D10561F0C330D10581F06429752928
:102A300086299729219771F00E94941A17C1642959
:102A40007529862997290E94A61A10C10E94941AF6
:102A5000C301B2010E94821A09C1112319F08C2FFF
:102A6000817001C08695882309F400C18D2F82955D
:102A700086958770880F880F9D2F9F70492E512C47
:102A8000612C712C082E04C0440C551C661C771C4C
:102A90000A94D2F7D4FF14C00FE010E020E030E039
:102AA000B901A80104C0440F551F661F771F8A95FE
:102AB000D2F7CB01BA01609570958095909503C0CF
:102AC00060E070E0CB01C695C695C3704C2F50E016
:102AD0004230510569F04330510589F06429752968
:102AE000862997294130510571F00E945A1BBEC0BA
:102AF00064297529862997290E946C1BB7C00E94FA
:102B00005A1BC301B2010E94481BB0C08D2F90E038
:102B1000FC01E05EF109E531F10508F04EC0E8582E
:102B2000FF4F0C945B27DF708C2F8F71112321F0E6
:102B30000E94E11A8D2F16CF0E94021B8D2F0E943A
:102B40000A1488C0112341F0053008F083C08C2F8F
:102B50008F710E94271B7EC0063008F07BC0F7CF24
:102B6000112339F08C2F8F710E94E11A73C0112349
:102B7000C9F38C2F8F710E94021B6CC0112329F0A6
:102B80008C2F8F710E94CC1A65C00E94C71A62C038
:102B9000112349F0CF718C2F0E94E11A63E08C2F32
:102BA0000E94DC1C57C081E00E94F11C023008F436
:102BB00051C082E00E94F11C4DC0112331F000236E
:102BC00089F28D2F0E947A1245C0002391F2D933E9
:102BD00049F45FEF63EC79E0515060407040E1F7F9
:102BE00000C000008D2F0E94911334C04C2F4F70F5
:102BF0006D2FC7010E9481060E94F3193BC011117D
:102C000039C0CF70D0E0C230D10599F03CF42097A4
:102C100069F02197F9F40E947B1F2CC0C430D105C4
:102C200071F054F02597B1F480E00AC00E945E1F55
:102C300021C00E94BA1F1EC00E94C11F1BC086E097
:102C40000E94E41F17C04C2F4F706D2FC7010E94C8
:102C5000840610C088E0C816D10441F05CF0EAE0B8
:102C6000CE1AD108F2E0CF16D10420F40E9416113A
:102C70000E946404BB20F1F00E944F1C80FD1AC02A
:102C8000F70112820E94491C0E94E11AC7010E94AA
:102C900068160E94491CDF91CF911F910F91FF9000
:102CA000EF90DF90CF90BF907F906F905F904F90AC
:102CB0000C94021BDF91CF911F910F91FF90EF9029
:102CC000DF90CF90BF907F906F905F904F9008956E
:102CD0000F931F93CF93DF93EC01888199812B8110
:102CE0003C81232BB9F09F3F11F48F3F99F0CE0127
:102CF0000E947604882371F0688179818A810E941C
:102D0000261C8C010E947E1B0E947F1AB801CE01F6
:102D10000E941114DF91CF911F910F9108950E948D
:102D20007A1C0E948A1C0E94A61C80E090E00E94EF
:102D30003C1180E090E00C94521180911001909130
:102D400011010E940A1E0C948F160E946A1C0C949A
:102D50009D16E92FE295EF70F0E03297EE30F10525
:102D6000B0F4E357FF4F0C945B27803F91F018F4C9
:102D7000803E68F40EC0843F51F40BC0803E48F0A2
:102D8000813F29F406C093FB882780F9089580E0ED
:102D9000089581E008950E941B1C0E94A9160895C1
:102DA000CF93DF9300D000D01F92CDB7DEB70F9046
:102DB0000F900F900F900F90DF91CF910895CF93C8
:102DC000DF9300D000D000D0CDB7DEB726960FB687
:102DD000F894DEBF0FBECDBFDF91CF9108951F9352
:102DE000CF93DF93C091870116E080918801C817C7
:102DF00099F0D0E01C9FF0011D9FF00D1124E757C2
:102E0000FE4F4081518162817381848195810E944E
:102E1000DF162196C770E9CFDF91CF911F910895FA
:102E20004091B9015091BA016091BB017091BC0110
:102E30008091BD019091BE010C94DF168091BE017E
:102E400082958F7009F054C08091BB01882309F4EA
:102E50004FC080918701A09188016091B901709164
:102E6000BA014091BC015091BD01B6E08A1709F446
:102E70003FC090E041155105C1F17F3F11F46F3F14
:102E8000A1F1B89FF001B99FF00D1124E757FE4F53
:102E9000218172132AC02081621327C0228121114F
:102EA00024C0238134812417350710F421503109BF
:102EB000241B350B283C3105C0F42091BE012F7036
:102EC00020612093BE0126E0289FF001299FF00D8C
:102ED0001124E257FE4F80818F708061808389EBDF
:102EE00091E00E9468160C94EF1601968770BECF91
:102EF0000895CF92DF92EF92FF920F931F93CF939B
:102F0000DF93CDB7DEB762970FB6F894DEBF0FBE82
:102F1000CDBF8C0185E0F801DE011D9601900D9278
:102F20008A95E1F7D8014C9111965C911197129610
:102F30006C9112971396CD90DC9014973091B90153
:102F40007091BA018091BC019091BD01009709F484
:102F50006BC17F3F19F43F3F09F466C1E090BB01AC
:102F6000EE2009F4C0C02091BE01C816D90628F091
:102F7000F601E81BF90BCF0104C0809590958C0DEC
:102F80009D1DFF24F394883C910578F0F12C207F5F
:102F900009F0C6C07C2DD98AC88A89890E94D016BA
:102FA00089EB91E00E946816B1C0822F807F09F002
:102FB00046C0751314C0341312C0611110C02F70B5
:102FC00020612093BE010E94101789EB91E00E94BE
:102FD00068168091BE01D80115968C932EC0CD281D
:102FE00019F15F3F11F44F3FF9F0F62E61111CC04B
:102FF000809187012091880136E0821709F45AC038
:1030000090E0389FF001399FF00D1124E757FE4FF3
:103010007181571306C07081471303C0728171110B
:1030200003C001968770E9CFF62E662309F427C105
:103030008091BE0181608093BE01F12C20C1751387
:1030400008C0341306C0611104C08091BE01D801CC
:10305000C3C04D875E878D859E856A8B0E94CB1687
:103060006A898823E1F16623D1F12091BE01822F84
:1030700082958F7090E0029774F08091B9019091E1
:10308000BA0198878F831986DB86CA862C87CE0182
:1030900007960E94681686E0F801A9EBB1E001905E
:1030A0000D928A95E1F70E941E170E941017FF24C7
:1030B000F394E5C04D875E878D859E850E941B1C1D
:1030C000292F22952F7030E0223031050CF0CBC033
:1030D0009F7009F0C5C0805E883008F4D0C0C80178
:1030E0000E946816E4CFC816D90608F453C0F6014A
:1030F000E81BF90BCF01883C910508F450C0F12C76
:103100007C2DD98AC88A89890E94D016E9EBF1E022
:1031100086E0DF011D928A95E9F70E941017AFC083
:10312000751314C0341312C0611110C08091BE0118
:10313000F8018583C8010E94681686E0E9EBF1E09A
:10314000DF011D928A95E9F7FE2C99C04D875E87B5
:103150008D859E856A8B0E94CB166A89882309F427
:10316000BECF662309F4BBCF2091BE01822F82958A
:103170008F7090E002970CF48ECF8091B9019091FE
:10318000BA019A8389831B82DD82CC822E83CE0191
:1031900001967FCF809590958C0D9D1DACCFF62E1E
:1031A000662309F49CCF75132EC034132CC02091D4
:1031B000BE0120FD1FC0822F82958F70D9F0D801EB
:1031C00015962C9315978F3049F08F5F982F929515
:1031D000907F822F8F70892B15968C93C8010E9447
:1031E000681686E0F801A9EBB1E001900D928A958E
:1031F000E1F793CF86E0F801A9EBB1E001900D92E1
:103200008A95E1F73CC04D875E878D859E850E943B
:10321000CB16811140CF8091BE0181608093BE01A9
:10322000C8010E9468162BC0662309F458CF4D8749
:103230005E878D859E850E94CB16F82E882309F423
:103240004ECF86E0F801A9EBB1E001900D928A958E
:10325000E1F789EB91E00E9474120E941E175DCF86
:10326000811139CF0CC0243031050CF038CF9F705C
:1032700009F431CFF8019581907F09F02CCF8F2D83
:1032800062960FB6F894DEBF0FBECDBFDF91CF912F
:103290001F910F91FF90EF90DF90CF9008951F93B3
:1032A000CF93DF93CDB7DEB72C970FB6F894DEBF80
:1032B0000FBECDBF4F83588769877A878B879C87DE
:1032C000CE0107960E947917882369F08F8198852F
:1032D0002A853B85232BF1F19F3F09F063C08F3F87
:1032E00009F060C037C086E0FE013796DE01119616
:1032F00001900D928A95E1F76F817885EA85FB85CB
:10330000309741F17F3F11F46F3F21F12091880107
:1033100030E0C9010196877099274091870150E0FC
:103320008417950709F447C069837A83FD83EC838A
:1033300096E0929FD001939FB00D1124A757BE4FE6
:10334000FE01319601900D929A95E1F780938801E4
:103350000E94EF1616E080918701909188018917ED
:10336000C1F1189FC001112487579E4F0E94791701
:10337000882379F1E09187011E9FF0011124E7571E
:10338000FE4F4081518162817381848195810E94C9
:10339000DF168091870190E00196877099278093CE
:1033A0008701D9CF4F81588569857A858B859C8522
:1033B0000E94DF16CFCF0E94A516109288011092AE
:1033C0008701E9EBF1E086E0DF011D928A95E9F7DC
:1033D000C1CF2C960FB6F894DEBF0FBECDBFDF91E4
:1033E000CF911F910895EF92FF920F931F93CF9368
:1033F000DF938C01892B09F46CC0F12CEE24E3944B
:10340000E8012196F8018491843740F4843008F073
:1034100051C0813081F0823019F15BC0853709F4E9
:1034200044C0A8F19CE7980F903708F052C08F77FE
:103430000E94911341C00E5F1F4FFE01C49180E2B4
:103440008C0F883048F4C7708E2D01C0880FCA9544
:10345000EAF70E947D1C14C08C2F0E947A122DC0A6
:103460000E5F1F4FFE01C49180E28C0F883058F42C
:10347000C7708E2D01C0880FCA95EAF70E94831C81
:103480000E94A61C1AC08C2F0E94911316C00E5FBA
:103490001F4FFE01C491CC2381F08FE99FE001977B
:1034A000F1F700C00000C150F6CF0E5F1F4FFE01C4
:1034B000F49003C00E947A128E018F2D882309F4A4
:1034C0009FCFEFE9FFE03197F1F700C00000815096
:1034D000F5CFDF91CF911F910F91FF90EF9008955D
:1034E00008950C94701A0E94711A6093E101709310
:1034F000E2018093E3019093E4010C948F16089508
:103500000C94731A0F931F930091E1011091E20143
:103510002091E3013091E401602B712B822B932BDE
:103520001F910F910C94731A0F931F930091E10157
:103530001091E2012091E3013091E40160237123B5
:10354000822393231F910F910C94731A0F931F934F
:103550000091E1011091E2012091E3013091E40139
:1035600060277127822793271F910F910C94731A5C
:1035700008950C94B81A0E94B91A6093DD017093F3
:10358000DE018093DF019093E0010C948F1660E0E0
:1035900070E0CB010C94BB1A0F931F9341E050E0F5
:1035A00060E070E08A019B0104C0000F111F221F20
:1035B000331F8A95D2F7C901B8011F910F910C945E
:1035C000BB1A0F931F9341E050E060E070E004C02D
:1035D000440F551F661F771F8A95D2F78091DD0132
:1035E0009091DE01A091DF01B091E0018A019B0181
:1035F000082B192B2A2B3B2BC901B8011F910F91C6
:103600000C94BB1A0F931F9341E050E060E070E010
:1036100004C0440F551F661F771F8A95D2F7409547
:103620005095609570958091DD019091DE01A0919B
:10363000DF01B091E0018A019B01082319232A23AD
:103640003B23C901B8011F910F910C94BB1A0F9332
:103650001F9341E050E060E070E004C0440F551F4C
:10366000661F771F8A95D2F78091DD019091DE0168
:10367000A091DF01B091E0018A019B010827192781
:103680002A273B27C901B8011F910F910C94BB1A3F
:103690000F931F930091DD011091DE012091DF0156
:1036A0003091E001602B712B822B932B1F910F9196
:1036B0000C94BB1A0F931F930091DD011091DE0152
:1036C0002091DF013091E001602371238223932355
:1036D0001F910F910C94BB1A0F931F930091DD0162
:1036E0001091DE012091DF013091E0016027712708
:1036F000822793271F910F910C94BB1A08952BE0FA
:10370000929F800D1124A82FA695A695A695877047
:1037100051E001C0550F8A95EAF785E0A89FD001D6
:10372000112420E030E070E0F901EA0FFB1FE154C2
:10373000FE4F4081CB01022E02C0969587950A94D8
:10374000E2F78170992781958427852384278083D8
:103750002F5F3F4F2530310539F708952BE0929FB9
:10376000800D1124682F669566956695982F977041
:1037700085E0689FB001112440E050E080E0FA014C
:10378000E60FF71FE154FE4F208130E0092E02C002
:10379000369527950A94E2F721703327042E01C04D
:1037A000220F0A94EAF7822B4F5F5F4F4530510595
:1037B00031F70895BF92CF92DF92EF92FF920F936D
:1037C0001F93CF93DF938C01C090E101D090E20171
:1037D000E090E301F090E4018091DD019091DE0141
:1037E000A091DF01B091E001C82AD92AEA2AFB2A78
:1037F000CFE1D0E0D701C6010C2E04C0B695A79545
:10380000979587950A94D2F780FF07C0BC2EB80120
:103810008C2F0E949F06019719F4219758F7B12C1D
:103820008B2DDF91CF911F910F91FF90EF90DF9043
:10383000CF90BF900895CF93DF93EC010E94DA1BE5
:10384000BE010E949F06DF91CF9108951F93CF93F1
:10385000DF93EB0190918601992321F0CB010E9427
:103860001B1C13C0882349F0CB010E94DA1B182FC0
:10387000682FCE010E947F1B04C0CB010E94AE1BAB
:10388000182FBE01812F0E949F06DF91CF911F91BB
:1038900008958091E5018595859585950895809198
:1038A000E501877008959091E501977081E009F432
:1038B00080E0089580910902089590910902892B72
:1038C000809309020895809590910902892380933D
:1038D0000902089510920902089590910802892B17
:1038E000809308020895809590910802892380931F
:1038F0000802089510920802089590910702892BFA
:103900008093070208958095909107028923809300
:10391000070208951092070208958091E601089524
:1039200008950C94901C9091E601981721F08093D3
:10393000E6010C94911C08958091E601882329F0FA
:103940001092E60180E00C94911C0895E091100122
:10395000F0911101809109028083E0911001F091B2
:103960001101908180910802892B8083E0911001E0
:10397000F0911101908180910702892B80838091C1
:10398000E601882381F0E0911001F091110190810E
:10399000892B808380911001909111010E948F1DCD
:1039A00081110E949C1C80911001909111010C9436
:1039B000221108950C94D91C98E0899F900111243C
:1039C000262B2093E5010E94E11A8091E50185955F
:1039D000859585950C94DA1C1092E50180E00C9495
:1039E000DA1C2091E501809582238093E501982FD0
:1039F000977079F430E0482F082E000C550B2417EF
:103A0000350739F08595859585950E94021B0C94A4
:103A1000EC1C089580E090E00E94962721E08D3E06
:103A20009E4F09F020E0822F089582E090E00C94F0
:103A3000882783E090E00C94882784E090E00C9441
:103A40008827682F84E090E00C949C2786E090E023
:103A50000C948827682F86E090E00C949C27AB019B
:103A6000BC018FE090E00C94AE27AB01BC0183E178
:103A700090E00C94AE2760E070E0CB010C94351D13
:103A800060E070E0CB010E942F1D0C943B1D6DEE99
:103A90007EEF80E090E00E94BA2760E082E090E054
:103AA0000E949C2760E083E090E00E949C27109297
:103AB000E1011092E2011092E3011092E40160E052
:103AC00084E090E00E949C2760E085E090E00E9406
:103AD0009C2760E086E090E00E949C276FEF87E0E3
:103AE00090E00E949C2740E050E0BA0188E090E01E
:103AF0000E94AE2760E08DE090E00E949C2740E0AD
:103B000050E0BA0188E190E00E94AE2760E087E1D2
:103B100090E00E949C270C94401D0C94471DFC01D2
:103B2000329680911C01882331F08091500287FFEA
:103B300002C09EE101C096E080E0915028F0219102
:103B40002223D9F38F5FF9CF08959C01FC013296AF
:103B50009FEF80E04191461789F09F3F19F4411192
:103B600001C0982F8F5F8630A9F79F3F39F0F90188
:103B7000E90FF11D97FDFA95628308950895FC0100
:103B8000329608962081261301C010823196E817DC
:103B9000F907C1F70895262F2695269526952E31EB
:103BA00068F4FC01E20FF11D677021E030E001C014
:103BB000220F6A95EAF78281282B22830895262F07
:103BC0002695269526952E3170F4FC01E20FF11D05
:103BD000677021E030E001C0220F6A95EAF7209576
:103BE000828128232283089520911C01222329F019
:103BF0002091500227FD0C94CB1D0C94A51D209103
:103C00001C01222329F02091500227FD0C94DF1D76
:103C10000C94BF1D20911C01FC013296222331F02F
:103C20008091500287FF02C08EE101C086E0DF0173
:103C30001D928A95E9F7089508950C941C1E0E9420
:103C40001D1E80915702843061F110920B0220E416
:103C500088E190E00FB6F894A895809360000FBEBD
:103C60002093600080E00E94CD0380E00E94640405
:103C70000E941D1E83B7817F846083BF83B78160EC
:103C800083BF7894889583B78E7F83BF0FB6F894EF
:103C9000A895809160008861809360001092600018
:103CA0000FBE089508950895CF930E94521E0E945A
:103CB000A0090E94531EC0E08C2F0E943809892B56
:103CC00029F4CF5FC430C1F780E001C081E0CF911B
:103CD000089508950C94691E0E94A5160E94411F24
:103CE0000E9416110E9464040C946A1E1F920F9287
:103CF0000FB60F9211248F939F93AF93BF93809130
:103D00000B02811113C080914C0290914D02A09141
:103D10004E02B0914F024196A11DB11D80934C02FD
:103D200090934D02A0934E02B0934F02BF91AF917A
:103D30009F918F910F900FBE0F901F90189582E06A
:103D400084BD93E095BD9AEF97BD80936E00089572
:103D50002FB7F89480914C0290914D02A0914E02A1
:103D6000B0914F022FBF0895CF92DF92EF92FF9252
:103D70000F931F932FB7F89440914C0250914D022E
:103D800060914E0270914F022FBF6A017B01EE24B9
:103D9000FF248C0120E030E0C016D106E206F306D5
:103DA00010F4415051099A01281B390BC9011F9188
:103DB0000F91FF90EF90DF90CF90089578941F922D
:103DC0000F920FB60F9211248F939F93AF93BF93CF
:103DD00080914C0290914D02A0914E02B0914F0201
:103DE0000196A11DB11D80934C0290934D02A093AA
:103DF0004E02B0934F02BF91AF919F918F910F9060
:103E00000FBE0F901F90189581E08093E00080E234
:103E10008093D8001092C9008FE19EE40197F1F7DA
:103E200000C0000087E090EBDC018093600290937B
:103E30006102A0936202B09363029CE088E10FB636
:103E4000F894A895809360000FBE90936000FFCF18
:103E50000E940A1D811102C00E948D1D0E94151D25
:103E600080930A020E941D1D90E09093510280935E
:103E700050020E94191D682F70E080E090E00C94C1
:103E8000801A0E940A1D811102C00E948D1D0E948D
:103E9000261D80935202282F269530E027303105C9
:103EA00024F081708C60809352028091520280FFD6
:103EB00002C0869501C080E00C94CD03209152028F
:103EC000822F8695482F50E04630510544F48F5F8D
:103ED000982F990F822F8170892B809352028091A5
:103EE00052028160809352020E942A1D80915202E8
:103EF00086950C94CD0380915202982F969591F05F
:103F00009158990F8170892B809352028E7F91E096
:103F100009F490E08091520290FB80F98093520264
:103F20000E942A1D8091520286950C94CD038091A7
:103F3000520280FD11C0816080935202813019F4D9
:103F400083E080935202809152020E942A1D809148
:103F5000520286950C94CD0308958091520280FF01
:103F600008C08E7F809352020E942A1D80E00C942C
:103F7000CD0308958091520280FD0C94AD1F0C94E6
:103F8000971F90915202892F86958F5F8F7791703E
:103F9000873028F4880F892B8093520202C09093B7
:103FA0005202809152028E7F91E009F490E080915C
:103FB000520290FB80F9809352020E942A1D809148
:103FC000520286950C94CD03873008F086E0880F66
:103FD000909152029170892B809352028E7F91E0D2
:103FE00009F490E08091520290FB80F98093520294
:103FF0000E942A1D8091520286950C94CD038091D7
:104000002C02089508950F931F93CF93DF9300D050
:104010001F92CDB7DEB78C010E944822823011F08A
:10402000843021F584E089831B830A8382E08093B6
:10403000E9008FEF9091E800815095FD06C095ED65
:104040009A95F1F700008111F5CF8091E80085FF86
:104050000DC040E050E063E070E0CE0101960E94A8
:1040600065228091E8008E778093E8000F900F9092
:104070000F90DF91CF911F910F910895CF93DF9310
:1040800000D01F92CDB7DEB720915702243031F512
:1040900023E02983805891099B838A8382E080935F
:1040A000E9008FEF9091E800815095FD06C095EDF5
:1040B0009A95F1F700008111F5CF8091E80085FF16
:1040C0000DC040E050E063E070E0CE0101960E9438
:1040D00065228091E8008E778093E8000F900F9022
:1040E0000F90DF91CF910895CF93DF93EC010E9461
:1040F0004822823011F08430D9F580911C01882348
:1041000039F08091500287FF03C060E282E002C074
:1041100068E081E08093E9008FEF9091E8008150A2
:1041200095FD06C095ED9A95F1F700008111F5CF48
:104130008091E80085FF1CC080911C01811105C0A1
:1041400040E050E068E070E003C070E040E050E024
:10415000CE010E9465228091E8008E778093E8006E
:1041600080E2FE01ACE0B2E001900D928A95E1F7A9
:10417000DF91CF91089580915602811109C00E946C
:10418000FA230E9457248091E20084608093E20029
:104190000895109256020895089508950C946C1E87
:1041A00042E061EC81E00E94742342E261EC82E033
:1041B0000C94742380915902833009F460C030F468
:1041C000813071F0823009F499C008958A3009F481
:1041D00085C08B3009F46BC0893009F0A7C020C0BE
:1041E00080915802813A09F0A1C08091E800877F50
:1041F0008093E80080915C0290915D02892B21F40C
:1042000060E28CE092E003C060E080E090E070E06B
:104210000E94B0228091E8008B778093E800089597
:1042200080915802813209F081C080915C029091A6
:104230005D02029708F07AC08091E800877F809342
:10424000E8008091E80082FD05C08091570281114D
:10425000F8CF6CC02091F3008091F20090E0922B97
:10426000029729F48091F1008B7F813021F48091B5
:10427000F10080932C028091E8008B7753C08091ED
:104280005802813A09F052C080915C0290915D021F
:10429000892B09F04BC08091E800877F8093E8006C
:1042A0008091E80080FFFCCF80911C0136C0809196
:1042B00058028132D9F580915C0290915D02892B80
:1042C000A9F58091E800877F8093E8000E94A923E8
:1042D00080915A0280931C010C94A516809158027B
:1042E000813221F58091E800877F8093E8000E9469
:1042F000A92380915B0280932D020895809158023A
:10430000813AA1F48091E800877F8093E800809152
:10431000E80080FFFCCF80912D028093F100809116
:10432000E8008E778093E8000C94A923089584B761
:10433000877F84BF0FB6F894A8958091600088614C
:1043400080936000109260000FBE80E8809361004F
:10435000109261000E9476110E94FA230E94572455
:104360008091E20084608093E20078940E94E626C7
:104370000E947E1182E191E00E941111809157020A
:10438000853069F40E941F1E809155028823B1F385
:104390000E94541E882391F30E944F22EFCF0E9467
:1043A0008A110E94940FEACF0C94D621292F33272B
:1043B00023303105C9F064F42130310581F0223019
:1043C000310509F04CC08BE390E025E934E04BC0A7
:1043D0002132310521F12232310589F140C082E1DB
:1043E00090E020ED34E03FC099278130910571F0D5
:1043F0002CF4892BA1F5E1E9F4E00DC082309105A0
:1044000041F0039761F5E9E6F4E005C0EDE7F4E07B
:1044100002C0EFE6F4E0849190E09F0124C06115B2
:10442000710541F061307105D1F489E090E020EC34
:1044300034E019C089E090E027EA34E014C0611547
:10444000710541F06130710551F481E790E022EE91
:1044500034E009C080E490E023E535E004C080E06A
:1044600090E020E030E0FA01318320830895089540
:10447000CF93C82F0E943722C0932E02CF91089568
:1044800080915702843011F081E0089582E0089510
:1044900080912E02811102C00C944022089580E187
:1044A00089BD82E189BD09B400FEFDCF8091D800AD
:1044B0008F7D8093D8008091E00082608093E0003F
:1044C0008091E00081FDFCCF0895CF92DF92EF92C2
:1044D000FF920F931F93CF93DF93EC018B016A013F
:1044E0000E94C823811133C0C114D10439F0F601F0
:1044F00080819181081B190BC80FD91FE12CF12C69
:104500000115110519F18091E80085FD16C0809113
:10451000E8008E778093E800C114D10449F0F601D9
:1045200080819181E80EF91EF182E08285E00FC062
:104530000E94C823882321F30AC089918093F10047
:1045400001501109FFEFEF1AFF0ADACF80E0DF9187
:10455000CF911F910F91FF90EF90DF90CF90089532
:1045600020915E0230915F022617370748F06115EF
:10457000710539F42091E8002E772093E80001C0FE
:10458000B90140E061157105A9F12091570222237C
:1045900009F443C0253009F442C02091E80023FD0E
:1045A00040C02091E80022FD32C02091E80020FFA9
:1045B000E9CF4091F3002091F20030E0342BFC0170
:1045C000CF016115710559F02830310540F4819112
:1045D0008093F100615071092F5F3F4FF1CF41E0AF
:1045E0002830310509F040E02091E8002E77209333
:1045F000E800C8CF4111C9CF0AC080915702882373
:1046000061F0853061F08091E80083FD0AC08091FF
:10461000E80082FFF2CF80E0089582E0089583E011
:10462000089581E0089520915E0230915F0226177F
:10463000370748F06115710539F42091E8002E77AD
:104640002093E80001C0B901FC0120E0611571056B
:1046500091F180915702882309F440C0853009F414
:104660003FC08091E80083FD3DC08091E80082FD5D
:104670002FC08091E80080FFE9CF2091F300809166
:10468000F20090E0922B6115710559F08830910588
:1046900040F424912093F100319661507109019604
:1046A000F2CF21E0089709F020E08091E8008E77B2
:1046B0008093E800CBCF2111CCCF0AC08091570264
:1046C000882361F0853061F08091E80083FD0AC0A5
:1046D0008091E80082FFF2CF80E0089582E00895A3
:1046E00083E0089581E00895982F973058F59093CE
:1046F000E900981739F07091EC002091ED0050918D
:10470000F00003C0242F762F50E021FF19C0309114
:10471000EB003E7F3093EB003091ED003D7F309316
:10472000ED003091EB0031603093EB007093EC00C2
:104730002093ED005093F0002091EE0027FF07C07A
:104740009F5FD3CF8F708093E90081E0089580E070
:1047500008958091580287FF11C08091E80082FD82
:1047600005C0809157028111F8CF11C08091E800F7
:104770008B770BC080915702882349F08091E80025
:1047800080FFF8CF8091E8008E778093E80008954D
:104790002091E4003091E50095E64091EC00842FF3
:1047A000817040FF22C08091E80080FD1CC0809194
:1047B0005702882391F0853091F08091EB0085FDC0
:1047C00010C04091E4005091E5004217530729F3CF
:1047D0009A01915011F784E0089582E0089583E0F2
:1047E000089581E0089580E008954091E80042FF37
:1047F000DECF08950E9468240E947024E0EEF0E06D
:10480000808181608083E8EDF0E080818F77808314
:1048100019BCA7EDB0E08C918E7F8C9380818F7E48
:1048200080831092560208950F931F93CF93DF93C6
:104830000E9468240E947024C8EDD0E088818F77A0
:10484000888388818068888388818F7D888319BC6C
:104850001092570210925302109255021092540275
:1048600000EE10E0F80180818B7F80838881816079
:10487000888342E060E080E00E947423E1EEF0E093
:1048800080818E7F8083E2EEF0E080818160808392
:10489000808188608083F80180818E7F8083888119
:1048A00080618883DF91CF911F910F910895E8ED8A
:1048B000F0E080818F7E8083E7EDF0E08081816091
:1048C000808384E082BF81E0809356020C9414249C
:1048D000E8EDF0E080818E7F80831092E200089501
:1048E0001092DA001092E10008951F920F920FB615
:1048F0000F9211242F933F934F935F936F937F9366
:104900008F939F93AF93BF93EF93FF938091E100B9
:1049100082FF0BC08091E20082FF07C08091E1001E
:104920008B7F8093E1000E94E5268091DA0080FF72
:104930001FC08091D80080FF1BC08091DA008E7F5D
:104940008093DA008091D90080FF0DC080E189BD9D
:1049500082E189BD09B400FEFDCF81E0809357025A
:104960000E94BB2005C019BC109257020E94C920AA
:104970008091E10080FF19C08091E20080FF15C0A6
:104980008091E2008E7F8093E2008091E20080615E
:104990008093E2008091D80080628093D80019BC97
:1049A00085E0809357020E94CD208091E10084FF32
:1049B00030C08091E20084FF2CC080E189BD82E19B
:1049C00089BD09B400FEFDCF8091D8008F7D809312
:1049D000D8008091E1008F7E8093E1008091E20019
:1049E0008F7E8093E2008091E20081608093E200FC
:1049F00080915302882311F084E007C08091E30086
:104A000087FD02C081E001C083E0809357020E94CD
:104A1000CE208091E10083FF29C08091E20083FFD6
:104A200025C08091E100877F8093E10082E0809340
:104A30005702109253028091E1008E7F8093E10033
:104A40008091E2008E7F8093E2008091E20080619D
:104A50008093E20042E060E080E00E947423809155
:104A6000F00088608093F0000E94CC20FF91EF91CD
:104A7000BF91AF919F918F917F916F915F914F9176
:104A80003F912F910F900FBE0F901F9018951F927E
:104A90000F920FB60F9211242F933F934F935F9372
:104AA0006F937F938F939F93AF93BF93CF93DF9336
:104AB000EF93FF93C091E900CF708091EC00D82F65
:104AC000D17080FDD0E81092E9008091F000877FDE
:104AD0008093F00078940E948B251092E9008091D9
:104AE000F00088608093F000CD2BCF70C093E90078
:104AF000FF91EF91DF91CF91BF91AF919F918F91F6
:104B00007F916F915F914F913F912F910F900FBEC9
:104B10000F901F9018951F93CF93DF93CDB7DEB7FB
:104B2000AA970FB6F894DEBF0FBECDBFE8E5F2E05E
:104B300088E08E0F9091F10091938E13FBCF0E942D
:104B4000DA208091E80083FF28C18091580290917B
:104B50005902492F50E04A30510508F01EC1FA01B0
:104B6000E556FF4F0C945B27803821F0823809F01E
:104B700014C108C08091540290915502992389F084
:104B800082600FC080915C028F70873008F005C191
:104B90008093E9008091EB0085FB882780F91092D3
:104BA000E9009091E800977F9093E8008093F100EE
:104BB0001092F100D0C0282F2D7F09F0EEC088237D
:104BC00019F0823061F0E9C080915A02813009F019
:104BD000E4C0933009F080E0809355022EC08091AC
:104BE0005A0281112AC080915C028F702FEF280F2A
:104BF000263008F0D2C08093E9002091EB0020FF1E
:104C00001CC0933021F48091EB00806214C090911D
:104C1000EB0090619093EB0021E030E0A90102C02D
:104C2000440F551F8A95E2F74093EA001092EA007C
:104C30008091EB0088608093EB001092E9008091F6
:104C4000E800877F8093E8000E94A923A6C0811115
:104C5000A4C010915A021F778091E3008078812BC5
:104C60008093E3008091E800877F8093E8000E94B2
:104C7000A9238091E80080FFFCCF8091E300806849
:104C80008093E300111102C082E001C083E08093B1
:104C9000570283C08058823008F07FC080915A024A
:104CA00090915B028C3D53E0950779F583E08A8310
:104CB0008AE289834FB7F894DE01139620E03EE044
:104CC00051E2E32FF0E050935700E49120FF03C03E
:104CD000E295EF703F5FEF708E2F90E0EA3010F0BA
:104CE000C79601C0C0968D939D932F5F243149F7DD
:104CF0004FBF8091E800877F8093E8006AE270E010
:104D0000CE0101960E94B02215C060915C027091A4
:104D10005D02AE014F5F5F4F0E94D421BC01892B21
:104D2000E1F19091E800977F9093E80089819A8162
:104D30000E9413238091E8008B778093E8002DC0B8
:104D4000803859F58091E800877F8093E800809152
:104D500053028093F1008091E8008E7773CF811128
:104D60001CC090915A029230C0F48091E800877F75
:104D70008093E800909353020E94A92380915302EC
:104D8000811106C08091E30087FD02C081E001C06F
:104D900084E0809357020E94D0208091E80083FF36
:104DA0000AC08091E800877F8093E8008091EB0043
:104DB00080628093EB00AA960FB6F894DEBF0FBE18
:104DC000CDBFDF91CF911F9108950895CF9380912A
:104DD00057028823A1F0C091E900CF709091EC00B8
:104DE000892F817090FD80E8C82B1092E900809196
:104DF000E80083FD0E948B25CF70C093E900CF911E
:104E00000895DB018F939F930E947027BF91AF910C
:104E1000A29F800D911DA39F900DB29F900D112414
:104E20000895AA1BBB1B51E107C0AA1FBB1FA617F1
:104E3000B70710F0A61BB70B881F991F5A95A9F743
:104E400080959095BC01CD01089597FB072E16F42F
:104E5000009407D077FD09D00E94112707FC05D0E8
:104E60003EF4909581959F4F0895709561957F4F81
:104E70000895A1E21A2EAA1BBB1BFD010DC0AA1F9B
:104E8000BB1FEE1FFF1FA217B307E407F50720F0B3
:104E9000A21BB30BE40BF50B661F771F881F991F2E
:104EA0001A9469F760957095809590959B01AC0177
:104EB000BD01CF010895EE0FFF1F0590F491E02D85
:104EC0000994A29FB001B39FC001A39F700D811DE3
:104ED0001124911DB29F700D811D1124911D089503
:104EE0000E946127A59F900DB49F900DA49F800DF7
:104EF000911D11240895FC014150504030F0019063
:104F00000616D1F73197CF0108958827992708957C
:104F1000F999FECF92BD81BDF89A992780B5089581
:104F2000A6E1B0E044E050E00C94C227A8E1B0E074
:104F300042E050E00C94C227262FF999FECF92BD93
:104F400081BDF89A019700B4021639F01FBA20BD4E
:104F50000FB6F894FA9AF99A0FBE08950396272F80
:104F60000E949D270E949C27252F0E949D27242F69
:104F70000C949D270196272F0E949D270C949C2717
:104F8000DC01CB01FC01F999FECF06C0F2BDE1BD09
:104F9000F89A319600B40D9241505040B8F70895F8
:044FA000F894FFCFB3
:104FA400010208080801191A1B1C1D1E1F202122BA
:104FB400E701FF1F742002203E20032001F0F1F4DA
:104FC400F5F6F73635349796929395370001020239
:104FD40002020606060909090909090F0F0F0F0F36
:104FE4000F1515151819191919191919191919233A
:024FF400240097
:00000001FF
