:100000000C946F020C94B6020C94B6020C94B602D7
:100010000C94B6020C94B6020C94B6020C94B60280
:100020000C94B6020C94B6020C940B240C94DD24B0
:100030000C94081E0C94B6020C94B6020C94B602F2
:100040000C94B6020C94B6020C94B6020C94B60250
:100050000C94B6020C94701E0C94B6020C94B6026A
:100060000C94B6020C94B6020C94B6020C94B60230
:100070000C94B6020C94B6020C94B6020C94B60220
:100080000C94B6020C94B6020C94B6020C94B60210
:100090000C94B6020C94B6020C94B6020C94B60200
:1000A0000C94B6020C94B6020C94B602E704E90470
:1000B000F404EB04ED04EF04F104F304F604F80493
:1000C000FA040505FC04FE04000502050405070505
:1000D000D913D9130B140B144B14BC15BC15BC1538
:1000E0006B14BC151815181588159115BC15B51588
:1000F0002515251525152515251525152515251530
:10010000251525152515251525152515251525151F
:1001100034154215491550155A15471647165916E4
:100120005916501659165916591647164716551688
:100130005916591655164A257125632671256326C9
:10014000BD25E02563263626452607634236B79B44
:10015000D8A71A39685618AEBAAB558C1D3CB7CC27
:100160005763BD6DEDFD753EF6177231BF0000009F
:10017000803F05A84CCDB2D44EB93836A9020C50F8
:10018000B9918688083CA6AAAA2ABE000000803F32
:10019000290014001A000800150017001C001800A0
:1001A0000C00120013002B000400160007000900C9
:1001B0000A000B000E000F0033002800E1001D00B4
:1001C0001B00060019000500110010003600370062
:1001D000E5000000E000E20000002C422C4100009D
:1001E000E600E40000002A00350024002500260077
:1001F0002D002E0033002F003000380031002B007E
:10020000210022002300C25CC35CC55CC75CC95CE2
:10021000CB5C2800E1001E001F0020000000C45C31
:10022000C65CC85CCA5CCC5CE5000000E00027004E
:1002300000002C0001000000E600E4000000340093
:1002400000004000410042004300440045007F00A0
:1002500081008000460039003D003E003F00000064
:100260005000520051004F0000000000E1003A0031
:100270003B003C0000004A004B004E004D000000D7
:10028000E5000000E000E200000001002A0000009C
:10029000E600E40000004C0000047F3F1F643214BD
:1002A000643214783C1E1E140A056801F000B40084
:1002B00078005A0000000000000101010101010165
:1002C000010102020202020202020203030303030B
:1002D00003030304040404040405050505050606D8
:1002E00006060607070707080808080909090A0A91
:1002F0000A0A0B0B0B0C0C0C0D0D0D0E0E0F0F0F35
:1003000010101111111212131314141515161617BB
:1003100017181819191A1A1B1C1C1D1D1E1F1F2027
:10032000202122222324252526272728292A2B2B72
:100330002C2D2E2F2F303132333435363637383995
:100340003A3B3C3D3E3F4041424344464748494A90
:100350004B4C4D4F50515253555657585A5B5C5E5B
:100360005F606263646667696A6C6D6E70717374F6
:100370007678797B7C7E8081838486888A8B8D8F5A
:1003800091929496989A9B9D9FA1A3A5A7A9ABAD86
:10039000AFB1B3B5B7B9BBBDBFC1C4C6C8CACCCF76
:1003A000D1D3D6D8DADCDFE1E4E6E8EBEDF0F2F524
:1003B000F7FAFCFF0403300000000C034400610066
:1003C000690073007900000012034B002E005400F6
:1003D0002E0045002E0043002E00000004030904F7
:1003E00009023B00020100A0FA0904000001030118
:1003F00001000921110100012240000705810308C5
:10040000000A090401000103000000092111010094
:10041000012271000705820320000A120110010069
:100420000000080912282301050102030105010942
:1004300080A10185031601002603001A81002A838A
:1004400000751095018100C0050C0901A10185040A
:10045000160100269C021A01002A9C0275109501C3
:100460008100C005010906A1018505050719E029DC
:10047000E715002501950875018102050819012974
:1004800005950575019102950175039101050719FF
:100490000029EF1500250195F075018102C00501C5
:1004A0000906A101050719E029E7150025019508AE
:1004B0007501810295017508810105081901290559
:1004C00095057501910295017503910105071900C4
:1004D00029FF150026FF00950675088100C011242C
:1004E0001FBECFEFDAE0DEBFCDBF04B603FE27C0EC
:1004F00080914E0290914F02A0915002B091510212
:100500008730904BA740B04BD1F410924E0210921E
:100510004F02109250021092510214BE84B7877F8E
:1005200084BF0FB6F894A89580916000886180938D
:100530006000109260000FBEEEE3F6E3099511E053
:10054000A0E0B1E0EAECF4E502C005900D92AA3219
:10055000B107D9F722E0AAE2B1E001C01D92AE34A2
:10056000B207E1F70E942D210C94632A0C9400003D
:1005700081FF02C03E9A01C03E9846980C943D030C
:1005800081E0089581E008950C94C2021F93CF93F7
:10059000DF9300D000D01F92CDB7DEB749835A83D6
:1005A0002091740189819A81211112C0662349F03A
:1005B0000E946C1B182F682F89819A810E94111B41
:1005C00003C00E94401B182F69817A81812F04C0CB
:1005D0000E946C1B69817A810F900F900F900F9091
:1005E0000F90DF91CF911F910C94B905FC014081D0
:1005F00051816281738184810C94C602509A58980B
:1006000008950E949C1C811102C00E941F1D0E941F
:10061000FE020C94670808950E94911F26E030E0C6
:10062000A901481B5109CA019A01220F331F820FE9
:10063000931F2FEF3FEF02C0369527958A95E2F77B
:1006400081E090E000902A0102C0880F991F0A946F
:10065000E2F782239323892B11F0589801C0589A0E
:1006600080912A0190E001968F70992780932A014A
:1006700008950E940C030C946A0808950C94B80223
:1006800008950E9437160E9440032FEF84E39CE0F8
:10069000215080409040E1F700C000000C94961E6D
:1006A0000F931F93CF93DF938C010E94F602EC010E
:1006B000B8010E94C402882309F451C2CC3C8CE5E5
:1006C000D80709F4E1C0E8F5C43CECE5DE0709F41D
:1006D000A5C0F8F4C5318CE5D80778F4C2309CE5A4
:1006E000D90708F052C1C115ECE5DE0709F467C06F
:1006F000C130DC4509F46BC026C2C23C8CE5D8078A
:1007000009F478C008F07EC0C631DC4509F4F4C1B4
:100710001AC2F8018281C83CFCE5DF0709F49CC0DD
:1007200040F4C63CECE5DE0709F48AC008F482C058
:100730008DC0CA3C9CE5D90709F49AC008F492C060
:100740009DC0C43DFCE5DF0709F4F8C0C0F4F80122
:100750008281C03DFCE5DF0709F4BFC040F4CE3C18
:10076000ECE5DE0709F49DC008F496C0A8C0C23DC0
:100770009CE5D90709F4CFC008F4BFC0DAC0C93D71
:10078000FCE5DF0709F49DC160F4C73D9CE5D9078E
:1007900009F44DC108F06EC1C53DDC4509F4DEC069
:1007A000D2C1CD3D8CE5D80709F4E6C0CE3D9CE52D
:1007B000D907C1F0CC3DDC4509F0C5C1D6C0F80170
:1007C0008281882309F4CBC10E944103C8C1F8018A
:1007D0008281882309F4C3C18091F80181608093EC
:1007E000F801BDC1F8018281882309F4B8C10E94D3
:1007F0001F1DB5C1F8018281882309F4B0C10E9490
:10080000460DADC1F8018281882309F4A8C10E9478
:10081000EC1B827261F00E94E20CA1C1F80182819E
:10082000882309F49CC10E94EC1B8272A1F30E94F0
:10083000D40C95C1882309F492C10E94D70B8FC1B3
:10084000882309F48CC10E94FB0B89C1882309F419
:1008500086C10E941B0C83C1882309F480C10E94B9
:100860003B0C7DC1882309F47AC10E945B0C77C1DF
:10087000882309F474C10E947B0C71C1882309F498
:100880006EC10E948A0A6BC1F8018281882309F433
:1008900066C10E949F0A63C1882309F460C181E098
:1008A00029C0882309F45BC10E94810A823028F0A4
:1008B0000E94810A853008F4BACF82E01BC08823E9
:1008C00009F44DC10E94810A863028F00E94810AF5
:1008D000883008F4ACCF86E00DC0882309F43FC10E
:1008E0000E94810A893028F00E94810A8E3008F423
:1008F0009ECF89E00E94E50C32C1882309F42FC104
:100900000E94810A8F3028F00E94810A843108F405
:100910008ECF8FE0EFCF882309F421C10E94810A96
:10092000853128F00E94810A873108F480CF85E163
:10093000E1CF882309F413C188E1DCCFF80182817B
:10094000882309F40CC10E94810A893128F00E9491
:10095000810A823208F46BCF89E1CCCFF801828121
:10096000882309F4FCC083E2C5CFF8018281882383
:1009700009F4F5C080E006C0F8018281882309F4FB
:10098000EEC082E00E94CE21EAC0F8018281882375
:1009900009F4DEC00E949C1C811102C00E941F1D30
:1009A0000E94AF1C90E090933F0280933E02FE01B4
:1009B000E350FC45E231F10530F4EA5AFF4F8091F3
:1009C0003E020C94082A80913E02816027C082601A
:1009D00025C0846023C0806121C080621FC0806404
:1009E0001DC080681BC08460886018C08E7F16C0E0
:1009F0008D7F14C08B7F12C08F7E10C08F7D0EC084
:100A00008F7B0CC08F770AC08B7F877F07C087FBE7
:100A1000222720F991E0922790FB87F980933E02EC
:100A200080913E020E94B31C0E94371698C0F801C4
:100A30008281882351F0109230010E943A1E9093D7
:100A40002D0180932C0182E022C080913001811120
:100A50000FC080912C0190912D010E94461E883C70
:100A6000910530F486E20E941F1286E20E9436133E
:100A700082E024C0F8018281882361F01092310164
:100A80000E943A1E90932F0180932E0180E20E94D3
:100A9000951365C08091310181110FC080912E01A5
:100AA00090912F010E94461E883C910530F487E208
:100AB0000E941F1287E20E94361380E20E949C135C
:100AC0004EC0F80182818111D9CF8091310181110D
:100AD000F4CF80912E0190912F010E94461E883CF8
:100AE000910558F780E20E949C1388E20E941F1231
:100AF00088E20E94361333C00E94EC1B282FF801B5
:100B0000828140910E0150910F01882379F02A7A59
:100B100091E009F490E090932B01911102C069E2F9
:100B200001C065E3CA010E94861D0AC080912B01A5
:100B3000811102C069E201C065E3CA010E94911DF2
:100B40000E94381C0CC081E08093300180933101F9
:100B5000C801DF91CF911F910F910C94C00280E0EA
:100B6000DF91CF911F910F91089580E090E008955B
:100B700008959BE0799FF00111249CE2899FE00D8C
:100B8000F11D1124E60FF11DEE0FFF1FE057FE4F80
:100B9000859194910895880F991FFC01E856FD4FA7
:100BA000859194910895CF93DF930E94B9050E9497
:100BB000C607EC01811521E5920708F042C08115B6
:100BC00060E5960708F031C1883E910500F5803E4A
:100BD000910508F0D7C1883A910570F4853A9105DE
:100BE00008F0A6C08130910509F4CCC108F47DC19C
:100BF000049708F0C7C179C18F3B910508F4A3C0E1
:100C0000803C910508F471C1805C9109FDC0C1155B
:100C100080E3D80780F4C11590E2D90708F0F2C04C
:100C2000C03FD10508F461C1CF3FD10511F008F0F4
:100C3000A9C1D065A7C1C11520E4D20708F0F2C050
:100C4000E7C0811569E5960760F5C11588E5D80705
:100C500008F037C1C11594E5D90778F4C11523E52B
:100C6000D20708F013C1C11562E5D60708F0F8C035
:100C7000DC2FCC27C16FD06A85C1C11585E5D807A7
:100C800008F41AC1C11596E5D90708F02EC18C2FBA
:100C90000E9443088F71C82FD0E0DC2FCC27D06290
:100CA00071C18D3B2CE5920709F416C1F0F4CB3BE2
:100CB0008CE5D80709F40AC108F00BC1C1152AE573
:100CC000D20708F012C18C2F8F700E94430894E065
:100CD000D695C7959A95E1F7CF70D0E0DC2FCC2759
:100CE000D06A8F70806EC82B4DC1803C9C4509F442
:100CF000F9C0C13C8CE5D80760F4CE3B9CE5D90730
:100D000009F4EDC0CF3BDC4509F0EFC0C0E0D2ED07
:100D100039C1CE0190568115904208F0E6C08D2F62
:100D20008F710E944308DD27D0628F71D82B2AC1B2
:100D3000853A910509F4DCC0863A910509F0DBC0DB
:100D4000C2E8D0E41FC1883A910509F4D7C0893AB6
:100D5000910509F4D6C08A3A910509F4D5C08B3AB9
:100D6000910509F4D4C08C3A910509F4D3C08B3BAA
:100D7000910509F4D2C08C3B910509F4D1C08D3A9C
:100D8000910509F4D0C0803B910509F4CFC08E3A9B
:100D9000910509F4CEC08F3A910509F4CDC0813B8D
:100DA000910509F4CCC0823B910509F4CBC0833B8B
:100DB000910509F4CAC0843B910509F4C9C0853B7B
:100DC000910509F4C8C0863B910509F4C7C0873B6B
:100DD000910509F4C6C0883B910509F4C5C0893B5B
:100DE000910509F4C4C08D3B910509F4C3C08E3B45
:100DF000910509F4C2C08A3B910509F4C1C0C0E065
:100E0000D4E4C0C0CE019F700E94CB05EC01BAC0F3
:100E1000CE019927D3FF03C0EC01D86CB3C0EC011D
:100E2000D06CB0C0DF70D06AADC0837021E030E01C
:100E300002C0220F331F8A95E2F73C68CE0174E0AE
:100E4000969587957A95E1F78370382BCF70C69584
:100E5000C69580E2C89FE0011124C22BD32B92C01B
:100E60004C2F4695469590E2499FA0011124C370EE
:100E7000DD2721E030E0C90102C0880F991FCA9523
:100E8000E2F7EC01C42BD52BDC687CC04C2F4695D7
:100E9000469580E2489FA0011124C370DD2721E020
:100EA00030E0C90102C0880F991FCA95E2F7EC0132
:100EB000C42BD52BDA6866C0DC2FCC27C46FD06A70
:100EC00061C0DC2FCC27C06FD06A5CC0C0E0D4ED1D
:100ED00059C0C0E0D5ED56C0C0E0D1ED53C0C0E070
:100EE000D0ED50C0C0E0D3ED4DC0C0E0D0E04AC06E
:100EF000C1E8D0E447C0C3E8D0E444C0C2EED4E4C3
:100F000041C0C9EED4E43EC0CAEED4E43BC0C5EB58
:100F1000D4E438C0C6EBD4E435C0C3EBD4E432C06B
:100F2000C4EBD4E42FC0C7EBD4E42CC0CCECD4E4A5
:100F300029C0CDECD4E426C0C3E8D5E423C0CAE878
:100F4000D5E420C0C2E9D5E41DC0C4E9D5E41AC087
:100F5000C1E2D6E417C0C3E2D6E414C0C4E2D6E4CA
:100F600011C0C5E2D6E40EC0C6E2D6E40BC0C7E2AB
:100F7000D6E408C0CFE6D4E405C0C0E7D4E402C09C
:100F8000CAE2D6E4CE01DF91CF910895823891056F
:100F900049F1B0F48133910509F458C048F489321D
:100FA000910509F44EC08A32910509F454C00895A0
:100FB0008533910509F440C08933910599F008956E
:100FC000833E910529F138F4803E910591F0823EEF
:100FD0009105A1F00895863E9105F9F0873E9105AF
:100FE00031F1089520913E0220FD3AC021FD38C024
:100FF000089580913E0280FD35C032C080913E024E
:1010000082FF32C080913E0284FD30C083EE39C041
:1010100080913E0282FD28C0F5CF80913E0283FF81
:1010200027C080913E0284FD21C087EE2AC08091B6
:101030003E0283FD1DC0F5CF80913E0285FD1AC0A2
:101040001BC080913E0285FD17C014C080913E02F6
:1010500086FD14C015C080913E0286FD11C00EC0F1
:1010600080EE0FC089E30DC082EE0BC080E009C0A6
:1010700086EE07C089E205C085E303C08AE201C0AD
:1010800081E390E0089590913E0292FF0DC0282FD9
:101090002871283019F4877F846006C0282F2471B6
:1010A000243011F48B7F886093FF0DC0282F2871A6
:1010B000283119F4877E846106C0282F24712431D9
:1010C00011F48B7E886194FD877E089508950C94B9
:1010D000660808950C946908E82FF0E0EE0FFF1FF2
:1010E000EE5CFE4F8081918108950895E6E2F1E083
:1010F00041E050E024E02E0F9191A92FA295AF700E
:10110000B0E091963C9191979F70BA0102C0660F32
:10111000771F9A95E2F7CB018095832391968C9364
:101120002E13EACFABE1B1E041E050E02BE02A0F13
:101130008D91E82FE295EF70F0E031A18F70BA0148
:1011400002C0660F771F8A95E2F7CB01962F909524
:10115000932391A392A1892B82A32A13E9CF109202
:101160003B0110923A011092330110923201109219
:101170003D0110923C011092350110923401109201
:101180003F0110923E0110923701109236011092E9
:10119000410110924001109239011092380184E00F
:1011A0000E946C090C9401034F925F927F928F9280
:1011B0009F92AF92BF92CF92DF92EF92FF920F93E6
:1011C0001F93CF93DF9326E2422E21E0522EAAE313
:1011D000B1E020E001E010E05D018D909C9011975E
:1011E00011961C921E92E20189912E01E82FE29540
:1011F000EF70F0E031A18F70A80102C0440F551FBD
:101200008A95E2F7CA01342B31A342A1382F3095D9
:10121000432342A350EA5A95F1F79BE1C92E91E08E
:10122000D92E40E050E0E60179906E01672D62957D
:101230006F7070E0EB01E8A06D917C911197F12C3B
:10124000D72DDF7002C0F594E794DA95E2F7E0FC61
:1012500008C07801042E02C0EE0CFF1C0A94E2F7CD
:1012600002C0E12CF12C6E297F2911967C936E939C
:101270004F5F5F4F4B305105B1F691A1392331A338
:1012800092A1892B82A3129681E0F50140815181C0
:101290008416950609F480E0282BF1E0A234BF07FC
:1012A00009F09ACF44E062E371E08AE391E00E94A2
:1012B0006D090E94390381E0DF91CF911F910F9159
:1012C000FF90EF90DF90CF90BF90AF909F908F9066
:1012D0007F905F904F9008950895FF920F931F9312
:1012E000CF93DF93F82E092F162FD72FC42F222349
:1012F00049F081E0809344010E943A1E909343019B
:1013000080934201809144018823D9F08091420169
:10131000909143010E94461E069798F0EF2DF02F02
:10132000A12FBD2F80E090E04C2F50E0841795074F
:1013300034F4219131912D933D930196F7CF109282
:101340004401DF91CF911F910F91FF900895EF928B
:10135000FF920F931F93CF93DF93E901662309F464
:101360004BC0242F30E0EFEFF0E0E61BF109B901AC
:10137000E69F9001E79F300DF69F300D1124232F3B
:101380008B01031B11095CE3E52EF12CB7010E94D0
:10139000E029FB01BC01069FC001079F900D169F2D
:1013A000900D1124B7010E94E029E230F105B1F05F
:1013B00040F4309779F0319711F5832F242F461B95
:1013C00021C0E430F105A1F068F03597C1F4842F15
:1013D000861B18C0832F262F230F14C0862F830F40
:1013E000E42F03C0E42FE61B842F432F2E2F0AC0C7
:1013F000842F462F430F06C0842F242F03C080E084
:1014000020E040E0E42FF0E0EC54FD4F4491E22F67
:10141000F0E0EC54FD4F9491E82FF0E0EC54FD4FD8
:10142000E49149839883EA83DF91CF911F910F91D3
:10143000FF90EF90089580911D02282F26952F731D
:1014400030E02115310519F48178826005C025321C
:10145000310524F08178886480931D0230911D024B
:10146000432F441F4427441F20911E02522F550F23
:10147000852F842B27FB992790F9893641E0940723
:101480007CF068E671E00E94F42980FB37F9309324
:101490001D0286952078822B90FB87F980931E028F
:1014A000089588E090E00C94232ACF93DF9300D036
:1014B00000D0CDB7DEB7AB01BC0149835A836B8343
:1014C0007C830E941B0A49815A816B817C8188E060
:1014D00090E00F900F900F900F90DF91CF910C94B0
:1014E000412AEDE1F2E083E0808310921E028FEF4B
:1014F00082838383148260817181828193810C94C1
:10150000550A80911D0280FF03C086958F73089550
:1015100080E008958091210290E001968430910549
:1015200014F083E090E08093210260911D0270919D
:101530001E0280911F02909120020C94550A809106
:10154000210290E0019797FF02C080E090E0843094
:10155000910514F083E090E08093210260911D02D8
:1015600070911E0280911F02909120020C94550AE6
:101570008091620123E0829FC00111248E5D9D4F06
:101580006091020170E020911D0220FD0DC020E05D
:1015900030E0F901EE5DFD4F1182108212822D5F65
:1015A0003F4F28313105A9F70C94B31090911D02DB
:1015B00090FF0FC020E030E0F901EE5DFD4F818328
:1015C000608342832D5F3F4F28313105A9F70C948A
:1015D000B80A0895CF93DF9300D01F92CDB7DEB73E
:1015E00020911D0220FF0AC09E012F5F3F4F0E94E5
:1015F000A7094B8169818A810E94D60A0F900F90BA
:101600000F90DF91CF9108955F926F927F928F92AA
:101610009F92AF92BF92CF92DF92EF92FF920F9381
:101620001F93CF93DF9300D01F92CDB7DEB78C010D
:10163000E62EF42E522E80911D0280FF8BC0982F33
:101640009E77923061F49E012F5F3F4FC8010E9448
:10165000A7094B8169818A810E94D60A5BC0E82F65
:10166000E695EF739EE39E0F9F73943018F4F0900D
:10167000200250C09AE39E0F9F73993068F4881F30
:101680008827881F90911E02292F220F022F082BD6
:1016900097FB112710F93EC087E28E0F8F738A30B7
:1016A000C8F5F0E07997E0FD02C021E001C02FEF1E
:1016B000EE7FE655FD4F85919491AC0183E0569500
:1016C00047958A95E1F724034001259F900C11244A
:1016D000580188E9A81A8EEFB80A92E2C92E92E062
:1016E000D92E28E6622E77247394C501B3010E9497
:1016F000E02996014F2D6E2D0E94A709A80CB91C58
:1017000083E0C80ED11C8AE3C81682E0D80669F7C8
:101710000E94B80A80911D0200FB87F980931D0288
:10172000902F969580911E028078892B10FB87F967
:1017300080931E02E0921F02F0922002552051F089
:1017400060911D0270911E0280911F0290912002F3
:101750000E94550A0F900F900F90DF91CF911F912B
:101760000F91FF90EF90DF90CF90BF90AF909F9040
:101770008F907F906F905F900895282FEDE1F2E0B9
:101780009081991F9927991F30911E02832F880FEE
:10179000482F492B37FB552750F9CA010C9668E6AC
:1017A00071E00E94F429438162810C94040B81E072
:1017B0000C94BD0B282F90911D02991F9927991FFA
:1017C00030911E02832F880F482F492B37FB552756
:1017D00050F9CA014C3051051CF4845A9E4F01C087
:1017E0000C9768E671E00E94F42940912002609114
:1017F0001F020C94040B81E00C94DA0B60911F0221
:10180000262F30E0273E310514F4675E01C06FEFEC
:1018100030911D02331F3327331F90911E02592F21
:10182000550F97FB992790F9282F40912002852F7B
:10183000832B0C94040B81E00C94FE0B60911F022F
:10184000262F30E02931310514F0695101C060E0E4
:1018500030911D02331F3327331F90911E02592FE1
:10186000550F97FB992790F9282F40912002852F3B
:10187000832B0C94040B81E00C941E0C40912002ED
:10188000242F30E0243F310514F4445F01C04FEFB2
:1018900030911D02331F3327331F90911E02592FA1
:1018A000550F97FB992790F9282F60911F02852FDC
:1018B000832B0C94040B81E00C943E0C409120028D
:1018C000242F30E02C30310514F04C5001C040E0A2
:1018D00030911D02331F3327331F90911E02592F61
:1018E000550F97FB992790F9282F60911F02852F9C
:1018F000832B0C94040B81E00C945E0C20E00C9480
:10190000040BCF9390911D0290FF40C091788111FC
:1019100002C0926007C0853210F0986403C08F73D4
:10192000880F982B90931D02662351F060911D0241
:1019300070911E0280911F02909120020E94550A10
:10194000C0911D026C2F66956F7370E04BE050E004
:1019500083E091E00E940E2A892B19F01092630116
:1019600003C081E080936301CC1FCC27CC1F9091F2
:101970001E02892F880F97FB992790F9409120022A
:1019800060911F028C2BCF910C947E0CCF91089507
:10199000682F90911D0296959F7381E0890F853283
:1019A00008F081E00C94810C81E00C94C80C682F45
:1019B00090911D0296959F738FEF890F09F484E231
:1019C0000C94810C81E00C94D70C61E00C94810C98
:1019D000EDE1F2E080818160808386958F730C94C5
:1019E000E50C60E00C94810C80916401811135C09C
:1019F0008091F80181608093F8010E949C1C811104
:101A000004C00E941F1D0E94710A0E94510A609327
:101A10001D0270931E0280931F02909320026E7726
:101A200061F40E94710A0E94510A60931D02709332
:101A30001E0280931F02909320020E941B0A81E0E5
:101A40008093630180911D0280FF04C086958F738F
:101A50000E94F10C81E0809364010895EDE1F2E0D1
:101A600080818E7F808360817181828193810E94D9
:101A7000550A109263012FEF80E792E021508040D9
:101A80009040E1F700C000000C94B80A80911D025C
:101A900080FD0C942E0D0C94E80CCF93E82FF0E011
:101AA000EA55FD4FC49180916001909161010E94BF
:101AB000461EEC2FF0E08E179F0708F443C00E94EB
:101AC0003A1E909361018093600160915F0170E024
:101AD00080E090E00E94E12720E030E04FE753E40F
:101AE0000E9404272BED3FE049E450E40E940A29BC
:101AF0000E9477290E947E272BE43AE34EE25FE3BF
:101B00000E94972620EF3BEF48ED52E40E940A29FD
:101B10000E94B027462F80911D02881F8827881FAA
:101B200090911E02292F220F97FB992790F960911F
:101B30001F02822B0E94EA0A80915F0190E00196C9
:101B400080935F01CF910895CF93E82FF0E0ED559A
:101B5000FD4FC49180915D0190915E010E94461EEF
:101B6000EC2FF0E08E179F07E8F00E943A1E90934A
:101B70005E0180935D014091200260911F0280917F
:101B80005B0190915C010E94EA0A80915B01909157
:101B90005C01019668E671E00E94E02990935C0187
:101BA00080935B01CF910895CF92DF92FF920F93C4
:101BB0001F93CF93DF93F82EE82FE695F0E0E056E1
:101BC000FD4FC4918091590190915A010E94461E87
:101BD000EC2FF0E08E179F07E8F10E943A1E9093D9
:101BE0005A018093590102E212E0C0E0D0E088E699
:101BF000C82EDD24D39480915701909158018C0F09
:101C00009D1FB6010E94E029980140912002609139
:101C10001F020E94A709AD960D5F1F4FC83681E0D5
:101C2000D80749F70E94B80A20915701309158010E
:101C3000F0FE0AC0C9010196BE010E94E0299093FE
:101C400058018093570106C0215031093093580143
:101C500020935701DF91CF911F910F91FF90DF905B
:101C6000CF900895AF92BF92CF92DF92EF92FF9202
:101C70000F931F93CF93DF9380FF02C01FEF01C02C
:101C800011E08695E82FF0E0E356FD4FC491809176
:101C90005501909156010E94461EEC2FF0E08E17E0
:101CA0009F0708F465C00E943A1E909356018093E6
:101CB000550122E2C22E22E0D22E34E2E32E32E09F
:101CC000F32EC0E0D0E0F70131971082F6011082C8
:101CD000F701108294E0A92EB12C00E0809154010C
:101CE000800F87FD885F082E000C990BC817D90755
:101CF000E9F4809120028A9DA0018B9D500D112452
:101D0000559547955595479580911D02881F8827C1
:101D1000881F90911E02592F550F97FB992790F914
:101D2000960160911F02852B0E94A709010FF1E027
:101D3000AF1AB10899F6219683E0C80ED11CE3E0F2
:101D4000EE0EF11CC830D10509F0BDCF0E94B80AD3
:101D500080915401113031F4811102C087E006C036
:101D6000815004C090E001968770992780935401B8
:101D7000DF91CF911F910F91FF90EF90DF90CF9067
:101D8000BF90AF900895EF92FF920F931F93CF9360
:101D9000DF93E82FF0E0E656FD4FC49180915201A9
:101DA000909153010E94461EEC2FF0E08E179F0782
:101DB00008F464C00E943A1E90935301809352012C
:101DC00080E090E0FC01EE5DFD4F118210821282F6
:101DD000039688319105B1F782E2E82E82E0F82E71
:101DE00004E212E0C0E0D0E080915101082E000C26
:101DF000990BC817D907ECF080910101082E000C4F
:101E0000990B8C179D07ACF080911D02881F8827C5
:101E1000881F90911E02592F550F97FB992790F913
:101E200097014091200260911F02852B0E94A70913
:101E300007C0F80131971082F7011082F801108273
:101E40002196F3E0EF0EF11C0D5F1F4FC830D10556
:101E500059F60E94B80A8091000190915101980FA3
:101E60009093510120910101280F20930101121636
:101E700014F497301CF0819580930001DF91CF918D
:101E80001F910F91FF90EF900895EF92FF920F93A3
:101E90001F93CF93DF9380914F01909150010E9447
:101EA000461E883E9340D0F10E943A1E9093500106
:101EB00080934F01C0914D01D0914E012196C17088
:101EC000DD27D0934E01C0934D0182E2E82E82E0DF
:101ED000F82E10E008E7812F8695FE01E80FF11D2E
:101EE000CF018170992797014091200260911F02D4
:101EF000FC010E9FC0010F9F900D11240E94A709A5
:101F00001F5FF3E0EF0EF11C183029F7DF91CF913E
:101F10001F910F91FF90EF900C94B80ADF91CF9131
:101F20001F910F91FF90EF900895CF93DF9300D012
:101F30001F92CDB7DEB780914B0190914C010E946A
:101F4000461EE8E9F2E02591349182179307C0F12B
:101F500080914A0181110CC09E012F5F3F4F4FEFCE
:101F60006FEF80E090E00E94A7098A8180934A0188
:101F70000E943A1E90934C0180934B01809149013D
:101F8000813051F028F0823061F440914A010AC05A
:101F900080914A0140E007C060914A0140E080E042
:101FA00003C040E080E060E00E94D60A80914901D1
:101FB00090E0019663E070E00E94F429809349016B
:101FC0000F900F900F90DF91CF9108950F931F9373
:101FD000CF93DF9380914701909148010E94461E64
:101FE000843F914008F448C00E943A1E90934801F3
:101FF00080934701C2E2D2E000E010E02091450169
:102000003091460180911D0290911E02043011050D
:102010001CF4232B79F002C0232B61F4881F88273E
:10202000881F592F550F97FB992790F99E014091D2
:1020300020020AC0881F8827881F592F550F97FB39
:10204000992790F99E0140E060911F02852B0E9424
:10205000A7090F5F1F4F23960830110579F60E94DC
:10206000B80A8091450190914601019681709927A7
:102070009093460180934501DF91CF911F910F917D
:102080000895809163018823D9F190911D02892FD1
:1020900086958F732EE3280F2F73243018F4825007
:1020A0000C944D0D2AE3280F2F73233018F486501B
:1020B0000C94A40D27E3280F2F73263018F48950B1
:1020C0000C94D40D21E3280F2F73263018F48F5071
:1020D0000C94320E2BE2280F2F73233018F4855105
:1020E0000C94C30E892F8E77803311F40C94450F16
:1020F000863411F40C94950F883411F40C94E60F87
:10210000089528B1342F3095232338B1432B3FB79E
:10211000F894FC01680F791FE617F70789F08191A1
:1021200098E048B9000000C087FF28B9880F000078
:1021300000C000C000C028B900C09A9591F7ECCF4C
:102140003FBF089527B1242B27B99B01220F331FCE
:10215000620F731F0E94811087EC90E00197F1F7E6
:1021600000C00000089540E80C94A21090936A010A
:10217000809369010895E0916901F0916A013097B7
:1021800021F00190F081E02D099480E00895E09124
:102190006901F0916A01309799F020911A01222388
:1021A00059F020913E0227FF07C0DC012C911196C7
:1021B0002C93119725E02C930280F381E02D099454
:1021C000089520916701309168018217930771F09B
:1021D0009093680180936701E0916901F0916A0131
:1021E000309721F00680F781E02D09940895209121
:1021F0006501309166018217930771F09093660133
:1022000080936501E0916901F0916A01309721F0B6
:102210000084F185E02D0994089585B7806885BF15
:1022200085B7806885BF0895089508950C941511A9
:1022300008950C9418110E940D110E9414110C9411
:10224000161181E008950E94311E0E9476080E94B6
:10225000BA1E0E94D31E0E94F40C0C9419114F92C6
:102260005F927F928F929F92AF92BF92CF92DF92B6
:10227000EF92FF920F931F93CF93DF93CDB7DEB70B
:102280002A970FB6F894DEBF0FBECDBF0E94D408C8
:102290000E942111811111C08FEF89838A831B82D3
:1022A0000E943A1E8160782F9D838C8349815A81D8
:1022B0006B818D810E94EB1157C09CE6C92E91E085
:1022C000D92E00E010E0AA24A394B12C702E802F08
:1022D0000E946C084C01F601419051906F01482614
:1022E00059264114510431F40F5F1F4F043011057A
:1022F00069F7D2CF8091F80181FD0E94750820E036
:1023000030E07501022E02C0EE0CFF1C0A94E2F7C9
:10231000C70184219521892B09F12E837F828E208C
:102320009F2091E0892809F490E098870E943A1E46
:102330008160782F9A8789874E815F8168858A8539
:102340000E94EB11000F111FF801E459FE4F80812C
:102350009181E826F926F182E08206C02F5F3F4F87
:102360002B30310571F6C0CF10916B010E94BB106C
:102370001817D9F00E94BB1080936B012A960FB6F4
:10238000F894DEBF0FBECDBFDF91CF911F910F91AB
:10239000FF90EF90DF90CF90BF90AF909F908F9085
:1023A0007F905F904F900C943E032A960FB6F8945E
:1023B000DEBF0FBECDBFDF91CF911F910F91FF9078
:1023C000EF90DF90CF90BF90AF909F908F907F90D5
:1023D0005F904F900895CF93DF93CDB7DEB72B97E3
:1023E0000FB6F894DEBF0FBECDBF4F835887698705
:1023F0007A878B87DE01119686E0FD0111928A951E
:10240000E9F785E0FE01379601900D928A95E1F794
:1024100049815A816B817C818D819E810E94E11866
:102420002B960FB6F894DEBF0FBECDBFDF91CF91D4
:102430000895FC01808191810E94AD1B089588233D
:1024400009F413C1682F8238C1F40E94BB1081FDCA
:102450000CC169E380910E0190910F010E94861DCD
:102460000E94381C2FEF81EE94E021508040904074
:10247000E1F700C0000069E319C08338F9F40E9455
:10248000BB1080FDF2C063E580910E0190910F01B9
:102490000E94861D0E94381C2FEF81EE94E021508F
:1024A00080409040E1F700C0000063E580910E019C
:1024B00090910F010E94911D0C94381C8438C1F436
:1024C0000E94BB1082FDD1C067E480910E01909103
:1024D0000F010E94861D0E94381C2FEF81EE94E0B0
:1024E000215080409040E1F700C0000067E4DECF5B
:1024F0008CEF860F813A38F480910E0190910F0194
:102500000E94861DD9CF80E2860F883048F467701C
:1025100081E001C0880F6A95EAF70E94EF1BCCCFDB
:102520008BE5860F833070F4653A29F0663A31F016
:1025300083E890E005C081E890E002C082E890E086
:102540000C94E11088E5860F873108F08EC0683A58
:1025500009F445C0693A09F445C06A3A09F445C02E
:102560006B3A09F445C06C3A09F445C06B3B09F479
:1025700045C06C3B09F445C06D3A09F445C0603B69
:1025800009F445C06E3A09F445C06F3A09F445C0F4
:10259000613B09F445C0623B09F445C0633B09F463
:1025A00045C0643B09F445C0653B09F445C0663B42
:1025B00009F445C0673B09F445C0683B09F445C0D0
:1025C000693B09F445C06D3B09F445C06E3B09F415
:1025D00045C06A3B09F445C080E090E044C082EE0B
:1025E00090E041C089EE90E03EC08AEE90E03BC0B2
:1025F00085EB90E038C086EB90E035C083EB90E04F
:1026000032C084EB90E02FC087EB90E02CC08CECC4
:1026100090E029C08DEC90E026C083E891E023C0D3
:102620008AE891E020C082E991E01DC084E991E050
:102630001AC081E292E017C083E292E014C084E203
:1026400092E011C085E292E00EC086E292E00BC0FB
:1026500087E292E008C08FE690E005C080E790E056
:1026600002C08AE292E00C94F7100895882309F4DE
:102670005BC0682F823879F40E94BB1081FF54C080
:1026800069E380910E0190910F010E94861D0E94C6
:10269000381C69E310C08338B1F40E94BB1080FF7E
:1026A00043C063E580910E0190910F010E94861D49
:1026B0000E94381C63E580910E0190910F010E94E9
:1026C000911D0C94381C843879F40E94BB1082FF51
:1026D0002BC067E480910E0190910F010E94861D2E
:1026E0000E94381C67E4E7CF8CEF860F813A18F31D
:1026F00080E2860F883048F4677081E001C0880F5F
:102700006A95EAF70E94F51BDCCF8BE5860F8330D4
:1027100020F480E090E00C94E110685A673120F4D6
:1027200080E090E00C94F7100895882321F00E9437
:10273000EF1B0C94381C0895882321F00E94F51B90
:102740000C94381C08954F925F926F927F92BF92C3
:10275000CF92DF92EF92FF920F931F93CF93DF936D
:102760007C01D62FC72FFC01058102950F701281C5
:1027700011110E940C1C0E94E51B882379F0112383
:1027800069F080E28D0F883048F082E00E94831C5F
:102790000E94E51B91E0B82EB92601C0B12CCC2EC9
:1027A000C2948FE0C822D12CF601E859FF4F0C9457
:1027B000082A8C2F807FCF70882311F0C295C07FAC
:1027C000112399F0CC2309F48EC180E28D0F88305B
:1027D00010F0D11104C08C2F0E94EF1B03C08C2F6E
:1027E0000E94FF1B0E94381C7EC18D2F0E94361351
:1027F000CC2309F4C1C180E28D0F883010F0D111D3
:1028000004C08C2F0E94F51B03C08C2F0E94051C56
:102810000E94381CB1C18C2F807FCF70803211F0A4
:10282000C295C07FDD2319F0D130C9F022C0112339
:1028300071F0002341F0013031F40E941F1C8C2BF9
:102840000E94251C99C10E941F1C8C2B1DC00023B7
:1028500019F0013009F490C10E942E1C1AC01123F6
:1028600021F0063008F088C10EC0053008F084C1A0
:1028700010C0112361F0002331F0F701858180FF42
:1028800032C18F7085838C2F0E94951375C1011101
:102890003BC18C2FE6C08C2F86958695837090E087
:1028A000009719F0019761F067C1112321F08D2F76
:1028B0009C2F937002C080E090E00E94E1106CC1F8
:1028C000112321F08D2F9C2F937002C080E090E0A7
:1028D0000E94F71061C18C2F837009F050C0111154
:1028E00057C18D2F829586958770880F880F9D2FF1
:1028F0009F70492E512C612C712C082E04C0440C61
:10290000551C661C771C0A94D2F7D4FF14C00FE044
:1029100010E020E030E0B901A80104C0440F551FC9
:10292000661F771F8A95D2F7CB01BA016095709523
:102930008095909503C060E070E0CB01C695C69588
:10294000C370D0E0C230D10561F0C330D10581F051
:102950006429752986299729219771F00E94261AE2
:1029600017C164297529862997290E94381A10C130
:102970000E94261AC301B2010E94141A09C1112330
:1029800019F08C2F817001C08695882309F400C14D
:102990008D2F829586958770880F880F9D2F9F7049
:1029A000492E512C612C712C082E04C0440C551C4E
:1029B000661C771C0A94D2F7D4FF14C00FE010E015
:1029C00020E030E0B901A80104C0440F551F661F84
:1029D000771F8A95D2F7CB01BA01609570958095E3
:1029E000909503C060E070E0CB01C695C695C370BA
:1029F0004C2F50E04230510569F04330510589F0C9
:102A000064297529862997294130510571F00E9462
:102A1000EC1ABEC064297529862997290E94FE1ADE
:102A2000B7C00E94EC1AC301B2010E94DA1AB0C00A
:102A30008D2F90E0FC01E05EF109E531F10508F031
:102A40004EC0E858FF4F0C94082ADF708C2F8F710E
:102A5000112321F00E94731A8D2F16CF0E94941A11
:102A60008D2F0E949C1388C0112341F0053008F07F
:102A700083C08C2F8F710E94B91A7EC0063008F077
:102A80007BC0F7CF112339F08C2F8F710E94731AFE
:102A900073C01123C9F38C2F8F710E94941A6CC0DC
:102AA000112329F08C2F8F710E945E1A65C00E943D
:102AB000591A62C0112349F0CF718C2F0E94731AEA
:102AC00063E08C2F0E946E1C57C081E00E94831C23
:102AD000023008F451C082E00E94831C4DC01123D3
:102AE00031F0002389F28D2F0E941F1245C0002370
:102AF00091F2D93349F45FEF67EE73E051506040D3
:102B00007040E1F700C000008D2F0E94361334C0E2
:102B10004C2F4F706D2FC7010E94B5050E9485197B
:102B20003BC0111139C0CF70D0E0C230D10599F04F
:102B30003CF4209769F02197F9F40E940D1F2CC0F6
:102B4000C430D10571F054F02597B1F480E00AC08B
:102B50000E94F01E21C00E944C1F1EC00E94531FE5
:102B60001BC086E00E94761F17C04C2F4F706D2F40
:102B7000C7010E94B80510C088E0C816D10441F012
:102B80005CF0EAE0CE1AD108F2E0CF16D10420F4CE
:102B90000E94BB100E943E03BB20F1F00E94E11B8B
:102BA00080FD1AC0F70112820E94DB1B0E94731A7B
:102BB000C7010E94FA150E94DB1BDF91CF911F9184
:102BC0000F91FF90EF90DF90CF90BF907F906F902C
:102BD0005F904F900C94941ADF91CF911F910F91B9
:102BE000FF90EF90DF90CF90BF907F906F905F90BD
:102BF0004F9008950F931F93CF93DF93EC0188813B
:102C000099812B813C81232BB9F09F3F11F48F3F99
:102C100099F0CE010E945003882371F06881798178
:102C20008A810E94B81B8C010E94101B0E94111AFD
:102C3000B801CE010E94A313DF91CF911F910F9194
:102C400008950E940C1C0E941C1C0E94381C80E0ED
:102C500090E00E94E11080E090E00C94F7108091E9
:102C60000E0190910F010E949C1D0C9421160E9450
:102C7000FC1B0C942F16E92FE295EF70F0E03297D1
:102C8000EE30F105B0F4E357FF4F0C94082A803F73
:102C900091F018F4803E68F40EC0843F51F40BC0EC
:102CA000803E48F0813F29F406C093FB882780F9D5
:102CB000089580E0089581E008950E94AD1B0E9470
:102CC0003B160895CF93DF9300D000D01F92CDB76D
:102CD000DEB70F900F900F900F900F90DF91CF9174
:102CE0000895CF93DF9300D000D000D0CDB7DEB7EA
:102CF00026960FB6F894DEBF0FBECDBFDF91CF9101
:102D000008951F93CF93DF93C091750116E08091D2
:102D10007601C81799F0D0E01C9FF0011D9FF00DBF
:102D20001124E958FE4F4081518162817381848171
:102D300095810E9471162196C770E9CFDF91CF91DE
:102D40001F9108954091A7015091A8016091A90198
:102D50007091AA018091AB019091AC010C94711615
:102D60008091AC0182958F7009F054C08091A901C7
:102D7000882309F44FC080917501A091760160917C
:102D8000A7017091A8014091AA015091AB01B6E052
:102D90008A1709F43FC090E041155105C1F17F3F0A
:102DA00011F46F3FA1F1B89FF001B99FF00D11240C
:102DB000E958FE4F218172132AC02081621327C077
:102DC0002281211124C0238134812417350710F476
:102DD00021503109241B350B283C3105C0F42091CA
:102DE000AC012F7020612093AC0126E0289FF001F8
:102DF000299FF00D1124E458FE4F80818F7080616F
:102E0000808387EA91E00E94FA150C94811601965E
:102E10008770BECF0895CF92DF92EF92FF920F930B
:102E20001F93CF93DF93CDB7DEB762970FB6F894B9
:102E3000DEBF0FBECDBF8C0185E0F801DE011D961F
:102E400001900D928A95E1F7D8014C9111965C9111
:102E5000119712966C9112971396CD90DC9014975F
:102E60003091A7017091A8018091AA019091AB01C6
:102E7000009709F46BC17F3F19F43F3F09F466C125
:102E8000E090A901EE2009F4C0C02091AC01C81661
:102E9000D90628F0F601E81BF90BCF0104C0809594
:102EA00090958C0D9D1DFF24F394883C910578F03E
:102EB000F12C207F09F0C6C07C2DD98AC88A898967
:102EC0000E94621687EA91E00E94FA15B1C0822F33
:102ED000807F09F046C0751314C0341312C061110D
:102EE00010C02F7020612093AC010E94A21687EAC7
:102EF00091E00E94FA158091AC01D80115968C934F
:102F00002EC0CD2819F15F3F11F44F3FF9F0F62E96
:102F100061111CC0809175012091760136E0821705
:102F200009F45AC090E0389FF001399FF00D112448
:102F3000E958FE4F7181571306C07081471303C0D3
:102F40007281711103C001968770E9CFF62E662356
:102F500009F427C18091AC0181608093AC01F12C10
:102F600020C1751308C0341306C0611104C08091DC
:102F7000AC01D801C3C04D875E878D859E856A8B65
:102F80000E945D166A898823E1F16623D1F12091C0
:102F9000AC01822F82958F7090E0029774F080913F
:102FA000A7019091A80198878F831986DB86CA862E
:102FB0002C87CE0107960E94FA1586E0F801A7EA51
:102FC000B1E001900D928A95E1F70E94B0160E943F
:102FD000A216FF24F394E5C04D875E878D859E85FC
:102FE0000E94AD1B292F22952F7030E02230310531
:102FF0000CF0CBC09F7009F0C5C0805E883008F42B
:10300000D0C0C8010E94FA15E4CFC816D90608F44A
:1030100053C0F601E81BF90BCF01883C910508F479
:1030200050C0F12C7C2DD98AC88A89890E946216E9
:10303000E7EAF1E086E0DF011D928A95E9F70E9458
:10304000A216AFC0751314C0341312C0611110C0A2
:103050008091AC01F8018583C8010E94FA1586E0D1
:10306000E7EAF1E0DF011D928A95E9F7FE2C99C0AD
:103070004D875E878D859E856A8B0E945D166A8965
:10308000882309F4BECF662309F4BBCF2091AC019D
:10309000822F82958F7090E002970CF48ECF8091F2
:1030A000A7019091A8019A8389831B82DD82CC823B
:1030B0002E83CE0101967FCF809590958C0D9D1D1E
:1030C000ACCFF62E662309F49CCF75132EC03413B3
:1030D0002CC02091AC0120FD1FC0822F82958F70E3
:1030E000D9F0D80115962C9315978F3049F08F5F42
:1030F000982F9295907F822F8F70892B15968C93A5
:10310000C8010E94FA1586E0F801A7EAB1E0019033
:103110000D928A95E1F793CF86E0F801A7EAB1E036
:1031200001900D928A95E1F73CC04D875E878D85B1
:103130009E850E945D16811140CF8091AC01816017
:103140008093AC01C8010E94FA152BC0662309F4D4
:1031500058CF4D875E878D859E850E945D16F82E1F
:10316000882309F44ECF86E0F801A7EAB1E0019088
:103170000D928A95E1F787EA91E00E9419120E9468
:10318000B0165DCF811139CF0CC0243031050CF061
:1031900038CF9F7009F431CFF8019581907F09F005
:1031A0002CCF8F2D62960FB6F894DEBF0FBECDBF29
:1031B000DF91CF911F910F91FF90EF90DF90CF9013
:1031C00008951F93CF93DF93CDB7DEB72C970FB63B
:1031D000F894DEBF0FBECDBF4F83588769877A87CB
:1031E0008B879C87CE0107960E940B17882369F076
:1031F0008F8198852A853B85232BF1F19F3F09F02C
:1032000063C08F3F09F060C037C086E0FE0137968B
:10321000DE01119601900D928A95E1F76F81788514
:10322000EA85FB85309741F17F3F11F46F3F21F133
:103230002091760130E0C90101968770992740916D
:10324000750150E08417950709F447C069837A83B4
:10325000FD83EC8396E0929FD001939FB00D1124E3
:10326000A958BE4FFE01319601900D929A95E1F753
:10327000809376010E94811616E0809175019091ED
:1032800076018917C1F1189FC001112489589E4FFA
:103290000E940B17882379F1E09175011E9FF001C0
:1032A0001124E958FE4F40815181628173818481EC
:1032B00095810E9471168091750190E0019687704A
:1032C000992780937501D9CF4F81588569857A8573
:1032D0008B859C850E947116CFCF0E943716109265
:1032E000760110927501E7EAF1E086E0DF011D92B8
:1032F0008A95E9F7C1CF2C960FB6F894DEBF0FBEC2
:10330000CDBFDF91CF911F910895EF92FF920F9360
:103310001F93CF93DF938C01892B09F46CC0F12CA0
:10332000EE24E394E8012196F8018491843740F477
:10333000843008F051C0813081F0823019F15BC0D7
:10334000853709F444C0A8F19CE7980F903708F03E
:1033500052C08F770E94361341C00E5F1F4FFE018F
:10336000C49180E28C0F883048F4C7708E2D01C064
:10337000880FCA95EAF70E940F1C14C08C2F0E9478
:103380001F122DC00E5F1F4FFE01C49180E28C0FF3
:10339000883058F4C7708E2D01C0880FCA95EAF79F
:1033A0000E94151C0E94381C1AC08C2F0E943613D4
:1033B00016C00E5F1F4FFE01C491CC2381F08FE930
:1033C0009FE00197F1F700C00000C150F6CF0E5FFB
:1033D0001F4FFE01F49003C00E941F128E018F2D1B
:1033E000882309F49FCFEFE9FFE03197F1F700C0A0
:1033F00000008150F5CFDF91CF911F910F91FF9089
:10340000EF90089508950C94021A0E94031A609395
:10341000CF017093D0018093D1019093D2010C948D
:10342000211608950C94051A0F931F930091CF0154
:103430001091D0012091D1013091D201602B712BDC
:10344000822B932B1F910F910C94051A0F931F93AE
:103450000091CF011091D0012091D1013091D20182
:1034600060237123822393231F910F910C94051ADB
:103470000F931F930091CF011091D0012091D101A2
:103480003091D20160277127822793271F910F91D6
:103490000C94051A08950C944A1A0E944B1A6093D2
:1034A000CB017093CC018093CD019093CE010C940D
:1034B000211660E070E0CB010C944D1A0F931F931E
:1034C00041E050E060E070E08A019B0104C0000F21
:1034D000111F221F331F8A95D2F7C901B8011F910E
:1034E0000F910C944D1A0F931F9341E050E060E050
:1034F00070E004C0440F551F661F771F8A95D2F7EE
:103500008091CB019091CC01A091CD01B091CE01E1
:103510008A019B01082B192B2A2B3B2BC901B801CF
:103520001F910F910C944D1A0F931F9341E050E09F
:1035300060E070E004C0440F551F661F771F8A9536
:10354000D2F740955095609570958091CB01909100
:10355000CC01A091CD01B091CE018A019B0108233D
:1035600019232A233B23C901B8011F910F910C9401
:103570004D1A0F931F9341E050E060E070E004C0EB
:10358000440F551F661F771F8A95D2F78091CB0194
:103590009091CC01A091CD01B091CE018A019B0107
:1035A000082719272A273B27C901B8011F910F9126
:1035B0000C944D1A0F931F930091CB011091CC01E5
:1035C0002091CD013091CE01602B712B822B932B5A
:1035D0001F910F910C944D1A0F931F930091CB01E3
:1035E0001091CC012091CD013091CE016023712347
:1035F000822393231F910F910C944D1A0F931F93C5
:103600000091CB011091CC012091CD013091CE01E0
:1036100060277127822793271F910F910C944D1AD1
:1036200008952BE0929F800D1124A82FA695A695B2
:10363000A695877051E001C0550F8A95EAF785E09D
:10364000A89FD001112420E030E070E0F901EA0FDA
:10365000FB1FE355FE4F4081CB01022E02C0969521
:1036600087950A94E2F781709927819584278523AD
:10367000842780832F5F3F4F2530310539F7089528
:103680002BE0929F800D1124682F669566956695B4
:10369000982F977085E0689FB001112440E050E0BA
:1036A00080E0FA01E60FF71FE355FE4F208130E07E
:1036B000092E02C0369527950A94E2F72170332728
:1036C000042E01C0220F0A94EAF7822B4F5F5F4F4E
:1036D0004530510531F70895BF92CF92DF92EF92B6
:1036E000FF920F931F93CF93DF938C01C090CF0174
:1036F000D090D001E090D101F090D2018091CB0127
:103700009091CC01A091CD01B091CE01C82AD92AC7
:10371000EA2AFB2ACFE1D0E0D701C6010C2E04C073
:10372000B695A795979587950A94D2F780FF07C01D
:10373000BC2EB8018C2F0E94D305019719F4219754
:1037400058F7B12C8B2DDF91CF911F910F91FF90E6
:10375000EF90DF90CF90BF900895CF93DF93EC016F
:103760000E946C1BBE010E94D305DF91CF9108958A
:103770001F93CF93DF93EB0190917401992321F074
:10378000CB010E94AD1B13C0882349F0CB010E94DE
:103790006C1B182F682FCE010E94111B04C0CB0197
:1037A0000E94401B182FBE01812F0E94D305DF917C
:1037B000CF911F9108958091D30185958595859529
:1037C00008958091D301877008959091D3019770E7
:1037D00081E009F480E008958091F70108959091C7
:1037E000F701892B8093F701089580959091F70157
:1037F00089238093F70108951092F701089590911D
:10380000F601892B8093F601089580959091F60139
:1038100089238093F60108951092F60108959091FE
:10382000F501892B8093F501089580959091F5011C
:1038300089238093F50108951092F50108958091F0
:10384000D401089508950C94221C9091D4019817E6
:1038500021F08093D4010C94231C08958091D4010D
:10386000882329F01092D40180E00C94231C089541
:10387000E0910E01F0910F018091F7018083E091BA
:103880000E01F0910F0190818091F601892B8083C8
:10389000E0910E01F0910F0190818091F501892B4B
:1038A00080838091D401882381F0E0910E01F09112
:1038B0000F019081892B808380910E0190910F01DF
:1038C0000E94211D81110E942E1C80910E01909159
:1038D0000F010C94C71008950C946B1C98E0899FFD
:1038E00090011124262B2093D3010E94731A8091FA
:1038F000D3018595859585950C946C1C1092D30108
:1039000080E00C946C1C2091D301809582238093DD
:10391000D301982F977079F430E0482F082E000CCF
:10392000550B2417350739F08595859585950E94A7
:10393000941A0C947E1C089580E090E00E94292A3D
:1039400021E08D3E9E4F09F020E0822F089582E015
:1039500090E00C941B2A83E090E00C941B2A84E0F6
:1039600090E00C941B2A682F84E090E00C942F2A9E
:1039700086E090E00C941B2A682F86E090E00C947F
:103980002F2AAB01BC018FE090E00C94412AAB01DF
:10399000BC0183E190E00C94412A60E070E0CB012F
:1039A0000C94C71C60E070E0CB010E94C11C0C9419
:1039B000CD1C6DEE7EEF80E090E00E944D2A60E02D
:1039C00082E090E00E942F2A60E083E090E00E9475
:1039D0002F2A1092CF011092D0011092D101109293
:1039E000D20160E084E090E00E942F2A60E085E050
:1039F00090E00E942F2A60E086E090E00E942F2A4B
:103A00006FEF87E090E00E942F2A40E050E0BA017B
:103A100088E090E00E94412A60E08DE090E00E9402
:103A20002F2A40E050E0BA0188E190E00E94412A4C
:103A300060E087E190E00E942F2A0C94D21C0C9445
:103A4000D91CFC01329680911A01882331F08091B3
:103A50003E0287FF02C09EE101C096E080E09150E7
:103A600028F021912223D9F38F5FF9CF08959C018B
:103A7000FC0132969FEF80E04191461789F09F3F0D
:103A800019F4411101C0982F8F5F8630A9F79F3F2D
:103A900039F0F901E90FF11D97FDFA956283089558
:103AA0000895FC01329608962081261301C01082E9
:103AB0003196E817F907C1F70895262F2695269520
:103AC00026952E3168F4FC01E20FF11D677021E0AC
:103AD00030E001C0220F6A95EAF78281282B228309
:103AE0000895262F2695269526952E3170F4FC01F3
:103AF000E20FF11D677021E030E001C0220F6A95EE
:103B0000EAF72095828128232283089520911A01C3
:103B1000222329F020913E0227FD0C945D1D0C9478
:103B2000371D20911A01222329F020913E0227FD02
:103B30000C94711D0C94511D20911A01FC013296B8
:103B4000222331F080913E0287FF02C08EE101C046
:103B500086E0DF011D928A95E9F7089508950C9497
:103B6000AE1D0E94AF1D80914502843061F110921C
:103B7000F90120E488E190E00FB6F894A8958093CD
:103B800060000FBE2093600080E00E940B0380E085
:103B90000E943E030E94AF1D83B7817F846083BF74
:103BA00083B7816083BF7894889583B78E7F83BF06
:103BB0000FB6F894A89580916000886180936000AA
:103BC000109260000FBE089508950895CF930E944B
:103BD000E41D0E94D4080E94E51DC0E08C2F0E94C5
:103BE0006C08892B29F4CF5FC430C1F780E001C095
:103BF00081E0CF91089508950C94FB1D0E94371623
:103C00000E94D31E0E94BB100E943E030C94FC1D18
:103C10001F920F920FB60F9211248F939F93AF9321
:103C2000BF938091F901811113C080913A02909164
:103C30003B02A0913C02B0913D024196A11DB11DF5
:103C400080933A0290933B02A0933C02B0933D02D2
:103C5000BF91AF919F918F910F900FBE0F901F90CA
:103C6000189582E084BD93E095BD9AEF97BD80934F
:103C70006E0008952FB7F89480913A0290913B021C
:103C8000A0913C02B0913D022FBF0895CF92DF92E8
:103C9000EF92FF920F931F932FB7F89440913A023F
:103CA00050913B0260913C0270913D022FBF6A012E
:103CB0007B01EE24FF248C0120E030E0C016D10609
:103CC000E206F30610F4415051099A01281B390B02
:103CD000C9011F910F91FF90EF90DF90CF90089551
:103CE00078941F920F920FB60F9211248F939F9387
:103CF000AF93BF9380913A0290913B02A0913C0216
:103D0000B0913D020196A11DB11D80933A0290939E
:103D10003B02A0933C02B0933D02BF91AF919F91B3
:103D20008F910F900FBE0F901F90189581E0809398
:103D3000E00080E28093D8001092C9008FE19EE4F9
:103D40000197F1F700C0000087E090EBDC01809361
:103D50004E0290934F02A0935002B09351029CE008
:103D600088E10FB6F894A895809360000FBE9093F9
:103D70006000FFCF0E949C1C811102C00E941F1D89
:103D80000E94A71C8093F8010E94AF1C90E09093C2
:103D90003F0280933E020E94AB1C682F70E080E0DF
:103DA00090E00C94121A0E949C1C811102C00E9487
:103DB0001F1D0E94B81C80934002282F269530E0DA
:103DC0002730310524F081708C608093400280910F
:103DD000400280FF02C0869501C080E00C940B0376
:103DE00020914002822F8695482F50E046305105A1
:103DF00044F48F5F982F990F822F8170892B8093C5
:103E00004002809140028160809340020E94BC1C6D
:103E10008091400286950C940B0380914002982F6C
:103E2000969591F09158990F8170892B809340025B
:103E30008E7F91E009F490E08091400290FB80F940
:103E4000809340020E94BC1C8091400286950C9495
:103E50000B038091400280FD11C08160809340027D
:103E6000813019F483E080934002809140020E94E7
:103E7000BC1C8091400286950C940B0308958091A0
:103E8000400280FF08C08E7F809340020E94BC1CCD
:103E900080E00C940B0308958091400280FD0C9407
:103EA0003F1F0C94291F90914002892F86958F5FA8
:103EB0008F779170873028F4880F892B8093400288
:103EC00002C090934002809140028E7F91E009F4FD
:103ED00090E08091400290FB80F9809340020E9424
:103EE000BC1C8091400286950C940B03873008F02F
:103EF00086E0880F909140029170892B8093400258
:103F00008E7F91E009F490E08091400290FB80F96F
:103F1000809340020E94BC1C8091400286950C94C4
:103F20000B03809140028695089580911A020895AE
:103F300008950F931F93CF93DF9300D01F92CDB7B7
:103F4000DEB78C010E94DE21823011F0843021F531
:103F500084E089831B830A8382E08093E9008FEFEA
:103F60009091E800815095FD06C095ED9A95F1F786
:103F700000008111F5CF8091E80085FF0DC040E081
:103F800050E063E070E0CE0101960E94FB21809139
:103F9000E8008E778093E8000F900F900F90DF91EC
:103FA000CF911F910F910895CF93DF9300D01F926F
:103FB000CDB7DEB720914502243031F523E02983C7
:103FC000805891099B838A8382E08093E9008FEF78
:103FD0009091E800815095FD06C095ED9A95F1F716
:103FE00000008111F5CF8091E80085FF0DC040E011
:103FF00050E063E070E0CE0101960E94FB218091C9
:10400000E8008E778093E8000F900F900F90DF917B
:10401000CF910895CF93DF93EC010E94DE2182308F
:1040200011F08430D9F580911A01882339F08091FC
:104030003E0287FF03C060E282E002C068E081E0E8
:104040008093E9008FEF9091E800815095FD06C0C4
:1040500095ED9A95F1F700008111F5CF8091E80078
:1040600085FF1CC080911A01811105C040E050E01D
:1040700068E070E003C070E040E050E0CE010E94D4
:10408000FB218091E8008E778093E80080E2FE01BA
:10409000AAEFB1E001900D928A95E1F7DF91CF91FF
:1040A000089580914402811109C00E9490230E94CA
:1040B000ED238091E20084608093E20008951092E5
:1040C00044020895089508950C94FE1D42E061ECA9
:1040D00081E00E940A2342E261EC82E00C940A2310
:1040E00080914702833009F460C030F4813071F070
:1040F000823009F499C008958A3009F485C08B3064
:1041000009F46BC0893009F0A7C020C08091460235
:10411000813A09F0A1C08091E800877F8093E80090
:1041200080914A0290914B02892B21F460E28AEF40
:1041300091E003C060E080E090E070E00E944622E1
:104140008091E8008B778093E80008958091460283
:10415000813209F081C080914A0290914B0202970E
:1041600008F07AC08091E800877F8093E800809112
:10417000E80082FD05C0809145028111F8CF6CC036
:104180002091F3008091F20090E0922B029729F4A5
:104190008091F1008B7F813021F48091F100809338
:1041A0001A028091E8008B7753C080914602813AD1
:1041B00009F052C080914A0290914B02892B09F07C
:1041C0004BC08091E800877F8093E8008091E800F1
:1041D00080FFFCCF80911A0136C080914602813267
:1041E000D9F580914A0290914B02892BA9F58091D3
:1041F000E800877F8093E8000E943F238091480277
:1042000080931A010C94371680914602813221F571
:104210008091E800877F8093E8000E943F2380918F
:10422000490280931B02089580914602813AA1F4CD
:104230008091E800877F8093E8008091E80080FF0C
:10424000FCCF80911B028093F1008091E8008E7773
:104250008093E8000C943F23089584B7877F84BF40
:104260000FB6F894A89580916000886180936000F3
:10427000109260000FBE80E8809361001092610090
:104280000E941B110E9490230E94ED238091E20066
:1042900084608093E20078940E947C260E9423111F
:1042A00080E191E00E94B61080914502853069F46A
:1042B0000E94B11D809143028823B1F30E94E61D44
:1042C000882391F30E94E521EFCF0E942F110E94D5
:1042D0004110EACF0C946C21292F3327233031056C
:1042E000C9F064F42130310581F02230310509F044
:1042F0004CC08BE390E020EE33E04BC0213231051F
:1043000021F12232310589F140C082E190E02BE1B8
:1043100034E03FC099278130910571F02CF4892B4E
:10432000A1F5ECEDF3E00DC08230910541F003976B
:1043300061F5E4EBF3E005C0E8ECF3E002C0EAEB82
:10434000F3E0849190E09F0124C06115710541F074
:1043500061307105D1F489E090E02BE034E019C0C0
:1043600089E090E022EF33E014C06115710541F05F
:104370006130710551F481E790E02DE234E009C02D
:1043800080E490E02EE934E004C080E090E020E09A
:1043900030E0FA013183208308950895CF93C82F28
:1043A0000E94CD21C0931C02CF91089580914502B7
:1043B000843011F081E0089582E0089580911C021C
:1043C000811102C00C94D621089580E189BD82E15B
:1043D00089BD09B400FEFDCF8091D8008F7D809308
:1043E000D8008091E00082608093E0008091E0003E
:1043F00081FDFCCF0895CF92DF92EF92FF920F9351
:104400001F93CF93DF93EC018B016A010E945E231F
:10441000811133C0C114D10439F0F601808191813A
:10442000081B190BC80FD91FE12CF12C0115110520
:1044300019F18091E80085FD16C08091E8008E7723
:104440008093E800C114D10449F0F6018081918184
:10445000E80EF91EF182E08285E00FC00E945E2323
:10446000882321F30AC089918093F100015011093A
:10447000FFEFEF1AFF0ADACF80E0DF91CF911F91B3
:104480000F91FF90EF90DF90CF90089520914C0214
:1044900030914D022617370748F06115710539F440
:1044A0002091E8002E772093E80001C0B90140E098
:1044B00061157105A9F120914502222309F443C039
:1044C000253009F442C02091E80023FD40C020912E
:1044D000E80022FD32C02091E80020FFE9CF4091A2
:1044E000F3002091F20030E0342BFC01CF01611584
:1044F000710559F02830310540F481918093F10025
:10450000615071092F5F3F4FF1CF41E028303105F5
:1045100009F040E02091E8002E772093E800C8CF12
:104520004111C9CF0AC080914502882361F08530CE
:1045300061F08091E80083FD0AC08091E80082FF6D
:10454000F2CF80E0089582E0089583E0089581E04D
:10455000089520914C0230914D022617370748F0FC
:104560006115710539F42091E8002E772093E80059
:1045700001C0B901FC0120E06115710591F1809144
:104580004502882309F440C0853009F43FC080917A
:10459000E80083FD3DC08091E80082FD2FC080913E
:1045A000E80080FFE9CF2091F3008091F20090E0D5
:1045B000922B6115710559F08830910540F42491D2
:1045C0002093F1003196615071090196F2CF21E0FC
:1045D000089709F020E08091E8008E778093E8004A
:1045E000CBCF2111CCCF0AC080914502882361F046
:1045F000853061F08091E80083FD0AC08091E80079
:1046000082FFF2CF80E0089582E0089583E008956C
:1046100081E00895982F973058F59093E900981706
:1046200039F07091EC002091ED005091F00003C042
:10463000242F762F50E021FF19C03091EB003E7FF0
:104640003093EB003091ED003D7F3093ED003091E1
:10465000EB0031603093EB007093EC002093ED00A1
:104660005093F0002091EE0027FF07C09F5FD3CF4B
:104670008F708093E90081E0089580E00895809133
:10468000460287FF11C08091E80082FD05C080913D
:1046900045028111F8CF11C08091E8008B770BC0E3
:1046A00080914502882349F08091E80080FFF8CF8F
:1046B0008091E8008E778093E80008952091E400CF
:1046C0003091E50095E64091EC00842F817040FF29
:1046D00022C08091E80080FD1CC0809145028823A3
:1046E00091F0853091F08091EB0085FD10C04091F4
:1046F000E4005091E5004217530729F39A019150C5
:1047000011F784E0089582E0089583E0089581E040
:10471000089580E008954091E80042FFDECF0895BB
:104720000E94FE230E940624E0EEF0E0808181607A
:104730008083E8EDF0E080818F77808319BCA7ED5E
:10474000B0E08C918E7F8C9380818F7E80831092DD
:10475000440208950F931F93CF93DF930E94FE238B
:104760000E940624C8EDD0E088818F7788838881F5
:104770008068888388818F7D888319BC1092450268
:1047800010924102109243021092420200EE10E099
:10479000F80180818B7F808388818160888342E0FB
:1047A00060E080E00E940A23E1EEF0E080818E7FED
:1047B0008083E2EEF0E08081816080838081886088
:1047C0008083F80180818E7F8083888180618883E7
:1047D000DF91CF911F910F910895E8EDF0E0808176
:1047E0008F7E8083E7EDF0E080818160808384E0CC
:1047F00082BF81E0809344020C94AA23E8EDF0E0AC
:1048000080818E7F80831092E20008951092DA00FA
:104810001092E10008951F920F920FB60F9211248B
:104820002F933F934F935F936F937F938F939F93B8
:10483000AF93BF93EF93FF938091E10082FF0BC092
:104840008091E20082FF07C08091E1008B7F80931E
:10485000E1000E947B268091DA0080FF1FC08091DA
:10486000D80080FF1BC08091DA008E7F8093DA0031
:104870008091D90080FF0DC080E189BD82E189BDB2
:1048800009B400FEFDCF81E0809345020E945120D3
:1048900005C019BC109245020E945F208091E10082
:1048A00080FF19C08091E20080FF15C08091E20076
:1048B0008E7F8093E2008091E20080618093E2002D
:1048C0008091D80080628093D80019BC85E08093E5
:1048D00045020E9463208091E10084FF30C08091F6
:1048E000E20084FF2CC080E189BD82E189BD09B46A
:1048F00000FEFDCF8091D8008F7D8093D8008091FD
:10490000E1008F7E8093E1008091E2008F7E8093B2
:10491000E2008091E20081608093E2008091410298
:10492000882311F084E007C08091E30087FD02C076
:1049300081E001C083E0809345020E946420809161
:10494000E10083FF29C08091E20083FF25C08091B0
:10495000E100877F8093E10082E08093450210921E
:1049600041028091E1008E7F8093E1008091E2001E
:104970008E7F8093E2008091E20080618093E2006C
:1049800042E060E080E00E940A238091F0008860AD
:104990008093F0000E946220FF91EF91BF91AF9150
:1049A0009F918F917F916F915F914F913F912F9147
:1049B0000F900FBE0F901F9018951F920F920FB679
:1049C0000F9211242F933F934F935F936F937F9395
:1049D0008F939F93AF93BF93CF93DF93EF93FF9307
:1049E000C091E900CF708091EC00D82FD17080FD8C
:1049F000D0E81092E9008091F000877F8093F0006A
:104A000078940E9421251092E9008091F00088603E
:104A10008093F000CD2BCF70C093E900FF91EF9110
:104A2000DF91CF91BF91AF919F918F917F916F91C6
:104A30005F914F913F912F910F900FBE0F901F905C
:104A400018951F93CF93DF93CDB7DEB7AA970FB614
:104A5000F894DEBF0FBECDBFE6E4F2E088E08E0F33
:104A60009091F10091938E13FBCF0E947020809162
:104A7000E80083FF28C18091460290914702492FA8
:104A800050E04A30510508F01EC1FA01E556FF4FCB
:104A90000C94082A803821F0823809F014C108C02B
:104AA0008091420290914302992389F082600FC065
:104AB00080914A028F70873008F005C18093E90029
:104AC0008091EB0085FB882780F91092E900909196
:104AD000E800977F9093E8008093F1001092F10036
:104AE000D0C0282F2D7F09F0EEC0882319F0823026
:104AF00061F0E9C080914802813009F0E4C0933050
:104B000009F080E0809343022EC080914802811119
:104B10002AC080914A028F702FEF280F263008F0AC
:104B2000D2C08093E9002091EB0020FF1CC093309D
:104B300021F48091EB00806214C09091EB009061B1
:104B40009093EB0021E030E0A90102C0440F551F13
:104B50008A95E2F74093EA001092EA008091EB0018
:104B600088608093EB001092E9008091E800877FD5
:104B70008093E8000E943F23A6C08111A4C0109139
:104B800048021F778091E3008078812B8093E300B7
:104B90008091E800877F8093E8000E943F23809106
:104BA000E80080FFFCCF8091E30080688093E30001
:104BB000111102C082E001C083E08093450283C0EE
:104BC0008058823008F07FC080914802909149025D
:104BD0008C3D53E0950779F583E08A838AE28983E7
:104BE0004FB7F894DE01139620E03EE051E2E32F48
:104BF000F0E050935700E49120FF03C0E295EF707E
:104C00003F5FEF708E2F90E0EA3010F0C79601C042
:104C1000C0968D939D932F5F243149F74FBF8091AC
:104C2000E800877F8093E8006AE270E0CE01019699
:104C30000E94462215C060914A0270914B02AE015B
:104C40004F5F5F4F0E946A21BC01892BE1F1909177
:104C5000E800977F9093E80089819A810E94A922B9
:104C60008091E8008B778093E8002DC0803859F55B
:104C70008091E800877F8093E800809141028093D3
:104C8000F1008091E8008E7773CF81111CC0909164
:104C900048029230C0F48091E800877F8093E8005A
:104CA000909341020E943F2380914102811106C0EE
:104CB0008091E30087FD02C081E001C084E0809321
:104CC00045020E9466208091E80083FF0AC080911F
:104CD000E800877F8093E8008091EB0080628093FA
:104CE000EB00AA960FB6F894DEBF0FBECDBFDF91E2
:104CF000CF911F9108950895CF9380914502882305
:104D0000A1F0C091E900CF709091EC00892F8170E3
:104D100090FD80E8C82B1092E9008091E80083FDA7
:104D20000E942125CF70C093E900CF91089550587B
:104D3000BB27AA270E94AF260C945A280E944C2811
:104D400038F00E94532820F039F49F3F19F426F4DC
:104D50000C9422280EF4E095E7FB0C941C28E92F14
:104D60000E946B2858F3BA176207730784079507E8
:104D700020F079F4A6F50C948D280EF4E0950B2E16
:104D8000BA2FA02D0B01B90190010C01CA01A0019D
:104D90001124FF27591B99F0593F50F4503E68F1F8
:104DA0001A16F040A22F232F342F4427585FF3CF39
:104DB000469537952795A795F0405395C9F77EF40A
:104DC0001F16BA0B620B730B840BBAF09150A1F053
:104DD000FF0FBB1F661F771F881FC2F70EC0BA0FD9
:104DE000621F731F841F48F4879577956795B79561
:104DF000F7959E3F08F0B0CF9395880F08F099275C
:104E0000EE0F9795879508950E9418270C945A28BD
:104E10000E94532858F00E944C2840F029F45F3F2C
:104E200029F00C941C2851110C948E280C942228E3
:104E30000E946B2868F39923B1F3552391F3951BD6
:104E4000550BBB27AA2762177307840738F09F5FAB
:104E50005F4F220F331F441FAA1FA9F335D00E2E18
:104E60003AF0E0E832D091505040E695001CCAF785
:104E70002BD0FE2F29D0660F771F881FBB1F261748
:104E800037074807AB07B0E809F0BB0B802DBF011F
:104E9000FF2793585F4F3AF09E3F510578F00C94EE
:104EA0001C280C948E285F3FE4F3983ED4F386953B
:104EB00077956795B795F7959F5FC9F7880F911D0F
:104EC0009695879597F90895E1E0660F771F881FFB
:104ED000BB1F621773078407BA0720F0621B730BAE
:104EE000840BBA0BEE1F88F7E095089529F416F0AD
:104EF0000C941C280C948D280C9422280E94732852
:104F0000A8F39638A0F707F80F92E8942BE33AEA53
:104F100048EB5FE70E9420290F920F920F924DB746
:104F20005EB70F920E94D628EAE4F1E00E9425289D
:104F30004F915F91EF91FF91E595EE1FFF1F49F0B3
:104F4000FE57E0684427EE0F441FFA95E1F74195BC
:104F5000550B0E94A0280F9007FE0C9494280895EA
:104F60000E94732888F09F5798F0B92F9927B7515E
:104F7000B0F0E1F0660F771F881F991F1AF0BA95FD
:104F8000C9F714C0B13091F00E948D28B1E00895A6
:104F90000C948D28672F782F8827B85F39F0B93F98
:104FA000CCF3869577956795B395D9F73EF49095B0
:104FB0008095709561957F4F8F4F9F4F0895E8942E
:104FC00009C097FB3EF490958095709561957F4F51
:104FD0008F4F9F4F9923A9F0F92F96E9BB279395FF
:104FE000F695879577956795B795F111F8CFFAF40F
:104FF000BB0F11F460FF1BC06F5F7F4F8F4F9F4F40
:1050000016C0882311F096E911C0772321F09EE89D
:10501000872F762F05C0662371F096E8862F70E003
:1050200060E02AF09A95660F771F881FDAF7880FDD
:105030009695879597F9089597F99F6780E870E0AE
:1050400060E008959FEF80EC0895DF93CF931F9366
:105050000F93FF92EF92DF927B018C01689406C060
:10506000DA2EEF010E941D29FE01E894A5912591F9
:10507000359145915591A6F3EF010E94AF26FE01AF
:105080009701A801DA9469F7DF90EF90FF900F91F4
:105090001F91CF91DF91089500240A9416161706E8
:1050A00018060906089500240A9412161306140619
:1050B00005060895092E0394000C11F4882352F07C
:1050C000BB0F40F4BF2B11F460FF04C06F5F7F4F34
:1050D0008F4F9F4F089557FD9058440F551F59F01B
:1050E0005F3F71F04795880F97FB991F61F09F3FD5
:1050F00079F087950895121613061406551FF2CFFE
:105100004695F1DF08C0161617061806991FF1CF4D
:1051100086957105610508940895E894BB27662774
:105120007727CB0197F908959B01AC0160E070E00F
:1051300080E89FE30C9404270C941C280C947F298E
:105140000E947328D8F39923C9F3940F511DA3F338
:105150009150504094F059F0882332F0660F771F39
:10516000881F91505040C1F79E3F51052CF7880F82
:10517000911D9695879597F908955F3FACF0983EFD
:105180009CF0BB27869577956795B79508F4B16035
:105190009395C1F7BB0F58F711F460FFE8CF6F5F2D
:1051A0007F4F8F4F9F4FE3CF0C948E28FA01DC0185
:1051B000AA0FBB1F9B01AC01BF5728F4222733273E
:1051C0004427507820C0B75190F4AB2F0024469567
:1051D00037952795011CA395D2F3002071F0220F7B
:1051E000331F441FB395DAF30ED00C949726613029
:1051F0007105A0E88A07B94630F49B01AC01662727
:10520000772788279078309621F020833183428356
:10521000538308950E941D290C945A280E944C28FB
:1052200038F00E94532820F0952311F00C941C288C
:105230000C94222811240C948E280E946B2870F361
:10524000959FC1F3950F50E0551F629FF001729F2B
:10525000BB27F00DB11D639FAA27F00DB11DAA1F3A
:10526000649F6627B00DA11D661F829F2227B00D87
:10527000A11D621F739FB00DA11D621F839FA00D12
:10528000611D221F749F3327A00D611D231F849F62
:10529000600D211D822F762F6A2F11249F575040B9
:1052A0009AF0F1F088234AF0EE0FFF1FBB1F661F34
:1052B000771F881F91505040A9F79E3F510580F0FD
:1052C0000C941C280C948E285F3FE4F3983ED4F392
:1052D000869577956795B795F795E7959F5FC1F7A1
:1052E000FE2B880F911D9695879597F908959F93AA
:1052F0000E948F290F9007FCEE5F0C94B8299F3F06
:1053000031F0915020F4879577956795B795880F80
:10531000911D9695879597F908950C9422280E94DF
:105320007328D8F3E894E0E0BB279F57F0F02AED0C
:105330003FE049EC06C0EE0FBB0F661F771F881FCA
:1053400028F0B23A62077307840728F0B25A620B5A
:10535000730B840BE3959A9572F7803830F49A9525
:10536000BB0F661F771F881FD2F790480C948129C6
:10537000EF93E0FF07C0A2EA2AED3FE049EC5FEBC4
:105380000E94AF260E945A280F90039401FC905867
:10539000E2E7F1E00C94CC299F938F937F936F9376
:1053A000FF93EF939B01AC010E940A29EF91FF91BB
:1053B0000E9425282F913F914F915F910C940A29CB
:1053C000AA1BBB1B51E107C0AA1FBB1FA617B7072B
:1053D00010F0A61BB70B881F991F5A95A9F7809547
:1053E0009095BC01CD01089597FB072E16F400940B
:1053F00007D077FD09D00E94E02907FC05D03EF4D4
:10540000909581959F4F0895709561957F4F089570
:10541000EE0FFF1F0590F491E02D0994FC0141501F
:10542000504030F001900616D1F73197CF01089522
:10543000882799270895F999FECF92BD81BDF89AE2
:10544000992780B50895A6E1B0E044E050E00C94BF
:10545000552AA8E1B0E042E050E00C94552A262FEE
:10546000F999FECF92BD81BDF89A019700B402165A
:1054700039F01FBA20BD0FB6F894FA9AF99A0FBE08
:1054800008950396272F0E94302A0E942F2A252F45
:105490000E94302A242F0C94302A0196272F0E9434
:1054A000302A0C942F2ADC01CB01FC01F999FECFA4
:1054B00006C0F2BDE1BDF89A319600B40D9241509C
:0A54C0005040B8F70895F894FFCFAC
:1054CA0001020801191A1B1C1D1E1F202122D501C9
:1054DA00951F0A20981FD41F991F01F0F1F4F5F6C1
:0A54EA00F736353497969293953704
:00000001FF
