:100000000C94CA020C9411030C9411030C94110368
:100010000C9411030C9411030C9411030C94110310
:100020000C9411030C9411030C946F240C9441252F
:100030000C94701E0C9411030C9411030C94110376
:100040000C9411030C947C030C9411030C94110375
:100050000C94A1030C94D81E0C9411030C9411035E
:100060000C9411030C9411030C9411030C941103C0
:100070000C9411030C9411030C9411030C941103B0
:100080000C9411030C9411030C9411030C941103A0
:100090000C9411030C9411030C9411030C94110390
:1000A0000C9411030C9411030C941103F404F60442
:1000B0000105F804FA04FC04FE0400050305050527
:1000C0000705120509050B050D050F05110514059A
:1000D0004114411473147314B314241624162416F3
:1000E000D314241680158015F015F91524161D1645
:1000F0008D158D158D158D158D158D158D158D15F0
:100100008D158D158D158D158D158D158D158D15DF
:100110009C15AA15B115B815C215AF16AF16C116A4
:10012000C116B816C116C116C116AF16AF16BD1648
:10013000C116C116BD16AE25D525C726D525C7269D
:1001400021264426C7269A26A926290014001A002B
:100150000800150017001C0018000C001200130006
:100160002B0004001600070009000A000B000E0017
:100170000F0033002800E1001D001B0006001900DD
:1001800005001100100036003700E5000000E00017
:10019000E20000002C422C4100006500E700000056
:1001A0002A0035002400250026002D002E003300F3
:1001B0002F003000380031002B00210022002300E6
:1001C000C25CC35CC55CC75CC95CCB5C2800E10059
:1001D0001E001F0020000000C45CC65CC85CCA5C36
:1001E000CC5CE5000000E000270000002C000100CE
:1001F0000000E600E4000000340000004000410080
:1002000042004300440045007F008100800046001A
:1002100039003D003E003F000000500052005100F8
:100220004F0000000000E1003A003B003C000000ED
:100230004A004B004E004D000000E5000000E000C9
:10024000E200000001002A000000E600E4000000D7
:100250004C0000047F3F1F643214643214783C1E4B
:100260001E140A052223252628292A2C2D2F303258
:10027000333536383A3B3D3E4042434547494A4C88
:100280004E5051535557595A5C5E606264666869B6
:100290006B6D6F71737577797B7D7F8183858789BE
:1002A0008A8C8E90929496989A9C9E9FA1A3A5A7C3
:1002B000A8AAACAEAFB1B3B4B6B8B9BBBCBEBFC1EF
:1002C000C2C3C5C6C7C9CACBCCCDCED0D1D2D2D37A
:1002D000D4D5D6D7D7D8D9D9DADADBDBDBDCDCDC8E
:1002E000DCDCDDDDDDDDDCDCDCDCDCDBDBDBDADA51
:1002F000D9D9D8D7D7D6D5D4D3D2D2D1D0CECDCCC8
:10030000CBCAC9C7C6C5C3C2C1BFBEBCBBB9B8B6DC
:10031000B4B3B1AFAEACAAA8A7A5A3A19F9E9C9A67
:1003200098969492908E8C8A89878583817F7D7B35
:1003300079777573716F6D6B6968666462605E5C16
:100340005A5957555351504E4C4A494745434240DC
:100350003E3D3B3A3836353332302F2D2C2A292872
:1003600026252322FFAA7F55400000000000000040
:10037000000000010101010101010101020202026C
:10038000020202020303030303030304040404043C
:1003900005050505050606060606070707070808FA
:1003A00008080909090A0A0A0B0B0B0C0C0C0D0DA5
:1003B0000D0E0E0E0F0F1010101111121213131438
:1003C00014151516161717181819191A1A1B1C1CAC
:1003D0001D1D1E1F1F202121222323242525262702
:1003E0002828292A2B2C2C2D2E2F30313132333432
:1003F00035363738393A3B3C3D3E3F404142434435
:1004000045464748494B4C4D4E4F50525354555713
:1004100058595A5C5D5E606163646567686A6B6CBD
:100420006E6F7172747677797A7C7D7F8182848633
:1004300087898B8D8E9092949597999B9D9FA1A271
:10044000A4A6A8AAACAEB0B2B4B6B9BBBDBFC1C376
:10045000C5C8CACCCED0D3D5D7DADCDEE1E3E6E836
:10046000EAEDEFF2F4F7F9FCFF0403300000000CB2
:100470000344006100690073007900000012034B1F
:10048000002E0054002E0045002E0043002E0000D8
:10049000000403090409023B00020100A0FA090458
:1004A00000000103010100092111010001224000A7
:1004B0000705810308000A09040100010300000088
:1004C0000921110100012271000705820320000AA1
:1004D0001201100100000008091228230105010281
:1004E000030105010980A10185031601002603000F
:1004F0001A81002A8300751095018100C0050C093E
:1005000001A1018504160100269C021A01002A9C03
:1005100002751095018100C005010906A10185053C
:10052000050719E029E715002501950875018102E5
:1005300005081901290595057501910295017503B5
:1005400091010507190029EF1500250195F07501A6
:100550008102C005010906A101050719E029E71577
:100560000025019508750181029501750881010535
:1005700008190129059505750191029501750391E9
:10058000010507190029FF150026FF0095067508CB
:100590008100C00011241FBECFEFDAE0DEBFCDBF67
:1005A00004B603FE27C08091600290916102A09181
:1005B0006202B09163028730904BA740B04BD1F4F8
:1005C0001092600210926102109262021092630215
:1005D00014BE84B7877F84BF0FB6F894A895809126
:1005E0006000886180936000109260000FBEEEE3AF
:1005F000F6E3099511E0A0E0B1E0E8E9FFE402C00C
:1006000005900D92A235B107D9F722E0A2E5B1E03D
:1006100001C01D92A036B207E1F70E9491210C940F
:10062000CA270C94000081FF02C03E9A01C03E9888
:1006300046980C94630481E0089581E008950C9439
:100640001D031F93CF93DF9300D000D01F92CDB72F
:10065000DEB749835A832091860189819A812111CD
:1006600012C0662349F00E94D41B182F682F89817D
:100670009A810E94791B03C00E94A81B182F6981D0
:100680007A81812F04C00E94D41B69817A810F90E6
:100690000F900F900F900F90DF91CF911F910C94BE
:1006A0008206FC01408151816281738184810C94B6
:1006B00021030C943309E82FE295EF70F0E032A1AA
:1006C000282F2F7081E090E001C0880F2A95EAF76B
:1006D0008095832382A30895E82FE295EF70F0E0E0
:1006E00032A1282F2F7081E090E001C0880F2A9559
:1006F000EAF7832B82A308951F920F920FB60F92F1
:1007000011242F933F934F935F936F937F938F9316
:100710009F93AF93BF93EF93FF9380E90E946C0385
:10072000FF91EF91BF91AF919F918F917F916F91C9
:100730005F914F913F912F910F900FBE0F901F909F
:1007400018951F920F920FB60F9211242F933F937B
:100750004F935F936F937F938F939F93AF93BF93C9
:10076000EF93FF93809188009091890081309140B0
:1007700018F080E90E945B03FF91EF91BF91AF9168
:100780009F918F917F916F915F914F913F912F91A9
:100790000F900FBE0F901F901895CF92DF92EF929F
:1007A000FF92CF93C82F8730B0F4811115C080918C
:1007B000880090918900892BF9F080916F008D7FDE
:1007C00080936F0080916F008E7F80936F0080E92F
:1007D0000E946C0311C0C6E080918800909189004E
:1007E000892B51F480916F00826080936F0080911B
:1007F0006F00816080936F002C2F30E0AFEFBFEF70
:100800000E945B2726E030E040E050E00E94332762
:100810002C3784E138074105510530F4C90169E0FE
:1008200070E00E940B2729C0DA01C9018A50974D58
:10083000AF4FBF4F6627782F892F9A2F25EF38E2C9
:1008400041E050E00E94332769017A01CA01B901F1
:100850000E94FB269B01AC01C701B6010E94FB264A
:10086000BB27A92F982F872F009721E0A207B1055A
:1008700011F0BC0102C06FEF7FEF709389006093AD
:100880008800CF91FF90EF90DF90CF900895509A1D
:1008900080E90E945B0382E08093800089E180937D
:1008A00081008FEF9FEF90938700809386000C94D8
:1008B0003B1F0E94041D811102C00E94871D0E94DF
:1008C00047040C94300908950C94130308950E9472
:1008D0009F160E9466042FEF84E39CE02150804025
:1008E0009040E1F700C000000C94FE1E0F931F9390
:1008F000CF93DF938C010E945103EC01B8010E9459
:100900001F03882309F4F4C1B801CE010E94CA1064
:10091000882309F4EDC1CA3CFCE5DF0741F4F80186
:100920008281882309F4E4C10E94250DE1C1CB3CFA
:100930008CE5D80708F00FC1C33C9CE5D90761F4EA
:10094000F8018281882309F4D3C10E94541C827269
:10095000E1F00E943E0FCCC1C43CECE5DE07C0F0E4
:10096000C63C9CE5D90709F4C7C008F0D9C0C43C0F
:10097000FCE5DF0709F0C8C0F8018281882309F48B
:10098000B7C10E94541C827221F30E94310FB0C182
:10099000C531FCE5DF0708F078C0C2308CE5D80728
:1009A00008F452C0F8018281882309F454C00E94DF
:1009B000041D811102C00E94871D0E94171D90E036
:1009C0009093510280935002FE01E350FC45E231C6
:1009D000F10530F4EA5AFF4F809150020C945527EC
:1009E00080915002816027C0826025C0846023C04E
:1009F000806121C080621FC080641DC080681BC0F0
:100A00008460886018C08E7F16C08D7F14C08B7F75
:100A100012C08F7E10C08F7D0EC08F7B0CC08F7771
:100A20000AC08B7F877F07C087FB222720F991E0D0
:100A3000922790FB87F980935002809150020E9488
:100A40001B1D0E949F1654C1C1159CE5D90751F08A
:100A5000C130DC4579F0C801DF91CF911F910F9132
:100A60000C941B03F8018281882309F441C10E9480
:100A700067043EC1F8018281882309F439C180915D
:100A80000A02816080930A0233C1C631FCE5DF07A8
:100A900039F50E94541C282FF801828140911001E1
:100AA00050911101882379F02A7A91E009F490E0BD
:100AB00090935201911102C069E201C065E3CA013D
:100AC0000E94EE1D0AC080915201811102C069E2AC
:100AD00001C065E3CA010E94F91D0E94A01C08C163
:100AE000C23CDC4509F0B7CFF8018281882309F4C4
:100AF000FFC00E944C0FFCC0F8018281882309F4DA
:100B0000F7C00E94E90CF4C0C53CDC4509F0A3CF56
:100B1000F8018281882309F4EBC00E94DC0CE8C054
:100B2000F8018281C83CFCE5DF0731F4882309F431
:100B3000DFC00E94070DDCC0C93CDC4530F48823CF
:100B400009F4D6C00E94F80CD3C0882309F4D0C0A1
:100B50000E94160DCDC0C13DECE5DE0791F4F80111
:100B60008281882309F4C4C00E94570B8F3028F07B
:100B70000E94570B843108F408CF8FE00E94410F88
:100B8000B7C0C23DFCE5DF0708F05AC0CD3C8CE59C
:100B9000D80739F4F8018281882309F4A9C081E0DB
:100BA000EDCFCE3C9CE5D907C0F4CB3CECE5DE07AD
:100BB00041F4F8018281882309F49AC00E945F0BF6
:100BC00097C0CC3CDC4509F046CFF80182818823F0
:100BD00009F48EC00E94700B8BC0F8018281CF3C5B
:100BE000FCE5DF0771F4882309F482C00E94570BEB
:100BF000863028F00E94570B883008F4C6CE86E075
:100C0000BDCFC03DDC4570F4882309F471C00E945B
:100C1000570B823028F00E94570B853008F4B5CE70
:100C200082E0ACCF882309F463C00E94570B89305F
:100C300028F00E94570B8E3008F4A7CE89E09ECF93
:100C4000C53DECE5DE0739F4F8018281882309F41B
:100C50004FC083E293CFC63DFCE5DF0740F5F801C6
:100C60008281C33DFCE5DF0729F4882309F440C0F5
:100C700088E184CFC43DDC4568F48823C9F10E9433
:100C8000570B853128F00E94570B873108F47DCE31
:100C900085E174CF882361F10E94570B893128F0D8
:100CA0000E94570B823208F470CE89E167CFCD3DA8
:100CB000ECE5DE0741F4F80182818823C9F082E087
:100CC0000E94322215C0CE3DFCE5DF0739F4F80161
:100CD0008281882369F00E94871D0AC0CC3DDC45D3
:100CE00009F0B9CEF8018281882311F080E0E8CFC5
:100CF00080E0DF91CF911F910F91089580E090E007
:100D0000089508959BE0799FF00111249CE2899F4A
:100D1000E00DF11D1124E60FF11DEE0FFF1FE65B44
:100D2000FE4F859194910895880F991FFC01EE5A0A
:100D3000FD4F859194910895CF93DF930E94820691
:100D40000E948F08EC01811521E5920708F042C04E
:100D5000811560E5960708F031C1883E910500F5E0
:100D6000803E910508F0D7C1883A910570F4853A24
:100D7000910508F0A6C08130910509F4CCC108F4B2
:100D80007DC1049708F0C7C179C18F3B910508F474
:100D9000A3C0803C910508F471C1805C9109FDC03D
:100DA000C11580E3D80780F4C11590E2D90708F097
:100DB000F2C0C03FD10508F461C1CF3FD10511F0A9
:100DC00008F0A9C1D065A7C1C11520E4D20708F079
:100DD000F2C0E7C0811569E5960760F5C11588E5A1
:100DE000D80708F037C1C11594E5D90778F4C115C3
:100DF00023E5D20708F013C1C11562E5D60708F054
:100E0000F8C0DC2FCC27C16FD06A85C1C11585E53C
:100E1000D80708F41AC1C11596E5D90708F02EC104
:100E20008C2F0E940C098F71C82FD0E0DC2FCC27AB
:100E3000D06271C18D3B2CE5920709F416C1F0F424
:100E4000CB3B8CE5D80709F40AC108F00BC1C115EA
:100E50002AE5D20708F012C18C2F8F700E940C096E
:100E600094E0D695C7959A95E1F7CF70D0E0DC2F46
:100E7000CC27D06A8F70806EC82B4DC1803C9C45BA
:100E800009F4F9C0C13C8CE5D80760F4CE3B9CE581
:100E9000D90709F4EDC0CF3BDC4509F0EFC0C0E055
:100EA000D2ED39C1CE0190568115904208F0E6C0CE
:100EB0008D2F8F710E940C09DD27D0628F71D82B86
:100EC0002AC1853A910509F4DCC0863A910509F0FA
:100ED000DBC0C2E8D0E41FC1883A910509F4D7C04D
:100EE000893A910509F4D6C08A3A910509F4D5C02A
:100EF0008B3A910509F4D4C08C3A910509F4D3C01A
:100F00008B3B910509F4D2C08C3B910509F4D1C00B
:100F10008D3A910509F4D0C0803B910509F4CFC00A
:100F20008E3A910509F4CEC08F3A910509F4CDC0EF
:100F3000813B910509F4CCC0823B910509F4CBC0FB
:100F4000833B910509F4CAC0843B910509F4C9C0EB
:100F5000853B910509F4C8C0863B910509F4C7C0DB
:100F6000873B910509F4C6C0883B910509F4C5C0CB
:100F7000893B910509F4C4C08D3B910509F4C3C0B8
:100F80008E3B910509F4C2C08A3B910509F4C1C0AA
:100F9000C0E0D4E4C0C0CE019F700E949406EC0172
:100FA000BAC0CE019927D3FF03C0EC01D86CB3C0FF
:100FB000EC01D06CB0C0DF70D06AADC0837021E0AE
:100FC00030E002C0220F331F8A95E2F73C68CE0161
:100FD00074E0969587957A95E1F78370382BCF70FA
:100FE000C695C69580E2C89FE0011124C22BD32B81
:100FF00092C04C2F4695469590E2499FA00111243E
:10100000C370DD2721E030E0C90102C0880F991FBD
:10101000CA95E2F7EC01C42BD52BDC687CC04C2FC1
:101020004695469580E2489FA0011124C370DD27B4
:1010300021E030E0C90102C0880F991FCA95E2F78C
:10104000EC01C42BD52BDA6866C0DC2FCC27C46F2B
:10105000D06A61C0DC2FCC27C06FD06A5CC0C0E012
:10106000D4ED59C0C0E0D5ED56C0C0E0D1ED53C0BD
:10107000C0E0D0ED50C0C0E0D3ED4DC0C0E0D0E046
:101080004AC0C1E8D0E447C0C3E8D0E444C0C2EEDF
:10109000D4E441C0C9EED4E43EC0CAEED4E43BC0BF
:1010A000C5EBD4E438C0C6EBD4E435C0C3EBD4E41C
:1010B00032C0C4EBD4E42FC0C7EBD4E42CC0CCECDA
:1010C000D4E429C0CDECD4E426C0C3E8D5E423C0E1
:1010D000CAE8D5E420C0C2E9D5E41DC0C4E9D5E41E
:1010E0001AC0C1E2D6E417C0C3E2D6E414C0C4E219
:1010F000D6E411C0C5E2D6E40EC0C6E2D6E40BC009
:10110000C7E2D6E408C0CFE6D4E405C0C0E7D4E423
:1011100002C0CAE2D6E4CE01DF91CF9108958238B1
:10112000910549F1B0F48133910509F458C048F4B0
:101130008932910509F44EC08A32910509F454C0F0
:1011400008958533910509F440C08933910599F0DC
:101150000895833E910529F138F4803E910591F080
:10116000823E9105A1F00895863E9105F9F0873EF3
:10117000910531F108952091500220FD3AC021FDE2
:1011800038C008958091500280FD35C032C08091F2
:10119000500282FF32C08091500284FD30C083EE45
:1011A00039C08091500282FD28C0F5CF8091500255
:1011B00083FF27C08091500284FD21C087EE2AC0A2
:1011C0008091500283FD1DC0F5CF8091500285FDB6
:1011D0001AC01BC08091500285FD17C014C08091B9
:1011E000500286FD14C015C08091500286FD11C0CA
:1011F0000EC080EE0FC089E30DC082EE0BC080E010
:1012000009C086EE07C089E205C085E303C08AE213
:1012100001C081E390E008959091500292FF0DC0CB
:10122000282F2871283019F4877F846006C0282F62
:101230002471243011F48B7F886093FF0DC0282F18
:101240002871283119F4877E846106C0282F247103
:10125000243111F48B7E886194FD877E0895089572
:101260000C942F0908950C943209E82FF0E0EE0F4A
:10127000FF1FED5AFE4F8081918108950895E8E2A5
:10128000F1E041E050E024E02E0F9191A92FA295CA
:10129000AF70B0E091963C9191979F70BA0102C0F7
:1012A000660F771F9A95E2F7CB018095832391967D
:1012B0008C932E13EACFADE1B1E041E050E02BE09A
:1012C0002A0F8D91E82FE295EF70F0E031A18F7039
:1012D000BA0102C0660F771F8A95E2F7CB01962FFD
:1012E0009095932391A392A1892B82A32A13E9CFEE
:1012F00010925C0110925B01109254011092530104
:1013000010925E0110925D011092560110925501EB
:101310001092600110925F011092580110925701D3
:10132000109262011092610110925A0110925901BB
:1013300084E00E94350A0C9459044F925F927F9288
:101340008F929F92AF92BF92CF92DF92EF92FF92D5
:101350000F931F93CF93DF9328E2422E21E0522E6A
:10136000ABE5B1E020E001E010E05D018D909C90E4
:10137000119711961C921E92E20189912E01E82F7D
:10138000E295EF70F0E031A18F70A80102C0440F28
:10139000551F8A95E2F7CA01342B31A342A1382F99
:1013A0003095432342A350EA5A95F1F79DE1C92EA7
:1013B00091E0D92E40E050E0E60179906E01672D72
:1013C00062956F7070E0EB01E8A06D917C911197D0
:1013D000F12CD72DDF7002C0F594E794DA95E2F78F
:1013E000E0FC08C07801042E02C0EE0CFF1C0A9439
:1013F000E2F702C0E12CF12C6E297F2911967C9333
:101400006E934F5F5F4F4B305105B1F691A1392379
:1014100031A392A1892B82A3129681E0F50140812C
:1014200051818416950609F480E0282BF1E0A3365B
:10143000BF0709F09ACF44E063E571E08BE591E0E6
:101440000E94360A0E94590381E0DF91CF911F91DB
:101450000F91FF90EF90DF90CF90BF90AF909F9053
:101460008F907F905F904F9008950895FF920F9313
:101470001F93CF93DF93F82E092F162FD72FC42F4A
:10148000222349F081E0809365010E94A21E90937F
:10149000640180936301809165018823D9F0809174
:1014A0006301909164010E94AE1E069798F0EF2DA3
:1014B000F02FA12FBD2F80E090E04C2F50E084173B
:1014C000950734F4219131912D933D930196F7CFF7
:1014D00010926501DF91CF911F910F91FF900895B8
:1014E000CF92DF92EF92FF920F931F93CF93DF93F0
:1014F000D62E472FE82FF82F711103C0682F782FB1
:101500007CC0072F10E0E82EF12C26E0629FC0017E
:101510001124CFEFD0E0BE010E940B279B015BEAB4
:101520005603C001579F900D11248D0D911D8D0DF7
:10153000911D982F990F980F6E01C01AD10AB7010B
:10154000C69ED001C79EB00DD69EB00D11248B2F24
:10155000949FA0011124452F55277E01E41AF50A16
:10156000E69EA001E79E500DF69E500D11246E01DF
:10157000C91AD108C09E7001C19EF00CD09EF00C1B
:1015800011240F2D1127C01BD10BC69F8001C79FAF
:10159000100DD69F100D1124712F2230310591F0BE
:1015A0004CF421153105D9F021303105B1F47E2FED
:1015B000E52F15C02430310561F044F026303105A7
:1015C00071F00BC0EB2F812F7F2F09C0752FEB2FF0
:1015D00002C0E12F7B2F8F2F02C07B2F852FF0E0E1
:1015E000E759FC4F6491E72FF0E0E759FC4F749105
:1015F000E82FF0E0E759FC4F8491DF91CF911F91E4
:101600000F91FF90EF90DF90CF9008950895CF93C2
:10161000DF93762FE901682F842F0E94700A698377
:1016200078838A83DF91CF91089580912F02282FAC
:10163000269530E02115310519F48170826005C0CE
:101640002532310524F08170886480932F0208953B
:1016500088E090E00C948A27CF93DF9300D000D0ED
:10166000CDB7DEB7AB01BC0149835A836B837C8362
:101670000E94150B49815A816B817C8188E090E042
:101680000F900F900F900F90DF91CF910C94A8279F
:10169000EFE2F2E083E0808311828FEF8283838325
:1016A000148260817181828193810C942C0B8091D2
:1016B0002F0280FF02C08695089580E008958091F2
:1016C0003302833018F48F5F8093330260912F02CE
:1016D0007091300280913102909132020C942C0B67
:1016E00080913302882319F08150809333026091F6
:1016F0002F027091300280913102909132020C944D
:101700002C0B6091040170E080912F0280FF0AC0D1
:1017100080916A0123E0829FC00111248C5C9D4F5F
:101720000C945A108091690190910301891780F7F8
:10173000E82FF0E09F01220F331FE20FF31FEC5C54
:10174000FD4F1182108212828F5FF0CF90912F0295
:1017500090FF16C09091690120910301921770F4D7
:10176000E92FF0E0DF01AA0FBB1FEA0FFB1FEC5CC3
:10177000FD4F8183608342839F5FF0CF0C94810B88
:101780000895CF93DF9300D01F92CDB7DEB790912D
:101790002F0290FF0AC09E012F5F3F4F0E94070B50
:1017A0004B8169818A810E94A60B0F900F900F9048
:1017B000DF91CF910895CF93DF93EC01EC81F0E0BE
:1017C000EC59FD4F4491EFE2F2E0628181810E9489
:1017D000C10B8C818F5F8C83DF91CF910895CF9364
:1017E000DF93EC01EFE2F2E0438162818C810E94A1
:1017F000C10B8C818F5F8C83DF91CF9108950F9304
:101800001F93CF93DF9300D01F92CDB7DEB78C012B
:101810008091660181110AC09E012F5F3F4F4FEFFB
:101820006FEF0E94070B8A8180936601F801848123
:10183000813051F028F0823061F4409166010AC095
:101840008091660140E007C06091660140E080E061
:1018500003C040E080E060E00E94A60BF801248114
:1018600030E0C901019663E070E00E941F27848385
:101870000F900F900F90DF91CF911F910F910895CE
:10188000AF92BF92CF92DF92EF92FF920F931F938E
:10189000CF93DF9300D01F92CDB7DEB7182FF62E6F
:1018A000042FE22E90912F0290FF6EC0E92FE69553
:1018B000AE2FB0E0A45DBE4F8C91809372019E7FED
:1018C000923061F49E012F5F3F4F812F0E94070BE2
:1018D0004B8169818A810E94A60B44C0823019F431
:1018E000009132023FC0863019F4109130023AC0A4
:1018F0008930D9F38931B1F5E9518E2F8170D82E15
:10190000E695F0E0EC59FC4FA590B490C12CBB24B7
:1019100060910201C61620F5EC2DF0E0EA9DC001B1
:10192000EB9D900DFA9D900D112470E00E940B2705
:10193000812FD11002C0860F01C0861B90916901D2
:10194000E90FF11D9F01220F331FE20FF31F9F01CB
:101950002C5C3D4F402F6F2D0E94070BC394D8CFB6
:101960000E94810B10933002F092310200933202F8
:10197000EE2051F060912F0270913002809131027F
:10198000909132020E942C0B0F900F900F90DF91DC
:10199000CF911F910F91FF90EF90DF90CF90BF906C
:1019A000AF900895EFE2F2E09181282F43816281A8
:1019B0008CE0890F0C94400C81E00C94D20CEFE287
:1019C000F2E09181282F4381628184EF890F0C948A
:1019D000400C81E00C94DF0CEFE2F2E0628129E13F
:1019E000620F08F46FEF282F438181810C94400C23
:1019F00081E00C94EC0CEFE2F2E0628129E1621BE1
:101A000008F460E0282F438181810C94400C81E030
:101A10000C94FB0CEFE2F2E043812CE0420F08F45F
:101A20004FEF282F628181810C94400C81E00C944F
:101A30000A0DEFE2F2E043812CE0421B08F440E0A3
:101A4000282F628181810C94400C81E00C94190D47
:101A500020E00C94400CFF920F931F93CF93DF93E1
:101A6000EC01F12C0FEF10E060910201F616E8F4A2
:101A70002091690130E02F0D311DC901880F991F98
:101A8000280F391F2C5C3D4F70E0C8010E941F27B2
:101A9000962F8C814091320260913102F99E800D27
:101AA00011240E94070BF394DFCF0E94810B9A81CF
:101AB0008C8190FF02C08F5F01C081508C83DF91C9
:101AC000CF911F910F91FF900895BF92CF92DF9217
:101AD000EF92FF920F931F93CF93DF93FC018281CC
:101AE00080FF02C00FEF01C001E010E08091020111
:101AF0001817E0F5C12ED12C80916901E601C80FBD
:101B0000D11DCE01880F991FC80FD91FCC5CDD4FA6
:101B1000198218821A8234E0E32EF12CB12C8091C4
:101B200068018B0D87FF03C090910201890F082E79
:101B3000000C990BC816D90691F4809132028E9D43
:101B4000A0018F9D500D11245595479555954795AA
:101B50009E0160913102809130020E94070BB00E0D
:101B6000F1E0EF1AF108D9F61F5FC0CF0E94810B98
:101B700080916801013031F4811102C0809102012D
:101B8000815007C090E001966091020170E00E94D0
:101B90001F2780936801DF91CF911F910F91FF90D4
:101BA000EF90DF90CF90BF900895CF93809169011F
:101BB00090910301891770F4E82FF0E09F01220F44
:101BC000331FE20FF31FEC5CFD4F11821082128273
:101BD0008F5FF0CFC0E060910201C617B8F5EC2F1F
:101BE000F0E070E0CF010E941F2740916901480F8B
:101BF00080916701082E000C990B50E0E817F90757
:101C0000C4F020910101022E000C330B2E173F0768
:101C100084F09A01220F331F240F351F2C5C3D4F97
:101C20004091320260913102809130020E94070B94
:101C30000BC0FA01EE0FFF1F4E0F5F1FFA01EC5CA5
:101C4000FD4F118210821282CF5FC5CF0E94810B9F
:101C50002091000180916701820F8093670190912C
:101C60000101920F9093010119165CF4082E000CEB
:101C7000990B4091020150E041505109841795079A
:101C80001CF0219520930001CF9108950F931F938D
:101C9000CF93DF938C01FC01848195810196817043
:101CA000992795838483C0E0D5E580910201C81708
:101CB000F8F42091690130E02C0F311DC901880F23
:101CC000991F280F391F2C5C3D4F4C2F4695F8016A
:101CD00084819581840F911D8170409132026091C1
:101CE00031028D9F802D11240E94070BCF5FDDCF25
:101CF000DF91CF911F910F910C94810B0F931F9344
:101D0000CF93DF93EC0100E010E080910201282FD7
:101D100030E00217130724F5909169019801290F0B
:101D2000311DA901440F551F240F351F2C5C3D4F59
:101D3000869590E04C81081719071CF4442331F074
:101D400002C0411103C04091320201C040E06091E5
:101D50003102809130020E94070B0F5F1F4FD5CFD9
:101D60000E94810B2C8130E02F5F3F4F2170332781
:101D70002C83DF91CF911F910F910895EFE2F2E054
:101D800080818E7F808360817181828193810E94B6
:101D90002C0B109273012FEF80E792E021508040CE
:101DA0009040E1F700C000000C94810B60912F027D
:101DB000669570E04BE050E085E091E00E94752769
:101DC000892B19F481E0809373010E94A21E9093E5
:101DD0006C0180936B01089590912F0290FF35C0A4
:101DE0009170811102C0926006C0853210F0986433
:101DF00002C0880F982B90932F02662351F06091B8
:101E00002F027091300280913102909132020E9433
:101E10002C0B60912F02669570E04BE050E085E05E
:101E200091E00E947527892B19F01092730102C06E
:101E30000E94D60E81E080936E0140913202609143
:101E40003102809130020C94280D0895682F9091F2
:101E50002F02969581E0890F853208F081E00C947D
:101E6000EC0E81E00C94260F682F90912F0296952E
:101E70008FEF890F09F484E20C94EC0E81E00C944E
:101E8000340F61E00C94EC0EEFE2F2E080818160AF
:101E9000808386950C94410F80912F0280FD0C94D5
:101EA000BE0E0C94440F60E00C94EC0E8091710116
:101EB000811133C080910A02816080930A020E94DE
:101EC000041D811104C00E94871D0E94480B0E94BE
:101ED000280B60932F02709330028093310290930D
:101EE00032026E7F61F40E94480B0E94280B6093BF
:101EF0002F027093300280933102909332020E943D
:101F0000150B1092730180912F0280FF03C08695FC
:101F10000E94530F81E08093710108950F931F93E6
:101F2000CF93DF9380917301882309F48CC0809153
:101F30007201E0912F02E695E81BE0936D0182307B
:101F400049F4F0E0E05AFD4FE491CE2FD0E00BEDE4
:101F50001BE049C0863049F4F0E0E35AFD4FE491BC
:101F6000CE2FD0E00FEE1BE03EC0893051F4E69555
:101F7000F0E0E65AFD4FE491CE2FD0E00BE21DE0F9
:101F800032C08F3051F4E695F0E0E95AFD4FE4910C
:101F9000CE2FD0E005E61DE026C0853149F4F0E003
:101FA000EC5AFD4FE491CE2FD0E005ED1DE01BC0B3
:101FB000883181F0833239F4E2E5F2E0C591D491C1
:101FC0000FEF1BE010C0843251F4C4EFD1E00EE7F4
:101FD0001EE009C0C8EED3E006E41EE004C0C0ED78
:101FE000D7E006E01BE080916E01882389F0109213
:101FF0006E010E94A21E9E0120953095820F931FB4
:1020000090936C0180936B011092700110926F019C
:1020100080916B0190916C010E94AE1E8C179D0700
:1020200090F0E0916B01F0916C01CE0FDF1FD09327
:102030006C01C0936B018BE691E0F801DF91CF91C9
:102040001F910F910994DF91CF911F910F910895E6
:1020500028B1342F3095232338B1432B3FB7F89460
:10206000FC01680F791FE617F70789F0819198E066
:1020700048B9000000C087FF28B9880F000000C0E1
:1020800000C000C028B900C09A9591F7ECCF3FBFBF
:10209000089527B1242B27B99B01220F331F620F0C
:1020A000731F0E94281087EC90E00197F1F700C0A1
:1020B0000000089540E80C9449100F931F93CF93AC
:1020C000DF93C62FD42F022FFC0182818823C9F011
:1020D000609376010E94A21E909375018093740113
:1020E00080E28C0F883008F050C0C77081E001C0DA
:1020F000880FCA95EAF7DF91CF911F910F910C9449
:10210000FD1310917601161330C0809174019091E7
:1021100075010E94AE1E883C910538F5C0E2CD0FD6
:102120001D17B9F080E2810F883040F4177081E00C
:1021300001C0880F1A95EAF70E940414C83048F4C9
:1021400081E09D2F977001C0880F9A95EAF70E9451
:10215000FD13802F0E94EA13C830B8F4D77081E0D5
:1021600001C0880FDA95EAF70AC080E28C0F883048
:1021700060F4C77081E001C0880FCA95EAF7DF916B
:10218000CF911F910F910C940414DF91CF911F9167
:102190000F9108959C01CB01203F4CE53407F9F0E5
:1021A00078F4283DFCE53F07B9F0293D4CE53407BC
:1021B00011F1273D3C4531F526E241EE61EE1EC0AE
:1021C000223FFCE53F0799F070F0233F3C45D1F4F6
:1021D00027E245EE66EE12C027E245EE0EC026E28B
:1021E00041EE60EE0BC027E245EE64EE07C026E24A
:1021F00041EE62EE03C028E241E065EE0E945D1010
:1022000080E00895FC018281882319F01092760104
:10221000089581E0089590937C0180937B01089557
:10222000E0917B01F0917C01309721F00190F081E9
:10223000E02D099480E00895E0917B01F0917C010C
:10224000309799F020911C01222359F020915002DF
:1022500027FF07C0DC012C9111962C93119725E0E4
:102260002C930280F381E02D099408952091790147
:1022700030917A018217930771F090937A018093DD
:102280007901E0917B01F0917C01309721F006808B
:10229000F781E02D0994089520917701309178011C
:1022A0008217930771F09093780180937701E09102
:1022B0007B01F0917C01309721F00084F185E02DC5
:1022C0000994089585B7806885BF85B7806885BF04
:1022D0000895089508950C946A1108950C946D1151
:1022E0000E9462110E9469110C946B1181E00895A3
:1022F0000E94991E0E943F090E94221F0E943B1FBC
:102300000E94560F0C946E114F925F927F928F92A3
:102310009F92AF92BF92CF92DF92EF92FF920F9374
:102320001F93CF93DF93CDB7DEB72A970FB6F894FC
:10233000DEBF0FBECDBF0E949D090E9476118111A4
:1023400011C08FEF89838A831B820E94A21E816045
:10235000782F9D838C8349815A816B818D810E9466
:10236000401257C09EE7C92E91E0D92E00E010E040
:10237000AA24A394B12C702E802F0E9435094C0101
:10238000F601419051906F0148265926411451049D
:1023900031F40F5F1F4F0430110569F7D2CF8091E0
:1023A0000A0281FD0E943E0920E030E07501022E04
:1023B00002C0EE0CFF1C0A94E2F7C70184219521AC
:1023C000892B09F12E837F828E209F2091E089281E
:1023D00009F490E098870E94A21E8160782F9A8766
:1023E00089874E815F8168858A850E944012000F2F
:1023F000111FF801E258FE4F80819181E826F926ED
:10240000F182E08206C02F5F3F4F2B30310571F61D
:10241000C0CF10917D010E9410111817D9F00E94B1
:10242000101180937D012A960FB6F894DEBF0FBE7F
:10243000CDBFDF91CF911F910F91FF90EF90DF9073
:10244000CF90BF90AF909F908F907F905F904F9074
:102450000C9464042A960FB6F894DEBF0FBECDBF6D
:10246000DF91CF911F910F91FF90EF90DF90CF9070
:10247000BF90AF909F908F907F905F904F90089506
:10248000CF93DF93CDB7DEB72B970FB6F894DEBFAF
:102490000FBECDBF4F83588769877A878B87DE0150
:1024A000119686E0FD0111928A95E9F785E0FE011B
:1024B000379601900D928A95E1F749815A816B8197
:1024C0007C818D819E810E9449192B960FB6F894CC
:1024D000DEBF0FBECDBFDF91CF910895FC0180819B
:1024E00091810E94151C0895882309F413C1682F57
:1024F0008238C1F40E94101181FD0CC169E3809102
:102500001001909111010E94EE1D0E94A01C2FEF5E
:1025100081EE94E0215080409040E1F700C000003F
:1025200069E319C08338F9F40E94101180FDF2C0EC
:1025300063E580911001909111010E94EE1D0E94AF
:10254000A01C2FEF81EE94E0215080409040E1F7F5
:1025500000C0000063E580911001909111010E947C
:10256000F91D0C94A01C8438C1F40E94101182FD46
:10257000D1C067E480911001909111010E94EE1D7D
:102580000E94A01C2FEF81EE94E0215080409040EB
:10259000E1F700C0000067E4DECF8CEF860F813AE0
:1025A00038F480911001909111010E94EE1DD9CF55
:1025B00080E2860F883048F4677081E001C0880FA0
:1025C0006A95EAF70E94571CCCCF8BE5860F8330C3
:1025D00070F4653A29F0663A31F083E890E005C07E
:1025E00081E890E002C082E890E00C94361188E522
:1025F000860F873108F08EC0683A09F445C0693A01
:1026000009F445C06A3A09F445C06B3A09F445C07B
:102610006C3A09F445C06B3B09F445C06C3B09F4C6
:1026200045C06D3A09F445C0603B09F445C06E3AB7
:1026300009F445C06F3A09F445C0613B09F445C04F
:10264000623B09F445C0633B09F445C0643B09F4AF
:1026500045C0653B09F445C0663B09F445C0673B8E
:1026600009F445C0683B09F445C0693B09F445C01D
:102670006D3B09F445C06E3B09F445C06A3B09F463
:1026800045C080E090E044C082EE90E041C089EE19
:1026900090E03EC08AEE90E03BC085EB90E038C011
:1026A00086EB90E035C083EB90E032C084EB90E0A5
:1026B0002FC087EB90E02CC08CEC90E029C08DEC13
:1026C00090E026C083E891E023C08AE891E020C032
:1026D00082E991E01DC084E991E01AC081E292E0B4
:1026E00017C083E292E014C084E292E011C085E258
:1026F00092E00EC086E292E00BC087E292E008C052
:102700008FE690E005C080E790E002C08AE292E0A8
:102710000C944C110895882309F45BC0682F82380B
:1027200079F40E94101181FF54C069E38091100177
:10273000909111010E94EE1D0E94A01C69E310C03F
:102740008338B1F40E94101180FF43C063E580918B
:102750001001909111010E94EE1D0E94A01C63E5E2
:1027600080911001909111010E94F91D0C94A01C00
:10277000843879F40E94101182FF2BC067E48091A5
:102780001001909111010E94EE1D0E94A01C67E4AF
:10279000E7CF8CEF860F813A18F380E2860F8830FE
:1027A00048F4677081E001C0880F6A95EAF70E94DB
:1027B0005D1CDCCF8BE5860F833020F480E090E059
:1027C0000C943611685A673120F480E090E00C9444
:1027D0004C110895CF93C82F0E947412C93349F445
:1027E0002FEF83EC99E0215080409040E1F700C04A
:1027F00000008C2FCF910C948B13882321F00E9422
:10280000571C0C94A01C0895882321F00E945D1C85
:102810000C94A01C08954F925F926F927F92BF928A
:10282000CF92DF92EF92FF920F931F93CF93DF939C
:102830007C01D62FC72FFC01058102950F701281F4
:1028400011110E94741C0E944D1C882379F01123E1
:1028500069F080E28D0F883048F082E00E94EB1C26
:102860000E944D1C91E0B82EB92601C0B12CCC2E8F
:10287000C2948FE0C822D12CF601E859FF4F0C9486
:1028800055278C2F807FCF70882311F0C295C07F91
:10289000112399F0CC2309F48EC180E28D0F88308A
:1028A00010F0D11104C08C2F0E94571C03C08C2F34
:1028B0000E94671C0E94A01C7EC18D2F0E948B135A
:1028C000CC2309F4C1C180E28D0F883010F0D11102
:1028D00004C08C2F0E945D1C03C08C2F0E946D1CB5
:1028E0000E94A01CB1C18C2F807FCF70803211F06C
:1028F000C295C07FDD2319F0D130C9F022C0112369
:1029000071F0002341F0013031F40E94871C8C2BC0
:102910000E948D1C99C10E94871C8C2B1DC0002316
:1029200019F0013009F490C10E94961C1AC01123BD
:1029300021F0063008F088C10EC0053008F084C1CF
:1029400010C0112361F0002331F0F701858180FF71
:1029500032C18F7085838C2F0E94FD1375C10111C8
:102960003BC18C2FE6C08C2F86958695837090E0B6
:10297000009719F0019761F067C1112321F08D2FA5
:102980009C2F937002C080E090E00E9436116CC1D1
:10299000112321F08D2F9C2F937002C080E090E0D6
:1029A0000E944C1161C18C2F837009F050C011112D
:1029B00057C18D2F829586958770880F880F9D2F20
:1029C0009F70492E512C612C712C082E04C0440C90
:1029D000551C661C771C0A94D2F7D4FF14C00FE074
:1029E00010E020E030E0B901A80104C0440F551FF9
:1029F000661F771F8A95D2F7CB01BA016095709553
:102A00008095909503C060E070E0CB01C695C695B7
:102A1000C370D0E0C230D10561F0C330D10581F080
:102A20006429752986299729219771F00E948E1AA9
:102A300017C164297529862997290E94A01A10C1F7
:102A40000E948E1AC301B2010E947C1A09C111238F
:102A500019F08C2F817001C08695882309F400C17C
:102A60008D2F829586958770880F880F9D2F9F7078
:102A7000492E512C612C712C082E04C0440C551C7D
:102A8000661C771C0A94D2F7D4FF14C00FE010E044
:102A900020E030E0B901A80104C0440F551F661FB3
:102AA000771F8A95D2F7CB01BA0160957095809512
:102AB000909503C060E070E0CB01C695C695C370E9
:102AC0004C2F50E04230510569F04330510589F0F8
:102AD00064297529862997294130510571F00E9492
:102AE000541BBEC064297529862997290E94661B3C
:102AF000B7C00E94541BC301B2010E94421BB0C068
:102B00008D2F90E0FC01E05EF109E531F10508F060
:102B10004EC0E858FF4F0C945527DF708C2F8F71F3
:102B2000112321F00E94DB1A8D2F16CF0E94FC1A70
:102B30008D2F0E94041488C0112341F0053008F045
:102B400083C08C2F8F710E94211B7EC0063008F03D
:102B50007BC0F7CF112339F08C2F8F710E94DB1AC5
:102B600073C01123C9F38C2F8F710E94FC1A6CC0A3
:102B7000112329F08C2F8F710E94C61A65C00E9404
:102B8000C11A62C0112349F0CF718C2F0E94DB1A49
:102B900063E08C2F0E94D61C57C081E00E94EB1C82
:102BA000023008F451C082E00E94EB1C4DC011239A
:102BB00031F0002389F28D2F0E94741245C000234A
:102BC00091F2D93349F45FEF63EC79E05150604002
:102BD0007040E1F700C000008D2F0E948B1334C0BD
:102BE0004C2F4F706D2FC7010E947E060E94ED1979
:102BF0003BC0111139C0CF70D0E0C230D10599F07F
:102C00003CF4209769F02197F9F40E94751F2CC0BD
:102C1000C430D10571F054F02597B1F480E00AC0BA
:102C20000E94581F21C00E94B41F1EC00E94BB1FDB
:102C30001BC086E00E94DE1F17C04C2F4F706D2F07
:102C4000C7010E94810610C088E0C816D10441F077
:102C50005CF0EAE0CE1AD108F2E0CF16D10420F4FD
:102C60000E9410110E946404BB20F1F00E94491CD4
:102C700080FD1AC0F70112820E94431C0E94DB1AD9
:102C8000C7010E9462160E94431CDF91CF911F91E1
:102C90000F91FF90EF90DF90CF90BF907F906F905B
:102CA0005F904F900C94FC1ADF91CF911F910F9180
:102CB000FF90EF90DF90CF90BF907F906F905F90EC
:102CC0004F9008950F931F93CF93DF93EC0188816A
:102CD00099812B813C81232BB9F09F3F11F48F3FC9
:102CE00099F0CE010E947604882371F06881798181
:102CF0008A810E94201C8C010E94781B0E94791AF4
:102D0000B801CE010E940B14DF91CF911F910F915A
:102D100008950E94741C0E94841C0E94A01C80E0E4
:102D200090E00E94361180E090E00C944C1180916C
:102D30001001909111010E94041E0C9489160E94AA
:102D4000641C0C949716E92FE295EF70F0E032972F
:102D5000EE30F105B0F4E357FF4F0C945527803F58
:102D600091F018F4803E68F40EC0843F51F40BC01B
:102D7000803E48F0813F29F406C093FB882780F904
:102D8000089580E0089581E008950E94151C0E9436
:102D9000A3160895CF93DF9300D000D01F92CDB734
:102DA000DEB70F900F900F900F900F90DF91CF91A3
:102DB0000895CF93DF9300D000D000D0CDB7DEB719
:102DC00026960FB6F894DEBF0FBECDBFDF91CF9130
:102DD00008951F93CF93DF93C091870116E08091F0
:102DE0008801C81799F0D0E01C9FF0011D9FF00DDD
:102DF0001124E757FE4F40815181628173818481A4
:102E000095810E94D9162196C770E9CFDF91CF91A5
:102E10001F9108954091B9015091BA016091BB0191
:102E20007091BC018091BD019091BE010C94D916A6
:102E30008091BE0182958F7009F054C08091BB01D2
:102E4000882309F44FC080918701A0918801609187
:102E5000B9017091BA014091BC015091BD01B6E039
:102E60008A1709F43FC090E041155105C1F17F3F39
:102E700011F46F3FA1F1B89FF001B99FF00D11243B
:102E8000E757FE4F218172132AC02081621327C0A9
:102E90002281211124C0238134812417350710F4A5
:102EA00021503109241B350B283C3105C0F42091F9
:102EB000BE012F7020612093BE0126E0289FF00103
:102EC000299FF00D1124E257FE4F80818F708061A1
:102ED000808389EB91E00E9462160C94E9160196BA
:102EE0008770BECF0895CF92DF92EF92FF920F933B
:102EF0001F93CF93DF93CDB7DEB762970FB6F894E9
:102F0000DEBF0FBECDBF8C0185E0F801DE011D964E
:102F100001900D928A95E1F7D8014C9111965C9140
:102F2000119712966C9112971396CD90DC9014978E
:102F30003091B9017091BA018091BC019091BD01AD
:102F4000009709F46BC17F3F19F43F3F09F466C154
:102F5000E090BB01EE2009F4C0C02091BE01C8166C
:102F6000D90628F0F601E81BF90BCF0104C08095C3
:102F700090958C0D9D1DFF24F394883C910578F06D
:102F8000F12C207F09F0C6C07C2DD98AC88A898996
:102F90000E94CA1689EB91E00E946216B1C0822F8E
:102FA000807F09F046C0751314C0341312C061113C
:102FB00010C02F7020612093BE010E940A1789EB78
:102FC00091E00E9462168091BE01D80115968C9303
:102FD0002EC0CD2819F15F3F11F44F3FF9F0F62EC6
:102FE00061111CC0809187012091880136E0821711
:102FF00009F45AC090E0389FF001399FF00D112478
:10300000E757FE4F7181571306C07081471303C005
:103010007281711103C001968770E9CFF62E662385
:1030200009F427C18091BE0181608093BE01F12C1B
:1030300020C1751308C0341306C0611104C080910B
:10304000BE01D801C3C04D875E878D859E856A8B82
:103050000E94C5166A898823E1F16623D1F1209187
:10306000BE01822F82958F7090E0029774F080915C
:10307000B9019091BA0198878F831986DB86CA8639
:103080002C87CE0107960E94621686E0F801A9EB14
:10309000B1E001900D928A95E1F70E9418170E9405
:1030A0000A17FF24F394E5C04D875E878D859E85C2
:1030B0000E94151C292F22952F7030E022303105F7
:1030C0000CF0CBC09F7009F0C5C0805E883008F45A
:1030D000D0C0C8010E946216E4CFC816D90608F411
:1030E00053C0F601E81BF90BCF01883C910508F4A9
:1030F00050C0F12C7C2DD98AC88A89890E94CA16B1
:10310000E9EBF1E086E0DF011D928A95E9F70E9484
:103110000A17AFC0751314C0341312C0611110C068
:103120008091BE01F8018583C8010E94621686E085
:10313000E9EBF1E0DF011D928A95E9F7FE2C99C0D9
:103140004D875E878D859E856A8B0E94C5166A892C
:10315000882309F4BECF662309F4BBCF2091BE01BA
:10316000822F82958F7090E002970CF48ECF809121
:10317000B9019091BA019A8389831B82DD82CC8246
:103180002E83CE0101967FCF809590958C0D9D1D4D
:10319000ACCFF62E662309F49CCF75132EC03413E2
:1031A0002CC02091BE0120FD1FC0822F82958F7000
:1031B000D9F0D80115962C9315978F3049F08F5F71
:1031C000982F9295907F822F8F70892B15968C93D4
:1031D000C8010E94621686E0F801A9EBB1E00190F7
:1031E0000D928A95E1F793CF86E0F801A9EBB1E063
:1031F00001900D928A95E1F73CC04D875E878D85E1
:103200009E850E94C516811140CF8091BE018160CC
:103210008093BE01C8010E9462162BC0662309F488
:1032200058CF4D875E878D859E850E94C516F82EE6
:10323000882309F44ECF86E0F801A9EBB1E00190B4
:103240000D928A95E1F789EB91E00E946E120E943F
:1032500018175DCF811139CF0CC0243031050CF027
:1032600038CF9F7009F431CFF8019581907F09F034
:103270002CCF8F2D62960FB6F894DEBF0FBECDBF58
:10328000DF91CF911F910F91FF90EF90DF90CF9042
:1032900008951F93CF93DF93CDB7DEB72C970FB66A
:1032A000F894DEBF0FBECDBF4F83588769877A87FA
:1032B0008B879C87CE0107960E947317882369F03D
:1032C0008F8198852A853B85232BF1F19F3F09F05B
:1032D00063C08F3F09F060C037C086E0FE013796BB
:1032E000DE01119601900D928A95E1F76F81788544
:1032F000EA85FB85309741F17F3F11F46F3F21F163
:103300002091880130E0C90101968770992740918A
:10331000870150E08417950709F447C069837A83D1
:10332000FD83EC8396E0929FD001939FB00D112412
:10333000A757BE4FFE01319601900D929A95E1F785
:10334000809388010E94E91616E080918701909190
:1033500088018917C1F1189FC001112487579E4F1A
:103360000E947317882379F1E09187011E9FF00175
:103370001124E757FE4F408151816281738184811E
:1033800095810E94D9168091870190E001968770FF
:10339000992780938701D9CF4F81588569857A8590
:1033A0008B859C850E94D916CFCF0E949F161092C4
:1033B000880110928701E9EBF1E086E0DF011D92C0
:1033C0008A95E9F7C1CF2C960FB6F894DEBF0FBEF1
:1033D000CDBFDF91CF911F910895EF92FF920F9390
:1033E0001F93CF93DF938C01892B09F46CC0F12CD0
:1033F000EE24E394E8012196F8018491843740F4A7
:10340000843008F051C0813081F0823019F15BC006
:10341000853709F444C0A8F19CE7980F903708F06D
:1034200052C08F770E948B1341C00E5F1F4FFE0169
:10343000C49180E28C0F883048F4C7708E2D01C093
:10344000880FCA95EAF70E94771C14C08C2F0E943F
:1034500074122DC00E5F1F4FFE01C49180E28C0FCD
:10346000883058F4C7708E2D01C0880FCA95EAF7CE
:103470000E947D1C0E94A01C1AC08C2F0E948B13DE
:1034800016C00E5F1F4FFE01C491CC2381F08FE95F
:103490009FE00197F1F700C00000C150F6CF0E5F2A
:1034A0001F4FFE01F49003C00E9474128E018F2DF5
:1034B000882309F49FCFEFE9FFE03197F1F700C0CF
:1034C00000008150F5CFDF91CF911F910F91FF90B8
:1034D000EF90089508950C946A1A0E946B1A6093F5
:1034E000E1017093E2018093E3019093E4010C9475
:1034F000891608950C946D1A0F931F930091E101A2
:103500001091E2012091E3013091E401602B712BD5
:10351000822B932B1F910F910C946D1A0F931F9375
:103520000091E1011091E2012091E3013091E40169
:1035300060237123822393231F910F910C946D1AA2
:103540000F931F930091E1011091E2012091E3019B
:103550003091E40160277127822793271F910F91F3
:103560000C946D1A08950C94B21A0E94B31A6093C9
:10357000DD017093DE018093DF019093E0010C94F4
:10358000891660E070E0CB010C94B51A0F931F937D
:1035900041E050E060E070E08A019B0104C0000F50
:1035A000111F221F331F8A95D2F7C901B8011F913D
:1035B0000F910C94B51A0F931F9341E050E060E017
:1035C00070E004C0440F551F661F771F8A95D2F71D
:1035D0008091DD019091DE01A091DF01B091E001C9
:1035E0008A019B01082B192B2A2B3B2BC901B801FF
:1035F0001F910F910C94B51A0F931F9341E050E067
:1036000060E070E004C0440F551F661F771F8A9565
:10361000D2F740955095609570958091DD0190911D
:10362000DE01A091DF01B091E0018A019B01082336
:1036300019232A233B23C901B8011F910F910C9430
:10364000B51A0F931F9341E050E060E070E004C0B2
:10365000440F551F661F771F8A95D2F78091DD01B1
:103660009091DE01A091DF01B091E0018A019B0100
:10367000082719272A273B27C901B8011F910F9155
:103680000C94B51A0F931F930091DD011091DE0188
:103690002091DF013091E001602B712B822B932B65
:1036A0001F910F910C94B51A0F931F930091DD0198
:1036B0001091DE012091DF013091E0016023712340
:1036C000822393231F910F910C94B51A0F931F938C
:1036D0000091DD011091DE012091DF013091E001C8
:1036E00060277127822793271F910F910C94B51A99
:1036F00008952BE0929F800D1124A82FA695A695E2
:10370000A695877051E001C0550F8A95EAF785E0CC
:10371000A89FD001112420E030E070E0F901EA0F09
:10372000FB1FE154FE4F4081CB01022E02C0969553
:1037300087950A94E2F781709927819584278523DC
:10374000842780832F5F3F4F2530310539F7089557
:103750002BE0929F800D1124682F669566956695E3
:10376000982F977085E0689FB001112440E050E0E9
:1037700080E0FA01E60FF71FE154FE4F208130E0B0
:10378000092E02C0369527950A94E2F72170332757
:10379000042E01C0220F0A94EAF7822B4F5F5F4F7D
:1037A0004530510531F70895BF92CF92DF92EF92E5
:1037B000FF920F931F93CF93DF938C01C090E10191
:1037C000D090E201E090E301F090E4018091DD010E
:1037D0009091DE01A091DF01B091E001C82AD92AC1
:1037E000EA2AFB2AC3E0D0E0D701C6010C2E04C0B0
:1037F000B695A795979587950A94D2F780FF07C04D
:10380000BC2EB8018C2F0E949C06019719F42197B9
:1038100058F7B12C8B2DDF91CF911F910F91FF9015
:10382000EF90DF90CF90BF900895CF93DF93EC019E
:103830000E94D41BBE010E949C06DF91CF91089587
:103840001F93CF93DF93EB0190918601992321F091
:10385000CB010E94151C13C0882349F0CB010E94A4
:10386000D41B182F682FCE010E94791B04C0CB01F6
:103870000E94A81B182FBE01812F0E949C06DF9179
:10388000CF911F9108958091E50185958595859546
:1038900008958091E501877008959091E5019770F2
:1038A00081E009F480E008958091090208959091E3
:1038B0000902892B8093090208958095909109024D
:1038C0008923809309020895109209020895909126
:1038D0000802892B80930802089580959091080230
:1038E0008923809308020895109208020895909108
:1038F0000702892B80930702089580959091070213
:1039000089238093070208951092070208958091F9
:10391000E601089508950C948A1C9091E601981789
:1039200021F08093E6010C948B1C08958091E601B0
:10393000882329F01092E60180E00C948B1C0895F6
:10394000E0911001F0911101809109028083E091D2
:103950001001F0911101908180910802892B8083E0
:10396000E0911001F0911101908180910702892B63
:1039700080838091E601882381F0E0911001F0912D
:1039800011019081892B8083809110019091110108
:103990000E94891D81110E94961C809110019091B6
:1039A00011010C941C1108950C94D31C98E0899F6C
:1039B00090011124262B2093E5010E94DB1A8091AF
:1039C000E5018595859585950C94D41C1092E501AB
:1039D00080E00C94D41C2091E50180958223809393
:1039E000E501982F977079F430E0482F082E000CED
:1039F000550B2417350739F08595859585950E94D7
:103A0000FC1A0C94E61C089580E090E00E94902738
:103A100021E08D3E9E4F09F020E0822F089582E044
:103A200090E00C94822783E090E00C94822784E05D
:103A300090E00C948227682F84E090E00C94962705
:103A400086E090E00C948227682F86E090E00C944A
:103A50009627AB01BC018FE090E00C94A827AB0146
:103A6000BC0183E190E00C94A82760E070E0CB01FA
:103A70000C942F1D60E070E0CB010E94291D0C9476
:103A8000351D6DEE7EEF80E090E00E94B42760E08F
:103A900082E090E00E94962760E083E090E00E9440
:103AA00096271092E1011092E2011092E301109228
:103AB000E40160E084E090E00E94962760E085E009
:103AC00090E00E94962760E086E090E00E949627B2
:103AD0006FEF87E090E00E94962740E050E0BA0147
:103AE00088E090E00E94A82760E08DE090E00E94CE
:103AF000962740E050E0BA0188E190E00E94A827B4
:103B000060E087E190E00E9496270C943A1D0C94A7
:103B1000411DFC01329680911C01882331F0809177
:103B2000500287FF02C09EE101C096E080E0915004
:103B300028F021912223D9F38F5FF9CF08959C01BA
:103B4000FC0132969FEF80E04191461789F09F3F3C
:103B500019F4411101C0982F8F5F8630A9F79F3F5C
:103B600039F0F901E90FF11D97FDFA956283089587
:103B70000895FC01329608962081261301C0108218
:103B80003196E817F907C1F70895262F269526954F
:103B900026952E3168F4FC01E20FF11D677021E0DB
:103BA00030E001C0220F6A95EAF78281282B228338
:103BB0000895262F2695269526952E3170F4FC0122
:103BC000E20FF11D677021E030E001C0220F6A951D
:103BD000EAF72095828128232283089520911C01F1
:103BE000222329F02091500227FD0C94C51D0C942E
:103BF0009F1D20911C01222329F02091500227FDB6
:103C00000C94D91D0C94B91D20911C01FC01329615
:103C1000222331F08091500287FF02C08EE101C063
:103C200086E0DF011D928A95E9F7089508950C94C6
:103C3000161E0E94171E80915702843061F1109267
:103C40000B0220E488E190E00FB6F894A8958093E9
:103C500060000FBE2093600080E00E94CD0380E0F2
:103C60000E9464040E94171E83B7817F846083BF13
:103C700083B7816083BF7894889583B78E7F83BF35
:103C80000FB6F894A89580916000886180936000D9
:103C9000109260000FBE089508950895CF930E947A
:103CA0004C1E0E949D090E944D1EC0E08C2F0E9458
:103CB0003509892B29F4CF5FC430C1F780E001C0FA
:103CC00081E0CF91089508950C94631E0E949F1681
:103CD0000E943B1F0E9410110E9464040C94641EF9
:103CE0001F920F920FB60F9211248F939F93AF9351
:103CF000BF9380910B02811113C080914C0290916F
:103D00004D02A0914E02B0914F024196A11DB11DEE
:103D100080934C0290934D02A0934E02B0934F02B9
:103D2000BF91AF919F918F910F900FBE0F901F90F9
:103D3000189582E084BD93E095BD9AEF97BD80937E
:103D40006E0008952FB7F89480914C0290914D0227
:103D5000A0914E02B0914F022FBF0895CF92DF92F3
:103D6000EF92FF920F931F932FB7F89440914C025C
:103D700050914D0260914E0270914F022FBF6A0127
:103D80007B01EE24FF248C0120E030E0C016D10638
:103D9000E206F30610F4415051099A01281B390B31
:103DA000C9011F910F91FF90EF90DF90CF90089580
:103DB00078941F920F920FB60F9211248F939F93B6
:103DC000AF93BF9380914C0290914D02A0914E020F
:103DD000B0914F020196A11DB11D80934C029093AA
:103DE0004D02A0934E02B0934F02BF91AF919F91AD
:103DF0008F910F900FBE0F901F90189581E08093C8
:103E0000E00080E28093D8001092C9008FE19EE428
:103E10000197F1F700C0000087E090EBDC01809390
:103E2000600290936102A0936202B09363029CE0EF
:103E300088E10FB6F894A895809360000FBE909328
:103E40006000FFCF0E94041D811102C00E94871DE7
:103E50000E940F1D80930A020E94171D90E090930C
:103E60005102809350020E94131D682F70E080E081
:103E700090E00C947A1A0E94041D811102C00E94E5
:103E8000871D0E94201D80935202282F269530E026
:103E90002730310524F081708C608093520280912C
:103EA000520280FF02C0869501C080E00C94CD03D1
:103EB00020915202822F8695482F50E046305105BE
:103EC00044F48F5F982F990F822F8170892B8093F4
:103ED0005202809152028160809352020E94241DFE
:103EE0008091520286950C94CD0380915202982FB6
:103EF000969591F09158990F8170892B8093520279
:103F00008E7F91E009F490E08091520290FB80F95D
:103F1000809352020E94241D8091520286950C9437
:103F2000CD038091520280FD11C0816080935202C6
:103F3000813019F483E080935202809152020E94F2
:103F4000241D8091520286950C94CD030895809192
:103F5000520280FF08C08E7F809352020E94241D6F
:103F600080E00C94CD0308958091520280FD0C9462
:103F7000A71F0C94911F90915202892F86958F5FF5
:103F80008F779170873028F4880F892B80935202A5
:103F900002C090935202809152028E7F91E009F408
:103FA00090E08091520290FB80F9809352020E942F
:103FB000241D8091520286950C94CD03873008F021
:103FC00086E0880F909152029170892B8093520263
:103FD0008E7F91E009F490E08091520290FB80F98D
:103FE000809352020E94241D8091520286950C9467
:103FF000CD0380912C02089508950F931F93CF93C2
:10400000DF9300D01F92CDB7DEB78C010E94422211
:10401000823011F0843021F584E089831B830A8388
:1040200082E08093E9008FEF9091E800815095FD48
:1040300006C095ED9A95F1F700008111F5CF8091BA
:10404000E80085FF0DC040E050E063E070E0CE0185
:1040500001960E945F228091E8008E778093E800AD
:104060000F900F900F90DF91CF911F910F910895B6
:10407000CF93DF9300D01F92CDB7DEB720915702C8
:10408000243031F523E02983805891099B838A836A
:1040900082E08093E9008FEF9091E800815095FDD8
:1040A00006C095ED9A95F1F700008111F5CF80914A
:1040B000E80085FF0DC040E050E063E070E0CE0115
:1040C00001960E945F228091E8008E778093E8003D
:1040D0000F900F900F90DF91CF910895CF93DF93C2
:1040E000EC010E944222823011F08430D9F5809197
:1040F0001C01882339F08091500287FF03C060E2E1
:1041000082E002C068E081E08093E9008FEF909147
:10411000E800815095FD06C095ED9A95F1F70000F5
:104120008111F5CF8091E80085FF1CC080911C01B2
:10413000811105C040E050E068E070E003C070E02D
:1041400040E050E0CE010E945F228091E8008E772F
:104150008093E80080E2FE01ACE0B2E001900D92B5
:104160008A95E1F7DF91CF910895809156028111F0
:1041700009C00E94F4230E9451248091E2008460CF
:104180008093E200089510925602089508950895CC
:104190000C94661E42E061EC81E00E946E2342E2D4
:1041A00061EC82E00C946E2380915902833009F413
:1041B00060C030F4813071F0823009F499C0089504
:1041C0008A3009F485C08B3009F46BC0893009F05E
:1041D000A7C020C080915802813A09F0A1C0809107
:1041E000E800877F8093E80080915C0290915D02F7
:1041F000892B21F460E28CE092E003C060E080E073
:1042000090E070E00E94AA228091E8008B77809372
:10421000E800089580915802813209F081C08091B0
:104220005C0290915D02029708F07AC08091E800EC
:10423000877F8093E8008091E80082FD05C080912F
:1042400057028111F8CF6CC02091F3008091F200E9
:1042500090E0922B029729F48091F1008B7F8130BE
:1042600021F48091F10080932C028091E8008B77FB
:1042700053C080915802813A09F052C080915C028B
:1042800090915D02892B09F04BC08091E800877FF7
:104290008093E8008091E80080FFFCCF80911C01B2
:1042A00036C0809158028132D9F580915C0290919C
:1042B0005D02892BA9F58091E800877F8093E80053
:1042C0000E94A32380915A0280931C010C949F1694
:1042D00080915802813221F58091E800877F809398
:1042E000E8000E94A32380915B0280932D02089531
:1042F00080915802813AA1F48091E800877F8093F1
:10430000E8008091E80080FFFCCF80912D0280932F
:10431000F1008091E8008E778093E8000C94A3234D
:10432000089584B7877F84BF0FB6F894A8958091CD
:104330006000886180936000109260000FBE80E88A
:1043400080936100109261000E9470110E94F4231A
:104350000E9451248091E20084608093E20078946E
:104360000E94E0260E94781182E191E00E940B11E8
:1043700080915702853069F40E94191E8091550280
:104380008823B1F30E944E1E882391F30E94492294
:10439000EFCF0E9484110E948E0FEACF0C94D0219F
:1043A000292F332723303105C9F064F4213031053A
:1043B00081F02230310509F04CC08BE390E025E913
:1043C00034E04BC02132310521F12232310589F12F
:1043D00040C082E190E020ED34E03FC09927813079
:1043E000910571F02CF4892BA1F5E1E9F4E00DC001
:1043F0008230910541F0039761F5E9E6F4E005C0EC
:10440000EDE7F4E002C0EFE6F4E0849190E09F0174
:1044100024C06115710541F061307105D1F489E066
:1044200090E020EC34E019C089E090E027EA34E025
:1044300014C06115710541F06130710551F481E7D7
:1044400090E022EE34E009C080E490E023E535E01E
:1044500004C080E090E020E030E0FA013183208366
:1044600008950895CF93C82F0E943122C0932E0241
:10447000CF91089580915702843011F081E0089522
:1044800082E0089580912E02811102C00C943A229C
:10449000089580E189BD82E189BD09B400FEFDCFA8
:1044A0008091D8008F7D8093D8008091E000826059
:1044B0008093E0008091E00081FDFCCF0895CF92D1
:1044C000DF92EF92FF920F931F93CF93DF93EC0154
:1044D0008B016A010E94C223811133C0C114D1042F
:1044E00039F0F60180819181081B190BC80FD91F83
:1044F000E12CF12C0115110519F18091E80085FDE1
:1045000016C08091E8008E778093E800C114D10432
:1045100049F0F60180819181E80EF91EF182E08276
:1045200085E00FC00E94C223882321F30AC089912D
:104530008093F10001501109FFEFEF1AFF0ADACF63
:1045400080E0DF91CF911F910F91FF90EF90DF906E
:10455000CF90089520915E0230915F0226173707B1
:1045600048F06115710539F42091E8002E77209309
:10457000E80001C0B90140E061157105A9F1209181
:104580005702222309F443C0253009F442C0209188
:10459000E80023FD40C02091E80022FD32C02091B8
:1045A000E80020FFE9CF4091F3002091F20030E0D5
:1045B000342BFC01CF016115710559F0283031050C
:1045C00040F481918093F100615071092F5F3F4F5A
:1045D000F1CF41E02830310509F040E02091E800BA
:1045E0002E772093E800C8CF4111C9CF0AC080912F
:1045F0005702882361F0853061F08091E80083FDE7
:104600000AC08091E80082FFF2CF80E0089582E046
:10461000089583E0089581E0089520915E0230912D
:104620005F022617370748F06115710539F42091AC
:10463000E8002E772093E80001C0B901FC0120E0DA
:104640006115710591F180915702882309F440C0EA
:10465000853009F43FC08091E80083FD3DC0809122
:10466000E80082FD2FC08091E80080FFE9CF209113
:10467000F3008091F20090E0922B6115710559F0E2
:104680008830910540F424912093F10031966150D7
:1046900071090196F2CF21E0089709F020E080919E
:1046A000E8008E778093E800CBCF2111CCCF0AC0F1
:1046B00080915702882361F0853061F08091E80095
:1046C00083FD0AC08091E80082FFF2CF80E0089568
:1046D00082E0089583E0089581E00895982F97304F
:1046E00058F59093E900981739F07091EC002091FB
:1046F000ED005091F00003C0242F762F50E021FFF1
:1047000019C03091EB003E7F3093EB003091ED000B
:104710003D7F3093ED003091EB0031603093EB0042
:104720007093EC002093ED005093F0002091EE0088
:1047300027FF07C09F5FD3CF8F708093E90081E090
:10474000089580E008958091580287FF11C08091FC
:10475000E80082FD05C0809157028111F8CF11C099
:104760008091E8008B770BC080915702882349F035
:104770008091E80080FFF8CF8091E8008E778093E9
:10478000E80008952091E4003091E50095E640911D
:10479000EC00842F817040FF22C08091E80080FDF2
:1047A0001CC080915702882391F0853091F0809150
:1047B000EB0085FD10C04091E4005091E5004217E8
:1047C000530729F39A01915011F784E0089582E08C
:1047D000089583E0089581E0089580E00895409170
:1047E000E80042FFDECF08950E9462240E946A24FE
:1047F000E0EEF0E0808181608083E8EDF0E0808190
:104800008F77808319BCA7EDB0E08C918E7F8C935D
:1048100080818F7E80831092560208950F931F939C
:10482000CF93DF930E9462240E946A24C8EDD0E0F7
:1048300088818F77888388818068888388818F7D4D
:10484000888319BC1092570210925302109255029D
:104850001092540200EE10E0F80180818B7F80837B
:1048600088818160888342E060E080E00E946E235E
:10487000E1EEF0E080818E7F8083E2EEF0E08081E7
:1048800081608083808188608083F80180818E7F51
:104890008083888180618883DF91CF911F910F9100
:1048A0000895E8EDF0E080818F7E8083E7EDF0E011
:1048B00080818160808384E082BF81E080935602A2
:1048C0000C940E24E8EDF0E080818E7F80831092BE
:1048D000E20008951092DA001092E10008951F920C
:1048E0000F920FB60F9211242F933F934F935F9324
:1048F0006F937F938F939F93AF93BF93EF93FF93A8
:104900008091E10082FF0BC08091E20082FF07C02E
:104910008091E1008B7F8093E1000E94DF268091EF
:10492000DA0080FF1FC08091D80080FF1BC08091FB
:10493000DA008E7F8093DA008091D90080FF0DC06D
:1049400080E189BD82E189BD09B400FEFDCF81E02F
:10495000809357020E94B52005C019BC10925702DF
:104960000E94C3208091E10080FF19C08091E20085
:1049700080FF15C08091E2008E7F8093E2008091DD
:10498000E20080618093E2008091D8008062809391
:10499000D80019BC85E0809357020E94C7208091FF
:1049A000E10084FF30C08091E20084FF2CC080E1F0
:1049B00089BD82E189BD09B400FEFDCF8091D80098
:1049C0008F7D8093D8008091E1008F7E8093E100FD
:1049D0008091E2008F7E8093E2008091E20081600E
:1049E0008093E20080915302882311F084E007C095
:1049F0008091E30087FD02C081E001C083E08093E5
:104A000057020E94C8208091E10083FF29C0809155
:104A1000E20083FF25C08091E100877F8093E10061
:104A200082E080935702109253028091E1008E7FC2
:104A30008093E1008091E2008E7F8093E20080917C
:104A4000E20080618093E20042E060E080E00E944A
:104A50006E238091F00088608093F0000E94C62051
:104A6000FF91EF91BF91AF919F918F917F916F9146
:104A70005F914F913F912F910F900FBE0F901F901C
:104A800018951F920F920FB60F9211242F933F93F8
:104A90004F935F936F937F938F939F93AF93BF9346
:104AA000CF93DF93EF93FF93C091E900CF70809194
:104AB000EC00D82FD17080FDD0E81092E9008091F1
:104AC000F000877F8093F00078940E9485251092F3
:104AD000E9008091F00088608093F000CD2BCF70CA
:104AE000C093E900FF91EF91DF91CF91BF91AF911A
:104AF0009F918F917F916F915F914F913F912F91F6
:104B00000F900FBE0F901F9018951F93CF93DF93B8
:104B1000CDB7DEB7AA970FB6F894DEBF0FBECDBFF4
:104B2000E8E5F2E088E08E0F9091F10091938E130A
:104B3000FBCF0E94D4208091E80083FF28C18091A0
:104B4000580290915902492F50E04A30510508F01F
:104B50001EC1FA01E556FF4F0C945527803821F00D
:104B6000823809F014C108C0809154029091550216
:104B7000992389F082600FC080915C028F7087302A
:104B800008F005C18093E9008091EB0085FB882740
:104B900080F91092E9009091E800977F9093E800E7
:104BA0008093F1001092F100D0C0282F2D7F09F0E2
:104BB000EEC0882319F0823061F0E9C080915A027A
:104BC000813009F0E4C0933009F080E08093550211
:104BD0002EC080915A0281112AC080915C028F7090
:104BE0002FEF280F263008F0D2C08093E9002091E3
:104BF000EB0020FF1CC0933021F48091EB00806219
:104C000014C09091EB0090619093EB0021E030E0B4
:104C1000A90102C0440F551F8A95E2F74093EA00AC
:104C20001092EA008091EB0088608093EB00109274
:104C3000E9008091E800877F8093E8000E94A32329
:104C4000A6C08111A4C010915A021F778091E30081
:104C50008078812B8093E3008091E800877F8093A8
:104C6000E8000E94A3238091E80080FFFCCF8091A0
:104C7000E30080688093E300111102C082E001C06C
:104C800083E08093570283C08058823008F07FC051
:104C900080915A0290915B028C3D53E0950779F523
:104CA00083E08A838AE289834FB7F894DE01139602
:104CB00020E03EE051E2E32FF0E050935700E49112
:104CC00020FF03C0E295EF703F5FEF708E2F90E002
:104CD000EA3010F0C79601C0C0968D939D932F5F68
:104CE000243149F74FBF8091E800877F8093E80027
:104CF0006AE270E0CE0101960E94AA2215C060917E
:104D00005C0270915D02AE014F5F5F4F0E94CE2149
:104D1000BC01892BE1F19091E800977F9093E80026
:104D200089819A810E940D238091E8008B7780937E
:104D3000E8002DC0803859F58091E800877F809386
:104D4000E800809153028093F1008091E8008E7713
:104D500073CF81111CC090915A029230C0F480919F
:104D6000E800877F8093E800909353020E94A3237A
:104D700080915302811106C08091E30087FD02C03B
:104D800081E001C084E0809357020E94CA20809194
:104D9000E80083FF0AC08091E800877F8093E800E5
:104DA0008091EB0080628093EB00AA960FB6F89496
:104DB000DEBF0FBECDBFDF91CF911F910895089543
:104DC000CF93809157028823A1F0C091E900CF7062
:104DD0009091EC00892F817090FD80E8C82B109293
:104DE000E9008091E80083FD0E948525CF70C09383
:104DF000E900CF910895DB018F939F930E946A276A
:104E0000BF91AF91A29F800D911DA39F900DB29F66
:104E1000900D11240895AA1BBB1B51E107C0AA1FC6
:104E2000BB1FA617B70710F0A61BB70B881F991F4B
:104E30005A95A9F780959095BC01CD01089597FBEF
:104E4000072E16F4009407D077FD09D00E940B2797
:104E500007FC05D03EF4909581959F4F089570957D
:104E600061957F4F0895A1E21A2EAA1BBB1BFD017D
:104E70000DC0AA1FBB1FEE1FFF1FA217B307E40739
:104E8000F50720F0A21BB30BE40BF50B661F771F91
:104E9000881F991F1A9469F7609570958095909571
:104EA0009B01AC01BD01CF010895EE0FFF1F0590DE
:104EB000F491E02D0994A29FB001B39FC001A39F7C
:104EC000700D811D1124911DB29F700D811D112443
:104ED000911D08950E945B27A59F900DB49F900D92
:104EE000A49F800D911D11240895FC014150504054
:104EF00030F001900616D1F73197CF010895882739
:104F000099270895F999FECF92BD81BDF89A992706
:104F100080B50895A6E1B0E044E050E00C94BC27D1
:104F2000A8E1B0E042E050E00C94BC27262FF999AC
:104F3000FECF92BD81BDF89A019700B4021639F0F8
:104F40001FBA20BD0FB6F894FA9AF99A0FBE0895C9
:104F50000396272F0E9497270E949627252F0E94AD
:104F60009727242F0C9497270196272F0E94972785
:104F70000C949627DC01CB01FC01F999FECF06C009
:104F8000F2BDE1BDF89A319600B40D924150504007
:084F9000B8F70895F894FFCF73
:104F9800010208080801191A1B1C1D1E1F202122C6
:104FA800E701F91F6E20FC1F3820FD1F01F0F1F406
:104FB800F5F6F73635349796929395370001020245
:104FC80002020606060909090909090F0F0F0F0F42
:104FD8000F15151518191919191919191919192346
:024FE8002400A3
:00000001FF
