:100000000C94A8020C94EC020C9407030C94EC02E0
:100010000C94EC020C94EC020C94EC020C94EC02A8
:100020000C94EC020C94EC020C948B1E0C94EC02DD
:100030000C94EC020C94EC020C94EC020C94EC0288
:100040000C94EC020C94EC020C94EC020C94EC0278
:100050000C94EC0269066B0676066D066F06710657
:100060007306750678067A067C0687067E06800685
:100070008206840686068906C914C914FB14FB147B
:100080003B15AC16AC16AC165B15AC16081608166C
:1000900078168116AC16A516151615161516151612
:1000A00015161516151615161516151615161516F8
:1000B000151615161516151624163216391640166D
:1000C0004A1637173717491749174017491749175D
:1000D0004917371737174517491749174517290083
:1000E00014001A000800150017001C0018000C006E
:1000F000120013002A002B0004001600070009005C
:100100000A000B000D000E000F0033002800E10074
:100110001D001B000600190005001100100036002C
:1001200037003800E500E000E200E300A8000041ED
:100130000042004100426500E700E600E4003500AF
:100140002400250026002D002E0033002F00300053
:100150003100380034002B00210022002300005C15
:1001600049005000520051004F004600280039005D
:100170001E001F00200000004C004A004B004E00F3
:100180004D000000E500E000E2002700E300010070
:100190002C0001002C006500E700E600E4002900C7
:1001A0004000410042004300440045004600A800D2
:1001B000AA00A9004C002B003D003E003F00BF5CA0
:1001C000C25CC35CC55CC75CC95CCB5C2800E10059
:1001D0003A003B003C00C05C0000C45CC65CC85CEC
:1001E000CA5CCC5CE500E000E200E300005C2C00AF
:1001F00001002C0001006500E700E600E4000004B7
:100200007F3F1F643214643214783C1E1E140A05AA
:100210002223252628292A2C2D2F30323335363813
:100220003A3B3D3E4042434547494A4C4E5051536C
:100230005557595A5C5E6062646668696B6D6F7190
:10024000737577797B7D7F81838587898A8C8E9092
:10025000929496989A9C9E9FA1A3A5A7A8AAACAE9B
:10026000AFB1B3B4B6B8B9BBBCBEBFC1C2C3C5C6DB
:10027000C7C9CACBCCCDCED0D1D2D2D3D4D5D6D784
:10028000D7D8D9D9DADADBDBDBDCDCDCDCDCDDDDC2
:10029000DDDDDCDCDCDCDCDBDBDBDADAD9D9D8D7B2
:1002A000D7D6D5D4D3D2D2D1D0CECDCCCBCAC9C754
:1002B000C6C5C3C2C1BFBEBCBBB9B8B6B4B3B1AF8B
:1002C000AEACAAA8A7A5A3A19F9E9C9A989694922B
:1002D000908E8C8A89878583817F7D7B7977757302
:1002E000716F6D6B6968666462605E5C5A595755E0
:1002F0005351504E4C4A4947454342403E3D3B3A9C
:100300003836353332302F2D2C2A29282625232222
:10031000FFAA7F554000000000000000000000011F
:1003200001010101010101010202020202020202B5
:100330000303030303030304040404040505050580
:10034000050606060606070707070808080809093C
:10035000090A0A0A0B0B0B0C0C0C0D0D0D0E0E0EE0
:100360000F0F10101011111212131314141515166B
:10037000161717181819191A1A1B1C1C1D1D1E1FD9
:100380001F20212122232324252526272828292A26
:100390002B2C2C2D2E2F303131323334353637384B
:1003A000393A3B3C3D3E3F40414243444546474845
:1003B000494B4C4D4E4F50525354555758595A5C17
:1003C0005D5E606163646567686A6B6C6E6F7172B5
:1003D000747677797A7C7D7F8182848687898B8D1C
:1003E0008E9092949597999B9D9FA1A2A4A6A8AA4E
:1003F000ACAEB0B2B4B6B9BBBDBFC1C3C5C8CACC40
:10040000CED0D3D5D7DADCDEE1E3E6E8EAEDEFF2F1
:10041000F4F7F9FCFF09023B0002010080320904F5
:100420000000010301010009210101000122400037
:100430000705810308000109040100010300000011
:10044000092101010001228400070583030800013E
:1004500005010902A10185020901A100050919018F
:100460002905150025017501950581027503950182
:1004700081030501093009311581257F7508950231
:10048000810609381581257F3500450075089501DD
:100490008106050C0A38021581257F7508950181B2
:1004A00006C0C005010980A1018503150126B7001A
:1004B000190129B7751095018100C0050C0901A12A
:1004C0000185041501269C0219012A9C02751095CC
:1004D000018100C005010906A10175019508050704
:1004E00019E029E7150025018102950175088103AE
:1004F00095057501050819012905910295017503F6
:10050000910395067508150026FF000507190029B7
:10051000FF8100C01201100100000008A0202D4240
:100520000002010200010A036A006A003400300080
:100530001C03770069006E006B00650079006C0099
:100540006500730073002E006B0072000403090441
:1005500011241FBECFE5D8E0DEBFCDBF04B603FE39
:1005600024C08091450290914602A0914702B0912B
:1005700048028730904BA740B04BB9F41092450227
:1005800010924602109247021092480214BE84B79D
:10059000877F84BF0FB6F894A89581B5886181BD27
:1005A00011BC0FBEE0E0F8E3099510E0A0E6B0E072
:1005B000E4EBF6E402C005900D92A23BB107D9F737
:1005C00022E0A2EBB0E001C01D92A534B207E1F732
:1005D0000E94A11F0C9458230C940000A82FB92F3F
:1005E00080E090E041E050EA609530E009C02D9154
:1005F00082279795879510F084279527305EC8F35A
:100600006F5FA8F30895EADF8D939D930895CF93CC
:10061000CFB7CF93C395839BE9F7839B0EC0839B92
:100620000CC0839B0AC0839B08C0839B06C0C091FB
:100630001C02C395C0931C02A3C0DF93C0911B0290
:10064000DD27CD5DDD4F839B02C0DF91E6CF2F9389
:100650000F931F9300B32FEF03FB20F94F933F93AA
:1006600010B34FEF012703FB21F93BE031C04E7F70
:10067000012F10B3216028C0102F4D7F2260000091
:1006800000B329C04B7F2460012F000010B32BC0A2
:1006900010B3477F28602AC04F7E00B320612CC072
:1006A0004F7D10B320622FC04F7B00B3206432C057
:1006B000422700B349934FEF0000102713FB20F9A6
:1006C00010B31C70C9F1297F91F2012703FB21F9B6
:1006D00000B3237F89F2315058F1102713FB22F920
:1006E00010B3277E79F2012703FB23F92F7C81F2D7
:1006F00000B3102713FB24F92F7971F200C010B357
:10070000012703FB25F92F7359F200C000B310270E
:1007100013FB26F9223040F200C010B3012703FB7F
:1007200027F9243028F64F77206810B30000F9CF5E
:1007300010E81ABF002719C03B503195C31BD040A9
:1007400010E81ABF0881033CF9F00B34E9F020915E
:1007500019021981110F1213EDCF4A81441F093676
:1007600041F10D3211F0013E29F7009321023F9132
:100770004F911F910F912F91DF91CAB7C7FD4ACFBB
:10078000CF91CFBFCF91189520912102222379F3E9
:1007900010911F021123C1F53430C2F130931F02B2
:1007A00020931A0210911B023BE0311B30931B0275
:1007B0002DC000911F0201303CF50AE54F7049F44D
:1007C00030917C0034FD24C000937C00C2E0D2E074
:1007D00023C0433049F030910D0234FD19C000931D
:1007E0000D02CEE0D2E018C03091390234FD10C0C5
:1007F00000933902CAE3D2E00FC02795A8F4515004
:10080000A9F4220F0000F9CF4AE503C042ED01C070
:10081000432FC4E1D0E032E011B31C60939A11BBC6
:1008200002B320E41CE05F93012756E002BB27954A
:1008300020F4515021F4220FF9CF012756E0000097
:100840003B5A02BBD0F2279528F4515029F4220FCD
:100850000000F9CF012756E0279502BB20F4515044
:1008600021F4220FF9CF012756E02991332302BB4F
:1008700021F6037F10912002110FC651D04002BB18
:1008800011F01093190210E81ABF086011B3137F1A
:10089000402F437F5F9100C000C002BB11BB42BB31
:1008A00066CF11B887E080B985B3836085BB86B712
:1008B000846086BF86B7816086BF86B7806486BF46
:1008C0000895EF92FF920F931F93CF93DF93182F0A
:1008D000EB0116BE84EA86BF0E94551E7C0106B657
:1008E00007FC0EC0CF3F8FEFD807C9F30E94551EFB
:1008F0008E199F098C179D0790F38EEF9FEF28C0EC
:1009000091B1987F983039F091B1987F903119F07A
:100910008FEF9FEF1DC013B984E886BF0E94551E5C
:100920008C0106B607FC0CC0CF3F8FEFD807C9F388
:100930000E94551E801B910B8C179D0790F3DDCFF5
:1009400081B1887F883111F0803411F780E090E028
:10095000DF91CF911F910F91FF90EF9008950F932A
:100960001F93CF93DF93EB0183B984E886BF0E9486
:10097000551E8C0106B607FC0EC0CF3F8FEFD8077F
:10098000C9F30E94551E801B910B8C179D0790F395
:100990008EEF9FEF0BC021B1287F81E090E02832DD
:1009A00011F480E090E0919581959109DF91CF91CC
:1009B0001F910F910895CF92DF92EF92FF920F93C4
:1009C0001F93CF93DF936B018A017901B9010E94D4
:1009D0006104E6010C0D1D1DC017D10759F424E96F
:1009E00026BFDF91CF911F910F91FF90EF90DF9085
:1009F000CF90089597FDF3CFB70189910E94AF047E
:100A0000EBCF0E9451040C94B10A8091E70180FD64
:100A100007C08FE0ECEEF1E0DF011D928A95E9F767
:100A200024E630E04FE050E06CEE71E080EB0C9497
:100A3000DB048091B200811110C08091E70180FF3A
:100A40000CC024E630E04FE050E06CEE71E080EB4B
:100A50000E94DB0481E08093B2000E94EA100C94B3
:100A6000B20A81E0089581E008950C9433051F9344
:100A7000CF93DF9300D000D01F92CDB7DEB749836C
:100A80005A832091E60089819A81211112C0662340
:100A900049F00E945C1C182F682F89819A810E945E
:100AA000011C03C00E94301C182F69817A81812F9C
:100AB00004C00E945C1C69817A810F900F900F9096
:100AC0000F900F90DF91CF911F910C940408FC01BF
:100AD000408151816281738184810C9437050C942B
:100AE0001905E82FE295EF70F0E032A9282F2F705A
:100AF00081E090E001C0880F2A95EAF78095832372
:100B000082AB0895CF92DF92EF92FF928D3028F45E
:100B1000811104C09FB59F7D03C08CE09FB590629A
:100B20009FBD282F30E0AFEFBFEF0E94DD222CE009
:100B300030E040E050E00E94B5222C3784E13807D5
:100B40004105510530F4C90169E070E00E948D2231
:100B500029C0DA01C9018A50974DAF4FBF4F6627B0
:100B6000782F892F9A2F25EF38E241E050E00E943C
:100B7000B52269017A01CA01B9010E947D229B0157
:100B8000AC01C701B6010E947D22BB27A92F982F77
:100B9000872F009721E0A207B10511F0BC0102C028
:100BA0006FEF7FEF79BD68BDFF90EF90DF90CF9042
:100BB00008958C9A84E00E94710582E28FBD89E1DC
:100BC0008EBD8FEF9FEF97BD86BD0C94E31E0E94F4
:100BD0008C1D811102C00E940F1E0E94D9050C9429
:100BE000010508950C94F1050C94F20508950E94F6
:100BF00027170E94F6052FEB87E299E021508040ED
:100C00009040E1F700C000000C94B11E0F931F93B9
:100C1000CF93DF938C010E946705EC01B8010E941D
:100C20003505882309F4E6C1B801CE010E94F1110F
:100C3000882309F4DFC1C93CFCE5DF0741F4F80172
:100C40008281882309F4D6C10E94DC0FD3C1CA3C3B
:100C50008CE5D80708F006C1C23C9CE5D90741F4F1
:100C6000F8018281882309F4C5C10E94A810C2C17D
:100C7000C33CECE5DE0708F0AAC0C531FCE5DF07A0
:100C800008F07BC0C2308CE5D80708F452C0F801E8
:100C90008281882309F454C00E948C1D811102C0F6
:100CA0000E940F1E0E949F1D90E09093000280936F
:100CB000FF01FE01E350FC45E231F10530F4E65D51
:100CC000FF4F8091FF010C94D7228091FF0181603A
:100CD00027C0826025C0846023C0806121C08062FB
:100CE0001FC080641DC080681BC08460886018C0FD
:100CF0008E7F16C08D7F14C08B7F12C08F7E10C078
:100D00008F7D0EC08F7B0CC08F770AC08B7F877F53
:100D100007C087FB222720F991E0922790FB87F9F3
:100D20008093FF018091FF010E94A31D0E9427175D
:100D300061C1C1159CE5D90751F0C130DC4579F09E
:100D4000C801DF91CF911F910F910C943105F801EB
:100D50008281882309F44EC10E94F7054BC1F80136
:100D60008281882309F446C180915201982F909581
:100D700090FB80F9809352013DC1C631DC4501F7FB
:100D80000E94DC1C282FF801828140916F00509155
:100D90007000882379F02A7A91E009F490E090932A
:100DA000B300911102C069E201C065E3CA010E946B
:100DB000431E0AC08091B300811102C069E201C0E4
:100DC00065E3CA010E94451E0E94281D13C1C53C4F
:100DD0008CE5D80741F4F8018281882309F40AC11F
:100DE0000E94A20F07C1C63C9CE5D90700F5C33C91
:100DF000ECE5DE0761F4F8018281882309F4FAC08A
:100E00000E94DC1C827281F00E949A10F3C0C43CE4
:100E1000DC4509F095CFF8018281882309F4EAC006
:100E20000E94DC1C827281F30E948D10E3C0F801E5
:100E30008281C73CFCE5DF0731F4882309F4DAC07E
:100E40000E94BE0FD7C0C83CDC4530F4882309F4AB
:100E5000D1C00E94AF0FCEC0882309F4CBC00E943E
:100E6000CD0FC8C0C03DECE5DE0789F4F8018281F2
:100E7000882309F4BFC00E946B0E893020F00E94C5
:100E80006B0E8E3088F289E00E949D10B3C0C13D88
:100E9000FCE5DF0708F052C0CC3C8CE5D80741F4F4
:100EA000F8018281882309F4A5C00E949C0EA2C08B
:100EB000CD3C9CE5D907C0F4CA3CECE5DE0741F423
:100EC000F8018281882309F495C00E94EB0F92C03B
:100ED000CB3CDC4509F034CFF8018281882309F44A
:100EE00089C00E948B0E86C0F8018281CE3CFCE551
:100EF000DF0771F4882309F47DC00E946B0E8230F5
:100F000028F00E946B0E853008F48ECF82E0BCCFB3
:100F1000CF3CDC4528F4882309F46CC081E0B4CFD1
:100F2000882309F467C00E946B0E863028F00E9467
:100F30006B0E883008F478CF86E0A6CFC33DECE591
:100F4000DE0739F4F8018281882309F453C088E16F
:100F50009BCFC43DFCE5DF0738F5C13D8CE5D807E4
:100F600081F4F8018281882309F444C00E946B0E49
:100F70008F3028F00E946B0E843108F455CF8FE03B
:100F800083CFC23DDC4509F0DBCEF80182818823A6
:100F900089F10E946B0E853128F00E946B0E87311B
:100FA00008F442CF85E170CFC53DECE5DE0731F4B2
:100FB000F80182818823F1F083E266CFC53DFCE52C
:100FC000DF0778F4F80182818823A1F00E946B0E7C
:100FD000893128F00E946B0E823208F425CF89E116
:100FE00053CFCE3DDC4509F0ABCEF80182818111B3
:100FF0000E940F1E80E0DF91CF911F910F91089505
:1010000080E090E0089508959CE0799FF00111241C
:1010100090E3899FE00DF11D1124E60FF11DEE0F05
:10102000FF1FE252FF4F859194910895880F991FF9
:10103000FC01E250FE4F859194910895CF93DF9388
:101040000E9404080E94110AEC01811521E5920713
:1010500008F042C0811560E5960708F031C1883E6E
:10106000910500F5803E910508F0D7C1883A9105B9
:1010700070F4853A910508F0A6C08130910509F415
:10108000CCC108F47DC1049708F0C7C179C18F3B7A
:10109000910508F4A3C0803C910508F471C1805CFF
:1010A0009109FDC0C11580E3D80780F4C11590E215
:1010B000D90708F0F2C0C03FD10508F461C1CF3FA5
:1010C000D10511F008F0A9C1D065A7C1C11520E470
:1010D000D20708F0F2C0E7C0811569E5960760F510
:1010E000C11588E5D80708F037C1C11594E5D907BF
:1010F00078F4C11523E5D20708F013C1C11562E5E4
:10110000D60708F0F8C0DC2FCC27C16FD06A85C1A4
:10111000C11585E5D80708F41AC1C11596E5D907A8
:1011200008F02EC18C2F0E948E0A8F71C82FD0E03C
:10113000DC2FCC27D06271C18D3B2CE5920709F4DE
:1011400016C1F0F4CB3B8CE5D80709F40AC108F0CE
:101150000BC1C1152AE5D20708F012C18C2F8F7080
:101160000E948E0A94E0D695C7959A95E1F7CF70C4
:10117000D0E0DC2FCC27D06A8F70806EC82B4DC199
:10118000803C9C4509F4F9C0C13C8CE5D80760F46B
:10119000CE3B9CE5D90709F4EDC0CF3BDC4509F017
:1011A000EFC0C0E0D2ED39C1CE019056811590421A
:1011B00008F0E6C08D2F8F710E948E0ADD27D06265
:1011C0008F71D82B2AC1853A910509F4DCC0863A83
:1011D000910509F0DBC0C2E8D0E41FC1883A91054F
:1011E00009F4D7C0893A910509F4D6C08A3A910525
:1011F00009F4D5C08B3A910509F4D4C08C3A910515
:1012000009F4D3C08B3B910509F4D2C08C3B910506
:1012100009F4D1C08D3A910509F4D0C0803B910505
:1012200009F4CFC08E3A910509F4CEC08F3A9105EA
:1012300009F4CDC0813B910509F4CCC0823B9105F6
:1012400009F4CBC0833B910509F4CAC0843B9105E6
:1012500009F4C9C0853B910509F4C8C0863B9105D6
:1012600009F4C7C0873B910509F4C6C0883B9105C6
:1012700009F4C5C0893B910509F4C4C08D3B9105B3
:1012800009F4C3C08E3B910509F4C2C08A3B9105A5
:1012900009F4C1C0C0E0D4E4C0C0CE019F700E9478
:1012A0001608EC01BAC0CE019927D3FF03C0EC01A8
:1012B000D86CB3C0EC01D06CB0C0DF70D06AADC0E8
:1012C000837021E030E002C0220F331F8A95E2F7DD
:1012D0003C68CE0174E0969587957A95E1F7837026
:1012E000382BCF70C695C69580E2C89FE0011124C7
:1012F000C22BD32B92C04C2F4695469590E2499F26
:10130000A0011124C370DD2721E030E0C90102C033
:10131000880F991FCA95E2F7EC01C42BD52BDC6826
:101320007CC04C2F4695469580E2489FA001112431
:10133000C370DD2721E030E0C90102C0880F991F8A
:10134000CA95E2F7EC01C42BD52BDA6866C0DC2F16
:10135000CC27C46FD06A61C0DC2FCC27C06FD06AA5
:101360005CC0C0E0D4ED59C0C0E0D5ED56C0C0E0CF
:10137000D1ED53C0C0E0D0ED50C0C0E0D3ED4DC0C2
:10138000C0E0D0E04AC0C1E8D0E447C0C3E8D0E440
:1013900044C0C2EED4E441C0C9EED4E43EC0CAEEBB
:1013A000D4E43BC0C5EBD4E438C0C6EBD4E435C0CC
:1013B000C3EBD4E432C0C4EBD4E42FC0C7EBD4E415
:1013C0002CC0CCECD4E429C0CDECD4E426C0C3E8D6
:1013D000D5E423C0CAE8D5E420C0C2E9D5E41DC0E5
:1013E000C4E9D5E41AC0C1E2D6E417C0C3E2D6E42A
:1013F00014C0C4E2D6E411C0C5E2D6E40EC0C6E211
:10140000D6E40BC0C7E2D6E408C0CFE6D4E405C0FA
:10141000C0E7D4E402C0CAE2D6E4CE01DF91CF91A6
:1014200008958238910549F1B0F48133910509F4AA
:1014300058C048F48932910509F44EC08A329105AA
:1014400009F454C008958533910509F440C08933E7
:10145000910599F00895833E910529F138F4803E75
:10146000910591F0823E9105A1F00895863E910587
:10147000F9F0873E910531F108952091FF0120FD9B
:101480003AC021FD38C008958091FF0180FD35C02C
:1014900032C08091FF0182FF32C08091FF0184FD44
:1014A00030C083EE39C08091FF0182FD28C0F5CFA6
:1014B0008091FF0183FF27C08091FF0184FD21C03F
:1014C00087EE2AC08091FF0183FD1DC0F5CF80917A
:1014D000FF0185FD1AC01BC08091FF0185FD17C06B
:1014E00014C08091FF0186FD14C015C08091FF01DA
:1014F00086FD11C00EC080EE0FC089E30DC082EEE4
:101500000BC080E009C086EE07C089E205C085E314
:1015100003C08AE201C081E390E008959091FF0149
:1015200092FF0DC0282F2871283019F4877F84601E
:1015300006C0282F2471243011F48B7F886093FF1C
:101540000DC0282F2871283119F4877E846106C0C8
:10155000282F2471243111F48B7E886194FD877EBD
:10156000089508950895E82FF0E0EE0FFF1FEC5462
:10157000FF4F8081918108950895E9E8F0E041E00E
:1015800050E024E02E0F9191A92FA295AF70B0E00A
:10159000D1963C91D1979F70BA0102C0660F771F18
:1015A0009A95E2F7CB0180958323D1968C932E13E5
:1015B000EACFADE7B0E041E050E02CE02A0F8D919A
:1015C000E82FE295EF70F0E031A98F70BA0102C008
:1015D000660F771F8A95E2F7CB01962F909593239C
:1015E00091AB92A9892B82AB2A13E9CF1092BD004F
:1015F0001092BC001092B5001092B4001092BF007F
:101600001092BE001092B7001092B6001092C10066
:101610001092C0001092B9001092B8001092C3004E
:101620001092C2001092BB001092BA0084E00E9497
:10163000B30B0C94E7054F925F927F928F929F922B
:10164000AF92BF92CF92DF92EF92FF920F931F93D0
:10165000CF93DF9329E8422E20E0522EACEBB0E08E
:1016600020E001E010E05D018D909C9011971196B3
:101670001C921E92E20189912E01E82FE295EF70F3
:10168000F0E031A98F70A80102C0440F551F8A9560
:10169000E2F7CA01342B31AB42A9382F30954323EE
:1016A00042AB58E75A95F1F79DE7C92E90E0D92E45
:1016B00040E050E0E60179906E01672D62956F7011
:1016C00070E0EB01E8A86D917C911197F12CD72D7A
:1016D000DF7002C0F594E794DA95E2F7E0FC08C009
:1016E0007801042E02C0EE0CFF1C0A94E2F702C03F
:1016F000E12CF12C6E297F2911967C936E934F5F1C
:101700005F4F4C305105B1F691A9392331AB92A905
:10171000892B82AB129681E0F501408151818416BC
:10172000950609F480E0282BF0E0A43CBF0709F0FF
:101730009ACF44E064EB70E08CEB90E00E94B40B35
:101740000E946F0581E0DF91CF911F910F91FF9073
:10175000EF90DF90CF90BF90AF909F908F907F9051
:101760005F904F9008950895FF920F931F93CF932A
:10177000DF93F82E092F162FD72FC42F222349F0DD
:1017800081E08093C6000E94551E9093C50080930F
:10179000C4008091C6008823D9F08091C400909144
:1017A000C5000E94611E069798F0EF2DF02FA12F23
:1017B000BD2F80E090E04C2F50E08417950734F463
:1017C000219131912D933D930196F7CF1092C60050
:1017D000DF91CF911F910F91FF900895CF92DF92EB
:1017E000EF92FF920F931F93CF93DF937B01282FEC
:1017F000382FE82FF0E0F11006C0EB5EFC4F64914B
:10180000762F862F7BC00F2D10E046E0649FC0012D
:101810001124CFEFD0E0BE010E948D22AB016BEA14
:101820006403C001659F900D11248E0D911D8E0DD6
:10183000911D982F990F980FBE01601B710B6E9F21
:10184000D0016F9FB00D7E9FB00D11248B2F9F9DF7
:10185000B0011124672F77277E01E61AF70AB70136
:101860006E9F70016F9FF00C7E9FF00C11246E0133
:10187000C91AD108C09EB001C19E700DD09E700DD6
:101880001124672F7727C61BD70BCE9F8001CF9FD0
:10189000100DDE9F100D1124712F4230510591F073
:1018A0004CF441155105D9F041305105B1F4722F76
:1018B0002F2D15C04430510561F044F046305105DC
:1018C00071F00BC02B2F812F732F09C07F2D2B2F71
:1018D00002C0212F7B2F832F02C07B2F8F2DE22F61
:1018E000F0E0EB5EFC4F6491E72FF0E0EB5EFC4F25
:1018F0007491E82FF0E0EB5EFC4F8491DF91CF9183
:101900001F910F91FF90EF90DF90CF900895089571
:10191000CF93DF93762FE901682F842F0E94EE0B7F
:10192000698378838A83DF91CF9108950F931F9302
:10193000CF93DF93EC0100E010E080916200282F4C
:1019400030E00217130724F59091CA009801290F7F
:10195000311DA901440F551F240F351F24513E4F3F
:10196000869590E04C81081719071CF4442331F048
:1019700002C0411103C04091EA0101C040E0609102
:10198000E9018091E8010E94880C0F5F1F4FD5CFBD
:101990000E9405052C8130E02F5F3F4F21703327D7
:1019A0002C83DF91CF911F910F9108950F931F9377
:1019B000CF93DF938C01FC01848195810196817026
:1019C000992795838483C0E0D5E580916200C8178C
:1019D000F8F42091CA0030E02C0F311DC901880FA6
:1019E000991F280F391F24513E4F4C2F4695F8015F
:1019F00084819581840F911D81704091EA016091ED
:101A0000E9018D9F802D11240E94880CCF5FDDCFCE
:101A1000DF91CF911F910F910C940505CF93809189
:101A2000CA0090916300891770F4E82FF0E09F01DD
:101A3000220F331FE20FF31FE451FE4F1182108279
:101A400012828F5FF0CFC0E060916200C617B8F5D8
:101A5000EC2FF0E070E0CF010E94A1224091CA007B
:101A6000480F8091C800082E000C990B50E0E81731
:101A7000F907C4F020916100022E000C330B2E17E1
:101A80003F0784F09A01220F331F240F351F245182
:101A90003E4F4091EA016091E9018091E8010E9486
:101AA000880C0BC0FA01EE0FFF1F4E0F5F1FFA01EB
:101AB000E451FE4F118210821282CF5FC5CF0E9487
:101AC0000505209160008091C800820F8093C800B6
:101AD00090916100920F9093610019165CF4082EAA
:101AE000000C990B4091620050E04150510984175D
:101AF00095071CF0219520936000CF910895BF9227
:101B0000CF92DF92EF92FF920F931F93CF93DF93C9
:101B1000FC01828180FF02C00FEF01C001E010E0F4
:101B2000809162001817E0F5C12ED12C8091CA0077
:101B3000E601C80FD11DCE01880F991FC80FD91F0C
:101B4000C451DE4F198218821A8234E0E32EF12C40
:101B5000B12C8091C9008B0D87FF03C0909162006A
:101B6000890F082E000C990BC816D90691F48091A4
:101B7000EA018E9DA0018F9D500D1124559547952A
:101B8000559547959E016091E9018091E8010E9479
:101B9000880CB00EF1E0EF1AF108D9F61F5FC0CF44
:101BA0000E9405058091C900013031F4811102C005
:101BB00080916200815007C090E0019660916200C0
:101BC00070E00E94A1228093C900DF91CF911F9104
:101BD0000F91FF90EF90DF90CF90BF900895FF920C
:101BE0000F931F93CF93DF93EC01F12C0FEF10E0D5
:101BF00060916200F616E8F42091CA0030E02F0DE3
:101C0000311DC901880F991F280F391F24513E4FDC
:101C100070E0C8010E94A122962F8C814091EA01B8
:101C20006091E901F99E800D11240E94880CF394C3
:101C3000DFCF0E9405059A818C8190FF02C08F5FE3
:101C400001C081508C83DF91CF911F910F91FF9044
:101C500008958091E701282F269530E02115310560
:101C600019F48170826005C02532310524F081703D
:101C700088648093E701089588E090E00C940C2339
:101C8000CF93DF9300D000D0CDB7DEB7AB01BC015E
:101C900049835A836B837C830E94290E49815A8130
:101CA0006B817C8188E090E00F900F900F900F90F7
:101CB000DF91CF910C942923E7EEF1E083E080835C
:101CC00011828FEF8283838314826081718182818C
:101CD00093810C94400E8091E70180FF02C08695AD
:101CE000089580E00895E7EEF1E080818E7F8083A3
:101CF00060817181828193810E94400E1092D30095
:101D00002FEB84ED91E0215080409040E1F700C03E
:101D100000000C9405058091EB01833018F48F5F6F
:101D20008093EB016091E7017091E8018091E901F6
:101D30009091EA010C94400E8091EB01882319F0F8
:101D400081508093EB016091E7017091E8018091EF
:101D5000E9019091EA010C94400E9091E70190FF07
:101D600016C09091CA0020916300921770F4E92F79
:101D7000F0E0DF01AA0FBB1FEA0FFB1FE451FE4F8B
:101D80008183608342839F5FF0CF0C9405050895A3
:101D9000CF93DF9300D01F92CDB7DEB79091E701CC
:101DA00090FF0AC09E012F5F3F4F0E94880C4B811D
:101DB00069818A810E94AD0E0F900F900F90DF9184
:101DC000CF910895CF93DF93EC01EC81F0E0E05FD9
:101DD000FD4F4491E7EEF1E0628181810E94C80EDF
:101DE0008C818F5F8C83DF91CF910895CF93DF93A8
:101DF000EC01E7EEF1E0438162818C810E94C80E24
:101E00008C818F5F8C83DF91CF910895AF92BF92C9
:101E1000CF92DF92EF92FF920F931F93CF93DF93B6
:101E200000D01F92CDB7DEB7182FF62E042FE22E6A
:101E30009091E70190FF6EC0E92FE695AE2FB0E0DC
:101E4000A357BF4F8C918093D2009E7F923061F454
:101E50009E012F5F3F4F812F0E94880C4B8169812B
:101E60008A810E94AD0E44C0823019F40091EA01CB
:101E70003FC0863019F41091E8013AC08930D9F397
:101E80008931B1F5E9518E2F8170D82EE695F0E0B9
:101E9000E05FFC4FA590B490C12CBB246091620020
:101EA000C61620F5EC2DF0E0EA9DC001EB9D900DEB
:101EB000FA9D900D112470E00E948D22812FD11087
:101EC00002C0860F01C0861B9091CA00E90FF11D68
:101ED0009F01220F331FE20FF31F9F0124513E4F3A
:101EE000402F6F2D0E94880CC394D8CF0E94050507
:101EF0001093E801F092E9010093EA01EE2051F01D
:101F00006091E7017091E8018091E9019091EA0107
:101F10000E94400E0F900F900F90DF91CF911F9174
:101F20000F91FF90EF90DF90CF90BF90AF9008950A
:101F3000E7EEF1E09181282F4381628188E0890FEB
:101F40000C94060F81E00C94980FE7EEF1E091817C
:101F5000282F4381628188EF890F0C94060F81E05E
:101F60000C94A50FE7EEF1E0628121E1620F08F425
:101F70006FEF282F438181810C94060F81E00C9430
:101F8000B20FE7EEF1E0628121E1621B08F460E04C
:101F9000282F438181810C94060F81E00C94C10F9E
:101FA000E7EEF1E0438121E1420F08F44FEF282FE3
:101FB000628181810C94060F81E00C94D00FE7EED2
:101FC000F1E0438121E1421B08F440E0282F6281C7
:101FD00081810C94060F81E00C94DF0F20E00C94BB
:101FE000060F0F931F93CF93DF9300D01F92CDB7AF
:101FF000DEB78C018091C70081110AC09E012F5F5E
:102000003F4F4FEF6FEF0E94880C8A818093C7008B
:10201000F8018481813051F028F0823061F44091E0
:10202000C7000AC08091C70040E007C06091C700A8
:1020300040E080E003C040E080E060E00E94AD0E40
:10204000F801248130E0C901019663E070E00E944C
:10205000A12284830F900F900F90DF91CF911F9159
:102060000F9108956091E701669570E04BE050E0B4
:1020700084E690E00E94F722892B19F481E0809396
:10208000D3000E94551E9093CC008093CB000895FE
:102090009091E70190FF35C09170811102C092606C
:1020A00006C0853210F0986402C0880F982B909378
:1020B000E701662351F06091E7017091E80180919A
:1020C000E9019091EA010E94400E6091E701669556
:1020D00070E04BE050E084E690E00E94F722892B0C
:1020E00019F01092D30002C00E94321081E0809358
:1020F000CE004091EA016091E9018091E8010C94E1
:10210000EE0F0895682F9091E701969581E0890F71
:10211000853208F081E00C94481081E00C94821024
:10212000682F9091E70196958FEF890F09F484E26B
:102130000C94481081E00C94901061E00C944810CD
:10214000E7EEF1E080818160808386950C949D109C
:102150008091E70180FD0C94730E0C94A01060E058
:102160000C9448108091D100811133C080915201AC
:102170008160809352010E948C1D811104C00E94D5
:102180000F1E0E945C0E0E943C0E6093E70170934C
:10219000E8018093E9019093EA016E7F61F40E9467
:1021A0005C0E0E943C0E6093E7017093E8018093FF
:1021B000E9019093EA010E94290E1092D3008091C8
:1021C000E70180FF03C086950E94AF1081E08093F5
:1021D000D10008950F931F93CF93DF938091D30085
:1021E000882309F48CC08091D200E091E701E69544
:1021F000E81BE093CD00823049F4F0E0E45FFD4F4E
:10220000E491CE2FD0E002EE1EE049C0863049F4C2
:10221000F0E0E75FFD4FE491CE2FD0E006EF1EE047
:102220003EC0893051F4E695F0E0EA5FFD4FE4915D
:10223000CE2FD0E00FEE1DE032C08F3051F4E69586
:10224000F0E0ED5FFD4FE491CE2FD0E00FE71DE011
:1022500026C0853149F4F0E0E050FE4FE491CE2FE6
:10226000D0E00EE01DE01BC0883181F0833239F4EC
:10227000EEEFF1E0C591D49101EF1FE010C0843280
:1022800051F4C4EFD1E006E91CE009C0C8EED3E088
:1022900006ED1CE004C0C0EDD7E007E81CE080912B
:1022A000CE00882389F01092CE000E94551E9E0118
:1022B00020953095820F931F9093CC008093CB0094
:1022C0001092D0001092CF008091CB009091CC0062
:1022D0000E94611E8C179D0790F0E091CB00F09159
:1022E000CC00CE0FDF1FD093CC00C093CB008BEC83
:1022F00090E0F801DF91CF911F910F910994DF9148
:10230000CF911F910F9108950F931F93CF93DF9358
:10231000C62FD42F022FFC0182818823C9F060933D
:10232000D6000E94551E9093D5008093D40080E281
:102330008C0F883008F050C0C77081E001C0880F52
:10234000CA95EAF7DF91CF911F910F910C948514F4
:102350001091D600161330C08091D4009091D50012
:102360000E94611E883C910538F5C0E2CD0F1D1713
:10237000B9F080E2810F883040F4177081E001C02D
:10238000880F1A95EAF70E948C14C83048F481E04F
:102390009D2F977001C0880F9A95EAF70E948514C7
:1023A000802F0E947214C830B8F4D77081E001C049
:1023B000880FDA95EAF70AC080E28C0F883060F463
:1023C000C77081E001C0880FCA95EAF7DF91CF910D
:1023D0001F910F910C948C14DF91CF911F910F914D
:1023E00008959C01CB01203F4CE53407F9F078F4C7
:1023F000283DFCE53F07B9F0293D4CE5340711F1D4
:10240000273D3C4531F526E241EE61EE1EC0223FFC
:10241000FCE53F0799F070F0233F3C45D1F427E2FB
:1024200045EE66EE12C027E245EE0EC026E241EE12
:1024300060EE0BC027E245EE64EE07C026E241EEF7
:1024400062EE03C028E241E065EE0E94841180E064
:102450000895FC018281882319F01092D600089516
:1024600081E008959093DC008093DB000895E09173
:10247000DB00F091DC00309721F00190F081E02D3D
:10248000099480E00895E091DB00F091DC00309742
:1024900021F00280F381E02D099408952091D90064
:1024A0003091DA008217930771F09093DA008093ED
:1024B000D900E091DB00F091DC00309721F006803C
:1024C000F781E02D099408952091D7003091D8002C
:1024D0008217930771F09093D8008093D700E09112
:1024E000DB00F091DC00309721F00084F185E02DD5
:1024F00009940895089508950C947B1208950C94FE
:102500007E120E947A120C947C1281E008950E943F
:102510004E1E0E94BD0A0E94CA1E0E94E31E0E9417
:10252000B2100C947F124F925F927F928F929F9283
:10253000AF92BF92CF92DF92EF92FF920F931F93D1
:10254000CF93DF93CDB7DEB72A970FB6F894DEBFEF
:102550000FBECDBF0E941B0B0E948512811111C0BE
:102560008FEF89838A831B820E94551E8160782F9A
:102570009D838C8349815A816B818D810E944F1389
:1025800057C09EEDC92E90E0D92E00E010E0AA249D
:10259000A394B12C702E802F0E94B30A4C01F60137
:1025A000419051906F01482659264114510431F44D
:1025B0000F5F1F4F0430110569F7D2CF8091520190
:1025C00081FD0E94BC0A20E030E07501022E02C0AD
:1025D000EE0CFF1C0A94E2F7C70184219521892B98
:1025E00009F12E837F828E209F2091E0892809F4B3
:1025F00090E098870E94551E8160782F9A8789877E
:102600004E815F8168858A850E944F13000F111FDC
:10261000F801E252FF4F80819181E826F926F1828C
:10262000E08206C02F5F3F4F2C30310571F6C0CFDE
:102630001091DD000E9437121817D9F00E9437124E
:102640008093DD002A960FB6F894DEBF0FBECDBF93
:10265000DF91CF911F910F91FF90EF90DF90CF907E
:10266000BF90AF909F908F907F905F904F900C9411
:10267000F4052A960FB6F894DEBF0FBECDBFDF91EA
:10268000CF911F910F91FF90EF90DF90CF90BF906F
:10269000AF909F908F907F905F904F900895CF93D1
:1026A000DF93CDB7DEB72B970FB6F894DEBF0FBE22
:1026B000CDBF4F83588769877A878B87DE01119654
:1026C00086E0FD0111928A95E9F785E0FE013796D3
:1026D00001900D928A95E1F749815A816B817C8145
:1026E0008D819E810E94D1192B960FB6F894DEBF82
:1026F0000FBECDBFDF91CF910895FC018081918104
:102700000E949D1C0895882309F4BFC0682F8CEF98
:10271000860F813A38F480916F00909170000E948A
:10272000431E0CC080E2860F883050F4677081E051
:1027300001C0880F6A95EAF70E94DF1C0C94281DDF
:102740008BE5860F833070F4653A29F0663A31F0F4
:1027500083E890E005C081E890E002C082E890E064
:102760000C944E1288E5860F873108F08EC0683AC7
:1027700009F445C0693A09F445C06A3A09F445C00C
:102780006B3A09F445C06C3A09F445C06B3B09F457
:1027900045C06C3B09F445C06D3A09F445C0603B47
:1027A00009F445C06E3A09F445C06F3A09F445C0D2
:1027B000613B09F445C0623B09F445C0633B09F441
:1027C00045C0643B09F445C0653B09F445C0663B20
:1027D00009F445C0673B09F445C0683B09F445C0AE
:1027E000693B09F445C06D3B09F445C06E3B09F4F3
:1027F00045C06A3B09F445C080E090E044C082EEE9
:1028000090E041C089EE90E03EC08AEE90E03BC08F
:1028100085EB90E038C086EB90E035C083EB90E02C
:1028200032C084EB90E02FC087EB90E02CC08CECA2
:1028300090E029C08DEC90E026C083E891E023C0B1
:102840008AE891E020C082E991E01DC084E991E02E
:102850001AC081E292E017C083E292E014C084E2E1
:1028600092E011C085E292E00EC086E292E00BC0D9
:1028700087E292E008C08FE690E005C080E790E034
:1028800002C08AE292E00C9464120895882349F110
:10289000682F8CEF860F813A38F480916F00909109
:1028A00070000E94451E0CC080E2860F883050F4F4
:1028B000677081E001C0880F6A95EAF70E94E51C05
:1028C0000C94281D8BE5860F833020F480E090E087
:1028D0000C944E12685A673120F480E090E00C941A
:1028E00064120895CF93C82F0E948313C93349F40B
:1028F0002FEF82E597E0215080409040E1F700C043
:1029000000008C2FCF910C944614882321F00E9454
:10291000DF1C0C94281D0895882321F00E94E51CDB
:102920000C94281D08954F925F926F927F92BF92F0
:10293000CF92DF92EF92FF920F931F93CF93DF938B
:102940007C01D62FC72FFC01058102950F701281E3
:1029500011110E94FC1C0E94D51C882379F01123C0
:1029600069F080E28D0F883048F082E00E94731D8C
:102970000E94D51C91E0B82EB92601C0B12CCC2EF6
:10298000C2948FE0C822D12CF601E45CFF4F0C9476
:10299000D7228C2F807FCF70882311F0C295C07F03
:1029A000112399F0CC2309F48EC180E28D0F883079
:1029B00010F0D11104C08C2F0E94DF1C03C08C2F9B
:1029C0000E94EF1C0E94281D7EC18D2F0E9446147C
:1029D000CC2309F4C1C180E28D0F883010F0D111F1
:1029E00004C08C2F0E94E51C03C08C2F0E94F51C94
:1029F0000E94281DB1C18C2F807FCF70803211F0D2
:102A0000C295C07FDD2319F0D130C9F022C0112357
:102A100071F0002341F0013031F40E940F1D8C2B26
:102A20000E94151D99C10E940F1D8C2B1DC00023F3
:102A300019F0013009F490C10E941E1D1AC0112323
:102A400021F0063008F088C10EC0053008F084C1BE
:102A500010C0112361F0002331F0F701858180FF60
:102A600032C18F7085838C2F0E94851475C101112E
:102A70003BC18C2FE6C08C2F86958695837090E0A5
:102A8000009719F0019761F067C1112321F08D2F94
:102A90009C2F937002C080E090E00E944E126CC1A7
:102AA000112321F08D2F9C2F937002C080E090E0C5
:102AB0000E94641261C18C2F837009F050C0111103
:102AC00057C18D2F829586958770880F880F9D2F0F
:102AD0009F70492E512C612C712C082E04C0440C7F
:102AE000551C661C771C0A94D2F7D4FF14C00FE063
:102AF00010E020E030E0B901A80104C0440F551FE8
:102B0000661F771F8A95D2F7CB01BA016095709541
:102B10008095909503C060E070E0CB01C695C695A6
:102B2000C370D0E0C230D10561F0C330D10581F06F
:102B30006429752986299729219771F00E94161B0F
:102B400017C164297529862997290E94281B10C15D
:102B50000E94161BC301B2010E94041B09C111236C
:102B600019F08C2F817001C08695882309F400C16B
:102B70008D2F829586958770880F880F9D2F9F7067
:102B8000492E512C612C712C082E04C0440C551C6C
:102B9000661C771C0A94D2F7D4FF14C00FE010E033
:102BA00020E030E0B901A80104C0440F551F661FA2
:102BB000771F8A95D2F7CB01BA0160957095809501
:102BC000909503C060E070E0CB01C695C695C370D8
:102BD0004C2F50E04230510569F04330510589F0E7
:102BE00064297529862997294130510571F00E9481
:102BF000DC1BBEC064297529862997290E94EE1B1B
:102C0000B7C00E94DC1BC301B2010E94CA1BB0C046
:102C10008D2F90E0FC01E05EF109E531F10508F04F
:102C20004EC0E45BFF4F0C94D722DF708C2F8F7166
:102C3000112321F00E94631B8D2F16CF0E94841B4D
:102C40008D2F0E948C1488C0112341F0053008F0AC
:102C500083C08C2F8F710E94A91B7EC0063008F0A4
:102C60007BC0F7CF112339F08C2F8F710E94631B2B
:102C700073C01123C9F38C2F8F710E94841B6CC009
:102C8000112329F08C2F8F710E944E1B65C00E946A
:102C9000491B62C0112349F0CF718C2F0E94631B26
:102CA00063E08C2F0E945E1D57C081E00E94731D5F
:102CB000023008F451C082E00E94731D4DC0112300
:102CC00031F0002389F28D2F0E94831345C0002329
:102CD00091F2D93349F45FEF62E577E051506040FB
:102CE0007040E1F700C000008D2F0E94461434C0F0
:102CF0004C2F4F706D2FC7010E9400080E94751A5B
:102D00003BC0111139C0CF70D0E0C230D10599F06D
:102D10003CF4209769F02197F9F40E941D1F2CC004
:102D2000C430D10571F054F02597B1F480E00AC0A9
:102D30000E94001F21C00E945C1F1EC00E94631FD2
:102D40001BC08CE00E94861F17C04C2F4F706D2F48
:102D5000C7010E94030810C088E0C816D10441F0E2
:102D60005CF0EAE0CE1AD108F2E0CF16D10420F4EC
:102D70000E9437120E94F405BB20F1F00E94D11C82
:102D800080FD1AC0F70112820E94CB1C0E94631BB7
:102D9000C7010E94EA160E94CB1CDF91CF911F91C0
:102DA0000F91FF90EF90DF90CF90BF907F906F904A
:102DB0005F904F900C94841BDF91CF911F910F91E6
:102DC000FF90EF90DF90CF90BF907F906F905F90DB
:102DD0004F9008950F931F93CF93DF93EC01888159
:102DE00099812B813C81232BB9F09F3F11F48F3FB8
:102DF00099F0CE010E940606882371F068817981DE
:102E00008A810E94A81C8C010E94001C0E94011B48
:102E1000B801CE010E949314DF91CF911F910F91C1
:102E200008950E94FC1C0E940C1D0E94281D80E039
:102E300090E00E944E1280E090E00C946412809129
:102E40006F00909170000E94471E0C9411170E9411
:102E5000EC1C0C941F17E92FE295EF70F0E032970D
:102E6000EE30F105B0F4EF59FF4F0C94D722803FBC
:102E700091F018F4803E68F40EC0843F51F40BC00A
:102E8000803E48F0813F29F406C093FB882780F9F3
:102E9000089580E0089581E008950E949D1C0E949D
:102EA0002B170895CF93DF9300D000D01F92CDB79A
:102EB000DEB70F900F900F900F900F90DF91CF9192
:102EC0000895CF93DF9300D000D000D0CDB7DEB708
:102ED00026960FB6F894DEBF0FBECDBFDF91CF911F
:102EE00008951F93CF93DF93C091E70016E0809180
:102EF000E800C81799F0D0E01C9FF0011D9FF00D6D
:102F00001124E751FF4F4081518162817381848197
:102F100095810E9461172196C770E9CFDF91CF910B
:102F20001F9108954091190150911A0160911B0160
:102F300070911C0180911D0190911E010C946117EC
:102F400080911E0182958F7009F054C080911B0101
:102F5000882309F44FC08091E700A091E8006091B8
:102F6000190170911A0140911C0150911D01B6E0A8
:102F70008A1709F43FC090E041155105C1F17F3F28
:102F800011F46F3FA1F1B89FF001B99FF00D11242A
:102F9000E751FF4F218172132AC02081621327C09D
:102FA0002281211124C0238134812417350710F494
:102FB00021503109241B350B283C3105C0F42091E8
:102FC0001E012F70206120931E0126E0289FF00132
:102FD000299FF00D1124E251FF4F80818F70806195
:102FE000808389E191E00E94EA160C9471170196A2
:102FF0008770BECF0895CF92DF92EF92FF920F932A
:103000001F93CF93DF93CDB7DEB762970FB6F894D7
:10301000DEBF0FBECDBF8C0185E0F801DE011D963D
:1030200001900D928A95E1F7D8014C9111965C912F
:10303000119712966C9112971396CD90DC9014977D
:103040003091190170911A0180911C0190911D011C
:10305000009709F46BC17F3F19F43F3F09F466C143
:10306000E0901B01EE2009F4C0C020911E01C8169B
:10307000D90628F0F601E81BF90BCF0104C08095B2
:1030800090958C0D9D1DFF24F394883C910578F05C
:10309000F12C207F09F0C6C07C2DD98AC88A898985
:1030A0000E94521789E191E00E94EA16B1C0822F76
:1030B000807F09F046C0751314C0341312C061112B
:1030C00010C02F70206120931E010E94921789E189
:1030D00091E00E94EA1680911E01D80115968C930A
:1030E0002EC0CD2819F15F3F11F44F3FF9F0F62EB5
:1030F00061111CC08091E7002091E80036E0821742
:1031000009F45AC090E0389FF001399FF00D112466
:10311000E751FF4F7181571306C07081471303C0F9
:103120007281711103C001968770E9CFF62E662374
:1031300009F427C180911E01816080931E01F12C4A
:1031400020C1751308C0341306C0611104C08091FA
:103150001E01D801C3C04D875E878D859E856A8B11
:103160000E944D176A898823E1F16623D1F12091ED
:103170001E01822F82958F7090E0029774F08091EB
:10318000190190911A0198878F831986DB86CA8668
:103190002C87CE0107960E94EA1686E0F801A9E185
:1031A000B1E001900D928A95E1F70E94A0170E946C
:1031B0009217FF24F394E5C04D875E878D859E8529
:1031C0000E949D1C292F22952F7030E0223031055E
:1031D0000CF0CBC09F7009F0C5C0805E883008F449
:1031E000D0C0C8010E94EA16E4CFC816D90608F478
:1031F00053C0F601E81BF90BCF01883C910508F498
:1032000050C0F12C7C2DD98AC88A89890E94521716
:10321000E9E1F1E086E0DF011D928A95E9F70E947D
:103220009217AFC0751314C0341312C0611110C0CF
:1032300080911E01F8018583C8010E94EA1686E08C
:10324000E9E1F1E0DF011D928A95E9F7FE2C99C0D2
:103250004D875E878D859E856A8B0E944D176A8992
:10326000882309F4BECF662309F4BBCF20911E0149
:10327000822F82958F7090E002970CF48ECF809110
:10328000190190911A019A8389831B82DD82CC8275
:103290002E83CE0101967FCF809590958C0D9D1D3C
:1032A000ACCFF62E662309F49CCF75132EC03413D1
:1032B0002CC020911E0120FD1FC0822F82958F708F
:1032C000D9F0D80115962C9315978F3049F08F5F60
:1032D000982F9295907F822F8F70892B15968C93C3
:1032E000C8010E94EA1686E0F801A9E1B1E0019068
:1032F0000D928A95E1F793CF86E0F801A9E1B1E05C
:1033000001900D928A95E1F73CC04D875E878D85CF
:103310009E850E944D17811140CF80911E018160D2
:1033200080931E01C8010E94EA162BC0662309F48F
:1033300058CF4D875E878D859E850E944D17F82E4C
:10334000882309F44ECF86E0F801A9E1B1E00190AD
:103350000D928A95E1F789E191E00E947D130E9428
:10336000A0175DCF811139CF0CC0243031050CF08E
:1033700038CF9F7009F431CFF8019581907F09F023
:103380002CCF8F2D62960FB6F894DEBF0FBECDBF47
:10339000DF91CF911F910F91FF90EF90DF90CF9031
:1033A00008951F93CF93DF93CDB7DEB72C970FB659
:1033B000F894DEBF0FBECDBF4F83588769877A87E9
:1033C0008B879C87CE0107960E94FB17882369F0A4
:1033D0008F8198852A853B85232BF1F19F3F09F04A
:1033E00063C08F3F09F060C037C086E0FE013796AA
:1033F000DE01119601900D928A95E1F76F81788533
:10340000EA85FB85309741F17F3F11F46F3F21F151
:103410002091E80030E0C90101968770992740911A
:10342000E70050E08417950709F447C069837A8361
:10343000FD83EC8396E0929FD001939FB00D112401
:10344000A751BF4FFE01319601900D929A95E1F779
:103450008093E8000E94711716E08091E700909138
:10346000E8008917C1F1189FC001112487519F4FAF
:103470000E94FB17882379F1E091E7001E9FF0017D
:103480001124E751FF4F4081518162817381848112
:1034900095810E9461178091E70090E00196877006
:1034A00099278093E700D9CF4F81588569857A8520
:1034B0008B859C850E946117CFCF0E9427171092A1
:1034C000E8001092E700E9E1F1E086E0DF011D92FB
:1034D0008A95E9F7C1CF2C960FB6F894DEBF0FBEE0
:1034E000CDBFDF91CF911F910895EF92FF920F937F
:1034F0001F93CF93DF938C01892B09F46CC0F12CBF
:10350000EE24E394E8012196F8018491843740F495
:10351000843008F051C0813081F0823019F15BC0F5
:10352000853709F444C0A8F19CE7980F903708F05C
:1035300052C08F770E94461441C00E5F1F4FFE019C
:10354000C49180E28C0F883048F4C7708E2D01C082
:10355000880FCA95EAF70E94FF1C14C08C2F0E94A6
:1035600083132DC00E5F1F4FFE01C49180E28C0FAC
:10357000883058F4C7708E2D01C0880FCA95EAF7BD
:103580000E94051D0E94281D1AC08C2F0E944614FF
:1035900016C00E5F1F4FFE01C491CC2381F087EB54
:1035A0009BE00197F1F700C00000C150F6CF0E5F1D
:1035B0001F4FFE01F49003C00E9483138E018F2DD4
:1035C000882309F49FCFE7EBFBE03197F1F700C0C8
:1035D00000008150F5CFDF91CF911F910F91FF90A7
:1035E000EF90089508950C94F21A0E94F31A6093D4
:1035F00041017093420180934301909344010C94E4
:10360000111708950C94F51A0F931F93009141011F
:10361000109142012091430130914401602B712BA4
:10362000822B932B1F910F910C94F51A0F931F93DC
:1036300000914101109142012091430130914401D8
:1036400060237123822393231F910F910C94F51A09
:103650000F931F930091410110914201209143016A
:103660003091440160277127822793271F910F9182
:103670000C94F51A08950C943A1B0E943B1B60931E
:103680003D0170933E0180933F01909340010C9463
:10369000111760E070E0CB010C943D1B0F931F935A
:1036A00041E050E060E070E08A019B0104C0000F3F
:1036B000111F221F331F8A95D2F7C901B8011F912C
:1036C0000F910C943D1B0F931F9341E050E060E07D
:1036D00070E004C0440F551F661F771F8A95D2F70C
:1036E00080913D0190913E01A0913F01B091400138
:1036F0008A019B01082B192B2A2B3B2BC901B801EE
:103700001F910F910C943D1B0F931F9341E050E0CC
:1037100060E070E004C0440F551F661F771F8A9554
:10372000D2F7409550956095709580913D019091AC
:103730003E01A0913F01B09140018A019B01082305
:1037400019232A233B23C901B8011F910F910C941F
:103750003D1B0F931F9341E050E060E070E004C018
:10376000440F551F661F771F8A95D2F780913D0140
:1037700090913E01A0913F01B09140018A019B01CF
:10378000082719272A273B27C901B8011F910F9144
:103790000C943D1B0F931F9300913D0110913E012E
:1037A00020913F0130914001602B712B822B932B94
:1037B0001F910F910C943D1B0F931F9300913D019E
:1037C00010913E0120913F0130914001602371230F
:1037D000822393231F910F910C943D1B0F931F93F2
:1037E00000913D0110913E0120913F013091400137
:1037F00060277127822793271F910F910C943D1BFF
:1038000008952CE0929F800D1124A82FA695A695CF
:10381000A695877051E001C0550F8A95EAF785E0BB
:10382000A89FD001112420E030E070E0F901EA0FF8
:10383000FB1FE15EFE4F4081CB01022E02C0969538
:1038400087950A94E2F781709927819584278523CB
:10385000842780832F5F3F4F2530310539F7089546
:103860002CE0929F800D1124682F669566956695D1
:10387000982F977085E0689FB001112440E050E0D8
:1038800080E0FA01E60FF71FE15EFE4F208130E095
:10389000092E02C0369527950A94E2F72170332746
:1038A000042E01C0220F0A94EAF7822B4F5F5F4F6C
:1038B0004530510531F70895BF92CF92DF92EF92D4
:1038C000FF920F931F93CF93DF938C01C090410120
:1038D000D0904201E0904301F090440180913D017D
:1038E00090913E01A0913F01B0914001C82AD92A90
:1038F000EA2AFB2ACFE1D0E0D701C6010C2E04C092
:10390000B695A795979587950A94D2F780FF07C03B
:10391000BC2EB8018C2F0E941E08019719F4219724
:1039200058F7B12C8B2DDF91CF911F910F91FF9004
:10393000EF90DF90CF90BF900895CF93DF93EC018D
:103940000E945C1CBE010E941E08DF91CF91089569
:103950001F93CF93DF93EB019091E600992321F021
:10396000CB010E949D1C13C0882349F0CB010E940B
:103970005C1C182F682FCE010E94011C04C0CB01D3
:103980000E94301C182FBE01812F0E941E08DF915B
:10399000CF911F91089580914501859585958595D5
:1039A0000895809145018770089590914501977021
:1039B00081E009F480E0089580915101089590918B
:1039C0005101892B80935101089580959091510167
:1039D0008923809351010895109251010895909187
:1039E0005001892B8093500108958095909150014A
:1039F0008923809350010895109250010895909169
:103A00004F01892B80934F010895809590914F012C
:103A1000892380934F01089510924F01089580915A
:103A20004601089508950C94121D9091460198172F
:103A300021F0809346010C94131D08958091460156
:103A4000882329F01092460180E00C94131D0895FC
:103A5000E0916F00F0917000809151018083E091BE
:103A60006F00F0917000908180915001892B8083CC
:103A7000E0916F00F0917000908180914F01892B4F
:103A8000808380914601882381F0E0916F00F0915E
:103A900070009081892B808380916F0090917000DD
:103AA0000E94111E81110E941E1D80916F00909135
:103AB00070000C94431208950C945B1D98E0899F4C
:103AC00090011124262B209345010E94631B8091B5
:103AD00045018595859585950C945C1D1092450151
:103AE00080E00C945C1D2091450180958223809399
:103AF0004501982F977079F430E0482F082E000C7C
:103B0000550B2417350739F08595859585950E94C5
:103B1000841B0C946E1D089580E090E00E94122397
:103B200021E08D3E9E4F09F020E0822F089582E033
:103B300090E00C94042383E090E00C94042384E050
:103B400090E00C940423682F84E090E00C941823F8
:103B500086E090E00C940423682F86E090E00C94BB
:103B60001823AB01BC018FE090E00C942923AB013A
:103B7000BC0183E190E00C94292360E070E0CB016C
:103B80000C94B71D60E070E0CB010E94B11D0C9455
:103B9000BD1D6DEE7EEF80E090E00E94352360E079
:103BA00082E090E00E94182360E083E090E00E94B1
:103BB0001823109241011092420110924301109279
:103BC000440160E084E090E00E94182360E085E01A
:103BD00090E00E94182360E086E090E00E941823A5
:103BE0006FEF87E090E00E94182340E050E0BA01B8
:103BF00088E090E00E94292360E08DE090E00E9440
:103C0000182340E050E0BA0188E190E00E942923A7
:103C100060E087E190E00E9418230C94C21D0C9490
:103C2000C91DFC01329697E080E0915029F0219166
:103C30002223D9F38F5FF9CF08959C01FC013296BE
:103C40009FEF80E04191461789F09F3F19F44111A1
:103C500001C0982F8F5F8630A9F79F3F39F0F90197
:103C6000E90FF11D97FDFA95628308950895FC010F
:103C7000329608962081261301C010823196E817EB
:103C8000F907C1F708950C941D1E0C94371E029677
:103C900026E0FC0111922A95E9F708958BE083BF95
:103CA0008BEB8CBF82E089BF08952FB7F894809189
:103CB000FB019091FC01A091FD01B091FE012FBF8D
:103CC0000895CF92DF92EF92FF920F931F932FB739
:103CD000F8944091FB015091FC016091FD017091BD
:103CE000FE012FBF6A017B01EE24FF248C0120E03E
:103CF00030E0C016D106E206F30610F44150510937
:103D00009A01281B390BC9011F910F91FF90EF9069
:103D1000DF90CF90089578941F920F920FB60F9274
:103D200011248F939F93AF93BF938091FB01909148
:103D3000FC01A091FD01B091FE010196A11DB11DF4
:103D40008093FB019093FC01A093FD01B093FE01D1
:103D5000BF91AF919F918F910F900FBE0F901F90C9
:103D6000189560E081E090E00E943B2387E090EBB3
:103D7000DC018093450290934602A0934702B093E2
:103D800048029CE088E10FB6F894A89581BD0FBE6B
:103D900091BDFFCF0E948C1D811102C00E940F1E99
:103DA0000E94971D809352010E949F1D90E0909366
:103DB00000028093FF010E949B1D682F70E080E04D
:103DC00090E00C94021B0E948C1D811102C00E9485
:103DD0000F1E0E94A81D80930102282F269530E017
:103DE0002D30310524F0817088618093010280912B
:103DF000010280FF02C0869501C080E00C9482051C
:103E000020910102822F8695482F50E04C305105B9
:103E100044F48F5F982F990F822F8170892B8093A4
:103E20000102809101028160809301020E94AC1D19
:103E30008091010286950C94820580910102982F51
:103E4000969591F09158990F8170892B809301027A
:103E50008E7F91E009F490E08091010290FB80F95F
:103E6000809301020E94AC1D8091010286950C9402
:103E700082058091010280FD11C081608093010262
:103E8000813019F483E080930102809101020E9445
:103E9000AC1D8091010286950C9482050895809155
:103EA000010280FF08C08E7F809301020E94AC1D3A
:103EB00080E00C94820508958091010280FD0C94AD
:103EC0004F1F0C94391F90910102892F86958F5FA7
:103ED0008F7791708D3028F4880F892B80930102A1
:103EE00002C090930102809101028E7F91E009F45B
:103EF00090E08091010290FB80F9809301020E9482
:103F0000AC1D8091010286950C9482058D3008F0DD
:103F10008CE0880F909101029170892B80930102AF
:103F20008E7F91E009F490E08091010290FB80F98E
:103F3000809301020E94AC1D8091010286950C9431
:103F400082050E94551E8C010E9481120E948712D8
:103F50000E9498200E9432120E946A228B9A90E05E
:103F6000915041F0A895E7EBFBE03197F1F700C0E5
:103F70000000F6CF8B987894C0E080911C028823D3
:103F800031F010921C020E94551E8C0109C0C8011C
:103F90000E94611E069710F0C1E0EFCFC111EDCF76
:103FA0000E94582180912202882329F080910D02DD
:103FB00084FD0E9493120E944C20DECF8091E50187
:103FC0000895CF93DF9300D01F92CDB7DEB7209135
:103FD0005501309156018217930789F0909356014D
:103FE0008093550124E029839B838A838091390241
:103FF00084FF05C063E0CE0101960E9454210F901A
:104000000F900F90DF91CF910895CF93DF9300D061
:104010001F92CDB7DEB72091530130915401821722
:10402000930789F0909354018093530123E02983EF
:104030009B838A838091390284FF05C063E0CE01AF
:1040400001960E9454210F900F900F90DF91CF9115
:104050000895CF93DF9300D000D000D0CDB7DEB766
:10406000FC0182E0898395E0DE01129601900D92B9
:104070009A95E1F78091390284FF05C066E0CE0190
:1040800001960E94542126960FB6F894DEBF0FBE0B
:10409000CDBFDF91CF910895CF93DF93CAE0D0E0F9
:1040A00080910D0284FF18C080916201909163019C
:1040B0009817E1F028E0829FC001112468E08C5934
:1040C0009E4F0E9450218091620190E001968F7076
:1040D0009927809362010AC00E94582187EB9BE0D8
:1040E0000197F1F700C000002197D1F6DF91CF9141
:1040F0000895FC01A0916301B0E09D012F5F3F4F47
:104100002F70332780916201821771F083E0AA0F2C
:10411000BB1F8A95E1F7AC59BE4F98E001900D9214
:104120009A95E1F7209363010E9458210C944C204A
:1041300081E790E00895FC01808180768032B1F5BE
:104140008181813041F48AE591E090931E02809351
:104150001D0288E00895823041F484EE91E090934E
:104160001E0280931D0281E008958A3021F483812C
:104170008093E4011BC08930C9F482819381811549
:1041800022E0920731F484819581892B89F482E0C1
:1041900004C08130934061F481E0809359018681AD
:1041A0009781909358018093570102C080E0089551
:1041B0008FEF0895FC018091570190915801892B50
:1041C00099F090915901913051F0923069F48081C9
:1041D0008093E501109258011092570103C08B9A09
:1041E0000E94B11E81E008958FEF0895FC01838144
:1041F000813261F08232D1F0823071F585E194E054
:1042000090931E0280931D028BE308958281882380
:1042100029F0813009F580E494E002C087E294E05F
:1042200090931E0280931D0289E0089584819581F8
:10423000009751F0019781F480E594E090931E027D
:1042400080931D0284E8089584ED94E090931E020B
:1042500080931D0280E4089580E008951F93CF931A
:10426000DF93162FEA01288124FF05C0398128E851
:104270002327298302C02AE52883FC01CE01029668
:10428000DC01212F280F31913D932A13FCCF612FA0
:104290000E9403031C5F1883DF91CF911F91089543
:1042A0004DE052E00C942E2149E352E00C942E2173
:1042B000CF93DF9360911F02635067FDB1C080917F
:1042C0001B02CCE0D0E0C81BD109CD5DDD4F809151
:1042D0001A028D3209F092C0683009F09FC083EC59
:1042E000809302028AE580937C001092E601888127
:1042F000807621F0CE010E949B206DC09A811092A1
:104300000B028981811106C010920C022BE032E071
:1043100082E05CC0853019F49093200254C086304E
:10432000D1F58B81813041F484E195E090931E02B8
:1043300080931D0282E12BC0823021F18330F1F4A1
:10434000911108C08CE495E090931E0280931D02A9
:1043500084E01DC0913041F480E395E090931E020B
:1043600080931D028CE113C0923081F486E295E0C7
:1043700090931E0280931D028AE009C0813211F0E1
:10438000823221F4CE010E94F62001C080E090E448
:104390009093E60120C0883079F0893019F4909329
:1043A000220211C08A3059F08B3069F48BE480937B
:1043B0000E0280933A0207C022E232E002C02BE0F4
:1043C00032E081E003C02BE032E080E030931E0257
:1043D00020931D0209C08F3F39F4988197FD8E818B
:1043E00090E89093E60107C09F81911104C09E81DF
:1043F000981708F4892F80937B0010C08091E60104
:1044000087FF0CC0CE010E94DA208F3F21F48EE19D
:1044100080937C0003C0811110927B0010921F02D8
:1044200080917C0084FF49C080917B008F3F09F41C
:1044300044C0C82F893008F0C8E08C1B80937B00F3
:104440009091020288E8892780930202CC2339F1F7
:1044500080911D0290911E022091E60126FF0BC063
:10446000A3E0B2E0FC012C2F280F34913D9331964C
:104470002E13FBCF09C0DC01E3E0F2E02C2F2E0F5E
:104480003D9131932E13FCCF2FEF2C0F30E02F5F97
:104490003F4F820F931F90931E0280931D026C2F3B
:1044A00083E092E00E94030364E06C0F6C3019F02B
:1044B0008FEF80937B0060937C0084E190B39C70CD
:1044C00031F48150D9F71092200210921902DF9135
:1044D000CF91089585B7886085BF8BB780688BBF03
:1044E000ADE0B2E08BE411968C931197E9E3F2E032
:1044F00081838AE58C9380830895DB018F939F935A
:104500000E94EC22BF91AF91A29F800D911DA39FAD
:10451000900DB29F900D11240895AA1BBB1B51E171
:1045200007C0AA1FBB1FA617B70710F0A61BB70B23
:10453000881F991F5A95A9F780959095BC01CD01C8
:10454000089597FB072E16F4009407D077FD09D045
:104550000E948D2207FC05D03EF4909581959F4FD7
:104560000895709561957F4F0895A1E21A2EAA1BB8
:10457000BB1BFD010DC0AA1FBB1FEE1FFF1FA21713
:10458000B307E407F50720F0A21BB30BE40BF50B10
:10459000661F771F881F991F1A9469F76095709599
:1045A000809590959B01AC01BD01CF010895EE0F60
:1045B000FF1F0590F491E02D0994A29FB001B39FD5
:1045C000C001A39F700D811D1124911DB29F700D1C
:1045D000811D1124911D08950E94DD22A59F900D3B
:1045E000B49F900DA49F800D911D11240895FC018E
:1045F0004150504030F001900616D1F73197CF016D
:104600000895882799270895E199FECF9FBB8EBB17
:10461000E09A99278DB30895A6E1B0E044E050E018
:104620000C944A23A8E1B0E042E050E00C944A2305
:10463000262FE199FECF9FBB8EBBE09A01970DB26A
:10464000021631F02DBB0FB6F894E29AE19A0FBE34
:1046500008950396272F0E9419230E941823252FBF
:104660000E941923242F0C9419230196272F0E94AE
:1046700019230C941823262FE199FECF9FBB8EBBE4
:104680002DBB0FB6F894E29AE19A0FBE01960895F9
:10469000DC01CB01FC01E199FECF06C0FFBBEEBB04
:1046A000E09A31960DB20D9241505040B8F70895FE
:0446B000F894FFCFAC
:1046B4000102050501191A1B1C1D1E1F202122477A
:1046C40001DE1F792029200520E11FFF5A343536E9
:1046D4003794959697939291906061636400010278
:1046E4000202020606060909090909090F0F0F0F3C
:1046F4000F0F151515181919191919191919191947
:0247040023246C
:00000001FF
