:100000000C94D1040C9409050C9409050C94090571
:100010000C9409050C9409050C9409050C94090528
:100020000C9409050C9409050C94A92C0C947D2DB5
:100030000C94E3260C9409050C9409050C9409050D
:100040000C9409050C9409050C9409050C940905F8
:100050000C9409050C946A270C9409050C94090565
:100060000C9409050C9409050C9409050C940905D8
:100070000C9409050C9409050C9409050C940905C8
:100080000C9409050C9409050C9409050C940905B8
:100090000C9409050C9409050C9409050C940905A8
:1000A0000C9409050C9409050C9409052900140009
:1000B0001A000800150017001C0018000C001200A0
:1000C00013002A002B0004281624072209210A0005
:1000D0000B000D310E320F3433382800E1001D00C3
:1000E0001B00060019000500110010003600370043
:1000F0003800E500E000E200E30065002C422C41FE
:1001000000002C412F003000310034003500240065
:10011000250026002D002E002F003000330038006F
:10012000310034002B002100220023000000490090
:100130005000520051004F0000002800E1001E0056
:100140001F00200000004C004A004B004E004D00F4
:100150000000E500E000E200270065002C002C0014
:1001600000002C006500E700E600E40035004000D8
:1001700041004200430044004500460000000000EA
:10018000000034002B003D003E003F00007C490091
:100190005000520051004F0000002800E1003A00DA
:1001A0003B003C0000004C004A004B004E004D005C
:1001B0000000E500E000E200E30065002C002A00FA
:1001C00000002C006500E700E600E40044454255CD
:1001D000473A2064697361626C65642E0A00444585
:1001E0004255473A20656E61626C65642E0A006C68
:1001F00065645F7461736B3A20253032580A004F92
:100200006E6573686F743A206163746976653A202D
:1002100025640A000A002530313662003A200025A4
:10022000303258000A722F63203031323334353681
:100230003738394142434445460A007267626C6967
:100240006768742074696D65722064697361626C9B
:10025000652E0A007267626C696768742074696D44
:10026000657220656E61626C65642E0A0072676259
:100270006C696768742073657420687376205B4EC0
:100280004F454550524F4D5D3A2025752C25752C14
:1002900025750A007267626C6967687420736574FB
:1002A00020687376205B454550524F4D5D3A2025BE
:1002B000752C25752C25750A007267626C69676854
:1002C00074207261696E626F772073657420687341
:1002D000763A2025642C25642C25642C25750A008B
:1002E0007267626C696768742064697361626C65C7
:1002F000205B454550524F4D5D3A207267626C69F4
:100300006768745F636F6E6669672E656E61626CA5
:1003100065203D2025750A007267626C6967687404
:1003200020656E61626C65205B454550524F4D5DA6
:100330003A207267626C696768745F636F6E6669A2
:10034000672E656E61626C65203D2025750A00721E
:1003500067626C6967687420746F67676C65205B9F
:10036000454550524F4D5D3A207267626C6967682F
:10037000745F636F6E6669672E656E61626C65207F
:100380003D2025750A007267626C69676874206D8C
:100390006F6465205B4E4F454550524F4D5D3A208E
:1003A00025750A007267626C69676874206D6F64F6
:1003B00065205B454550524F4D5D3A2025750A003A
:1003C0007267626C696768745F696E6974207267CE
:1003D000626C696768745F636F6E6669672E6D6FC4
:1003E0006465203D20302E20577269746520646555
:1003F0006661756C742076616C75657320746F200E
:10040000454550524F4D2E0A007267626C6967680D
:10041000745F696E6974207374617274210A00726A
:1004200067626C696768745F636F6E6669672E7375
:1004300070656564203D2025640A007267626C69FE
:100440006768745F636F6E6669672E76616C203DC6
:100450002025640A007267626C696768745F636F65
:100460006E6669672E736174203D2025640A0072F0
:1004700067626C696768745F636F6E6669672E6830
:100480007565203D2025640A007267686C6967689D
:10049000745F636F6E6669672E6D6F6465203D20C3
:1004A00025640A007267626C696768745F636F6EC7
:1004B0006669672E76656C6F63696B6579203D2090
:1004C00025640A007267626C696768745F636F6EA7
:1004D0006669672E656E61626C65203D2025640A41
:1004E000007267626C696768745F636F6E666967E4
:1004F00020454550524F4D3A0A001E0F0500047F1B
:100500003F1F643214643214783C1E1E140A052204
:1005100023252628292A2C2D2F3032333536383AF8
:100520003B3D3E4042434547494A4C4E505153554E
:1005300057595A5C5E6062646668696B6D6F71736F
:100540007577797B7D7F81838587898A8C8E909270
:100550009496989A9C9E9FA1A3A5A7A8AAACAEAF7B
:10056000B1B3B4B6B8B9BBBCBEBFC1C2C3C5C6C7C0
:10057000C9CACBCCCDCED0D1D2D2D3D4D5D6D7D771
:10058000D8D9D9DADADBDBDBDCDCDCDCDCDDDDDDB9
:10059000DDDCDCDCDCDCDBDBDBDADAD9D9D8D7D7B5
:1005A000D6D5D4D3D2D2D1D0CECDCCCBCAC9C7C662
:1005B000C5C3C2C1BFBEBCBBB9B8B6B4B3B1AFAEA0
:1005C000ACAAA8A7A5A3A19F9E9C9A989694929046
:1005D0008E8C8A89878583817F7D7B79777573711E
:1005E0006F6D6B6968666462605E5C5A59575553FB
:1005F00051504E4C4A4947454342403E3D3B3A38B4
:1006000036353332302F2D2C2A292826252322FF58
:10061000AA7F55400001010101010101010102020F
:1006200002020202020202030303030303030304A0
:10063000040404040404050505050506060606066B
:10064000070707070708080808090909090A0A0A25
:100650000B0B0B0C0C0C0D0D0D0E0E0E0F0F0F10C7
:100660001011111112121313141415151616171751
:10067000181819191A1A1B1B1C1D1D1E1E1F2020BD
:10068000212222232424252626272829292A2B2C07
:100690002D2D2E2F30313232333435363738393A2A
:1006A0003B3C3D3E3F404142434445464748494A22
:1006B0004C4D4E4F50515354555658595A5B5D5EF0
:1006C0005F616264656668696B6C6D6F707273758B
:1006D00077787A7B7D7E8082838587888A8C8E8FEF
:1006E00091939596989A9C9EA0A2A3A5A7A9ABAD1D
:1006F000AFB1B3B5B7BABCBEC0C2C4C6C9CBCDCF0B
:10070000D1D4D6D8DBDDDFE2E4E7E9EBEEF0F3F5B8
:10071000F8FAFDFF290A002575002F002575005DF8
:1007200028002564002000256400200025640020A6
:10073000002564007C0025303258006D6F757365AC
:100740006B6579205B62746E7C78207920762068F6
:100750005D287265702F61636C293A205B000A0086
:100760002530325820006E6B726F5F7265706F7249
:10077000743A2025303258207C20000A002530327F
:100780005820006B6579626F6172645F7265706F8B
:1007900072743A2025303258207C200064656C5FEA
:1007A0006B65795F6269743A2063616E27742064B7
:1007B000656C3A20253032580A006164645F6B65CD
:1007C000795F6269743A2063616E277420616464A2
:1007D0003A20253032580A0073757370656E64696B
:1007E0006E67206B6579626F6172640D0A005B57FA
:1007F0005D005B535D005B525D005B445D005B43ED
:100800005D0012034E004900550020004D006900B4
:100810006E006900000010034B00420044004600D7
:1008200061006E0073000000040309040902540013
:10083000030100A0FA0904000001030101000921DD
:100840001101000122440007058103080001090489
:100850000100010300000009211101000122B6007E
:1008600007058203200001090402000103000000C3
:100870000921110100012215000705830320000151
:1008800012010002000000086D6E0100010001026B
:1008900000010631FF0974A1010975150026FF004A
:1008A000952075088102C005010902A10185020990
:1008B00001A10005091901290815002501950875F0
:1008C0000181020501093009311581257F950275E5
:1008D00008810609381581257F950175088106056F
:1008E0000C0A38021581257F950175088106C0C064
:1008F00005010980A101850319012AB70015012608
:10090000B700950175108100C0050C0901A1018592
:100910000419012AA002150126A002950175108173
:1009200000C005010906A1018506050719E029E7B0
:10093000150025019508750181020507190029EFA9
:100940001500250195F07501810205081901290599
:10095000950575019102950175039101C005010985
:1009600006A101050719E029E7150025019508757D
:100970000181029501750881010507190029FF15FC
:100980000026FF0095067508810005081901290554
:1009900015002501950575019102950175039101D9
:1009A000C00011241FBECFEFDAE0DEBFCDBF04B61A
:1009B00003FE18C080918B0390918C03A0918D034E
:1009C000B0918E038730904BA740B04B59F41092F2
:1009D0008B0310928C0310928D0310928E03E0E033
:1009E000F8E3099511E0A0E0B1E0EEEEF2E602C016
:1009F00005900D92AE3EB107D9F723E0AEEEB1E01F
:100A000001C01D92AB38B207E1F70E94FF150C94AC
:100A100021310C940000FF93EF93E091EE01F091EF
:100A2000EF01309709F00995EF91FF910895FC01CE
:100A30008591803011F0EFDFFBCF0895FF27E0E2D2
:100A400030E247FF0CC0419597FF09C0EDE2609589
:100A5000709580959095611D711D811D911D27FFD9
:100A600002C0219530E350E2AA27660F771F881F46
:100A7000991FAA1FA41710F0A41B63955A95A9F7F4
:100A8000AA3008F0A95FA05DAF93F39561157105D9
:100A90008105910541F7ED3211F4EF93F395F217CB
:100AA00018F43F93F395FBCF8F91B5DFFA95E1F7FB
:100AB0000895E991F9918591803021F0853219F0FE
:100AC000AADFF9CF089520E0E89455915532C1F39B
:100AD000503311F4689455915A3348F4505390F3BD
:100AE000220F022E220F220F200D250FF4CF0EF41D
:100AF000219589919991533619F3533729F153353B
:100B000059F1BC0188279927E8945C3621F4899132
:100B1000999168945591543639F446EF7EF077FFF9
:100B20000DC08FEF9FEF0AC055374AE039F05835B6
:100B300040E121F0523642E009F00895FF93EF932F
:100B40007DDFEF91FF91B7CFFF93EF93FC01819190
:100B50008030B9F360DFFBCFFF93EF9368DFF1CF15
:100B6000DF93CF93CDB7DEB72596A3DFCF91DF918B
:100B700008956E9A769A0E94681408958330B8F4A6
:100B80006430A8F44C3098F450E09CE0699F400D2C
:100B9000511D1124FA0190E3899FE00DF11D1124EC
:100BA000EE0FFF1FE455FF4F85919491089581E06A
:100BB00090E008950E94BE05089581E008950E9486
:100BC000DD05089581E008950E94DD0508950E94E5
:100BD000E405089508950E94EA050895A6E0B0E0AE
:100BE000E4EFF5E00C94CD2F49835A839E83309136
:100BF000F50189819A8131111AC03E81332399F020
:100C0000222389F00E94410C182F682F89819A8134
:100C10000E941D0C69817A81812F0E94661326969D
:100C2000E3E00C94E92F0E942F0C182FF3CF0E94C1
:100C3000410C69817A81F1CFFC01262F40815181DD
:100C400062817381848195810E94EE050895CF931E
:100C5000DF93EC0161E00E941C06BE010E94DF05EB
:100C6000DF91CF910895CF93DF93EC0160E00E9474
:100C70001C06BE010E94EB05DF91CF91089581E033
:100C800008950E943F060895CF93C82F0E94F20A4C
:100C90008C2F0E9441062FEF84E39CE0215080407E
:100CA0009040E1F700C00000CF91089581E00E94DC
:100CB00044060E948E27089580E00E9444060E9408
:100CC000B22708950F931F93CF93DF938C0161E0B8
:100CD0000E941C06EC01F801858181110E94C41E4E
:100CE000B801CE010E94E705811106C080E0DF91C6
:100CF000CF911F910F910895B801CE010E940A244F
:100D00008823A1F3B801CE010E94AC1F882371F3A0
:100D1000B801CE010E94821F882341F3B801CE01A1
:100D20000E94E31E882311F3F8018581882369F06E
:100D3000C330FCE7DF07A1F160F4C130ECE7DE0768
:100D400089F1C0F4C115DC4791F0C8010E94E205A9
:100D5000CECFCB35ECE7DE0759F1CC35FCE7DF072A
:100D600021F1CA35DC4789F70E949B10EECF0E9423
:100D70005606BCCF9091BA02892F8E7F90FF81607A
:100D80008093BA0280FF09C08EED91E09F938F930C
:100D90000E94B0050F900F90A9CF8CEC91E0F6CF98
:100DA0000E94A3100E945C06A1CF0E949110CDCF9B
:100DB0000E949F10CACF0E94BF260E94200708955C
:100DC0000E9424070E94C4260895829590E09C0109
:100DD000220F331F220F331F2C7C959587959595F5
:100DE00087958373282B30E0C901880F991F8A7A71
:100DF000359527952575822B0895CF93DF93D92FAD
:100E00000E94E506C82F8D2F0E94E5069C2FDF91DA
:100E1000CF91089581E008950895CF93DF93D82F5F
:100E20000E940A07C82F882319F08D2F0E940C07F3
:100E30008C2FDF91CF91089508950E940D0708959A
:100E400080E00E941D0708950E9453240E941D0700
:100E50000895CF930E945324C82F8091F0018C17DE
:100E600001F1C093F0010E944F276093F10170934C
:100E7000F2018093F3019093F4018091BA0285709E
:100E8000853061F41F92CF938FEE91E09F938F9303
:100E90000E94B0050F900F900F900F908C2F0E9422
:100EA0001D07CF910895ADE0B0E0E9E5F7E00C94BF
:100EB000CE2F488759876A877B878C879D879111BA
:100EC0000E948E0F1F8286E0FE013896DE01119689
:100ED00001900D928A95E1F78D8181110DC02981D4
:100EE0003A814B815C816D817E818F810E94D80E19
:100EF0002D96E2E00C94EA2FCE0101960E9427067F
:100F00008111EDCFF5CFFC012481213021F48081C6
:100F100091810E94730C0895662329F00E940D218F
:100F20000E94E02108950E946721FACFCF93C82F35
:100F30008823C9F08238C9F40E94602481FD13C05F
:100F400089E30E9428260E9422102FEF87EE93E06B
:100F5000215080409040E1F700C0000089E30E94EA
:100F60003F260E942210CF9108958338A1F40E9459
:100F7000602480FDF8CF83E50E9428260E9422107D
:100F80002FEF81EE94E0215080409040E1F700C0C7
:100F9000000083E5E4CF8438A1F40E94602482FD40
:100FA000E2CF87E40E9428260E9422102FEF81EED4
:100FB00094E0215080409040E1F700C0000087E4B9
:100FC000CECF8CEF8C0F813A70F48C2F0E947D2550
:100FD000882329F08C2F0E943F260E9422108C2FFC
:100FE0000E942826BECF80E28C0F883048F4C7705C
:100FF00081E001C0880FCA95EAF70E94710FB1CF56
:10100000EBE5EC0FE33040F4F0E0EC59FE4F80816B
:1010100090E00E941125A7CFE8E5EC0FEB3150F4EA
:10102000F0E0EE0FFF1FE25DFE4F808191810E9494
:10103000362599CF83E38C0F833108F094CF61E09C
:101040008C2F0E948C078FCF882309F456C08238DA
:1010500079F40E94602481FF50C089E30E94282611
:101060000E94221089E30E943F260E9422100895C8
:10107000833859F40E94602480FF3FC083E50E94BA
:1010800028260E94221083E5EECF843859F40E946E
:10109000602482FF32C087E40E9428260E9422102A
:1010A00087E4E1CF9CEF980F913AE8F290E2980F35
:1010B000983050F4877091E001C0990F8A95EAF753
:1010C000892F0E94770FD1CF9BE5980F933028F49A
:1010D00090E080E00E941125089598E5980F9B31DB
:1010E00028F490E080E00E943625089593E3980F5D
:1010F000933118F460E00E948C0708951F93CF93FA
:10110000DF93182FEB010E949607209739F4812F67
:101110000E942408DF91CF911F9108958FE99FE0ED
:101120000197F1F700C000002197EFCF70E060E079
:10113000893311F460E570E00E947E0808958823E9
:1011400021F00E94710F0E9422100895882321F03F
:101150000E94770F0E9422100895B0E0A0E0E3EB18
:10116000F8E00C94C72F6C01D62FC72FFC01158116
:10117000068102950F700E94670FE82E8823F9F010
:10118000E12E1123E1F08C2F807F803461F080E22A
:101190008D0F883008F18C2F807E803221F4D23080
:1011A000D8F00023C9F08091370382FF15C082E098
:1011B0000E9452100E94670F91E0E82EE926BC2E93
:1011C000B2949FE0B922FBE0FB15B8F1EB2DF0E003
:1011D000ED5DFE4C0C94872FE12CF1CF0C2F0F709E
:1011E000C07F11F00295007F112399F0002359F080
:1011F00080E28D0F883010F0D11107C0802F0E943F
:10120000710F0E9422108D2F5AC0802F0E94810FD3
:10121000F8CF8D2F0E942408002379F080E28D0FF3
:10122000883010F0D11104C0802F0E94770F03C0C6
:10123000802F0E94870F0E942210EB2DE850FF0B99
:10124000349720F40E9453240E941D07EE2089F059
:101250000E94630F80FD0DC0F60115820E945D0F94
:101260000E947B0BC6010E94B90A0E945D0F0E947A
:101270008B0BCDB7DEB7E9E00C94E32F2C2F2F704A
:10128000F22EC07FC03219F0F29480EFF822DD23F5
:1012900041F0D130D1F1112309F444C00023F1F021
:1012A000B2CF8091370382FD15C0112359F0FF2082
:1012B00029F08F2D0E94710F0E94221080E00E9461
:1012C0009607BBCF80E00E942408FF2009F4B5CF29
:1012D0008F2DABCF112369F0011104C08F2D0E9417
:1012E0009F08ABCF013009F0A8CF8F2D0E94A50F2A
:1012F000A4CF0111A2CF8F2D0E94A6088F2D0E948E
:10130000B10F8F2D0E94950F98CF112321F0063039
:1013100008F093CFE3CF053008F08FCF8F2D0E94D8
:10132000A6088BCF0023D1F3D93349F43FEF87EEE2
:1013300093E0315080409040E1F700C000008D2FD5
:101340000E9424087ACF8C2F86958695837069F049
:10135000813009F072CF8D2F9C2F9370111102C034
:1013600080E090E00E94362568CF8D2F9C2F9370EF
:10137000111102C080E090E00E9411255ECF612F24
:101380008D2F0E948C0759CF8C2F8370A1F51111DE
:1013900054CF4D2F429546954770440F440F2D2F43
:1013A0002F7030E0042E02C0220F331F0A94E2F7A0
:1013B00090E080E0D4FF09C08FE090E002C0880F89
:1013C000991F4A95E2F780959095C695C695C3708A
:1013D000822B932BC23049F058F4C13019F00E948F
:1013E0004B0B2BCF0E94420B28CF0E94540B25CFD2
:1013F0000E943F0B22CF8695112311F08C2F817014
:10140000882309F41ACF4D2F429546954770440F13
:10141000440F2D2F2F7030E0042E02C0220F331FF7
:101420000A94E2F790E080E0D4FF09C08FE090E0FA
:1014300002C0880F991F4A95E2F780959095C6954E
:10144000C695C370822B932BC23049F058F4C1303B
:1014500019F00E94B60BF1CE0E94AD0BEECE0E94A9
:10146000BF0BEBCE0E94630BE8CECF70112329F0A7
:101470008C2F0E947B0B8D2F32CF8D2F0E94A608C0
:101480008C2F0E948B0BD9CED23F41F160F4D03F1C
:10149000B9F0D13F81F0112309F443C00111B3CE5B
:1014A0008C2F8F711FC0D33F01F1D43FA1F78091E2
:1014B000370382FD24C08C2F8F71112311F312C0CA
:1014C000112341F0053008F0B8CE8C2F8F710E94A7
:1014D0009D0BB3CE063008F0B0CEF7CF8C2F8F71B6
:1014E0001111CFCF0E947B0BA8CE112329F08C2F96
:1014F0008F710E946F0BA1CE0E946A0B9ECE1123AA
:1015000031F063E08C2F8F710E94341096CE81E011
:101510000E945210023008F490CE82E00E945210D5
:101520008CCE002359F0D93309F009CFEFEFF7EE55
:1015300023E0E150F0402040E1F7FFCE8C2F8F7187
:10154000A0CF0F931F93CF93DF93EC016881798134
:101550008D810E947E0C8C010E94C80B0E943E0B64
:10156000B801CE010E94AD08DF91CF911F910F917C
:101570000895CF93DF93EC018C81882399F0CE01FD
:101580000E946206811111C00E94670F882351F0EA
:101590008D81882339F08091370382FF03C082E078
:1015A0000E945210DF91CF910895CE010E94A10AAE
:1015B000CE010E943306F6CF90E080E00E94112514
:1015C00090E080E00E9436250E948E0F0E9422103B
:1015D0000E9496220E94E02108950E9456260E94B1
:1015E000DC0A08950E947E0F0E94ED0A08959295EC
:1015F0009F70963091F058F4925F9F70923058F43B
:10160000803F19F030F4883E30F481E008959A5F0D
:10161000F4CF843FD1F380E00895883EB0F3813F5A
:10162000D1F7F3CFFC012481222339F0808191810D
:101630000E94730C0E94F70A089580E00895A6E0C6
:10164000B0E0E5E2FBE00C94CE2F2696E2E00C94AD
:10165000EA2FA7E0B0E0EFE2FBE00C94CE2F279654
:10166000E2E00C94EA2F08950E94330B08950E9443
:10167000340B9093110280931002089508950E94F4
:10168000370B08952091100230911102822B932B79
:101690000E94370B0895209110023091110282238D
:1016A00093230E94370B089520911002309111026C
:1016B000822793270E94370B08950E94330B0895C9
:1016C0000E945D0B08950E94600B90930F0280931F
:1016D0000E02089590E080E00E94630B089521E0DF
:1016E00030E0A90102C0440F551F8A95E2F7CA01F4
:1016F0000E94630B089521E030E002C0220F331FE7
:101700008A95E2F780910E0290910F02822B932B23
:101710000E94630B089521E030E002C0220F331FC6
:101720008A95E2F72095309580910E0290910F02F4
:10173000822393230E94630B089521E030E002C0CE
:10174000220F331F8A95E2F780910E0290910F02CB
:10175000822793270E94630B089520910E023091F7
:101760000F02822B932B0E94630B089520910E028F
:1017700030910F02822393230E94630B08952091DE
:101780000E0230910F02822793270E94630B089567
:101790000895262F277091E001C0990F2A95EAF746
:1017A00023E0769567952A95E1F7660F771F660F18
:1017B000771FFA01E60FF71F50E040E0682F70E056
:1017C0008191DF0111979B01042E02C03695279568
:1017D0000A94E2F7217021952827292328272C93A2
:1017E0004F5F5F4F4430510559F70895A82FA770F8
:1017F00023E0969587952A95E1F7880F991F880F22
:10180000991FFB01E80FF91F50E040E080E02191B3
:1018100030E00A2E02C0369527950A94E2F721702F
:101820003327042E01C0220F0A94EAF7822B4F5F60
:101830005F4F4430510559F70895262F943070F4C6
:101840008C3060F4682F70E08CE0989F600D711D03
:10185000112446EF51E0822F0E94C90B0895292FD1
:10186000943068F48C3058F490E066EF71E03CE01E
:10187000239F800D911D11240E94F60B089580E096
:101880000895B0E0A0E0E7E4FCE00C94C72F7C01F1
:1018900000910E0210910F0280911002909111029E
:1018A000082B192BCFE0D0E0CC24C394D12CBC2E34
:1018B000C6010C2E02C0880F991F0A94E2F78023FC
:1018C0009123892B49F4219790F7B12C8B2DCDB71B
:1018D000DEB7E9E00C94E32FB7018C2F0E9472135E
:1018E000019789F3F3CFCF93DF93EC010E94410C72
:1018F000BE010E947213DF91CF9108951F93CF9381
:10190000DF93EB019091F501992339F0CB010E940F
:10191000730CDF91CF911F910895882369F0CB015B
:101920000E94410C182F682FCE010E941D0CBE0191
:10193000812F0E947213EDCFCB010E942F0C182F24
:10194000F6CF1F93CF93DF93C091120217E08091DF
:1019500013028C1304C0DF91CF911F910895D0E042
:101960001C9FF0011D9FF00D1124EC5EFD4F2081A6
:101970003181428153816481758186810E94290B66
:101980002196C770E4CF20914C0230914D024091D6
:101990004E0250914F02609150027091510280911D
:1019A00052020E94290B0895CF93DF938091520237
:1019B000807F09F04DC080915102882309F448C00E
:1019C000E091120250911302C0914D02D0914C024D
:1019D00060914E0270914F0247E05E17C9F18E2F61
:1019E00090E0E49FF0011124EC5EFD4F248122235E
:1019F00091F1489FF001499FF00D1124DF01AC5E89
:101A0000BD4F11962C9111972C1325C02C912D139D
:101A100022C015962C91159721111DC012962D915B
:101A20003C91261B370B283C3105A8F480915202CB
:101A30008F70806180935202E65EFD4F80818F70CF
:101A4000806180838CE492E00E94B90A0E94A10C1C
:101A5000DF91CF910895FC013196E770BECF482FFA
:101A6000209112029091130257E0291302C080E0E6
:101A7000089530E0529FF001539FF00D1124EC5E69
:101A8000FD4F8181681306C08081481303C08581A2
:101A90008111EECF2F5F3F4F2770E7CFA4E1B0E079
:101AA000E4E5FDE00C94C42F8C0186E0F801DE0132
:101AB0001F9601900D928A95E1F7F8018481E580E7
:101AC0009CE4A92E92E0B92E9091500291111FC072
:101AD0008823D1F0EE20A9F0C8010E94120BF82E45
:101AE000882379F087E0F801D50101900D928A955D
:101AF000E1F7C5010E9483070E94D40C0E94C30C29
:101B00005FC0C8010E94B90AFF24F39459C0C08085
:101B1000D18082809380F090510220914E023091CA
:101B20004F02A401421B530BFF2009F4F9C0483CAB
:101B3000510508F0A7C0882309F442C090914D02D6
:101B400080915202282F207F09F05CC09D1116C0A1
:101B500090914C02C91212C0E1104EC08F7080618A
:101B6000809352020E94C30C8CE492E00E94B90A56
:101B700080915202F8018683F12C22C0E1103CC012
:101B80006D2D8C2D0E942F0D6D2D8C2D0E942F0DF3
:101B9000E82E8111F1CFCF86D88A8F8598890E944F
:101BA000730C292F22952F70243078F49F702230E7
:101BB000A8F09923B9F0F8019681907F99F4FE2C52
:101BC0008F2D6496ECE00C94E02F2A5F2F7022306A
:101BD00068F0C8010E94B90AEF2CF1CF992311F0E7
:101BE000882369F3805E883050F3F3CF803F38F369
:101BF000815F833070F7E3CF8091520281608093E0
:101C00005202BACF9D1113C090914C02C9120FC05D
:101C1000E1100DC08683C8010E94B90A87E0F8016F
:101C2000ACE4B2E001900D928A95E1F767CFC8016C
:101C30000E94120B882309F464CFEE2009F461CFCF
:101C400080915202803288F020914C0230914D02F6
:101C5000398728879B868A86909150029C871D86AB
:101C60008E87CE0108960E94B90A87E0F801ACE49D
:101C7000B2E001900D928A95E1F70E94D40C0E9487
:101C8000C30C42CF90915202292F207FA1F4682DDE
:101C90009A8A898AA6017A899E2D0E941F0B8CE45C
:101CA00092E00E94B90A87E0F50111928A95E9F75E
:101CB0000E94C30C61CF882309F482CF80914D022A
:101CC0008D1110C080914C02C8120CC0E1100AC0E6
:101CD0009683C8010E94B90A87E0F50111928A959E
:101CE000E9F76ECFC8010E94120B882309F409CFCF
:101CF000EE2009F406CF80915202803208F4B5CF6D
:101D000020914C0230914D023A8329839C828B8230
:101D1000909150029D831E828F83CE010196A3CFA6
:101D2000483C5105B8F5882309F4EECEFE2CEE2090
:101D300009F4E7CE80914D028D111EC080914C02B6
:101D4000C8121AC08091520280FD0DC0982F907F5A
:101D500051F08683903F09F45ECF982F907F905F7B
:101D60008F70892B57CF87E0F801ACE4B2E0019087
:101D70000D928A95E1F724CFC8010E94120B8111C0
:101D800074CF80915202816080935202C8010E94F8
:101D9000B90A16CF682D9A8A898AA6017A899E2D5A
:101DA0000E941F0B87E0F50111928A95E9F7A6CEF4
:101DB000AEE0B0E0EEEDFEE00C94CD2F2887398741
:101DC0004A875B876C877D878E87CE0108960E9445
:101DD0004E0D8823B1F06C85662341F02885398546
:101DE0004A855B857D858E850E94290B17E0809151
:101DF00012029091130289133DC02E96E3E00C94D9
:101E0000E92F87E0FE013896DE01119601900D92D0
:101E10008A95E1F78C85882349F32091130230E0FD
:101E2000C901019687709927409112024817190637
:101E300099F097E0929FD001939FB00D1124AC5E72
:101E4000BD4FFE01319601900D929A95E1F7809376
:101E500013020E94A10CCACF0E94F20A1092130230
:101E60001092120287E0ECE4F2E0DF011D928A9505
:101E7000E9F7BCCF819FC00111248C5E9D4F0E9469
:101E80004E0D882309F4B9CFE09112021E9FF00194
:101E90001124EC5EFD4F20813181428153816481A8
:101EA000758186810E94290B8091120290E0019633
:101EB00087709927809312029ACF80917B02869532
:101EC00086958695089580917B02877008959091FC
:101ED0007B02977081E009F480E008958091A70269
:101EE00008959091A702892B8093A7020895809569
:101EF0009091A70298239093A70208951092A702A9
:101F000008959091A602892B8093A602089580954A
:101F10009091A60298239093A60208951092A6028B
:101F2000089508950E94910F089590917C02292FA1
:101F3000282331F08095892380937C020E94920FA0
:101F4000089508950E94A10F089590917D02292F70
:101F50002823281729F0982B90937D020E94A20F26
:101F6000089590917D02292F282331F080958923AF
:101F700080937D020E94A20F089580917D028823A4
:101F800029F010927D0280E00E94A20F0895CF9365
:101F9000C091A7028091A602C82B80917D02882360
:101FA00031F0C82B0E945B2581110E94BD0F8C2F40
:101FB000CF910895CF93DF93C0910601D09107018F
:101FC0000E94C70F8883C0910601D091070148E0A5
:101FD00050E063E772E0CE010E949430892B59F003
:101FE00088E0FE01A3E7B2E001900D928A95E1F747
:101FF000CE010E946324DF91CF910895CF93DF93A8
:10200000C0910401D09105010E94C70F8983C0913E
:102010000401D091050140E250E063E572E0CE0199
:102020000E949430892B59F080E2FE01A3E5B2E0D2
:1020300001900D928A95E1F7CE010E94B124DF91C3
:10204000CF91089580912D01882339F08091360336
:1020500087FF03C00E94FE0F08950E94DA0F0895C3
:1020600008950E94301008959091370392FF11C097
:1020700098E0899F90011124622B60937B020E945B
:102080007B0B80917B028695869586950E94311008
:1020900008950E947B0B089510927B0280E00E94BD
:1020A0003110089590917B028095892380937B0263
:1020B000282F277069F4891759F09091370392FF00
:1020C00007C08695869586950E948B0B0E944C10C2
:1020D0000895CF93C82F8091370382FB992790F9F9
:1020E0009C17E9F0C0FB82F9809337038091360397
:1020F000909137030E94C41082E00E945210809198
:10210000BA0280FF0CC01F92CF938FEF91E09F9394
:102110008F930E94B0050F900F900F900F90CF916A
:1021200008958091370382FB882780F991E0892701
:102130000E946910089581E00E946910089580E06E
:102140000E94691008956FEF7FEF90E080E00E9499
:10215000EC30089590E080E00E94B83021E0853EA8
:102160009E4F09F020E0822F089582E090E00E94C7
:10217000AA30089583E090E00E94AA30089584E098
:1021800090E00E94B8300895BC0184E090E00E9485
:10219000EC300895AB01BC018FE090E00E94E0308C
:1021A0000895AB01BC0183E190E00E94E030089506
:1021B00060E070E0CB010E94D110089560E070E013
:1021C000CB010E94CA100E94D8100895A8E0B0E088
:1021D000ECEEF0E10C94CE2F65EE7EEF90E080E027
:1021E0000E94EC3060E082E090E00E94CE3081E01E
:1021F00090E0909311028093100261E083E090E000
:102200000E94CE3060E074E184E090E00E94EC3007
:1022100060E086E090E00E94CE3060E087E090E0F1
:102220000E94CE3040E050E0BA0188E090E00E9489
:10223000E03060E083E290E00E94CE3060E08CE02D
:1022400090E00E94CE3060E08DE090E00E94CE30C1
:1022500019821A821B821C821D821E821F8218868E
:1022600048E050E067E170E0CE0101960E94BE3088
:1022700040E050E0BA018FE190E00E94E0300E941F
:10228000DE102896E2E00C94EA2F0E94E6100895F2
:10229000682F8EE090E00E94CE300895A6E0B0E076
:1022A000E4E5F1E10C94CC2F0E9443278C0180914E
:1022B000A8029091A9028017910781F019821A82D1
:1022C0000E944327682F49815A81792F80E090E04E
:1022D0000E9453071093A9020093A8022696E4E0F7
:1022E0000C94E82F0E944F276093B6027093B702B8
:1022F0008093B8029093B9026093B2027093B302D4
:102300008093B4029093B5020895089508950E94B1
:102310008511089508950E948A11089583E799E22E
:102320000E9416160E9486110E948711089581E06E
:1023300008950E94971108950E9497110895089595
:1023400008950E949F110E94A01108950E94AA1052
:10235000811102C00E9445110E94B5108093BA02FB
:102360000E94BF1090933703809336030E94BA10E7
:1023700090E00E943F0B80910E0290910F020E940C
:10238000600B08950E943A270E946F150E94A611C3
:102390000E941C070E947F1D0E948B110895A6E0D9
:1023A000B0E0E5EDF1E10C94C22F0E94991181118A
:1023B0000CC00E944E110E94C51E0E94B8220E94AD
:1023C00029072696EEE00C94DE2F0E9485152AEA56
:1023D000822E22E0922E640110E0F601E190F1904D
:1023E0006F01812F0E946D141F5F143009F44BC0E0
:1023F000E816F90691F38091BA0281FD0E947614E5
:102400000E949C11782E10E066246394812F0E9414
:102410006D147C01F401A190B1904F018A159B05C8
:1024200061F100E0CC24C394D12CAE24BF24C501BB
:102430008C219D21892BC1F07720B1F009831A836B
:102440000E9443279C838B836D8221E0C7018C21EE
:102450009D21892B09F420E049815A816B817C817F
:102460008D81922F0E9453070F5FCC0CDD1C0C3026
:10247000F1F6F4013297F182E0821F5F143031F6F9
:102480000E94721198CFE816F90609F0B4CF91CFE7
:102490001F93CF93DF930E947713EC01C11580E562
:1024A000D807F0F5C11580E4D80708F09CC0C03EFD
:1024B000D10520F5CD3CD10508F082C0C83AD10540
:1024C00078F4C53AD10508F073C0C130D10519F1CF
:1024D000209709F1C430D105F0F4D0E0C0E01BC072
:1024E000C33CD105D0F7C85AD0E0CC0FDD1FC95985
:1024F000DE4F0990D881C02DD4640DC0C11580E293
:10250000D80708F0D1C0C11581E0D80708F05AC03B
:10251000C83ED10510F7CE01DF91CF911F910895EC
:10252000C03682E5D80718F5C03482E5D80708F030
:102530006BC0C03282E5D80708F05FC0C11582E5E4
:10254000D80708F497C02C2F2695269580E2289F5F
:10255000900111248C2F8370C1E0D0E002C0CC0F19
:10256000DD1F8A95E2F7C22BD32BDD68D4CFC03AAA
:1025700082E5D80760F4C03882E5D80708F459C06E
:10258000CF71D0E0DC2FCC27C46FD06AC4CFC03C61
:1025900082E5D80708F462C0C03E82E5D80708F09B
:1025A0009CCFDC2FCC27CC27DF71C06FD06AB3CF94
:1025B000C55AD0E0C356DE4FC881D0E0D064ABCF5F
:1025C000D065A9CF8D2F0E941914182FCE019927FD
:1025D0000E947713C12FD0E0DC2FCC27CC27DF71EE
:1025E000C82BD92B98CFCE0199270E947713CC27DF
:1025F000DF70C82BD92BD06A8ECFCF71D0E0DC2F03
:10260000CC27C16FD06A87CF2C2F269526952770AF
:1026100080E2289F900111248C2F8370C1E0D0E0CC
:1026200002C0CC0FDD1F8A95E2F7C22BD32BDC68EA
:1026300072CF2C2F26952695277080E2289F900137
:1026400011248C2F8370C1E0D0E002C0CC0FDD1FBD
:102650008A95E2F7C22BD32BDA685DCF8C2F8F716E
:102660000E941914C82FD0E0DC2FCC27CC27DF71B3
:10267000D06251CF8C2F8F710E94191455E0D695DE
:10268000C7955A95E1F7CF70D0E0DC2FCC27282FE3
:1026900030E084FF05C044E0220F331F4A95E1F784
:1026A000C22BD32BD06937CF8D2F8F710E94191475
:1026B000182FCE0199270E947713C12FD0E0DC2F6D
:1026C000CC27CC27DF71C82BD92BD2CF462F743023
:1026D00030F46C3020F4672F0E94DA05089590E002
:1026E00080E008950E9466130E944812089582387F
:1026F0009105B9F1B0F48133910509F47DC048F436
:102700008932910509F46DC08A32910509F47BC0C4
:1027100008958533910509F45FC08933910509F166
:102720000895833E9105D9F138F4803E910529F151
:10273000823E910579F10895863E9105D9F1873E53
:10274000910509F43EC0843E910541F5209137037F
:1027500021FF24C08091360384FD19C087EE90E0EC
:10276000089520913603237009F05AC02091370351
:1027700023FF14C089E290E008952091360320FDE4
:1027800038C03091370330FF09C024FF43C090E0C8
:1027900080E008952091360322FDF7CF089520911F
:1027A000360322FD3AC03091370330FD39C024FF93
:1027B000F5CFEDCF2091360323FFF0CF24FDE7CFF7
:1027C000CDCF2091360323FD2EC03091370331FF4A
:1027D000EECF84EE90E008952091360325FFDECF02
:1027E000C9CF2091360325FD21C02091370323FF57
:1027F000D5CF89E390E0D2CF2091360326FFCECF0C
:102800008AE290E008952091360326FFC7CF81E346
:1028100090E0089583EE90E0089582EE90E00895B0
:1028200080EE90E0089586EE90E0089585E390E0D4
:1028300008959091360392FF10C041E0282F247133
:10284000243009F040E031E0282F2871283009F0C9
:1028500030E0431711F02CE0822793FF10C041E0D5
:10286000282F2471243109F040E031E0282F28710D
:10287000283109F030E0431711F02CE08227309125
:10288000370330FF10C051E0282F2171213009F0AB
:1028900050E041E0282F2871283009F040E054171B
:1028A00011F029E0822731FF10C041E0282F21716B
:1028B000213109F040E031E0282F2871283109F05A
:1028C00030E0431711F029E0822794FD877E0895B8
:1028D000089508950E9469140895E82FF0E0EE0F1E
:1028E000FF1FE05CFC4F808191810895B0E0A0E083
:1028F000ECE7F4E10C94C42F84E292E09F938F9371
:102900000E94B00580E4E82E83E0F82E0F900F902F
:10291000912C812C9FE1A92E92E0B92E2CE1C22EA0
:1029200022E0D22E06E112E0C4E1D2E09F928F9223
:10293000BF92AF920E94B005DF92CF920E94B00585
:10294000F701819191917F010E94FD069F938F93E2
:102950001F930F930E94B005DF93CF930E94B005A1
:102960009FEF891A990AEDB7FEB73C960FB6F89417
:10297000FEBF0FBEEDBFF4E08F169104B9F6CDB7E0
:10298000DEB7ECE00C94E02F80EA8A95F1F7089529
:1029900000C008950E94C4140895F894E82FE295A9
:1029A000EF70F0E031A1282F2F7081E090E001C09E
:1029B000880F2A95EAF7982F9095932391A392A1D7
:1029C000892B82A378940895CF93DF9380E90E94A6
:1029D000CD1481E90E94CD1482E90E94CD1483E9CF
:1029E0000E94CD14C0EAD1E089918F3F11F00E947E
:1029F000CD1481E0CC3AD807B9F7DF91CF91089593
:102A0000AF92BF92DF92EF92FF920F931F93CF93FB
:102A1000DF938C01D62EC62FD0E0CE0184559E4F79
:102A20007C01FC0120812F3F09F44CC0F894E22F77
:102A3000E295EF70F0E031A12F7081E090E001C0ED
:102A4000880F2A95EAF7932F982B91A392A180954E
:102A5000892382A378940E94C814E0EAF1E041E05F
:102A600050E0B12CA12C21912F3FB1F1A22FA295C2
:102A7000AF70B0E090968C9190E02F7002C0959569
:102A800087952A95E2F780FD27C0CA01A82AB92AAE
:102A9000440F551F81E0EC3AF80729F7F7018081D0
:102AA0008F3F11F00E94CD1461E0A114B10409F42C
:102AB00060E08D2D0E94CA14CC0FDD1FC00FD11F06
:102AC000B982A882DF91CF911F910F91FF90EF9073
:102AD000DF90BF90AF90089590E080E0D7CF0E9444
:102AE000E41488E0E0E4F3E0DF01982F1D929A956A
:102AF000E9F7E8E3F3E0DF011D928A95E9F784E066
:102B00000E94C0150E94B9050895A8E0B0E0EBE866
:102B1000F5E10C94CB2F8E010F5F1F4F88E0F80179
:102B200011928A95E9F7F12C6F2DC8010E940015CA
:102B3000F394F4E0FF12F8CF48E050E0B80188E3E6
:102B400093E00E94943021E0009709F420E0892B63
:102B500041F088E0F801A8E3B3E001900D928A9576
:102B6000E1F744E060E473E088E393E00E94C1157C
:102B7000182F0E946A14812F2896E5E00C94E72F05
:102B80000895B0E0A0E0E7ECF5E10C94C82F6C01EB
:102B90007B01042FC22F222379F081E08093BD02B4
:102BA0000E9443279093BC028093BB0280E0CDB784
:102BB000DEB7E8E00C94E42FD091BD02DD23B1F341
:102BC0008091BB029091BC020E945B27059770F335
:102BD00010E0000F111FA801B601C7010E94943038
:102BE000892B31F0A801B601C7010E94A130CD2F79
:102BF0001092BD028C2FDBCF0E94CF1108950E944E
:102C0000DC260E94D5290E948E110E94EF290E9485
:102C1000C2110E94FC290E94012A0E94FC150E94F8
:102C2000272A0E940D280E94A111F5CF9093EF0151
:102C30008093EE010895EF92FF920F931F93CF932D
:102C4000DF93EB01E82FD1110EC0442321F0F0E017
:102C5000EC5EF94FE4916E2F7E2F8E2FCDB7DEB74D
:102C6000E6E00C94E62F0D2F10E0282F30E04423EF
:102C700029F02C5E394FF901249130E0F6E0CF9F26
:102C8000C0011124EFEFF0E0BF010E943D2FAB0126
:102C90008C2F90E0880F991FA5E5A49FB001A59FF8
:102CA000700D1124861B970B982F990F980FBF0159
:102CB000601B710B629FD001639FB00D729FB00DBE
:102CC00011248B2F9D9FB0011124672F7727EF01CF
:102CD000C61BD70BBE01629FE001639FD00D729FA0
:102CE000D00D11247F01E91AF108E09EB001E19EA8
:102CF000700DF09E700D1124672F7727E61BF70BE0
:102D0000E29F8001E39F100DF29F100D1124E12F2F
:102D1000722F4230510599F048F44115510569F080
:102D20004130510581F0EB2F8D2F07C04430510504
:102D300069F080F046305105B1F76E2F8FCFE22F4A
:102D40007B2F812FFACFE22F7D2FF7CFEB2F822F12
:102D5000712FF3CF7B2F822FED2FEFCF41E00E9419
:102D60001B16089508950E94AE160895CF93DF9321
:102D7000762FE901682F842F0E94B3167983688328
:102D80008A83DF91CF91089580914803982F9C7F8B
:102D900029F4837084608093480308958C3AE8F3A3
:102DA0008370886AF8CFB0E0A0E0E9EDF6E10C941A
:102DB000C82F88E090E00E94B2306B017C0183E272
:102DC00090E00E94AA30282F30E040E050E060E020
:102DD00070E080E090E000E20E94F52FB22FA32F78
:102DE000F42FE52FD62FC72F97018601BC29A12BE1
:102DF000FE295E2F532B2B2F3A2F4F2F6D2F7C2F19
:102E0000CDB7DEB7E8E00C94E42FB0E0A0E0EBE053
:102E1000F7E10C94C42F49015A016B017C010E9417
:102E2000C4168401A4016A2D7B2D88E090E00E94E5
:102E3000E03094014A2D5B2DB601C70100E20E94EB
:102E40001030622F83E290E00E94CE30CDB7DEB723
:102E5000ECE00C94E02FE8E4F3E085E0808311825D
:102E60008FEF828383831482758125E030E04FEFFA
:102E70005FEF60E0868197810E9405170895809139
:102E8000BA0280FF8BC081EE94E09F938F930E94E3
:102E9000B0058091BA020F900F9080FF7FC08091A3
:102EA000480381701F928F9384EC94E09F938F93DB
:102EB0000E94B0058091BA020F900F900F900F9072
:102EC00080FF6CC080914803869581701F928F931C
:102ED00084EA94E09F938F930E94B0058091BA0298
:102EE0000F900F900F900F9080FF58C08091480373
:102EF000869586951F928F9389E894E09F938F9390
:102F00000E94B0058091BA020F900F900F900F9021
:102F100080FF44C0809149031F928F938FE694E015
:102F20009F938F930E94B0058091BA020F900F90EB
:102F30000F900F9080FF32C080914A031F928F93B1
:102F400085E594E09F938F930E94B0058091BA022B
:102F50000F900F900F900F9080FF20C080914B0337
:102F60001F928F938BE394E09F938F930E94B00501
:102F70008091BA020F900F900F900F9080FF0EC0BB
:102F800080914C031F928F938FE194E09F938F93D6
:102F90000E94B0050F900F900F900F9008958091B0
:102FA000480380FF03C086958695089580E00895C4
:102FB00090914C03933018F49F5F90934C038823B7
:102FC00091F0209148033091490340914A03509178
:102FD0004B0360914C0370914D0380914E0390918F
:102FE0004F030E940517089581E00E94D8170895A5
:102FF00090914C03992319F0915090934C0388239E
:1030000091F0209148033091490340914A03509137
:103010004B0360914C0370914D0380914E0390914E
:103020004F030E940517089581E00E94F817089544
:1030300060910C018091480380FF0FC070E0809187
:103040000B0123E0829FC0011124E091DD01F0918A
:10305000DE01805B9C4F0995089580910D01909150
:103060000E0123E0829FF0011124E05BFC4F8917E1
:1030700028F71182108212828F5F3396F8CF9091D9
:10308000480390FF0EC090910D0120910E0133E096
:10309000939FF0011124E05BFC4F921718F00E94FF
:1030A000181808958183608342839F5F3396F5CF1C
:1030B000A3E0B0E0EEE5F8E10C94CE2F9091480348
:1030C00090FF0AC09E012F5F3F4F0E94B6164B81B2
:1030D00069818A810E943F182396E2E00C94EA2FCE
:1030E000CF93DF93EC01EC81F0E0E15FFA4F449184
:1030F000E8E4F3E0628181810E9458188C818F5F3F
:103100008C83DF91CF910895CF93DF93EC01E8E4B6
:10311000F3E0438162818C810E9458188C818F5F1B
:103120008C83DF91CF910895A3E0B0E0EAE9F8E164
:103130000C94CC2F8C018091BE0281110AC09E019B
:103140002F5F3F4F4FEF6FEF0E94B6168A8180933B
:10315000BE02F8016481613069F08091BE0240E0F6
:10316000662361F040E0623011F44091BE0280E0DD
:1031700060E004C06091BE0240E080E00E943F1821
:10318000F801848190E0019663E070E00E94512F85
:1031900084832396E4E00C94E82FA3E0B0E0E3ED11
:1031A000F8E10C94C12F082FE62EF42EC22E909138
:1031B000480390FF4BC0E92FE695E695AE2FB0E0AF
:1031C000A055BE4F8C9180930E039C7F943009F0E4
:1031D00041C09E012F5F3F4F802F0E94B6164B814A
:1031E00069818A810E943F1800934903E0924A0353
:1031F000F0924B03CC2009F48AC0209148036091DF
:103200004C0370914D03302FA70180914E03909194
:103210004F030E9405178091BA0280FF17C080916A
:103220004B031F928F9380914A031F928F9380913B
:1032300049031F928F9384E992E09F938F930E949A
:10324000B0050FB6F894DEBF0FBECDBF2396EFE0FA
:103250000C94DD2F823019F4F0904B03C5CF8630EB
:1032600019F400914903C0CF8930D9F3893109F0AD
:10327000BBCFE9518E2F8170782E8E2F8095817073
:10328000D82EE695F0E0E15FF94F1491612C99EBAF
:10329000A92E92E0B92E60910F01661618F00E94D7
:1032A0001818A2CF619EC001112470E00E943D2F2A
:1032B000502E71102AC0560E862C912C8091BA0285
:1032C00080FF11C01F921F931F92DF921F925F9287
:1032D0001F926F92BF92AF920E94B0050FB6F89402
:1032E000DEBF0FBECDBF20910D01820E911C940157
:1032F000220F331F280D391D205B3C4F4F2D6E2DA3
:10330000852D0E94B6166394C6CF561AD5CF8091EC
:10331000BA0280FF9BCF1F92FF921F92EF921F92E3
:103320000F938DE692E089CFE8E4F3E09181282FB6
:103330004381628188E0890F0E94CD18089581E061
:103340000E9494190895E8E4F3E09181282F4381C5
:10335000628188EF890F0E94CD18089581E00E9454
:10336000A3190895E8E4F3E0628128E0620F08F40D
:103370006FEF282F438181810E94CD18089581E04D
:103380000E94B2190895E8E4F3E0628128E0621B2C
:1033900008F460E0282F438181810E94CD180895B0
:1033A00081E00E94C3190895E8E4F3E0438128E036
:1033B000420F08F44FEF282F628181810E94CD18BF
:1033C000089581E00E94D4190895E8E4F3E0438170
:1033D00028E0421B08F440E0282F628181810E948E
:1033E000CD18089581E00E94E519089520E00E941B
:1033F000CD180895EF92FF921F93CF93DF93EC01C6
:1034000010E0EE24EA94F12C60910F01161770F091
:103410000E9418189A818C8190FF27C08F5F8C833F
:10342000DF91CF911F91FF90EF90089520910D01B2
:10343000422F410F5527551FCA019A01220F331FF2
:10344000280F391F205B3C4F70E0C7010E94512FAD
:10345000962F8C8140914B0360914A03199F800DF8
:1034600011240E94B6161F5FCFCF8150D8CFB0E095
:10347000A0E0EDE3FAE10C94C62FFC0182810FEF8E
:1034800080FF01E010E04EE0A42E80910F0118179C
:1034900098F00E9418188091C002013009F04FC0C6
:1034A000811102C080910F0181508093C002CDB77D
:1034B000DEB7EAE00C94E22FC0910D01C12ED12CB1
:1034C000CC0DDD2DD11DCE01880F991FC80FD91F3E
:1034D000C05BDC4F198218821A8234E0E32EF12C93
:1034E000B12C8091C0028B0D8F301CF16A2D0E948F
:1034F0002F2F892F082E000C990BC816D90691F48E
:1035000080914B038E9DA0018F9D500D11245595E8
:103510004795559547959E0160914A0380914903CF
:103520000E94B616B00EF1E0EF1AF108D1F61F5F57
:10353000ACCF87FFDFCF90910F01890FDBCF90E0F9
:10354000019660910F0170E00E94512FAECF0F9352
:103550001F93CF93DF9380910D0190910E0123E093
:10356000829FF0011124E05BFC4F891740F1C0E01D
:10357000D3E060910F01C61740F10E941818209106
:1035800009018091BF02820F8093BF0290910A01CE
:10359000920F90930A01191654F4082E000C990BFF
:1035A00040910F014150550B841795071CF0219550
:1035B00020930901DF91CF911F910F9108951182FE
:1035C000108212828F5F3396D0CF0C2F10E070E004
:1035D000C8010E94512F20910D01820F482F50E009
:1035E0002091BF02022E000C330B02171307BCF010
:1035F00020910A01022E000C330B201731077CF0BA
:103600008D9F90011124205B3C4F40914B036091B2
:103610004A03809149030E94B616CF5FAACFFA01F0
:10362000EE0FFF1FE40FF51FE05BFC4F11821082CD
:103630001282F3CFB0E0A0E0E0E2FBE10C94C42FF3
:10364000EC014C81042F10E09801D8010E94952FC5
:103650009B01AC010E94AB2F4B015C01E0E2F0E06A
:10366000E01BF10BA5E5B0E0AC019B010E94AB2F84
:103670006B017C019F01DF010E948D2F9B01AC013A
:103680000E94B62F9B01AC01280D391D4A1D5B1D00
:10369000C701B6010E94652FF22E822F90E039E219
:1036A0003F1520F143E0249F900111243595279583
:1036B000122F109500E085E5E82EEF1880910F019C
:1036C000081718F10E9418189C8181E0992319F0BD
:1036D000903219F48FEF8093080180910801890FCF
:1036E0008C83CDB7DEB7ECE00C94E02F25E530E01D
:1036F000B901681B790B9B01220F331F260F371F5F
:1037000037FFD4CF2F5F3F4FD1CF8E2D01FD8F2DAF
:1037100020910D01622F600F7727771F9B01220FE9
:10372000331F260F371F205B3C4F412F60914A0308
:103730000E94B6160F5FC2CF0F931F93CF93DF93F4
:10374000EC0110E000E090910F019017110609F0D4
:103750006CF40E9418188C8190E001968170992772
:103760008C83DF91CF911F910F91089520910D01CE
:10377000A801420F511D9A01220F331F240F351F3C
:10378000205B3C4F4C8160914A03809149039695A0
:103790009017110651F04CF0442349F040914B032F
:1037A0000E94B6160F5F1F4FCECF4423B9F340E0FF
:1037B000F7CFB0E0A0E0EFEDFBE10C94C02FFC01EF
:1037C0006280448081E08483EFE0F5E07490EEE86D
:1037D000F5E0E491C0914B03C695C158D0E0CC0F01
:1037E000DD1FCD2FDD27812C75E0972EAA24AA940A
:1037F000B12C55245A94E719EE2EF12C80910F012B
:10380000881638F00E941818CDB7DEB7E0E10C94A6
:10381000DC2FC82CD12C82E0861568F09C9CF0012E
:103820009D9CF00D1124EF53FD4F8091490380833F
:1038300080914A038183411023C09C9CF0019D9C90
:10384000F00D1124EF53FD4F1382128220910D01D0
:10385000C601820F911D9C01220F331F280F391FB3
:10386000205B3C4F9C9CF0019D9CF00D1124EF537C
:10387000FD4F4281618180810E94B6168394BECF44
:103880009C9C80019D9C100D11240F531D4FF8012D
:1038900083818823F1F081508383859DC0011124A9
:1038A000648170E00E943D2FFB01FF27E15FFA4F2A
:1038B0008491E82FE719E59DC0011124B7010E940A
:1038C0003D2F80914B03689FB0011124F801728352
:1038D000BDCF0E947730B5010E94512F8C179D07F4
:1038E0000CF0B4CFF2E0F61598F40E947730B501F1
:1038F0000E94512FF80180830E94773020914A0363
:103900002695622F70E00E94512F280FF801218325
:103910009C9CF0019D9CF00D1124EF53FD4F1282F1
:1039200080914B03893C58F088EC9C9CF0019D9C55
:10393000F00D1124EF53FD4F8483838387CF8431AF
:10394000A0F784E1F2CF609148036695669570E038
:103950004BE050E080E191E00E948730892B19F420
:1039600081E080930F030E94432790930803809384
:1039700007038091BA0280FF08C084E592E09F931C
:103980008F930E94B0050F900F90089510920F032F
:103990008091BA0280FF08C08BE392E09F938F93DF
:1039A0000E94B0050F900F9008959091480390FFEA
:1039B00049C09370811147C094609093480320914F
:1039C0004803662309F447C03091490340914A03F4
:1039D00050914B0360914C0370914D0380914E03C5
:1039E00090914F030E9405178091BA0280FF10C08A
:1039F00080914803869586951F928F9384EA93E081
:103A00009F938F930E94B0050F900F900F900F908F
:103A1000609148036695669570E04BE050E080E168
:103A200091E00E948730892B09F10E94C61C81E039
:103A300080930A0340914B0360914A0380914903AC
:103A40000E94F61908958B3210F0986AB6CF880F4D
:103A5000880F982BB2CF8091BA0280FFD9CF2695DC
:103A600026951F922F9386E893E0CACF0E94A31C4D
:103A7000DECF682F909148039695969581E0890F47
:103A80008B3208F081E00E94D51C089581E00E94ED
:103A9000391D0895682F90914803969596958FEF5C
:103AA000890F09F48AE20E94D51C089581E00E94E2
:103AB0004A1D089561E00E94D51C08958091480335
:103AC0008160809348038091BA0280FF0DC01F92ED
:103AD00081E08F9388E193E09F938F930E94B005DC
:103AE0000F900F900F900F908091480386958695C8
:103AF0000E945A1D089560E00E94D51C089580918F
:103B00000D03811156C08091BA0280FF08C089E080
:103B100094E09F938F930E94B0050F900F900E94A6
:103B2000D316209348033093490340934A0350939C
:103B30004B0360934C0370934D0380934E0390931B
:103B40004F032C7F01F58091BA0280FF08C080EC02
:103B500093E09F938F930E94B0050F900F900E9467
:103B60002B170E94D31620934803309349034093A8
:103B70004A0350934B0360934C0370934D0380931F
:103B80004E0390934F030E94C4160E943F17109259
:103B90000F03E091DB01F091DC010995809148036E
:103BA00080FF04C0869586950E947B1D81E08093EE
:103BB0000D030895209148032E7F209348033091F0
:103BC000490340914A0350914B0360914C0370911B
:103BD0004D0380914E0390914F030E9405178091F1
:103BE000BA0280FF0FC08091480381701F928F93AB
:103BF00080EE92E09F938F930E94B0050F900F90FC
:103C00000F900F900E94C61C0E9418180895809172
:103C1000BA0280FF10C080914803809581701F9286
:103C20008F938FE493E09F938F930E94B0050F9042
:103C30000F900F900F908091480380FF03C00E9467
:103C4000DA1D08950E945E1D08950F931F93CF9370
:103C5000DF9380910F038823C1F180910E03E091DF
:103C60004803E695E695E81BE0930903823091F559
:103C7000F0E0E55FFA4FE491CE2FD0E000E718E1E5
:103C800080910A03882361F010920A030E9443275F
:103C9000909308038093070310920C0310920B0378
:103CA0000E944327E0910703F09108038E1B9F0BAE
:103CB0008F3F9F4750F4EC0FFD1FF0930803E093F4
:103CC000070387E093E0F8010995DF91CF911F91F9
:103CD0000F910895863049F4F0E0E85FFA4FE491DF
:103CE000CE2FD0E004E818E1CBCF893051F4E6952F
:103CF000F0E0EB5FFA4FE491CE2FD0E00AEF19E14C
:103D0000BFCF8F3051F4E695F0E0EE5FFA4FE491CB
:103D1000CE2FD0E007E31AE1B3CF853149F4F0E0CC
:103D2000E150FB4FE491CE2FD0E007EA1AE1A8CF93
:103D3000C8E2D0E00AE11BE1883109F4A1CF833267
:103D400039F4EDEFF4E0C591D49104E918E198CF8E
:103D5000C4EFD1E00CE91BE1843209F491CFC0ED4E
:103D6000D7E002EB16E1853209F08ACF8E2F63E0AF
:103D70000E94232FE92FF0E0E650FB4FE491CE2F75
:103D8000D0E009ED1BE17CCF08950E94251E089527
:103D9000FA01811101C0FB0109950895CF93DF93CA
:103DA000C82FD62F0E94CF178C1748F00E94CF172C
:103DB0008D1728F40E94461DDF91CF9108958C2F16
:103DC0000E945A1DF9CF1F93CF93DF93EC01FB01A3
:103DD0001581111110C00E946E0F8272FE01E05217
:103DE000F847E531F10508F05EC0E15DFE4C0C944A
:103DF000872F0E94071E812FDF91CF911F91089579
:103E000046E55DE166E47DE10E94C81EF4CF46E42C
:103E10005DE166E57DE1F8CF4EEA59E16FE979E1D0
:103E2000F3CF4FE959E16EEA79E1EECF40ED59E188
:103E30006FEB79E1E9CF4FEB59E160ED79E1E4CF48
:103E400042EF59E161EE79E1DFCF41EE59E162EFF6
:103E500079E1DACF44E158E164EF77E1D5CF44EF7F
:103E600057E164E178E1D0CF81E00E945A1DC3CFD1
:103E700065E082E00E94CE1EBECF68E086E0FACF09
:103E80006EE089E0F7CF64E18FE0F4CF67E185E190
:103E9000F1CF88E1EACF62E289E1ECCF83E2E5CFBE
:103EA0006AE285E2E7CF11E0A6CF6A9A08954EB1A3
:103EB0004B7F5EB15460EFB7F8949B01220F331F24
:103EC000260F371F280F391F2817390741F4EFBF76
:103ED0008FE594E00197F1F700C000000895DC0140
:103EE0006D91CD0178E05EB9000000C067FF4EB96A
:103EF000660F000000C000C000C04EB900C07A9537
:103F000091F7E2CFCF93DF93EB0186319C4711F518
:103F10000E946E0F9D81992399F08A7A91E009F4AD
:103F200090E090931003811109C089E20E94282635
:103F30000E94221080E0DF91CF91089585E3F6CFB3
:103F400080911003811104C089E20E943F26F0CFC6
:103F500085E3FBCF81E0EFCFCF93DF93EC01FB0153
:103F60008581882309F4D2C09E0130572332310560
:103F700008F0B2C00E94BF109093370380933603BD
:103F8000FE01E150F047E232F10520F4EC5BFE4C1B
:103F90000C94872F8091360381608093360393C001
:103FA000809137038860809337038DC080913603FA
:103FB0008260F3CF809136038460EFCF8091360327
:103FC0008860EBCF809137038160EDCF809137031C
:103FD0008260E9CF809136038061DFCF8091360324
:103FE0008062DBCF809136038064D7CF0E94F20AD3
:103FF000809136038068D1CF809136038C60CDCF1D
:10400000809137038360CFCF809136038E7FC5CFF9
:1040100080913703877FC7CF809136038D7FBDCFD7
:10402000809136038B7FB9CF80913603877FB5CFE0
:10403000809137038E7FB7CF809137038D7FB3CFC9
:10404000809136038F7EA9CF809136038F7DA5CFD7
:10405000809136038F7BA1CF0E94F20A80913603B4
:104060008F779BCF80913603837F97CF80913703E3
:104070008C7F99CF8091360382FB992790F921E0BC
:10408000922790FB82F990FB83F987CF80913703C9
:10409000982F909591708E7F892B90FB81F983CF1B
:1040A00090913603892F8F7B96FF806476CF0E9494
:1040B000F20A90913603892F97FB87F980586DCFCC
:1040C00081E00E94481180913603909137030E944D
:1040D000C4100E94F20A80E0DF91CF91089580E041
:1040E000F0CF90913603892F8F7E94FF806155CF5A
:1040F00090913603892F8E7F90FF81604ECF9091F3
:104100003703892F877F93FF88604DCF81E0E4CF0D
:10411000282F35EB2303C001112497FF04C08058DA
:104120009109892F089580589F4FFBCF80911703E5
:1041300080FF0DC06091200170E0660F771F60382E
:10414000710570F56115710569F1862F089581FF7C
:1041500007C06091200184E0689FB0011124EFCF77
:104160006091200182FD0AC0809116038823A9F086
:1041700020911F0160912001821710F088E0ECCFA0
:10418000869FC001112433E0880F991F3A95E1F70B
:10419000622F70E00E94512FD2CF68E070E0D5CF3F
:1041A0008FE7089581E008958091170380FF0CC088
:1041B00060911C0170E0759567957595679561151F
:1041C000710549F1862F089581FF06C060911C0199
:1041D00070E075956795F3CF60911C0182FD0BC06F
:1041E000909115039923A1F060911B0180911C010E
:1041F000961738F0682F70E06038710500F38FE78C
:104200000895899FC001112470E00E94512FF4CFBE
:1042100061E070E0D7CF81E008958D3C31F40E94D9
:104220009620819580931B0308958E3C19F40E947B
:104230009620F8CF8F3C31F40E9496208195809390
:104240001A030895803D19F40E949620F8CF893D05
:1042500029F40E94D42080931C0308958A3D21F400
:104260000E94D4208195F7CF8B3D31F40E94D42059
:10427000819580931D0308958C3D19F40E94D420EC
:10428000F8CF9FE2980F983070F4815D990B21E090
:1042900030E001C0220F8A95EAF780911903822B42
:1042A0008093190308958D3D31F480911703816047
:1042B0008093170308958E3D21F480911703826047
:1042C000F7CF8F3DB9F7809117038460F1CF40910C
:1042D0001A038D3C59F480911B0387FF0DC0109287
:1042E0001B0341110BC01092160308C08E3C81F4D1
:1042F00080911B0318169CF3442381F080911C03CA
:1043000090911D03892B09F05AC01092150308954E
:104310008F3C49F447FFF0CF10921A0380911B03A2
:104320008111ECCFE0CF803D19F41416ACF3E4CF4B
:1043300090911C03893D29F41916F4F610921C0380
:10434000DBCF8A3D19F497FFD7CFF8CF90911D03AB
:104350008B3D29F497FFD0CF10921D03CDCF8C3D1C
:1043600019F41916CCF3C8CF9FE2980F983090F447
:10437000815D990B21E030E0B90102C0660F771F23
:104380008A95E2F7CB018095909119038923809358
:104390001903B2CF8D3D31F4809117038E7F809346
:1043A0001703AACF8E3D21F4809117038D7FF7CF9D
:1043B0008F3D09F0A1CF809117038B7FF0CF089537
:1043C0008091BA0283FF96C08BE397E09F938F930F
:1043D0000E94B005809119031F928F9386E397E0A6
:1043E0009F938F930E94B00584E397E09F938F93F0
:1043F0000E94B00580911A03282F082E000C330B61
:104400003F938F9381E397E09F938F930E94B00532
:104410008FE297E09F938F930E94B00580911B03DA
:10442000282F082E000C330B3F938F938CE297E0DC
:104430009F938F930E94B0058AE297E09F938F939A
:104440000E94B00580911C03282F082E000C330B0E
:104450003F938F9387E297E09F938F930E94B005DD
:1044600085E297E09F938F930E94B00580911D0392
:10447000282F082E000C330B3F938F9382E297E096
:104480009F938F930E94B0058FE197E09F938F9346
:104490000E94B0058DB79EB780960FB6F8949EBF68
:1044A0000FBE8DBF809116031F928F938CE197E012
:1044B0009F938F930E94B0058AE197E09F938F931B
:1044C0000E94B005809117031F928F9387E197E0B8
:1044D0009F938F930E94B00584E197E09F938F9301
:1044E0000E94B0058DB79EB70C960FB6F8949EBF8C
:1044F0000FBE8DBF0E9443279C0190911A038091AB
:104500001B03982B21F030931403209313039091F5
:104510001C0380911D03982B21F0309312032093EC
:10452000110388E193E00E940325089586E0E8E105
:10453000F3E0DF011D928A95E9F7109216031092BD
:104540001503109217030895FC01828181110EC09A
:10455000838181110BC08481811108C091E0858124
:10456000811101C090E0892F8170089581E0FCCF16
:10457000A6E0B0E0EEEBF2E20C94CD2F86E0E8E1AD
:10458000F3E0DE01119601900D928A95E1F7109209
:104590001A0310921B0310921C0310921D038B81AF
:1045A0009C81892B89F080911303909114030E94C0
:1045B0005B27AC01909116039923C9F180912101E9
:1045C0008417150608F440C08D819E81892B91F0D7
:1045D00080911103909112030E945B27AC0190918E
:1045E0001503992309F46AC080911D0184171506EB
:1045F00008F472C0BE016F5F7F4F88E193E00E94B4
:104600007026811105C088E193E00E94A4228111E7
:104610000E94E02186E0FE013196A8E1B3E001901E
:104620000D928A95E1F72696E3E00C94E92F20910C
:1046300022018AE0289F900111242417350720F6D3
:104640009F5F9093160302C09F3FD1F71B811123F8
:1046500059F00E9496209FEF11160CF491E0899F6B
:10466000802D112480931A031C81112359F00E947C
:1046700096209FEF11160CF491E0899F802D112454
:1046800080931B0380911A03882309F49DCF109116
:104690001B03112309F498CF0E948820882351F02E
:1046A00080931A03812F0E948820882329F0809309
:1046B0001B038ACF81E0F4CF81E0F9CF20911E0166
:1046C0008AE0289F900111242417350708F092CF23
:1046D0009F5F9093150302C09F3FD1F71D81112367
:1046E00059F00E94D4209FEF11160CF491E0899F9D
:1046F000802D112480931C031E81112359F00E94E8
:10470000D4209FEF11160CF491E0899F802D112485
:1047100080931D0380911C03882309F46BCF1091B3
:104720001D03112309F466CF0E948820882351F0CD
:1047300080931C03812F0E948820882329F0809376
:104740001D0358CF81E0F4CF81E0F9CF0F931F9381
:10475000CF93DF93C42FD22FFC0185818823C9F02A
:10476000409320030E94432790931F0380931E03CE
:1047700080E28C0F883040F4C77081E001C0880F60
:10478000CA95EAF70E949F08DF91CF911F910F9180
:10479000089510912003141332C080911E0390914C
:1047A0001F030E945B27883C910548F5C0E2CD0FAE
:1047B0001D17B9F080E2810F883040F4177081E056
:1047C00001C0880F1A95EAF70E94A608C83048F47D
:1047D00081E09D2F977001C0880F9A95EAF70E949B
:1047E0009F08802F0E949608C83070F6D77081E02D
:1047F00001C0880FDA95EAF70E94A608C5CF80E2CB
:104800008C0F883008F6C77081E001C0880FCA9508
:10481000EAF7F2CF0F93DB0188519C47873091056F
:10482000A0F5FC01EA59FE4C0C94872F06E221EE1C
:1048300041EE6AE17CE7CD010E94A62380E00F9162
:10484000089507E225EE45EE6BE17CE7F4CF06E242
:1048500021EE40EE68E17CE7EECF07E225EE44EE84
:1048600069E17CE7E8CF06E221EE42EE6CE17CE70D
:10487000E2CF07E225EE46EE6DE17CE7DCCF08E211
:1048800021E045EE6EE17CE7D6CF15968C9188232A
:1048900019F010922003D3CF81E0D1CF909326035B
:1048A000809325030895E0912503F0912603309726
:1048B00029F00190F081E02D0995089580E0089598
:1048C0000E9453240895EF92FF920F931F93CF936A
:1048D000DF93EC01E0912503F09126033097E1F19D
:1048E0000280F381E02D09958091BA0282FF34C0E5
:1048F00080FF0DC088811F928F9383E897E09F937C
:104900008F930E94B0050F900F900F900F907E0133
:1049100086E0E80EF11C0DE717E08091BA0280FFF7
:104920000BC08A811F928F931F930F930E94B00533
:104930000F900F900F900F902196CE15DF0569F71D
:104940008091BA0280FF08C08BE797E09F938F9316
:104950000E94B0050F900F90CDB7DEB7E6E00C9443
:10496000E62FEF92FF920F931F93CF93DF93EC010B
:10497000E0912503F0912603309709F43FC086E0CB
:1049800088830480F581E02DCE0109958091BA02DB
:1049900082FF34C080FF0DC089811F928F9386E60D
:1049A00097E09F938F930E94B0050F900F900F9008
:1049B0000F907E018EE1E80EF11C00E617E0809179
:1049C000BA0280FF0BC08A811F928F931F930F93AF
:1049D0000E94B0050F900F900F900F902196CE156A
:1049E000DF0569F78091BA0280FF08C08EE597E085
:1049F0009F938F930E94B0050F900F90CDB7DEB7B5
:104A0000E6E00C94E62FE0912503F0912603309721
:104A100039F022E0DC012C930680F781E02D099526
:104A20000895A3E0B0E0E7E1F5E20C94CE2F2091E9
:104A300023033091240328173907A1F0909324030E
:104A400080932303E0912503F0912603309751F0E2
:104A500023E029839B838A830084F185E02DCE01A6
:104A6000019609952396E2E00C94EA2FA3E0B0E0CA
:104A7000ECE3F5E20C94CE2F209121033091220338
:104A800028173907A1F09093220380932103E09126
:104A90002503F0912603309751F024E029839B836E
:104AA0008A830084F185E02DCE0101960995239635
:104AB000E2E00C94EA2F20910601309107012E5F6D
:104AC0003F4F80912D01882379F08091360387FF35
:104AD0000BC020910401309105012E5F3F4F9EE1F4
:104AE00080E0915018F4089596E0FACFF9014191D1
:104AF0009F014423B1F38F5FF4CF882321F190917C
:104B00002D01992311F19091360397FF1EC0E82FD4
:104B1000E695E695E695EE31B0F4209104013091EA
:104B20000501E20FF32FF11D228130E0877041E093
:104B300050E002C0440F551F8A95E2F72423352325
:104B400081E0232B91F480E00895209106013091BB
:104B50000701F9013296285F3F4F9191981721F094
:104B6000E217F307D1F7EFCF81E008959C01FC0134
:104B700032969FEF80E04191461751F09F3F19F424
:104B8000411101C0982F8F5F8630A9F79F3F09F42C
:104B90000895290F311D97FD3A95F9016283089513
:104BA000FC01329608962191261303C0DF0111976C
:104BB0001C92E817F907B9F70895E62FE695E695F0
:104BC000E695EE3170F4E80FF92FF11D677021E0E2
:104BD00030E001C0220F6A95EAF78281822B82833E
:104BE00008958091BA0280FF0CC01F926F938AEBE8
:104BF00097E09F938F930E94B0050F900F900F90B6
:104C00000F900895E62FE695E695E695EE3178F457
:104C1000E80FF92FF11D677021E030E001C0220F8D
:104C20006A95EAF72095828128232283089580914E
:104C3000BA0280FF0CC01F926F938CE997E09F939C
:104C40008F930E94B0050F900F900F900F900895D2
:104C5000682F80912D01882359F08091360387FFBA
:104C600007C080910401909105010E94DD250895FF
:104C700080910601909107010E94B6250895682F42
:104C800080912D01882359F08091360387FF07C05A
:104C900080910401909105010E940226089580915F
:104CA0000601909107010E94D025089580912D0161
:104CB000882379F08091360387FF0BC0E0910401CF
:104CC000F091050132968EE1DF011D928A95E9F798
:104CD0000895E0910601F0910701329686E0F4CF45
:104CE000DC01FB0111969C9111978181981322C0E0
:104CF00012968C911297882319F0928189131AC009
:104D000013968C911397882319F09381891312C0FD
:104D100015968C911597882319F0958189130AC0EF
:104D200014969C91992321F081E02481291303C0DA
:104D300080E001C081E08170089508950E949D2661
:104D40000895811106C081E0809327030E949E266A
:104D5000089582E0F9CF83E0809327030E949E2686
:104D600008950E94A126089581E0809327030E9460
:104D70009E2608950E94B4260895089508950E94DD
:104D8000BE260895089508950E94BD260895CF93E4
:104D90000E94C2260E9485150E94C326C0E08C2F67
:104DA0000E946D14892B31F4CF5FC430C1F780E0CD
:104DB000CF91089581E0FCCF85B7806885BF85B726
:104DC000806885BF08951F921FB61F9211248F938C
:104DD0009F93AF93BF9380912803811113C080915B
:104DE0007A0390917B03A0917C03B0917D0341965F
:104DF000A11DB11D80937A0390937B03A0937C0344
:104E0000B0937D03BF91AF919F918F911F901FBE73
:104E10001F90189580918203843031F10E94DB0647
:104E20001092280388E190E020E40FB6F894A8954A
:104E3000809360000FBE2093600083B7817F846001
:104E400083BF83B7816083BF7894889583B78E7F53
:104E500083BF0FB6F894A895809160008861809315
:104E60006000109260000FBE08950E94F20A0E9436
:104E7000E006089582E084BD93E095BD9AEF97BD6A
:104E800080936E0008952FB7F89480917A039091E3
:104E90007B03A0917C03B0917D032FBF08952FB7B2
:104EA000F89460917A0370917B0380917C039091D8
:104EB0007D032FBF08959C014FB7F89480917A032A
:104EC00090917B03A0917C03B0917D034FBF821B27
:104ED000930B089578941F921FB61F9211248F93FD
:104EE0009F93AF93BF9380917A0390917B03A0919E
:104EF0007C03B0917D030196A11DB11D80937A03BF
:104F000090937B03A0937C03B0937D03BF91AF91FB
:104F10009F918F911F901FBE1F90189581E08093E5
:104F2000E00080E28093D8001092C9008FE19EE4F7
:104F30000197F1F700C0000087E090EBDC0180935F
:104F40008B0390938C03A0938D03B0938E0388E121
:104F50009CE00FB6F894A895809360000FBE9093E4
:104F60006000FFCF88E19CE00FB6F894A89580938D
:104F700060000FBE90936000FFCF809134030895CE
:104F80009B01BA01909182039430E9F48F70809371
:104F9000E9009FEF8091E800915085FD06C085ED06
:104FA0008A95F1F700009111F5CF8091E80085FF17
:104FB0000AC050E040E0C9010E949D2A8091E800AB
:104FC0008E778093E800089543E050E0BC0182E0D2
:104FD0000E94C027089546E050E0BC0182E00E9494
:104FE000C027089540E250E0BC0182E00E94C02743
:104FF0000895CF93DF93EC0148E050E0BC0181E0DD
:105000000E94C02788E0FE01ACE2B3E001900D925F
:105010008A95E1F7DF91CF91089508958EEF97E09B
:105020009F938F930E94B005809181030F900F9002
:10503000811109C00E942D2C0E948A2C8091E200CF
:1050400084608093E20008958AEF97E09F938F93A6
:105050000E94B005109281030F900F90089586EF83
:1050600097E09F938F930E94B0050E94B4260F9003
:105070000F90089582EF97E09F938F930E94B00561
:1050800060917E0381E0611101C080E00E94AB2647
:105090000F900F9008958EEE97E09F938F930E944C
:1050A000B0059091820381E0943009F080E0609136
:1050B0007E030E94B1260F900F90089520912A033D
:1050C0002F5F822F62E30E94232F992319F02093F0
:1050D0002A03089510922A0380912B038823F1F06C
:1050E000809182038430C1F49091E9009F702091F7
:1050F000EC00822F817020FD80E8892B93E0909353
:10510000E9009091EB0090FF04C09091EE0097FDB4
:1051100008C08F708093E90010922B0308951092BD
:10512000F1009091E80095FDFACF9091E80090FF92
:10513000F0CF9091E8009E779093E800EACF42E0AC
:1051400061EC81E00E94A92B42E261EC82E00E94C6
:10515000A92B42E261EC83E00E94A92B909182038B
:1051600081E0943009F080E060917E030E94A126E6
:10517000089580918403833009F461C030F4813054
:10518000D1F1823009F49EC008958A3009F48AC0B2
:105190008B3009F46FC0893009F050C080918303CF
:1051A000813209F04BC08091870390918803029768
:1051B00008F044C08091E800877F8093E8008091E8
:1051C000E80082FF37C09091F3008091F2000297CF
:1051D00031F48091F100813011F0863021F480911A
:1051E000F100809334038091E8008B778093E8008E
:1051F0000E94DD2B23C080918303813AF9F48091D2
:10520000E800877F8093E80080918703909188036E
:10521000892B61F468E08CE293E070E00E94EC2A54
:105220008091E8008B778093E800089560E090E03B
:1052300080E0F3CF809182038111C1CF08958091E6
:105240008303813AD9F78091870390918803892B52
:10525000A9F78091E800877F8093E8008091E800BB
:1052600080FFFCCF80912D018093F1008091E800B8
:105270008E77BCCF80918303813201F780918703C1
:1052800090918803892BD1F68091E800877F8093E5
:10529000E8000E94DD2B8091850380932D010E9400
:1052A000F20A089580918303813241F68091E800EB
:1052B000877F8093E8000E94DD2B80918603809396
:1052C0003503089580918303813A09F0B7CF809127
:1052D000E800877F8093E8008091E80080FFFCCFA2
:1052E00080913503C1CF9FB7F89410922B039FBFD5
:1052F00090918203943009F048C02091E9002F700A
:105300003091EC00932F917030FD90E8922B23E0C8
:105310002093E9002091EB0020FF34C02091EE00A3
:1053200027FF30C020912903222321F02091E8009B
:1053300025FF28C01092290326E03091E80035FFB0
:1053400014C08093F1008091E80085FD27C0809112
:10535000E80080FFFCCF8091E8008E778093E80022
:105360009F709093E90080E008953091820334307B
:1053700049F43091EB0035FD05C0215041F481E046
:10538000809329039F709093E9008FEF0895EFE9D0
:10539000FFE03197F1F700C00000CFCF8FB7F8944E
:1053A00021E020932B038FBFDBCF84B7877F84BF9F
:1053B0000FB6F894A8958091600088618093600092
:1053C000109260000FBE80E890E00FB6F8948093D2
:1053D0006100909361000FBE0E94BA2608950E945A
:1053E0002D2C0E948A2CE2EEF0E080818460808384
:1053F00078940E94082F089583E291E00E944E2441
:10540000089580918203853091F48091BA0280FFE3
:1054100008C088ED97E09F938F930E94B0050F908E
:105420000F9080918203853019F00E9435270895EE
:105430000E940A270E94C726882399F3809180033F
:10544000882379F30E94872A0E94F20AEACF0895FE
:105450009A014091890350918A030E94302A08954D
:10546000492F55274330510521F168F4413051054A
:1054700009F443C04230510509F444C090E080E093
:1054800050E040E026C04132510551F14232510511
:10549000A9F76330710590F7FB01EE0FFF1FEE5186
:1054A000FE4F4081518161527E4FFB01808190E02F
:1054B00010C099278130910581F0009729F002975B
:1054C000E9F6E2E0F8E002C0E8E2F8E0849190E07A
:1054D000AF01F901518340830895E6E1F8E0F6CF8A
:1054E0006330710558F6660F771FFB01E851FE4FD8
:1054F0004081518189E090E0ECCF82E190E040E88A
:1055000058E0E7CF84E590E04CE258E0E2CF80E15C
:1055100089BD82E189BD09B400FEFDCF8091D8002C
:105520008F7D8093D8008091E00082608093E000BE
:105530008091E00081FDFCCF0895AF92BF92CF92A1
:10554000DF92FF920F931F93CF93DF936C01EB01D8
:105550008A010E94FC2BF82E811123C00115110530
:1055600039F0F80180819181C81BD90BC80ED91E72
:10557000B12CA12C2097A9F08091E80085FD22C0D4
:105580008091E8008E778093E80001151105A1F065
:10559000F80180819181A80EB91EB182A08285E0B8
:1055A000F82E8F2DDF91CF911F910F91FF90DF90FB
:1055B000CF90BF90AF9008950E94FC2B8823D1F22A
:1055C000F82EEFCFF60181916F018093F1002197C2
:1055D000FFEFAF1ABF0ACECFFC01809189039091F3
:1055E0008A0386179707A0F06115710529F4909139
:1055F000E8009E779093E80090E06115710551F402
:10560000911108C08091E80082FF34C080E00895C5
:10561000BC01F2CF809182038823C1F18530C1F1B2
:105620008091E80083FD30C08091E80082FDEACFE0
:105630008091E80080FFE1CF8091F3002091F2009B
:10564000382F6115710519F02830310558F091E0B7
:105650002830310509F090E02091E8002E77209362
:10566000E800CBCF81918093F100615071092F5FE9
:105670003F4FE7CF80918203882341F0853041F08E
:105680008091E80083FFBECF81E0089582E0089515
:1056900083E00895FC018091890390918A03861725
:1056A0009707A0F06115710529F48091E8008E77C5
:1056B0008093E80090E06115710551F4911108C0E4
:1056C0008091E80082FF35C080E00895BC01F2CFF0
:1056D000809182038823C9F18530C9F18091E80067
:1056E00083FD31C08091E80082FDEACF8091E8001F
:1056F00080FFE1CF8091F3002091F200382F6115F7
:10570000710519F02830310558F091E02830310545
:1057100009F090E08091E8008E778093E800CBCF8D
:1057200084918093F1003196615071092F5F3F4F52
:10573000E6CF80918203882341F0853041F080914B
:10574000E80083FFBDCF81E0089582E0089583E003
:105750000895982F973028F08F708093E90081E0AA
:1057600008959093E900242F762F50E0981731F098
:105770007091EC002091ED005091F00021FD02C0ED
:105780009F5FE8CF3091EB003E7F3093EB0030918C
:10579000ED003D7F3093ED003091EB0031603093B0
:1057A000EB007093EC002093ED005093F0002091FB
:1057B000EE0027FDE5CF80E008958091830387FF09
:1057C00013C08091E80082FF06C08091E8008B77CB
:1057D0008093E80004C0809182038111F2CF089584
:1057E000809182038823D9F38091E80080FFF8CF6D
:1057F0008091E8008E77ECCF2091E4003091E500B5
:1058000095E6A9012091EC00822F817020FF06C04F
:105810008091E80080FF06C080E008952091E800B4
:1058200022FD1AC080918203882389F0853089F097
:105830008091EB0085FD0FC02091E4003091E500E0
:1058400042175307F9F29150E1F684E0089582E09F
:10585000089583E0089581E008950E949C2C0E94A1
:10586000A42CE0EEF0E0808181608083E8EDF0E040
:1058700080818F77808319BCA7EDB0E08C918E7FFB
:105880008C9380818F7E80831092810308950F9383
:105890001F93CF93DF930E949C2C0E94A42CC8EDF1
:1058A000D0E088818F778883888180688883888129
:1058B0008F7D888319BC1092820310927E03109210
:1058C000800310927F0300EE10E0F80180818B7F4F
:1058D000808388818160888342E060E080E00E946C
:1058E000A92BE1EEF0E080818E7F8083E2EEF0E094
:1058F000808181608083808188608083F8018081DD
:105900008E7F8083888180618883DF91CF911F9112
:105910000F910895E8EDF0E080818F7E8083E7EDC0
:10592000F0E080818160808384E082BF81E08093A9
:1059300081030E94472C0895E8EDF0E080818E7F7E
:1059400080831092E20008951092DA001092E10034
:1059500008951F920F920FB60F9211242F933F9329
:105960004F935F936F937F938F939F93AF93BF9367
:10597000EF93FF938091E10082FF0BC08091E200E2
:1059800082FF07C08091E1008B7F8093E1000E943D
:105990005E288091DA0080FF19C08091D80080FFD6
:1059A00015C08091DA008E7F8093DA008091D90053
:1059B00080FF96C080E189BD82E189BD09B400FE07
:1059C000FDCF81E0809382030E940E288091E10048
:1059D00080FF19C08091E20080FF15C08091E20035
:1059E0008E7F8093E2008091E20080618093E200EC
:1059F0008091D80080628093D80019BC85E08093A4
:105A000082030E943A288091E10084FF2BC080919C
:105A1000E20084FF27C080E189BD82E189BD89B5AC
:105A2000982F917080FFFBCF8091D8008F7D80935D
:105A3000D8008091E1008F7E8093E1008091E200A8
:105A40008F7E8093E2008091E20081608093E2008B
:105A500080917E03882309F449C084E08093820307
:105A60000E944B288091E10083FF29C08091E200D1
:105A700083FF25C08091E100877F8093E10082E071
:105A80008093820310927E038091E1008E7F809349
:105A9000E1008091E2008E7F8093E2008091E2003D
:105AA00080618093E20042E060E080E00E94A92BE8
:105AB0008091F00088608093F0000E942F28FF9171
:105AC000EF91BF91AF919F918F917F916F915F9176
:105AD0004F913F912F910F900FBE0F901F901895EF
