:100000000C94B7010C941B020C9400020C94000297
:100010000C9400020C9400020C9400020C94000258
:100020000C9400020C9400020C9400020C94000248
:100030000C9400020C9400020C94EA150C9400023B
:100040000C9400020C9400020C9400020C94000228
:100050000C9400020C9400020C9400020C94000218
:100060000C9400020C940002E903EB03F603ED0389
:10007000EF03F103F303F503F803FA03FC030704AA
:10008000FE03000402040404060409040E0C0E0C12
:10009000400C400C7E0C9E0C0E0E0E0EE00C0E0E54
:1000A0008D0D8D0DFE0D0E0E0E0E070E9A0D9A0D76
:1000B0009A0D9A0D9A0D9A0D9A0D9A0D9A0D9A0D08
:1000C0009A0D9A0D9A0D9A0D9A0D9A0DAB0DB90DC8
:1000D000C00DC70DD10D9D0E9D0EAF0EAF0EA60E1D
:1000E000AF0EAF0EAF0E9D0E9D0EAB0EAF0EAF0E50
:1000F000AB0E290014001A000800150017001C00A0
:1001000018000C00120013002A002B000400160037
:10011000070009000A000B000D000E000F0033005D
:100120002800E1001D001B00060019000500110059
:100130001000360037003800E500E000E200E30080
:1001400065002C412C412C412C426500E700E60063
:10015000E40035002400250026002D002E00330089
:100160002F0030003800310034002B002100220025
:100170002300005C4C005000520051004F0046002C
:100180002800E1001E001F002000DE5C49004A003C
:100190004B004E004D000000E500E000E2002700AB
:1001A00065000100010001002C006500E700E60089
:1001B000E4002900400041004200430044004500A3
:1001C0004600A800AA00A9004C002B003D003E00FC
:1001D0003F000000000000000000000000000000E0
:1001E0002800E1003A003B003C0000000000000055
:1001F0000000000000000000E500E000E200E30075
:10020000650001002C002C002C006500E700E600D2
:10021000E40009023B0002010080320904000001F1
:1002200003010100092101010001224000070581AD
:100230000308000109040100010300000009210175
:10024000010001228400070583030800010501095C
:1002500002A10185020901A100050919012905155D
:10026000002501750195058102750395018103053E
:1002700001093009311581257F750895028106092C
:10028000381581257F3500450075089501810605E3
:100290000C0A38021581257F750895018106C0C0BA
:1002A00005010980A1018503150126B7001901295F
:1002B000B7751095018100C0050C0901A1018504E5
:1002C0001501269C0219012A9C02751095018100D6
:1002D000C005010906A10175019508050719E02966
:1002E000E7150025018102950175088103950575C3
:1002F00001050819012905910295017503910395DE
:10030000067508150026FF000507190029FF810062
:10031000C01201100100000008C016DB2700010117
:10032000020301240364006D00390072006500635C
:10033000006F007200640073002E0063006F006D98
:10034000003A00700031000C0350006C006100693D
:10035000006400160364006D0039007200650063DC
:10036000006F00720064007300040309040011248C
:100370001FBECFEFD8E0DEBFCDBF04B603FE29C05D
:100380008091A0029091A102A091A202B091A3023B
:100390008730904BA740B04BE1F41092A00210922E
:1003A000A1021092A2021092A30214BE84B7877F0A
:1003B00084BF0FB6F894A8958091600088618093FF
:1003C0006000109260000FBEE0915A02F0915B0253
:1003D000099411E0A0E0B1E0EEE4F7E302C005907B
:1003E0000D92A432B107D9F722E0A4E2B1E001C036
:1003F0001D92A03AB207E1F70E9466180C94A51B63
:100400000C940000A82FB92F80E090E041E050EA62
:10041000609530E009C02D9182279795879510F05F
:1004200084279527305EC8F36F5FA8F30895EADF4D
:100430008D939D930895CF93CFB7CF93DF93C395BB
:100440004B9BE9F74B9B0BC04B9B09C04B9B07C0D9
:100450004B9B05C04B9B03C04B9B01C08BC06F9354
:10046000C0917702DD27C258DD4F2F9365E54B9B86
:1004700003C02F916F91E6CF0F931F934F9320E00E
:1004800040E15F9309B10C7003FB27F93F9350E003
:100490003BE039C01C7040642F77012F5F5F1EC0A6
:1004A000406819B11C702F7752501FC0406409B1C9
:1004B0002F770C70D1F15F5F00C023C0406219B18B
:1004C0002F771C7091F15F5F00C025C00C70102762
:1004D000515012F45D5F0000115027952C3F19B167
:1004E000C8F61C700127015027952C3FC8F64227FB
:1004F000499309B10C7010274F73115027952C3F69
:10050000A8F64695469519B11C7079F0012701505F
:1005100027952C3F98F66B5A60F3315009B1B0F62D
:1005200000C011E01CBB002719C03B503195C31B14
:10053000D04011E01CBB0881033C09F10B34F9F0F9
:10054000209175021981110F1213EDCF4A81441FBA
:10055000093651F10D3211F0013E29F700937C026A
:100560003F915F914F911F910F912F916F91CCB35C
:10057000C0FD65CFDF91CF91CFBFCF91189520916E
:100580007C02222369F310917A021123E9F53430B9
:10059000EAF130937A0220937602109177023BE0E1
:1005A000311B3093770232C000917A02013064F53A
:1005B0000AE54F7049F43091130134FD28C00093CF
:1005C0001301CEE5D2E027C0433049F030916902F3
:1005D00034FD1DC000936902CAE6D2E01CC0309110
:1005E000940234FD14C000939402C5E9D2E013C014
:1005F000052710E000C000000BB91AC0052710E065
:10060000221F1DC010E021C04AE502C032ED432F79
:10061000C4E1D0E032E01AB11C605B9A0BB11AB9A8
:100620005CE020E865E320FF05270BB927951795C7
:100630001C3FF0F66695B8F7B1F720FF05270BB918
:10064000279517951C3FD0F62795179517FF052777
:1006500000001C3F0BB9B0F629913A9519F7037FBA
:1006600010917B02110FC651D0400BB911F01093BD
:10067000750211E01CBB08601AB1137F402F437F45
:1006800054E05A95F1F70BB91AB94BB969CF0C94EC
:10069000EC060C94ED060C9451030C94950381E048
:1006A000089581E008951F93CF93DF9300D000D089
:1006B0001F92CDB7DEB749835A8320914A018981C1
:1006C0009A81211112C0662349F00E94C213182F8B
:1006D000682F89819A810E94671303C00E94961334
:1006E000182F69817A81812F04C00E94C213698109
:1006F0007A810F900F900F900F900F90DF91CF9114
:100700001F910C947B04FC014081518162817381B3
:1007100084810C9453030E94F214811102C00E9440
:100720006C150C9447030C94490308950C944D03E5
:1007300008950E948D0E0E9498032FEF84E39CE0A1
:10074000215080409040E1F700C000000C9410164A
:100750000F931F93CF93DF938C010E948303EC01CF
:10076000B8010E944B03882309F4BBC0B801CE0135
:100770000E949608882309F4B4C0C531FCE5DF0760
:1007800008F07BC0C2308CE5D80708F452C0F801ED
:100790008281882309F454C00E94F214811102C09E
:1007A0000E946C150E94051590E090935D02809365
:1007B0005C02FE01E350FC45E231F10530F4EC5CF3
:1007C000FF4F80915C020C94491B80915C02816018
:1007D00027C0826025C0846023C0806121C0806200
:1007E0001FC080641DC080681BC08460886018C002
:1007F0008E7F16C08D7F14C08B7F12C08F7E10C07D
:100800008F7D0EC08F7B0CC08F770AC08B7F877F58
:1008100007C087FB222720F991E0922790FB87F9F8
:1008200080935C0280915C020E9409150E948D0EEB
:1008300058C0C115ECE5DE0751F0C130DC4579F058
:10084000C801DF91CF911F910F910C944F03F801D4
:100850008281882309F445C00E94990342C0F801AF
:100860008281882309F43DC08091B601982F90952C
:1008700090FB80F98093B60134C0C6318CE5D8076F
:1008800039F50E944214282FF8018281409100011D
:1008900050910101882379F02A7A91E009F490E0DF
:1008A00090932401911102C069E201C065E3CA017D
:1008B0000E94A0150AC080912401811102C069E242
:1008C00001C065E3CA010E94A2150E948E1409C0EE
:1008D000CE3DDC4509F0B4CFF801828181110E9440
:1008E0006C1580E0DF91CF911F910F91089580E00A
:1008F00090E0089508959CE0799FF001112490E321
:10090000899FE00DF11D1124E60FF11DEE0FFF1F71
:10091000EE50FF4F859194910895880F991FFC0127
:10092000EE5EFD4F859194910895CF93DF930E94E1
:100930007B040E944C06EC01811520E59207F0F53E
:10094000811530E4930708F024C1883E910500F535
:10095000803E910508F09CC1883A910570F4853A73
:10096000910508F09FC08130910509F491C108F408
:1009700042C1049708F08CC13EC18F3B910508F439
:100980009CC0803C910508F436C1805C9109F4C09C
:10099000811540E2940758F4C11581E0D80708F0AA
:1009A00077C1C03FD10508F426C1D06571C181155A
:1009B00020E3920708F0E4C09F70DEC0811535E5A2
:1009C000930708F044C0811544E5940708F0F8C087
:1009D000C11582E5D80708F5C11521E5D20708F051
:1009E000DBC08C2F837021E030E002C0220F331F68
:1009F0008A95E2F73C68CE0174E0969587957A95E2
:100A0000E1F78370382BCF70C695C69580E2C89FFA
:100A1000E0011124C22BD32B3BC12C2F2695269508
:100A2000CE0183709927C115D34508F0BAC040E2C2
:100A3000249F90011124C1E0D0E002C0CC0FDD1F43
:100A40008A95E2F72C2B3D2BE901DC6821C1811549
:100A500049E59407A0F4C11588E5D80708F0B5C0AA
:100A6000C11526E5D20708F0C6C08C2F0E94C90622
:100A70008F71C82FD0E0DC2FCC27D06209C181153F
:100A80003AE5930708F4A6C090568115904208F005
:100A9000B2C08D2F8F710E94C906DD27D0628F7181
:100AA000D82BF6C0853A910509F4A8C0863A91057D
:100AB00009F0A7C0C2E8D0E4EBC0883A910509F478
:100AC000A3C0893A910509F4A2C08A3A910509F4B4
:100AD000A1C08B3A910509F4A0C08C3A910509F4A4
:100AE0009FC08B3B910509F49EC08C3B910509F496
:100AF0009DC08D3A910509F49CC0803B910509F495
:100B00009BC08E3A910509F49AC08F3A910509F479
:100B100099C0813B910509F498C0823B910509F485
:100B200097C0833B910509F496C0843B910509F475
:100B300095C0853B910509F494C0863B910509F465
:100B400093C0873B910509F492C0883B910509F455
:100B500091C0893B910509F490C08D3B910509F442
:100B60008FC08E3B910509F48EC08A3B910509F434
:100B70008DC0C0E0D4E48CC00E948D04EC0188C01C
:100B80009927D3FF03C0EC01D86C82C0EC01D06C74
:100B90007FC0DF70D06A7CC0DC2FCC27C16FD06AE9
:100BA00077C040E2249F90011124C1E0D0E002C050
:100BB000CC0FDD1F8A95E2F7C22BD32BDA6868C011
:100BC000D82FCC27C46FD06A63C0DC2FCC27C06F6E
:100BD000D06A5EC08F700E94C90694E0D695C79512
:100BE0009A95E1F7CF70D0E0DC2FCC27D06A8F70D8
:100BF000806EC82B4DC0C0E0D0E04AC0C1E8D0E450
:100C000047C0C3E8D0E444C0C2EED4E441C0C9EE5A
:100C1000D4E43EC0CAEED4E43BC0C5EBD4E438C053
:100C2000C6EBD4E435C0C3EBD4E432C0C4EBD4E4A7
:100C30002FC0C7EBD4E42CC0CCECD4E429C0CDEC5D
:100C4000D4E426C0C3E8D5E423C0CAE8D5E420C074
:100C5000C2E9D5E41DC0C4E9D5E41AC0C1E2D6E4B6
:100C600017C0C3E2D6E414C0C4E2D6E411C0C5E2A2
:100C7000D6E40EC0C6E2D6E40BC0C7E2D6E408C094
:100C8000CFE6D4E405C0C0E7D4E402C0CAE2D6E4AB
:100C9000CE01DF91CF9108958238910549F1B0F4EA
:100CA0008133910509F458C048F48932910509F45B
:100CB0004EC08A32910509F454C0089585339105D8
:100CC00009F440C08933910599F00895833E910558
:100CD00029F138F4803E910591F0823E9105A1F012
:100CE0000895863E9105F9F0873E910531F108950A
:100CF00020915C0220FD3AC021FD38C0089580910A
:100D00005C0280FD35C032C080915C0282FF32C03F
:100D100080915C0284FD30C083EE39C080915C021A
:100D200082FD28C0F5CF80915C0283FF27C08091AF
:100D30005C0284FD21C087EE2AC080915C0283FDA5
:100D40001DC0F5CF80915C0285FD1AC01BC080914B
:100D50005C0285FD17C014C080915C0286FD14C042
:100D600015C080915C0286FD11C00EC080EE0FC0E0
:100D700089E30DC082EE0BC080E009C086EE07C09B
:100D800089E205C085E303C08AE201C081E390E007
:100D9000089590915C0292FF0DC0282F2871283091
:100DA00019F4877F846006C0282F2471243011F441
:100DB0008B7F886093FF0DC0282F2871283119F48C
:100DC000877E846106C0282F2471243111F48B7E24
:100DD000886194FD877E089508950895E82FF0E0D6
:100DE000EE0FFF1FEB5DFE4F808191810895089506
:100DF000E0E2F1E041E050E024E02E0F9191A92FD4
:100E0000A295AF70B0E091963C9191979F70BA0116
:100E100002C0660F771F9A95E2F7CB018095832376
:100E200091968C932E13EACFA4E1B1E041E050E01B
:100E30002CE02A0F8D91E82FE295EF70F0E031A1C0
:100E40008F70BA0102C0660F771F8A95E2F7CB0157
:100E5000962F9095932391A392A1892B82A32A1375
:100E6000E9CF10922E0110922D01109226011092BE
:100E700025011092300110922F011092280110923A
:100E80002701109232011092310110922A01109222
:100E90002901109234011092330110922C0110920A
:100EA0002B0184E00E94EE070C948B034F925F921B
:100EB0007F928F929F92AF92BF92CF92DF92EF92EA
:100EC000FF920F931F93CF93DF9320E2422E21E0F6
:100ED000522EADE2B1E020E001E010E05D018D9026
:100EE0009C90119711961C921E92E20189912E01FD
:100EF000E82FE295EF70F0E031A18F70A80102C0F9
:100F0000440F551F8A95E2F7CA01342B31A342A141
:100F1000382F3095432342A350EA5A95F1F794E1D4
:100F2000C92E91E0D92E40E050E0E60179906E01A3
:100F3000672D62956F7070E0EB01E8A06D917C9178
:100F40001197F12CD72DDF7002C0F594E794DA9554
:100F5000E2F7E0FC08C07801042E02C0EE0CFF1C92
:100F60000A94E2F702C0E12CF12C6E297F29119638
:100F70007C936E934F5F5F4F4C305105B1F691A15A
:100F8000392331A392A1892B82A3129681E0F50126
:100F9000408151818416950609F480E0282BF1E008
:100FA000A533BF0709F09ACF44E065E271E08DE216
:100FB00091E00E94EF070E94930381E0DF91CF91BF
:100FC0001F910F91FF90EF90DF90CF90BF90AF9067
:100FD0009F908F907F905F904F9008950895FF921B
:100FE0000F931F93CF93DF93F82E092F162FD72F30
:100FF000C42F222349F081E0809337010E94B41569
:101000009093360180933501809137018823D9F080
:1010100080913501909136010E94C015069798F095
:10102000EF2DF02FA12FBD2F80E090E04C2F50E04E
:101030008417950734F4219131912D933D930196B6
:10104000F7CF10923701DF91CF911F910F91FF9051
:1010500008950F931F93CF93DF93C62FD42F022FA2
:10106000FC0182818823C9F060933A010E94B41583
:10107000909339018093380180E28C0F883008F01A
:1010800050C0C77081E001C0880FCA95EAF7DF91B0
:10109000CF911F910F910C94CA0B10913A01161326
:1010A00030C080913801909139010E94C015883C70
:1010B000910538F5C0E2CD0F1D17B9F080E2810F20
:1010C000883040F4177081E001C0880F1A95EAF764
:1010D0000E94D10BC83048F481E09D2F977001C069
:1010E000880F9A95EAF70E94CA0B802F0E94B70BCF
:1010F000C830B8F4D77081E001C0880FDA95EAF7FC
:101100000AC080E28C0F883060F4C77081E001C0B3
:10111000880FCA95EAF7DF91CF911F910F910C9438
:10112000D10BDF91CF911F910F9108959C01CB01BD
:10113000203F4CE53407F9F078F4283DFCE53F0703
:10114000B9F0293D4CE5340711F1273D3C4531F517
:1011500026E241EE61EE1EC0223FFCE53F0799F01A
:1011600070F0233F3C45D1F427E245EE66EE12C015
:1011700027E245EE0EC026E241EE60EE0BC027E20C
:1011800045EE64EE07C026E241EE62EE03C028E2BF
:1011900041E065EE0E94290880E00895FC0182810B
:1011A000882319F010923A01089581E008959093F0
:1011B000400180933F010895E0913F01F09140018B
:1011C000309721F00190F081E02D099480E008959E
:1011D000E0913F01F0914001309721F00280F381CE
:1011E000E02D09940895E0913F01F091400130977E
:1011F00021F00480F581E02D0994089520913D01AE
:1012000030913E018217930771F090933E018093D5
:101210003D01E0913F01F0914001309721F00680BF
:10122000F781E02D0994089520913B0130913C0114
:101230008217930771F090933C0180933B01E091FA
:101240003F01F0914001309721F00084F185E02DBD
:1012500009940895089508950C942B0908950C9409
:101260002E090E942A090C942C0981E008950E94FD
:10127000AB150E94F8060E942C160C942F094F9271
:101280005F927F928F929F92AF92BF92CF92DF92A6
:10129000EF92FF920F931F93CF93DF93CDB7DEB7FB
:1012A0002A970FB6F894DEBF0FBECDBF0E94560737
:1012B0000E943509811111C08FEF89838A831B82B7
:1012C0000E94B4158160782F9D838C8349815A8157
:1012D0006B818D810E94FD0957C092E4C92E91E077
:1012E000D92E00E010E0AA24A394B12C702E802FF8
:1012F0000E94EE064C01F601419051906F01482684
:1013000059264114510431F40F5F1F4F0430110569
:1013100069F7D2CF8091B60181FD0E94F70620E0E7
:1013200030E07501022E02C0EE0CFF1C0A94E2F7B9
:10133000C70184219521892B09F12E837F828E207C
:101340009F2091E0892809F490E098870E94B415C5
:101350008160782F9A8789874E815F8168858A8529
:101360000E94FD09000F111FF801EE5BFE4F808106
:101370009181E826F926F182E08206C02F5F3F4F77
:101380002C30310571F6C0CF0E94BF17109141017A
:101390000E94DC081817D9F00E94DC0880934101F4
:1013A0002A960FB6F894DEBF0FBECDBFDF91CF9166
:1013B0001F910F91FF90EF90DF90CF90BF90AF9073
:1013C0009F908F907F905F904F900C9496032A96F9
:1013D0000FB6F894DEBF0FBECDBFDF91CF911F9146
:1013E0000F91FF90EF90DF90CF90BF90AF909F90C4
:1013F0008F907F905F904F900895CF93DF93CDB7FC
:10140000DEB72B970FB6F894DEBF0FBECDBF4F836C
:10141000588769877A878B87DE01119686E0FD0100
:1014200011928A95E9F785E0FE01379601900D92B9
:101430008A95E1F749815A816B817C818D819E81FA
:101440000E9437112B960FB6F894DEBF0FBECDBFAA
:10145000DF91CF910895FC01808191810E94031456
:101460000895882309F41AC18238C1F40E94DC0867
:1014700081FD14C169E380910001909101010E94F6
:10148000A0150E948E142FEF81EE94E02150804031
:101490009040E1F700C0000069E319C08338F9F417
:1014A0000E94DC0880FDFAC063E580910001909104
:1014B00001010E94A0150E948E142FEF81EE94E08E
:1014C000215080409040E1F700C0000063E580912A
:1014D0000001909101010E94A2150C948E14843891
:1014E000C1F40E94DC0882FDD9C067E4809100014C
:1014F000909101010E94A0150E948E142FEF81EEA1
:1015000094E0215080409040E1F700C0000067E483
:10151000DECF9CEF980F913A40F4682F8091000144
:10152000909101010E94A015D8CF90E2980F9830B9
:1015300050F4877091E001C0990F8A95EAF7892FDE
:101540000E944514CACF9BE5980F933070F4853AFA
:1015500029F0863A31F083E890E005C081E890E018
:1015600002C082E890E00C94FE0898E5980F97314D
:1015700008F08EC0883A09F445C0893A09F445C09C
:101580008A3A09F445C08B3A09F445C08C3A09F40B
:1015900045C08B3B09F445C08C3B09F445C08D3AEE
:1015A00009F445C0803B09F445C08E3A09F445C0B2
:1015B0008F3A09F445C0813B09F445C0823B09F4E8
:1015C00045C0833B09F445C0843B09F445C0853BD5
:1015D00009F445C0863B09F445C0873B09F445C082
:1015E000883B09F445C0893B09F445C08D3B09F4AB
:1015F00045C08E3B09F445C08A3B09F445C080E0F4
:1016000090E044C082EE90E041C089EE90E03EC0A0
:101610008AEE90E03BC085EB90E038C086EB90E02E
:1016200035C083EB90E032C084EB90E02FC087EBB5
:1016300090E02CC08CEC90E029C08DEC90E026C0AE
:1016400083E891E023C08AE891E020C082E991E03C
:101650001DC084E991E01AC081E292E017C083E2E4
:1016600092E014C084E292E011C085E292E00EC0E4
:1016700086E292E00BC087E292E008C08FE690E03D
:1016800005C080E790E002C08AE292E00C94140961
:10169000803F20F00E94C7160C94B4170895882349
:1016A00009F464C0823879F40E94DC0881FF5EC0CE
:1016B00069E380910001909101010E94A0150E94B0
:1016C0008E1469E310C08338B1F40E94DC0880FFF7
:1016D0004DC063E580910001909101010E94A01529
:1016E0000E948E1463E580910001909101010E9497
:1016F000A2150C948E14843879F40E94DC0882FFC1
:1017000035C067E480910001909101010E94A0150D
:101710000E948E1467E4E7CF9CEF980F913A10F483
:10172000682FE1CF90E2980F983050F4877091E0E5
:1017300001C0990F8A95EAF7892F0E944B14D9CFDF
:101740009BE5980F933020F480E090E00C94FE0825
:1017500098E5980F973120F480E090E00C941409FC
:10176000803F20F00E942F170C94B4170895CF9358
:10177000C82F0E94310AC93349F42FEF83EC99E056
:10178000215080409040E1F700C000008C2FCF91A5
:101790000C944F0B882321F00E9445140C948E1456
:1017A0000895882321F00E944B140C948E14089500
:1017B0004F925F926F927F92BF92CF92DF92EF92A1
:1017C000FF920F931F93CF93DF937C01D62FC72FE8
:1017D000FC01058102950F70128111110E946214A3
:1017E0000E943B14882379F0112369F080E28D0F69
:1017F000883048F082E00E94D9140E943B1491E0A6
:10180000B82EB92601C0B12CCC2EC2948FE0C822CC
:10181000D12CF601EA5BFF4F0C94491B8C2F807F83
:10182000CF70882311F0C295C07F112399F0CC238B
:1018300009F4CFC180E28D0F883010F0D11104C0BF
:101840008C2F0E94451403C08C2F0E9455140E94B7
:101850008E14BFC18D2F0E944F0BCC2309F4DEC123
:1018600080E28D0F883010F0D11104C08C2F0E94BF
:101870004B1403C08C2F0E945B140E948E14CEC1A7
:101880008C2F807FCF70803211F0C295C07FDD2316
:1018900019F0D130C9F022C0112371F0002341F0BA
:1018A000013031F40E9475148C2B0E947B14B6C158
:1018B0000E9475148C2B46C1002319F0013009F4E5
:1018C000ADC10E94841418C0112321F0063008F025
:1018D000A5C10EC0053008F0A1C10EC0112351F002
:1018E000002331F0F701858180FF73C18F708583FC
:1018F0008C2F28C101117EC18C2F2AC18C2F869577
:101900008695837090E0009719F0019761F086C189
:10191000112321F08D2F9C2F937002C080E090E066
:101920000E94FE088BC1112321F08D2F9C2F9370F4
:1019300002C080E090E00E94140980C11123F9F0F8
:10194000D53F51F0D63F71F0D43FA9F480915402B5
:101950009091550281600BC0809154029091550284
:10196000826005C0809154029091550284609093EA
:101970005502809354028D2F0E94C7161EC0D53F7A
:1019800051F0D63F71F0D43FA9F480915402909168
:1019900055028E7F0BC080915402909155028D7F2D
:1019A00005C080915402909155028B7F909355020F
:1019B000809354028D2F0E942F170E94B4173EC1AE
:1019C0008C2F837009F050C0111134C18D2F829576
:1019D00086958770880F880F9D2F9F70492E512CF8
:1019E000612C712C082E04C0440C551C661C771CFD
:1019F0000A94D2F7D4FF14C00FE010E020E030E0EA
:101A0000B901A80104C0440F551F661F771F8A95AE
:101A1000D2F7CB01BA01609570958095909503C07F
:101A200060E070E0CB01C695C695C370D0E0C230CF
:101A3000D10561F0C330D10581F06429752986296B
:101A40009729219771F00E947C12F4C064297529AE
:101A5000862997290E948E12EDC00E947C12C30134
:101A6000B2010E946A12E6C0112319F08C2F817016
:101A700001C08695882309F4DDC08D2F8295869557
:101A80008770880F880F9D2F9F70492E512C612CD5
:101A9000712C082E04C0440C551C661C771C0A943B
:101AA000D2F7D4FF14C00FE010E020E030E0B9011D
:101AB000A80104C0440F551F661F771F8A95D2F7EF
:101AC000CB01BA01609570958095909503C060E058
:101AD00070E0CB01C695C695C3704C2F50E04230E4
:101AE000510569F04330510589F06429752986292B
:101AF00097294130510571F00E9442139BC064291F
:101B00007529862997290E94541394C00E94421374
:101B1000C301B2010E9430138DC08D2F90E0FC01F3
:101B2000E05EF109E531F10508F04FC0EA5AFF4FD8
:101B30000C94491BDF708C2F8F71112331F00E94A0
:101B4000C9128D2F0E94CA0B69C00E94EA128D2F04
:101B50000E94D10B63C0112341F0053008F05EC034
:101B60008C2F8F710E940F1359C0063008F056C099
:101B7000F7CF112339F08C2F8F710E94C9124EC0FC
:101B80001123C9F38C2F8F710E94EA1247C01123D1
:101B900029F08C2F8F710E94B41240C00E94AF12A6
:101BA0003DC0112349F0CF718C2F0E94C91263E010
:101BB0008C2F0E94C41432C081E00E94D9140230DC
:101BC00068F182E00E94D91429C0112331F000236A
:101BD00091F28D2F0E94310A21C0002399F2D9334E
:101BE00049F45FEF63EC79E0515060407040E1F7F9
:101BF00000C000008D2F0E944F0B10C04C2F4F7063
:101C00006D2FC7010E9477040E94DB1117C04C2F73
:101C10004F706D2FC7010E947A0410C088E0C8166B
:101C2000D10441F05CF0EAE0CE1AD108F2E0CF1620
:101C3000D10420F40E94DC080E949603BB20F1F03E
:101C40000E94371480FD1AC0F70112820E943114DD
:101C50000E94C912C7010E944C0E0E943114DF91EC
:101C6000CF911F910F91FF90EF90DF90CF90BF9099
:101C70007F906F905F904F900C94EA12DF91CF911C
:101C80001F910F91FF90EF90DF90CF90BF907F90CA
:101C90006F905F904F9008950F931F93CF93DF93B2
:101CA000EC01888199812B813C81232BB9F09F3FE6
:101CB00011F48F3F99F0CE010E94A803882371F0A0
:101CC000688179818A810E940E148C010E946613BA
:101CD0000E946712B801CE010E94D80BDF91CF910C
:101CE0001F910F9108950E9462140E9472140E9425
:101CF0008E140E945A180E94B41780E090E00E944F
:101D0000FE0880E090E00C9414098091000190910D
:101D100001010E94A4150C94730E0E9452140C949D
:101D2000850EE92FE295EF70F0E03297EE30F10585
:101D3000B0F4E559FF4F0C94491B803F91F018F423
:101D4000803E68F40EC0843F51F40BC0803E48F0E2
:101D5000813F29F406C093FB882780F9089580E02D
:101D6000089581E008950E9403140E94910E089541
:101D7000CF93DF9300D000D01F92CDB7DEB70F9086
:101D80000F900F900F900F90DF91CF910895CF9308
:101D9000DF9300D000D000D0CDB7DEB726960FB6C7
:101DA000F894DEBF0FBECDBFDF91CF9108951F9392
:101DB000CF93DF93C0914B0116E080914C01C8177F
:101DC00099F0D0E01C9FF0011D9FF00D1124E35B02
:101DD000FE4F4081518162817381848195810E948F
:101DE000C70E2196C770E9CFDF91CF911F9108955B
:101DF00040917D0150917E0160917F017091800141
:101E000080918101909182010C94C70E8091820192
:101E100082958F7009F054C080917F01882309F466
:101E20004FC080914B01A0914C0160917D01709158
:101E30007E014091800150918101B6E08A1709F43A
:101E40003FC090E041155105C1F17F3F11F46F3F54
:101E5000A1F1B89FF001B99FF00D1124E35BFE4F93
:101E6000218172132AC02081621327C0228121118F
:101E700024C0238134812417350710F421503109FF
:101E8000241B350B283C3105C0F4209182012F70B2
:101E900020612093820126E0289FF001299FF00D08
:101EA0001124EE5AFE4F80818F70806180838DE710
:101EB00091E00E944C0E0C94D70E01968770BECF15
:101EC0000895CF92DF92EF92FF920F931F93CF93DB
:101ED000DF93CDB7DEB762970FB6F894DEBF0FBEC3
:101EE000CDBF8C0185E0F801DE011D9601900D92B9
:101EF0008A95E1F7D8014C9111965C911197129651
:101F00006C9112971396CD90DC90149730917D01CF
:101F100070917E018091800190918101009709F478
:101F20006BC17F3F19F43F3F09F466C1E0907F0128
:101F3000EE2009F4C0C020918201C816D90628F00D
:101F4000F601E81BF90BCF0104C0809590958C0D2C
:101F50009D1DFF24F394883C910578F0F12C207F9F
:101F600009F0C6C07C2DD98AC88A89890E94B80E1A
:101F70008DE791E00E944C0EB1C0822F807F09F066
:101F800046C0751314C0341312C0611110C02F70F5
:101F90002061209382010E94F80E8DE791E00E945B
:101FA0004C0E80918201D80115968C932EC0CD28BD
:101FB00019F15F3F11F44F3FF9F0F62E61111CC08B
:101FC00080914B0120914C0136E0821709F45AC0F0
:101FD00090E0389FF001399FF00D1124E35BFE4F34
:101FE0007181571306C07081471303C0728171114C
:101FF00003C001968770E9CFF62E662309F427C146
:1020000080918201816080938201F12C20C175133F
:1020100008C0341306C0611104C080918201D80148
:10202000C3C04D875E878D859E856A8B0E94B30EE7
:102030006A898823E1F16623D1F120918201822F00
:1020400082958F7090E0029774F080917D0190915D
:102050007E0198878F831986DB86CA862C87CE01FE
:1020600007960E944C0E86E0F801ADE7B1E00190C2
:102070000D928A95E1F70E94060F0E94F80EFF2448
:10208000F394E5C04D875E878D859E850E9403147D
:10209000292F22952F7030E0223031050CF0CBC073
:1020A0009F7009F0C5C0805E883008F4D0C0C801B8
:1020B0000E944C0EE4CFC816D90608F453C0F601AE
:1020C000E81BF90BCF01883C910508F450C0F12CB6
:1020D0007C2DD98AC88A89890E94B80EEDE7F1E083
:1020E00086E0DF011D928A95E9F70E94F80EAFC0E5
:1020F000751314C0341312C0611110C08091820195
:10210000F8018583C8010E944C0E86E0EDE7F1E0FE
:10211000DF011D928A95E9F7FE2C99C04D875E87F5
:102120008D859E856A8B0E94B30E6A89882309F487
:10213000BECF662309F4BBCF20918201822F829506
:102140008F7090E002970CF48ECF80917D0190917A
:102150007E019A8389831B82DD82CC822E83CE010D
:1021600001967FCF809590958C0D9D1DACCFF62E5E
:10217000662309F49CCF75132EC034132CC0209114
:10218000820120FD1FC0822F82958F70D9F0D80167
:1021900015962C9315978F3049F08F5F982F929555
:1021A000907F822F8F70892B15968C93C8010E9487
:1021B0004C0E86E0F801ADE7B1E001900D928A95F2
:1021C000E1F793CF86E0F801ADE7B1E001900D9221
:1021D0008A95E1F73CC04D875E878D859E850E947C
:1021E000B30E811140CF8091820181608093820182
:1021F000C8010E944C0E2BC0662309F458CF4D87AE
:102200005E878D859E850E94B30EF82E882309F483
:102210004ECF86E0F801ADE7B1E001900D928A95CE
:10222000E1F78DE791E00E942B0A0E94060F5DCF37
:10223000811139CF0CC0243031050CF038CF9F709C
:1022400009F431CFF8019581907F09F02CCF8F2DC3
:1022500062960FB6F894DEBF0FBECDBFDF91CF916F
:102260001F910F91FF90EF90DF90CF9008951F93F3
:10227000CF93DF93CDB7DEB72C970FB6F894DEBFC0
:102280000FBECDBF4F83588769877A878B879C871E
:10229000CE0107960E94610F882369F08F8198858F
:1022A0002A853B85232BF1F19F3F09F063C08F3FC7
:1022B00009F060C037C086E0FE013796DE01119656
:1022C00001900D928A95E1F76F817885EA85FB850B
:1022D000309741F17F3F11F46F3F21F120914C0184
:1022E00030E0C90101968770992740914B0150E079
:1022F0008417950709F447C069837A83FD83EC83CB
:1023000096E0929FD001939FB00D1124A35BBE4F26
:10231000FE01319601900D929A95E1F780934C0160
:102320000E94D70E16E080914B0190914C018917C5
:10233000C1F1189FC0011124835B9E4F0E94610F61
:10234000882379F1E0914B011E9FF0011124E35B9A
:10235000FE4F4081518162817381848195810E9409
:10236000C70E80914B0190E001968770992780936A
:102370004B01D9CF4F81588569857A858B859C859E
:102380000E94C70ECFCF0E948D0E10924C0110926A
:102390004B01EDE7F1E086E0DF011D928A95E9F758
:1023A000C1CF2C960FB6F894DEBF0FBECDBFDF9124
:1023B000CF911F910895EF92FF920F931F93CF93A8
:1023C000DF938C01892B09F46CC0F12CEE24E3948B
:1023D000E8012196F8018491843740F4843008F0B4
:1023E00051C0813081F0823019F15BC0853709F42A
:1023F00044C0A8F19CE7980F903708F052C08F773F
:102400000E944F0B41C00E5F1F4FFE01C49180E23E
:102410008C0F883048F4C7708E2D01C0880FCA9584
:10242000EAF70E94651414C08C2F0E94310A2DC057
:102430000E5F1F4FFE01C49180E28C0F883058F46C
:10244000C7708E2D01C0880FCA95EAF70E946B14E1
:102450000E948E141AC08C2F0E944F0B16C00E5F64
:102460001F4FFE01C491CC2381F08FE99FE00197BB
:10247000F1F700C00000C150F6CF0E5F1F4FFE0104
:10248000F49003C00E94310A8E018F2D882309F435
:102490009FCFEFE9FFE03197F1F700C000008150D6
:1024A000F5CFDF91CF911F910F91FF90EF9008959D
:1024B00008950C9458120E9459126093A5017093CC
:1024C000A6018093A7019093A8010C94730E089520
:1024D0000C945B120F931F930091A5011091A6011C
:1024E0002091A7013091A801602B712B822B932B97
:1024F0001F910F910C945B120F931F930091A501F4
:102500001091A6012091A7013091A80160237123A9
:10251000822393231F910F910C945B120F931F93AF
:102520000091A5011091A6012091A7013091A80169
:1025300060277127822793271F910F910C945B12BC
:1025400008950C94A0120E94A1126093A1017093AF
:10255000A2018093A3019093A4010C94730E60E0F8
:1025600070E0CB010C94A3120F931F9341E050E055
:1025700060E070E08A019B0104C0000F111F221F60
:10258000331F8A95D2F7C901B8011F910F910C949E
:10259000A3120F931F9341E050E060E070E004C08D
:1025A000440F551F661F771F8A95D2F78091A101AE
:1025B0009091A201A091A301B091A4018A019B0175
:1025C000082B192B2A2B3B2BC901B8011F910F9106
:1025D0000C94A3120F931F9341E050E060E070E071
:1025E00004C0440F551F661F771F8A95D2F7409588
:1025F0005095609570958091A1019091A201A09154
:10260000A301B091A4018A019B01082319232A2365
:102610003B23C901B8011F910F910C94A3120F9392
:102620001F9341E050E060E070E004C0440F551F8C
:10263000661F771F8A95D2F78091A1019091A20120
:10264000A091A301B091A4018A019B010827192739
:102650002A273B27C901B8011F910F910C94A3129F
:102660000F931F930091A1011091A2012091A3014A
:102670003091A401602B712B822B932B1F910F9112
:102680000C94A3120F931F930091A1011091A2012A
:102690002091A3013091A40160237123822393230D
:1026A0001F910F910C94A3120F931F930091A101FE
:1026B0001091A2012091A3013091A40160277127FC
:1026C000822793271F910F910C94A31208952CE059
:1026D000929F800D1124A82FA695A695A695877088
:1026E00051E001C0550F8A95EAF785E0A89FD00117
:1026F000112420E030E070E0F901EA0FFB1FED57F4
:10270000FE4F4081CB01022E02C0969587950A9418
:10271000E2F7817099278195842785238427808318
:102720002F5F3F4F2530310539F708952CE0929FF8
:10273000800D1124682F669566956695982F977081
:1027400085E0689FB001112440E050E080E0FA018C
:10275000E60FF71FED57FE4F208130E0092E02C033
:10276000369527950A94E2F721703327042E01C08D
:10277000220F0A94EAF7822B4F5F5F4F45305105D5
:1027800031F70895BF92CF92DF92EF92FF920F93AD
:102790001F93CF93DF938C01C090A501D090A60129
:1027A000E090A701F090A8018091A1019091A20171
:1027B000A091A301B091A401C82AD92AEA2AFB2A30
:1027C000CFE1D0E0D701C6010C2E04C0B695A79585
:1027D000979587950A94D2F780FF07C0BC2EB80161
:1027E0008C2F0E949504019719F4219758F7B12C6A
:1027F0008B2DDF91CF911F910F91FF90EF90DF9084
:10280000CF90BF900895CF93DF93EC010E94C21345
:10281000BE010E949504DF91CF9108951F93CF933D
:10282000DF93EB0190914A01992321F0CB010E94A3
:10283000031413C0882349F0CB010E94C213182F40
:10284000682FCE010E94671304C0CB010E9496132B
:10285000182FBE01812F0E949504DF91CF911F9107
:1028600008958091A9018595859585950895809114
:10287000A901877008959091A901977081E009F4EA
:1028800080E008958091B50108959091B501892B5C
:102890008093B501089580959091B5018923809327
:1028A000B50108951092B50108959091B401892B56
:1028B0008093B401089580959091B4018923809309
:1028C000B40108951092B40108959091B301892B39
:1028D0008093B301089580959091B30189238093EB
:1028E000B30108951092B30108958091AA0108954B
:1028F00008950C9478149091AA01981721F0809370
:10290000AA010C94791408958091AA01882329F0D2
:102910001092AA0180E00C9479140895E0910001CE
:10292000F09101018091B5018083E0910001F09167
:10293000010190818091B401892B8083E091000195
:10294000F091010190818091B301892B8083809166
:10295000AA01882381F0E0910001F09101019081AA
:10296000892B808380910001909101010E946E1556
:1029700081110E94841480910001909101010C94B6
:10298000E80808950C94C11498E0899F90011124DF
:10299000262B2093A9010E94C9128091A901859537
:1029A000859585950C94C2141092A90180E00C9431
:1029B000C2142091A901809582238093A901982FA8
:1029C000977079F430E0482F082E000C550B24172F
:1029D000350739F08595859585950E94EA120C9406
:1029E000D414089580E090E00E946B1B21E08D3E9E
:1029F0009E4F09F020E0822F089582E090E00C9431
:102A0000631B83E090E00C94631B84E090E00C94E3
:102A1000631B682F84E090E00C94711BAB01BC0138
:102A20008FE090E00C94831BAB01BC0183E190E04C
:102A30000C94831B60E070E0CB010C94141560E0F3
:102A400070E0CB010E940E150C941A156DEE7EEF0E
:102A500080E090E00E948F1B60E082E090E00E94A6
:102A6000711B60E083E090E00E94711B1092A50151
:102A70001092A6011092A7011092A80160E084E0D4
:102A800090E00E94711B60E085E090E00E94711B65
:102A900060E086E090E00E94711B6FEF87E090E0BD
:102AA0000E94711B40E050E0BA0188E090E00E9473
:102AB000831B60E08DE090E00E94711B40E050E0DD
:102AC000BA0188E190E00E94831B60E087E190E01A
:102AD0000E94711B0C941F150C942615FC01329654
:102AE00097E080E0915029F021912223D9F38F5F64
:102AF000F9CF08959C01FC0132969FEF80E041914F
:102B0000461789F09F3F19F4411101C0982F8F5F3C
:102B10008630A9F79F3F39F0F901E90FF11D97FDC4
:102B2000FA95628308950895FC01329608962081F3
:102B3000261301C010823196E817F907C1F70895EE
:102B40000C947A150C949415029626E0FC011192CF
:102B50002A95E9F7089582E084BD93E095BD9AEF48
:102B600097BD80936E0008952FB7F8948091560218
:102B700090915702A0915802B09159022FBF089529
:102B8000CF92DF92EF92FF920F931F932FB7F8949B
:102B9000409156025091570260915802709159022B
:102BA0002FBF6A017B01EE24FF248C0120E030E07E
:102BB000C016D106E206F30610F4415051099A01FD
:102BC000281B390BC9011F910F91FF90EF90DF90E7
:102BD000CF90089578941F920F920FB60F92112400
:102BE0008F939F93AF93BF9380915602909157021A
:102BF000A0915802B09159020196A11DB11D809378
:102C0000560290935702A0935802B0935902BF9175
:102C1000AF919F918F910F900FBE0F901F901895BD
:102C2000E3E0F0E089E080935700E49187E090EBE7
:102C3000DC018093A0029093A102A093A202B09322
:102C4000A3029CE088E10FB6F894A89580936000F9
:102C50000FBE90936000FFCF0E94F214811102C05A
:102C60000E946C150E94FD148093B6010E94051508
:102C700090E090935D0280935C020E940115682FA2
:102C800070E080E090E00C9468128091BA0180FFBF
:102C90000BC06091050185E0689FB0011124759516
:102CA0006795759567952BC081FF09C060910501F7
:102CB00085E0689FB00111247595679520C082FF5B
:102CC00007C06091050185E0689FB001112417C01D
:102CD0009091B9019923D1F060910401961788F77A
:102CE0002091050185E0289F90011124929FA00169
:102CF000939F500D112470E0CA010E94351B60386B
:102D0000710540F46115710539F002C065E070E0AD
:102D1000862F08958FE7089581E008958091BA0184
:102D200080FF08C06091030170E075956795759507
:102D3000679521C081FF06C06091030170E0759521
:102D4000679519C082FF04C06091030170E010C054
:102D50009091B9019923C1F0609102019617A0F7F3
:102D600080910301899FC001112470E00E94351BEE
:102D70006038710528F46115710521F0862F0895DA
:102D80008FE7089581E0089561E070E0F4CF803F1F
:102D900021F40E944516819504C0813F29F40E94C8
:102DA00045168093BD010895823F21F40E94451687
:102DB000819504C0833F29F40E9445168093BC018D
:102DC0000895893F19F40E948E1605C08A3F31F498
:102DD0000E948E1681958093BE0108958B3F21F449
:102DE0000E948E16819504C08C3F29F40E948E1695
:102DF0008093BF010895843F21F48091BB018160DD
:102E000017C0853F21F48091BB01826011C0863FCD
:102E100021F48091BB0184600BC0873F21F4809135
:102E2000BB01886005C0883F31F48091BB0180619F
:102E30008093BB0108958D3F21F48091BA01816098
:102E40000BC08E3F21F48091BA01826005C08F3F94
:102E500029F48091BA0184608093BA010895803F7B
:102E600039F48091BD0187FF6CC01092BD0169C02B
:102E7000813F29F48091BD011816BCF362C0909186
:102E8000BC01823F29F497FF5CC01092BC0159C07D
:102E9000833F19F41916CCF354C0893F41F4809153
:102EA000BE0118160CF04DC01092BE014AC08A3FF8
:102EB00029F48091BE0187FF44C0F6CF8B3F39F4DF
:102EC0008091BF0187FF3DC01092BF013AC08C3F87
:102ED00029F48091BF011816BCF333C0843F21F45C
:102EE0008091BB018E7F17C0853F21F48091BB018B
:102EF0008D7F11C0863F21F48091BB018B7F0BC079
:102F0000873F21F48091BB01877F05C0883F31F462
:102F10008091BB018F7E8093BB0113C08D3F21F454
:102F20008091BA018E7F0BC08E3F21F48091BA014F
:102F30008D7F05C08F3F29F48091BA018B7F8093EC
:102F4000BA018091BC0181110EC08091BD01811137
:102F50000AC08091BE01811106C08091BF0181111C
:102F600002C01092B90108958BEB91E00E94F30822
:102F70000E94B4159093B8018093B70108951F93F0
:102F8000CF93DF938091B7019091B8010E94C01553
:102F9000AC019091B901992321F02091060130E014
:102FA00006C0209107018AE0289F90011124421752
:102FB000530708F47BC08091BC01C091BD01D09142
:102FC000BE011091BF01811107C0C1116BC0D111A9
:102FD00069C0111167C06AC09F3F19F09F5F90934D
:102FE000B901181624F40E9445168093BC01809103
:102FF000BC0187FF05C00E94451681958093BC01E6
:103000001C1624F40E9445168093BD018091BD01D9
:1030100087FF05C00E94451681958093BD013091C0
:10302000BC013323E1F02091BD012223C1F045EB27
:103030003403C0011124892F990F990B009709F4CB
:1030400081E08093BC0135EB2303C0011124892F5B
:10305000990F990B009709F481E08093BD011D162B
:1030600024F40E948E168093BE018091BE0187FFDA
:1030700005C00E948E1681958093BE01111624F41E
:103080000E948E168093BF018091BF0187FF05C00B
:103090000E948E1681958093BF01DF91CF911F9181
:1030A0000C94B4179F3F09F099CFA1CFDF91CF9136
:1030B0001F910895EBEBF1E085E0DF011D928A9509
:1030C000E9F71092B9011092BA01089580E880934F
:1030D0006100109261000E9431090E9437090E942C
:1030E0004B190E94D7080E94221B539A80E08150FE
:1030F00041F0A895EFE9FFE03197F1F700C000003B
:10310000F6CF539878940E94051A80917D02882307
:1031100029F08091690284FD0E943F090E94FF18F6
:10312000F2CF809152020895CF93DF9300D01F9287
:10313000CDB7DEB72091C2013091C301821793074A
:1031400089F09093C3018093C20124E029839B837B
:103150008A838091940284FF05C063E0CE010196CA
:103160000E94011A0F900F900F90DF91CF91089558
:10317000CF93DF9300D01F92CDB7DEB72091C0016F
:103180003091C1018217930789F09093C101809318
:10319000C00123E029839B838A838091940284FF6A
:1031A00005C063E0CE0101960E94011A0F900F90B6
:1031B0000F90DF91CF910895CF93DF9300D000D08F
:1031C00000D0CDB7DEB7FC0182E0898395E0DE0157
:1031D000129601900D929A95E1F78091940284FFE6
:1031E00005C066E0CE0101960E94011A26960FB630
:1031F000F894DEBF0FBECDBFDF91CF910895CF937E
:10320000DF93CAE0D0E08091690284FF18C080910A
:10321000CF019091D0019817E1F028E0829FC00182
:10322000112468E08F529E4F0E94FD198091CF01BA
:1032300090E001968F7099278093CF010AC00E9479
:10324000051A8FE99FE00197F1F700C00000219770
:10325000D1F6DF91CF910895FC01A091D001B0E0AB
:103260009D012F5F3F4F2F7033278091CF01821731
:1032700071F083E0AA0FBB1F8A95E1F7AF52BE4FF2
:1032800098E001900D929A95E1F72093D0010E9469
:10329000051A0C94FF1888E091E00895FC018081E4
:1032A0008076803281F58181813041F487EC91E034
:1032B000909379028093780288E00895823041F4F7
:1032C00081E592E0909379028093780281E00895FD
:1032D0008A3021F483818093510215C0893099F49A
:1032E000828193818115924081F484819581892B1B
:1032F00061F482E08093C601868197819093C50135
:103300008093C40102C080E008958FEF0895FC010E
:103310008091C4019091C501892B99F09091C601CB
:10332000913051F0923069F4808180935202109272
:10333000C5011092C40103C0539A0E94101681E087
:1033400008958FEF0895FC018381813261F082320C
:10335000D1F0823071F582E192E09093790280930E
:1033600078028BE308958281882329F0813009F562
:103370008DE392E002C084E292E090937902809320
:10338000780289E0089584819581009751F0019732
:1033900081F48DE492E0909379028093780284E83E
:1033A000089581ED92E0909379028093780280E411
:1033B000089580E008951F93CF93DF93162FEA01BD
:1033C000288124FF05C0398128E82327298302C0EA
:1033D0002AE52883FC01CE010296DC01212F280F6B
:1033E00031913D932A13FCCF612F0E9417021C5F7D
:1033F0001883DF91CF911F91089549E652E00C9414
:10340000DB1944E952E00C94DB19CF93DF93609110
:103410007A02635067FDBCC080917702CCE0D0E0B7
:10342000C81BD109C258DD4F809176028D3209F058
:103430009DC0683009F0AAC083EC80935E028AE5E3
:1034400080931301109253028881807621F0CE017F
:103450000E944E1978C09A81109267028981811169
:1034600006C01092680227E632E082E067C085302D
:1034700019F490937B025FC0863009F044C08B81C1
:10348000813041F481E193E0909379028093780256
:1034900082E135C0823071F1833041F5911108C06D
:1034A00089E693E0909379028093780284E027C0C4
:1034B000913041F483E593E0909379028093780210
:1034C00086E11DC0923041F487E493E09093790245
:1034D000809378028CE013C0933081F483E293E010
:1034E000909379028093780284E209C0813211F0CE
:1034F000823221F4CE010E94A31901C080E090E441
:103500009093530220C0883079F0893019F4909359
:103510007D0211C08A3059F08B3069F48BE48093BE
:103520006A028093950207C02DE732E002C027E6C9
:1035300032E081E003C027E632E080E03093790298
:103540002093780209C08F3F39F4988197FD8E81CE
:1035500090E89093530207C09F81911104C09E810F
:10356000981708F4892F8093120110C0809153029C
:1035700087FF0CC0CE010E9487198F3F21F48EE196
:103580008093130103C081111092120110927A02EC
:103590008091130184FF49C0809112018F3F09F48B
:1035A00044C0C82F893008F0C8E08C1B80931201FA
:1035B00090915E0288E8892780935E02CC2339F1DE
:1035C00080917802909179022091530226FF0BC0DE
:1035D000AFE5B2E0FC012C2F280F34913D933196DA
:1035E0002E13FBCF09C0DC01EFE5F2E02C2F2E0FEC
:1035F0003D9131932E13FCCF2FEF2C0F30E02F5F36
:103600003F4F820F931F90937902809378026C2F23
:103610008FE592E00E94170264E06C0F6C3019F0A5
:103620008FEF809312016093130184E199B19C7034
:1036300031F48150D9F710927B0210927502DF911C
:10364000CF910895E9E6F0E0808182608083E89A76
:10365000A9E6B2E08BE411968C931197E4E9F2E0CD
:1036600081838AE58C938083089597FB072E16F457
:10367000009407D077FD09D00E944F1B07FC05D0AE
:103680003EF4909581959F4F0895709561957F4F79
:103690000895EE0FFF1F0590F491E02D0994AA1BE9
:1036A000BB1B51E107C0AA1FBB1FA617B70710F02D
:1036B000A61BB70B881F991F5A95A9F7809590955F
:1036C000BC01CD010895F999FECF92BD81BDF89A54
:1036D000992780B50895A8E1B0E042E050E00C944D
:1036E000971B262FF999FECF92BD81BDF89A0197BD
:1036F00000B4021639F01FBA20BD0FB6F894FA9A3A
:10370000F99A0FBE08950396272F0E94721B0E94FC
:10371000711B252F0E94721B242F0C94721B019683
:10372000272F0E94721B0C94711BDC01CB01FC0142
:10373000F999FECF06C0F2BDE1BDF89A319600B40A
:0E3740000D9241505040B8F70895F894FFCF15
:10374E00AB012808140A321E91182C19DC18B8186F
:10375E009418FF5A3097969532316061626391905A
:04376E003435339427
:00000001FF
