:100000000C9439050C9480050C9480050C948005A3
:100010000C9480050C9480050C9480050C9480054C
:100020000C9480050C9480050C948E250C9461260C
:100030000C94F81C0C9480050C9480050C9480059D
:100040000C9480050C9480050C9480050C9480051C
:100050000C9480050C94601D0C9480050C94800514
:100060000C9480050C9480050C9480050C948005FC
:100070000C9480050C9480050C9480050C948005EC
:100080000C9480050C9480050C9480050C948005DC
:100090000C9480050C9480050C9480050C948005CC
:1000A0000C9480050C9480050C9480050114011AB1
:1000B00001080214021A02080029000030000000A2
:1000C0000000000000000000000000000000000030
:1000D000002B0014001A000800150017001C00185F
:1000E000000C00120013002A00E1000400160007B3
:1000F0000009000A000B000D000E000F0052000264
:1001000051E0001D001B00060019002C41050011E4
:10011000001000500051004F0001000100000000DD
:1001200000000000000000000000000000000000CF
:100130000035001E001F00200021002200230024A3
:10014000002500260027004C0039002D022E022F2A
:10015000003000310033003402350246004B0028E5
:1001600000E30036023702380201000100010001FD
:100170000001004A004E004D000070010000000028
:10018000000000000000000000000000000000006F
:10019000003A003B003C003D003E003F0040004173
:1001A00000420043004400450000700100010001CE
:1001B0000001000100010001000100010001000137
:1001C00000010034703570367037702C000100016A
:1001D0000001000100010001000100010000000019
:1001E000000000000000000000000000000000000F
:1001F00000010001000100010001000100010001F7
:1002000000010001000100010001000100010001E6
:1002100000010001000100010001000100010001D6
:1002200000010001000100010001000100010001C6
:1002300000010001000100010001000100000000B8
:1002400000000000000000000000000000000000AE
:100250000001000100010001000100010001000196
:100260000001000100010001000100010001000186
:100270000001000100010001000100010001000176
:100280000001000100010001000100010001000166
:100290000001000100010001000100010000000058
:1002A000000000000000000000000000000000004E
:1002B0000001000100010001000100010001000136
:1002C0000001000100010001000100010001000126
:1002D0000001000100010001000100010001000116
:1002E0000001000100010001000100010001000106
:1002F00000010001000100010001000100000000F8
:1003000000000000000000000000000000000000ED
:1003100000010001000100010001000100010001D5
:1003200000010001000100010001000100010001C5
:1003300000010001000100010001000100010001B5
:1003400000010001000100010001000100010001A5
:100350000001000100010001000100010000000097
:10036000000000000000000000000000000000008D
:100370000001000100010001000100010001000175
:100380000001000100010001000100010001000165
:100390000001000100010001000100010001000155
:1003A0000001000100010001000100010001000145
:1003B0000001000100010001000100010000000037
:1003C000000000000000000000000000000000002D
:1003D0000001000100010001000100010001000115
:1003E0000001000100010001000100010001000105
:1003F00000010001000100010001000100010001F5
:1004000000010001000100010001000100010001E4
:1004100000010001000100010001000100000000D6
:1004200000000000000000000000000000000000CC
:1004300000010001000100010001000100010001B4
:1004400000010001000100010001000100010001A4
:100450000001000100010001000100010001000194
:100460000001000100010001000100010001000184
:100470000001000100010001000100010000000076
:10048000000000000000000000000000000000006C
:100490000001000100010001000100010001000154
:1004A0000001000100010001000100010001000144
:1004B0000001000100010001000100010001000134
:1004C0000001000100010001000100010001000124
:1004D0000001000100010001000100010000000016
:1004E000000000000000000000000000000000000C
:1004F00000010001000100010001000100010001F4
:1005000000010001000100010001000100010001E3
:1005100000010001000100010001000100010001D3
:1005200000010001000100010001000100010001C3
:1005300000010001000100010001000100000000B5
:1005400000000000000000000000000000000000AB
:100550000001000100010001000100010001000193
:100560000001000100010001000100010001000183
:100570000001000100010001000100010001000173
:100580000001000100010001000100010001000163
:100590000001000100010001000100010000000055
:1005A000000000000000000000000000000000004B
:1005B0000001000100010001000100010001000133
:1005C0000001000100010001000100010001000123
:1005D0000001000100010001000100010001000113
:1005E0000001000100010001000100010001000103
:1005F00000010001000100010001000100000000F5
:1006000000000000000000000000000000000000EA
:1006100000010001000100010001000100010001D2
:1006200000010001000100010001000100010001C2
:1006300000010001000100010001000100010001B2
:1006400000010001000100010001000100010001A2
:100650000001000100010001000100010000000094
:10066000000000000000000000000000000000008A
:100670000001000100010001000100010001000172
:100680000001000100010001000100010001000162
:100690000001000100010001000100010001000152
:1006A0000001000100010001000100010001000142
:1006B000000100010001000100643214643214786A
:1006C0003C1E1E140A050000000001010102020385
:1006D0000405050607090A0B0C0E0F111214151755
:1006E000191B1D1F212325282A2C2F313436393B75
:1006F0003E414346494C4F5255585A5D6164676AC2
:100700006D707376797C7F8386898C8F9295989BA8
:100710009EA2A5A7AAADB0B3B6B9BCBEC1C4C6C996
:10072000CBCED0D3D5D7DADCDEE0E2E4E6E8EAEB04
:10073000EDEEF0F1F3F4F5F6F8F9FAFAFBFCFDFD55
:10074000FEFEFEFFFFFFFFFFFFFFFEFEFEFDFDFCC6
:10075000FBFAFAF9F8F6F5F4F3F1F0EEEDEBEAE86E
:10076000E6E4E2E0DEDCDAD7D5D3D0CECBC9C6C42E
:10077000C1BEBCB9B6B3B0ADAAA7A5A29E9B9895C1
:10078000928F8C898683807C797673706D6A6764BA
:10079000615D5A5855524F4C494643413E3B3936AC
:1007A00034312F2C2A282523211F1D1B191715141E
:1007B00012110F0E0C0B0A090706050504030202AD
:1007C0000101010000000000000000010101010121
:1007D00001010101020202020202020202030303FA
:1007E00003030303030404040404040505050505C9
:1007F0000606060606070707070808080809090984
:100800000A0A0A0A0B0B0B0C0C0C0D0D0D0E0E0F29
:100810000F0F1010111111121213131414151516B5
:10082000161717181819191A1A1B1C1C1D1D1E1F24
:100830001F20202122222324252526272728292A74
:100840002B2B2C2D2E2F2F3031323334353636379B
:1008500038393A3B3C3D3E3F40414243444647489D
:10086000494A4B4C4D4F50515253555657585A5B6D
:100870005C5E5F606263646667696A6C6D6E70710E
:1008800073747678797B7C7E8081838486888A8B7A
:100890008D8F91929496989A9B9D9FA1A3A5A7A9AD
:1008A000ABADAFB1B3B5B7B9BBBDBFC1C4C6C8CAA4
:1008B000CCCFD1D3D6D8DADCDFE1E4E6E8EBEDF05B
:1008C000F2F5F7FAFCFF12036B0065007900620095
:1008D0006F006100720064000000160371006D007B
:1008E0006B006200750069006C00640065007200B6
:1008F00000000403090409026D00040100A0FA09C4
:10090000040000010301010009211101000122403E
:10091000000705810308000A090401000103010220
:1009200000092111010001224D0007058203080082
:100930000A0904020001030000000921110100015D
:100940002236000705830308000A09040300010397
:10095000000000092111010001223900070584036C
:100960002000011201100100000008EDFE6060018E
:10097000000102000105010906A101050719E0298E
:10098000E71500250195087501810205081901295F
:1009900005950575019102950175039101050719EA
:1009A0000029F71500250195F875018102C00501A0
:1009B0000980A10185021601002603001A81002A80
:1009C0008300751095018100C0050C0901A1018506
:1009D00003160100269C021A01002A9C027510953C
:1009E000018100C005010902A1010901A100050959
:1009F000190129051500250195057501810295014B
:100A0000750381010501093009311581257F9502A2
:100A10007508810609381581257F950175088106BD
:100A2000050C0A38021581257F950175088106C0DD
:100A3000C005010906A101050719E029E7150025F0
:100A40000195087501810295017508810105081954
:100A5000012905950575019102950175039101051F
:100A600007190029FF150026FF009506750881006B
:100A7000C00011241FBECFEFDAE0DEBFCDBF04B649
:100A800003FE27C080917B0290917C02A0917D02A1
:100A9000B0917E028730904BA740B04BD1F41092BA
:100AA0007B0210927C0210927D0210927E0214BE94
:100AB00084B7877F84BF0FB6F894A89580916000B3
:100AC000886180936000109260000FBEE0E0F8E360
:100AD000099511E0A0E0B1E0EEE6F3E502C0059073
:100AE0000D92A833B107D9F722E0A8E3B1E001C025
:100AF0001D92AB37B207E1F70E94DB220C94B529B7
:100B00000C940000611107C0FC018281882319F058
:100B10008CEA90E0089590E080E008958AB18F71AA
:100B20008AB96E9880B3806C80BB08954D9902C0DD
:100B30004E9B0BC04D9902C04E990AC04E990BC0F6
:100B40004D9B09C083E090E0089581E090E0089516
:100B500082E090E0089590E080E008954F9902C00F
:100B6000669B0BC04F9902C066990AC066990BC07C
:100B70004F9B09C083E090E0089581E090E00895E4
:100B800082E090E0089590E080E008958091DC019B
:100B900082FF28C08F9A8E9881E58093390182E583
:100BA000809338010E949605029779F50E94960578
:100BB000892BE1F7809139010E94C9118091390197
:100BC0000E94A5120E94AE05029771F50E94AE0523
:100BD000892BE1F780E790E00E94C41090E080E06C
:100BE0000C94C41081FF07C08E9A8F988EE4809376
:100BF00039018BE4D5CF89EA809339018AEA809361
:100C0000380181B38F7381BBCDCF0E9496050397C6
:100C1000C9F60E949605892BE1F7809138010E9460
:100C2000C91180913801CCCF0E94AE05039739F4E9
:100C30000E94AE05892BE1F78FE690E0CDCF0895B5
:100C4000089581E0089581E008950C9423060E94A0
:100C50006A152FEF84E39CE0215080409040E1F73B
:100C600000C000000C94851DFF920F931F93CF933B
:100C7000DF938C01FC01C081D181809185018111BC
:100C800048C08281882309F43FC0CE010E94D11A56
:100C9000F82E682FCE010E94771ABE018F2D0E9478
:100CA000D007EC01B8010E942506882309F478C01A
:100CB000B801CE010E94E009882309F471C0C6334F
:100CC000F0E7DF0709F484C0C0F5C53190E7D90724
:100CD00028F5C230E0E7DE0708F099C0C115F0E75B
:100CE000DF0709F458C0C130D04709F460C081E083
:100CF00080933C0180933D01C801DF91CF911F910A
:100D00000F91FF900C942106CE010E94A61AF82E96
:100D1000C4CFCE010E94D11ABE01C1CFC43390E727
:100D2000D90709F44EC0C533D04709F7F8018281CD
:100D30008823B1F10E94F30D33C0CA33F0E7DF0717
:100D400009F457C070F4F8018281C833F0E7DF0777
:100D500009F44AC008F443C0882311F10E94370DFA
:100D60001FC0CC33E0E7DE0709F4D5C008F448C063
:100D7000CD33D04709F0BBCFF8018281882309F435
:100D8000F1C010923D010E942A1D90933B01809377
:100D90003A0180E2CDC0F801828181110E942706CC
:100DA00080E0DF91CF911F910F91FF900895F8019E
:100DB00082818823A9F380910902816080930902CE
:100DC000EFCFF8018281882359F30E94FD0DE8CF0F
:100DD000F8018281882321F30E94E80CE1CF882367
:100DE000F9F20E94000DDCCF8823D1F20E941F0D82
:100DF000D7CFF8018281882399F20E944F0DD0CF7E
:100E0000F8018281882361F20E94670DC9CFF80141
:100E10008281882309F470CF0E94891C811102C04D
:100E20000E94681C0E94A61C90E090936D02809323
:100E30006C02FE01E350F04780916C028160E23168
:100E4000F105C8F4EA5DF84F0C94672938074407A8
:100E500048074C075007540758075C0760076407AA
:100E600068076C077007740778077C07800784079A
:100E700080916C02826080936C0280916C020E946F
:100E8000AA1C0E946A158CCF80916C028460F3CFFB
:100E900080916C028860EFCF80916C028061EBCF13
:100EA00080916C028062E7CF80916C028064E3CF16
:100EB00080916C028068DFCF80916C028460EACF01
:100EC00080916C028E7FD7CF80916C028D7FD3CFC3
:100ED00080916C028B7FCFCF80916C02877FCBCFCC
:100EE00080916C028F7EC7CF80916C028F7DC3CFC3
:100EF00080916C028F7BBFCF80916C028F77BBCFCC
:100F000080916C028B7FEACF90916C02892F97FBC6
:100F100087F98058B0CFF8018281882361F0109260
:100F20003C010E942A1D90933B0180933A0182E08C
:100F30000E94F41235CF80913C0181110FC0809145
:100F40003A0190913B010E94361D883C910530F496
:100F500086E20E94C91186E20E94A51282E00E94E8
:100F6000FB121ECF80913D0181110FC080913A018B
:100F700090913B010E94361D883C910530F487E238
:100F80000E94C91187E20E94A51280E2E8CF0C946A
:100F90002F0A0C94310A0C9420060C94CB07089568
:100FA000972F70E02CE0929F600D711D1124FB01C2
:100FB00090E3899FE00DF11D1124EE0FFF1FE75410
:100FC000FF4F859194910895FC01EE0FFF1FE754A8
:100FD000F94F8591949108950E94D0070E945F096E
:100FE000811520E4920708F08DC0811540E3940735
:100FF00008F0E8C0803E910508F071C0803C910582
:1010000008F0CCC0883A910580F4853A910508F043
:10101000CAC08130910509F46EC020F0843091057A
:1010200008F069C090E080E008958D3B9105D0F70D
:10103000883A910509F404C1893A910509F403C17C
:101040008A3A910509F402C18B3A910509F401C16C
:101050008C3A910509F400C18B3B910509F4FFC05E
:101060008C3B910509F4FEC08D3A910509F4FDC051
:10107000803B910509F4FCC08E3A910509F4FBC050
:101080008F3A910509F4FAC0813B910509F4F9C042
:10109000823B910509F4F8C0833B910509F4F7C040
:1010A000843B910509F4F6C0853B910509F4F5C030
:1010B000863B910509F4F4C0873B910509F4F3C020
:1010C000883B910509F4F2C0893B910509F4F1C010
:1010D0008A3B910509F4F0C080E094E408958F3FC5
:1010E000910509F048F4803F910508F067C0883EFB
:1010F000910508F097CF0895811520E2920708F036
:101100005FC00895811543E5940760F5811522E5D8
:10111000920708F062C0811541E5940708F058C0B5
:10112000811520E5920708F450C09C0154E03695E3
:1011300027955A95E1F7922F9370482F437021E03D
:1011400030E002C0220F331F4A95E2F73C68392B8A
:1011500086958695837040E2849FC0011124822B7E
:10116000932B0895811545E5940750F4811524E5E6
:10117000920708F446C0982F8827846F906A0895D4
:10118000811546E5940708F450C09C0130569F70C5
:101190002115304108F046CF90620895805C910996
:1011A0000E94E4070895853A910509F443C0863A00
:1011B000910509F042C082E890E408959065089591
:1011C0009F70EECF9927906C08959F70906A089554
:1011D000982F8827816F906A0895AC014370552736
:1011E00021E030E002C0220F331F4A95E2F78695D6
:1011F000869540E2849FC0011124822B932B9C682A
:101200000895AC014370552721E030E002C0220F61
:10121000331F4A95E2F78695869540E2849FC00188
:101220001124822B932B9A680895982F882788275A
:101230009F71B2CF81E890E4089583E890E4089527
:1012400082EE94E4089589EE94E408958AEE94E49D
:10125000089585EB94E4089586EB94E4089583EB78
:1012600094E4089584EB94E4089587EB94E408955E
:101270008CEC94E408958DEC94E4089583E895E46F
:1012800008958AE895E4089582E995E4089584E94B
:1012900095E4089581E296E4089583E296E4089542
:1012A00084E296E4089585E296E4089586E296E461
:1012B000089587E296E408958AE296E41CCF823886
:1012C000910549F1B0F48133910509F45CC048F40B
:1012D0008932910509F452C08A32910509F458C047
:1012E00008958533910509F444C08933910599F037
:1012F0000895833E910531F138F4803E910591F0D7
:10130000823E9105B1F00895863E910511F1873E28
:10131000910541F1089520916C022370C9F080EE8F
:1013200090E0089520916C0220FF12C089E390E0C4
:10133000089520916C0222FF0BC024FF2EC090E084
:1013400080E0089520916C0222FD2AC024FDF7CF91
:10135000089520916C0223FFFBCF24FDF0CF87EE90
:1013600090E0089520916C0223FFF0CF86EE90E08C
:10137000089520916C0225FD16C0089520916C02FD
:1013800025FD14C0089520916C0226FD12C0089519
:1013900020916C0226FD10C0089583EE90E0089520
:1013A00082EE90E0089589E290E0089585E390E070
:1013B00008958AE290E0089581E390E0C9CF08950E
:1013C0000F931F93CF938C01FB018281811106C083
:1013D000C1E08C2FCF911F910F910895C0914B01C7
:1013E000C11125C00531104799F70E94DF0981E03E
:1013F00080934B010E942A1D90934A0180934901DA
:1014000010923E011092400110923F011092420151
:101410001092410110924401109243011092460132
:10142000109245011092480110924701D2CF80914D
:10143000490190914A010E94361D883C910540F671
:1014400080913E01E82FF0E0EE0FFF1FE15CFE4FC0
:10145000118300838F5F80933E01C0E0BACF0C946C
:101460008E050C94C605CF93DF9385B7806885BF42
:1014700085B7806885BFA0E2B1E044E251E0C1E0F9
:10148000D0E08D91E82FE295EF70F0E061A18F70D0
:101490009E0101C0220F8A95EAF7922F909596231C
:1014A00091A382A1822B82A34A175B0751F7A4E183
:1014B000B1E040E251E0C1E0D0E08D91E82FE2954B
:1014C000EF70F0E061A18F709E0101C0220F8A953C
:1014D000EAF7922F9095962391A382A1822B82A363
:1014E0004A175B0751F71092550110925401109260
:1014F0004D0110924C01109257011092560110921A
:101500004F0110924E011092590110925801109201
:1015100051011092500110925B0110925A011092E9
:10152000530110925201DF91CF910C94C7074F9253
:101530005F927F928F929F92AF92BF92CF92DF92F3
:10154000EF92FF920F931F93CF93DF93CCE4D1E000
:1015500000E211E094E2A92E91E0B92EEE24E3948A
:10156000F12C99249394C880D98019821882D801CB
:101570008D918D01E82FE295EF70F0E091A18F70D1
:10158000970101C0220F8A95EAF7892F822B81A348
:1015900082A1822E8094882182A3B0EABA95F1F7C5
:1015A00084E1482E81E0582E90E080E0D2017D91C8
:1015B0002D01472F42954F7050E0DA0190967C90B4
:1015C000488159817F70D70102C0AA0FBB1F7A954D
:1015D000E2F7BD01672109F068C0B701082E02C01B
:1015E000660F771F0A94E2F7462B572B59834883DF
:1015F00001968C309105D1F681A1882281A282A129
:10160000282B22A388819981C816D90641F090928F
:101610005C010E942A1D90935E0180935D012296D9
:10162000A016B10609F09FCF80915C01882351F18B
:1016300080915D0190915E010E94361D069710F128
:1016400080914C0190914D019093550180935401EC
:1016500080914E0190914F019093570180935601D4
:1016600080915001909151019093590180935801BC
:10167000809152019091530190935B0180935A01A4
:1016800010925C010E94C90781E0DF91CF911F9108
:101690000F91FF90EF90DF90CF90BF90AF909F9011
:1016A0008F907F905F904F90089570E060E09CCFA6
:1016B000E82FF0E0EE0FFF1FEC5AFE4F8081918182
:1016C000089508953BB1242F209523233BB1432B4C
:1016D0003FB7F894FC01680F791FE617F70711F47C
:1016E0003FBF0895819198E04BB9000000C087FF8B
:1016F0002BB9880F000000C000C000C02BB900C08B
:101700009A9591F7EACF2AB1242B2AB99B01220F8F
:10171000331F620F731F0E94620B87EC90E00197EA
:10172000F1F700C00000089540E10C94830BCF92C4
:10173000DF92EF92FF920F931F93CF93DF93E90114
:10174000662309F466C0E42EF12CEFEFF0E0E61B0F
:10175000F109EE9D8001EF9D100DFE9D100D1124ED
:10176000212FE12FFF27EE1AFF0A5CE3C52ED12CB3
:10177000B6010E943F29FB01BC01E69EC001E79E25
:10178000900DF69E900D1124B6010E943F29E23083
:10179000F10589F168F4812F262F210F309781F010
:1017A000242F461B319761F080E020E040E008C024
:1017B000E430F10551F128F1842F861B3597A1F70C
:1017C000E42FF0E0EA53F84F4491E22FF0E0EA53BF
:1017D000F84F9491E82FF0E0EA53F84FE4914983F1
:1017E0009883EA83DF91CF911F910F91FF90EF9043
:1017F000DF90CF900895862F810FE42F412F2E2F59
:10180000DFCFE42FE61B842FF9CF842F462F410F23
:10181000D7CF842F242FD4CF88E090E00C94752963
:10182000AB01BC0188E090E00C949329E6E3F2E080
:1018300083E08083109237028FEF828383836091ED
:1018400036027091370280913802909139020C94DF
:10185000100C80913602EEE3F2E080FF06C06EE0ED
:1018600070E08EE392E00C94940B1182108212824D
:10187000339682E0E836F807C1F7F1CFEEE3F2E005
:10188000818360834283339692E0E836F907C1F79B
:101890000C94290CEF92FF920F931F93CF93DF9339
:1018A00000D01F92CDB7DEB7182FE92EF62E042FE9
:1018B0008091360290913702A0913802B09139029E
:1018C00080933A0290933B02A0933C02B0933D0276
:1018D0008091360280FF1FC09E012F5F3F4F812FF6
:1018E0009E2D0E94970B80913A0210FB87F98093FE
:1018F0003A02169580913B028078812BE0FA87F9B5
:1019000080933B02F0923C0200933D024B8169813F
:101910008A810E943E0C0F900F900F90DF91CF9123
:101920001F910F91FF90EF9008950F931F93CF9306
:10193000DF93EC01062F142F9091360290FF43C0E5
:10194000892F8E77823021F5CE010E944A0C80913A
:101950003602C0FB87F980933602C6958091370224
:101960008078C82BD0FBC7F9C093370200933802A8
:1019700010933902609136027091370280913802DB
:1019800090913902DF91CF911F910F910C94100C1F
:10199000892F86958F732EE3280F2F73243018F428
:1019A00010913902D4CF865C8F73893080F6991FED
:1019B0009927991FD0913702CD2FCC0FC92BD7FB78
:1019C000DD27D0F9C4CFDF91CF911F910F910895FA
:1019D000E6E3F2E02081221F2227221F3091370206
:1019E000432F440F842F822B37FB992790F90896B9
:1019F00068E671E00E945329438162810C94950C42
:101A000020913602221F2227221F30913702432FB6
:101A1000440F842F822B37FB992790F9883091054A
:101A200040F4805A9E4F40913902609138020C94E4
:101A3000950C089768E671E00E945329F4CF6091F5
:101A40003802683F90F4685F80913602881F8827CB
:101A5000881F90913702292F220F97FB992790F921
:101A600040913902822B0C94950C6FEFEDCF609171
:101A70003802683090F0685080913602881F8827BD
:101A8000881F90913702292F220F97FB992790F9F1
:101A900040913902822B0C94950C60E0EDCF40917F
:101AA0003902483F90F4485F80913602881F8827AA
:101AB000881F90913702292F220F97FB992790F9C1
:101AC00060913802822B0C94950C4FEFEDCF409132
:101AD0003902483090F0485080913602881F88279C
:101AE000881F90913702292F220F97FB992790F991
:101AF00060913802822B0C94950C40E0EDCF9091D0
:101B0000360290FF3BC09178811126C0926090937D
:101B100036026091360270913702809138029091BE
:101B200039020E94100C80913602982F9E779230D5
:101B3000D9F410927401881F8827881F909137026A
:101B4000292F220F97FB992790F940913902609134
:101B50003802822B0C94950C893110F09063D7CF0A
:101B60008F73880F982BD3CF982F9695925C9F7385
:101B7000963108F791E090937401DDCF089580913C
:101B8000090281608093090281E0809375010E94BF
:101B9000891C811104C00E94681C0E94160C0E94BE
:101BA0000C0C609336027093370280933802909346
:101BB00039026E7761F40E94160C0E940C0C60933F
:101BC000360270933702809338029093390281E095
:101BD000809374018091360280FF04C086958F73D4
:101BE0000C947F0D08958091360286958F738F5FD8
:101BF000893108F081E00C947F0D90913602892F95
:101C00008E7F90FF816080933602609136027091E2
:101C1000370280913802909139020E94100C809115
:101C2000360280FF04C086958F730C947F0D10924E
:101C300074012FEF80E792E0215080409040E1F75F
:101C400000C000000C94290CCF93C82F8091720122
:101C5000909173010E94361DEC2FF0E0EE53F94F86
:101C6000E491E817190609F010F50E942A1D9093D7
:101C7000730180937201E0917101F0E0EA53F94F32
:101C8000449180913602881F8827881F90913702DF
:101C9000292F220F97FB992790F960913802822B08
:101CA0000E944A0C809171018F5F80937101CF91E6
:101CB0000895CF93C82F80916F01909170010E9479
:101CC000361DEC2FF0E0E154F94FE491E8171906C6
:101CD00009F0E8F40E942A1D9093700180936F012F
:101CE000409139026091380280916D0190916E01AE
:101CF0000E944A0C80916D0190916E01019668E6F8
:101D000071E00E943F2990936E0180936D01CF9105
:101D10000895DF92EF92FF920F931F93CF93DF937B
:101D2000D82E80916B0190916C010E94361DED2D93
:101D3000E695F0E0E154F94FE491E817190609F04F
:101D4000A8F50E942A1D90936C0180936B010EE30D
:101D500012E0D0E0C0E088E6E82EFF24F394809102
:101D6000690190916A018C0F9D1FB7010E943F2964
:101D7000980140913902609138020E94970B699650
:101D80000D5F1F4FCE3581E0D80749F70E94290C1F
:101D90008091690190916A01D0FE10C00196B7014F
:101DA0000E943F2990936A0180936901DF91CF914E
:101DB0001F910F91FF90EF90DF9008950197F2CF60
:101DC000AF92BF92CF92DF92EF92FF920F931F9349
:101DD000CF93DF93C82FFF24FA9480FD02C0FF2425
:101DE000F39480916701909168010E94361DC69519
:101DF000EC2FF0E0E454F94FE491E817190611F0E4
:101E000008F053C00E942A1D9093680180936701D7
:101E1000CEE3D2E010E000E097E0C92ED12C198289
:101E200018821A8287E0A82EB12CE12C80916601DD
:101E30008E0D87FD825F082E000C990B081719077D
:101E4000E9F4209139022A9DC0012B9D900D1124A7
:101E5000B6010E945329462F80913602881F882799
:101E6000881F90913702592F550F97FB992790F9AA
:101E70009E0160913802852B0E94970BEF0C81E048
:101E8000A81AB10899F60F5F1F4F23960E3011055F
:101E900031F60E94290C8091660191E0F91212C07E
:101EA00081110EC08DE080936601DF91CF911F916B
:101EB0000F91FF90EF90DF90CF90BF90AF9008957B
:101EC0008150F1CF90E00196B8010E945329EBCFE9
:101ED000BF92CF92DF92EF92FF920F931F93CF9317
:101EE000DF93CDB7DEB7AA970FB6F894DEBF0FBE6B
:101EF000CDBF182F80916401909165010E94361D1D
:101F0000E12FF0E0E754F94FE491E817190611F0DA
:101F100008F07AC00E942A1D9093650180936401A5
:101F20008E010F5F1F4FF12CE12C6801D801119633
:101F30001C9211971C9212961C92B12C9091000148
:101F400080916301B99E800D11248E300CF08DE0DC
:101F500087FD80E0082E000C990BE816F906A1F425
:101F600080913602881F8827881F90913702592F49
:101F7000550F97FB992790F998014091390260918C
:101F80003802852B0E94970BB394B7E0BB12D6CFD3
:101F9000EFEFEE1AFE0A0D5F1F4FFEE0EF16F104A1
:101FA00029F62EE332E009E010E05EE0E52EF12CA8
:101FB000C801B7010E945329FC01EE0FFF1FE80F73
:101FC000F91FEC0DFD1D8181D90111968C9311979C
:101FD00080818C93828112968C930F5F1F4F2D5FAF
:101FE0003F4F0731110521F70E94290C9091000104
:101FF000809163019130E1F48A3FB4F489EF8093DA
:1020000063018FEF80930001AA960FB6F894DEBFAC
:102010000FBECDBFDF91CF911F910F91FF90EF9039
:10202000DF90CF90BF900895815080936301ECCFF3
:1020300085312CF084E18093630181E0E3CF8F5FF1
:10204000F4CFCF93DF9380916101909162010E9460
:10205000361D883E934028F10E942A1D909362010C
:102060008093610180915F01909160010196817080
:1020700099279093600180935F01CEE3D2E09E01A7
:10208000409139026091380290E080E00E94970B05
:10209000239682E0C836D80791F7DF91CF910C9450
:1020A000290CDF91CF91089580917401882371F1FB
:1020B0008091360286958F739EE3980F9F739430BC
:1020C00018F482500C94240E9AE3980F9F73933067
:1020D00018F486500C94590E97E3980F9F7396301E
:1020E00018F489500C94890E91E3980F9F739630E1
:1020F00018F48F500C94E00E9BE2980F9F7393306E
:1021000018F485510C94680F0C9421100895909345
:102110007B0180937A010895E0917A01F0917B012F
:10212000309721F00190F081E02D099480E008952E
:10213000E0917A01F0917B01309721F00280F381E8
:10214000E02D09940895E0917A01F0917B01309798
:1021500021F00480F581E02D099408952091780103
:10216000309179012817390771F0909379018093A4
:102170007801E0917A01F0917B01309721F006809F
:10218000F781E02D0994089520917601309177012F
:102190002817390771F09093770180937601E091C9
:1021A0007A01F0917B01309721F00084F185E02DD8
:1021B0000994089508950C94DA100E94211D0E943C
:1021C000330A0E94F21D0C94BF0D5F926F927F92B2
:1021D0008F929F92AF92BF92CF92DF92EF92FF9237
:1021E0000F931F93CF93DF93CDB7DEB72A970FB628
:1021F000F894DEBF0FBECDBF0E94970A9DE7A92EBF
:1022000091E0B92E10E000E088248394912C502EA8
:10221000802F0E94580B7C01F501C190D1905F0185
:10222000C816D90609F45EC08091090281FD0E949A
:10223000610B90E080E0CE24DF243401082E02C040
:10224000660C771C0A94E2F7960126213721232B8E
:1022500009F443C08E835F82E620F72081E0EF28F7
:1022600009F480E088870E942A1D8160782F9A8770
:1022700089874E815F8168858A850E949F11000F42
:10228000111FF801E358FE4F80819181682679265D
:10229000718260820E9475200E948C1090917C0156
:1022A0008917B9F10E948C1080937C012A960FB691
:1022B000F894DEBF0FBECDBFDF91CF911F910F917C
:1022C000FF90EF90DF90CF90BF90AF909F908F9056
:1022D0007F906F905F900C94CD0701968C309105A4
:1022E00009F0ABCF0F5F1F4F0430110509F08FCFFE
:1022F0008FEF89838A831B820E942A1D8160782F39
:102300009D838C8349815A816B818D810E949F11AD
:10231000C1CF2A960FB6F894DEBF0FBECDBFDF91B6
:10232000CF911F910F91FF90EF90DF90CF90BF90D2
:10233000AF909F908F907F906F905F900895CF9314
:10234000DF93CDB7DEB72B970FB6F894DEBF0FBE85
:10235000CDBF4F83588769877A878B871E821D82FE
:1023600085E0FE013796DE01119601900D928A9567
:10237000E1F749815A816B817C818D819E812B9609
:102380000FB6F894DEBF0FBECDBFDF91CF910C9496
:102390001C18882309F4D8C0823871F40E948C106C
:1023A00081FDD2C089E30E94711B0E94391C89E320
:1023B0000E94AE1B0C94391C833859F40E948C1077
:1023C00080FDC2C083E50E94711B0E94391C83E519
:1023D000EFCF843859F40E948C1082FDB5C087E499
:1023E0000E94711B0E94391C87E4E2CF9CEF980F7A
:1023F000913A18F40E94711BDDCF90E2980F98304B
:1024000050F4877091E001C0990F8A95EAF7892FFF
:102410000E94F01BCFCF9BE5980F933070F4853A64
:1024200031F0863A39F083E890E00C94AE1081E800
:1024300090E0FBCF82E890E0F8CF98E5980F9531D7
:1024400008F082C0883A09F440C0893A09F440C0D3
:102450008A3A09F440C08B3A09F440C08C3A09F436
:1024600040C08B3B09F440C08C3B09F440C08D3A1E
:1024700009F440C0803B09F440C08E3A09F440C0E2
:102480008F3A09F440C0813B09F440C0823B09F413
:1024900040C0833B09F440C0843B09F440C0853B05
:1024A00009F440C0863B09F440C0873B09F440C0B2
:1024B000883B09F440C0893B09F440C08A3B09F4D9
:1024C00040C090E080E00C94C41082EE90E0FBCF1E
:1024D00089EE90E0F8CF8AEE90E0F5CF85EB90E0C2
:1024E000F2CF86EB90E0EFCF83EB90E0ECCF84EB84
:1024F00090E0E9CF87EB90E0E6CF8CEC90E0E3CF83
:102500008DEC90E0E0CF83E891E0DDCF8AE891E0C8
:10251000DACF82E991E0D7CF84E991E0D4CF81E2AC
:1025200092E0D1CF83E292E0CECF84E292E0CBCFB3
:1025300085E292E0C8CF86E292E0C5CF87E292E0E2
:10254000C2CF8AE292E0BFCF0895882309F44BC03E
:10255000823871F40E948C1081FF45C089E30E948B
:10256000711B0E94391C89E30E94AE1B0C94391C1C
:10257000833859F40E948C1080FF35C083E50E9497
:10258000711B0E94391C83E5EFCF843859F40E94F7
:102590008C1082FF28C087E40E94711B0E94391CA6
:1025A00087E4E2CF9CEF980F913AF0F290E2980F17
:1025B000983050F4877091E001C0990F8A95EAF73E
:1025C000892F0E94F61BD2CF9BE5980F933020F401
:1025D00090E080E00C94AE10885A853120F490E0B1
:1025E00080E00C94C4100895882321F00E94F01B11
:1025F0000C94391C0895882321F00E94F61B0C943A
:10260000391C08958F929F92AF92BF92DF92EF9202
:10261000FF920F931F93CF93DF937C01D62FC72F89
:10262000FC01058102950F70128111110E940F1C8F
:102630000E946A1BD82E882371F0112321F180E2B9
:102640008D0F883000F182E00E94541B0E946A1BAB
:1026500091E0D82ED926EC2FE295EF70F0E0ED5CFA
:10266000FC4E0C9467294513451395139513D71306
:10267000F31372137213FE13721396149614091542
:10268000721372131215D12CE6CF0C2F0F70C07F6E
:1026900011F00295007F1123A9F0002359F080E288
:1026A0008D0F883010F0D11109C0802F0E94F01BCF
:1026B0000E94391C8D2F0E94C91114C0802F0E94C6
:1026C000011CF6CF8D2F0E94A512002359F080E245
:1026D0008D0F883010F0D11124C0802F0E94F61B7E
:1026E0000E94391CDD2009F4A4C10E94471B80FD13
:1026F000A0C1F70112820E94411B0E94BB19C701B1
:102700000E9425150E94411BDF91CF911F910F91CF
:10271000FF90EF90DF90BF90AF909F908F900C94C0
:10272000DC19802F0E94071CDBCFFC2FFF70BF2E0F
:10273000C07FC03219F0B29480EFB822DD2369F077
:10274000D13029F1112369F1002359F0F701858176
:1027500080FFB0CF8F70858304C0112361F0011119
:1027600004C08B2D0E94F412BDCF8B2D0130D1F708
:102770000E94231CB7CF011106C00E94261C8B2D7E
:102780000E94FB12AFCF013009F4ACCFF6CF11237A
:1027900021F0063008F0A6CFE4CF053008F0A2CF34
:1027A000EECF002361F38D2F0E94A5129BCF8C2FBB
:1027B00086958695837069F0813009F093CF8D2FCF
:1027C0009C2F9370111102C090E080E00E94C41011
:1027D00089CF8D2F9C2F9370111102C090E080E063
:1027E0000E94AE107FCF8D2F112329F00E947E1FF3
:1027F0000E946A2077CF0E94E61FFACF8C2F837049
:1028000009F047C011116ECF2D2F22952695277004
:10281000220F220F6D2F6F70862E912CB12CA12CC0
:10282000022E04C0880C991CAA1CBB1C0A94D2F767
:1028300060E070E0CB01D4FF0FC06FE070E080E09B
:1028400090E004C0660F771F881F991F2A95D2F762
:102850006095709580959095C695C695C370C23069
:1028600051F080F4682979298A299B29C13071F0B7
:102870000E94641937CF682979298A299B290E94E7
:10288000801930CF0E946419C501B4010E94481913
:1028900029CF8695112311F08C2F8170882309F49C
:1028A00021CF2D2F229526952770220F220F6D2FD5
:1028B0006F70862E912CB12CA12C022E04C0880C96
:1028C000991CAA1CBB1C0A94D2F760E070E0CB01F3
:1028D000D4FF0FC06FE070E080E090E004C0660FAE
:1028E000771F881F991F2A95D2F76095709580955C
:1028F0009095C695C695C370C23051F080F4682992
:1029000079298A299B29C13071F00E943E1AEACEAA
:10291000682979298A299B290E945A1AE3CE0E94A4
:102920003E1AC501B4010E94221ADCCEE0E2ED0F8E
:10293000E53108F062C0F0E0E056FB4E0C946729E8
:10294000B514B514B514B514B514B514B514B5143F
:10295000B514B514B514B514B514B514B514B5142F
:10296000C214D014D714DE14E814DF708C2F8F71CA
:10297000112321F00E94BB198D2FF4CE0E94DC1987
:102980008D2FFECE112341F0053008F0ABCE8C2FF9
:102990008F710E94011AA6CE063008F0A3CEF7CFA1
:1029A0008C2F8F71112339F00E94BB199BCE8C2F75
:1029B0008F711123C9F30E94DC1994CE112329F0E1
:1029C0008C2F8F710E94A6198DCE0E949C198ACEE1
:1029D000112349F0CF718C2F0E94BB1963E08C2F1B
:1029E0000E944B1B7FCE81E00E94541B023008F4F2
:1029F00079CE82E00E94541B75CE112329F001117B
:102A000059CE8C2F8F71D0CF0111CDCE8C2F8F71DD
:102A1000D2CF4C2F4F706D2FC7010E9482050E94AC
:102A2000C51860CE4C2F4F706D2FC7010E94CF0785
:102A300059CEDF91CF911F910F91FF90EF90DF90D2
:102A4000BF90AF909F908F9008950F931F93CF9357
:102A5000DF93EC01988189812B813C81232B39F014
:102A60008F3F19F481E09F3F19F080E001C081E0C1
:102A700080FD17C0CE010E943406882391F0688142
:102A800079818A810E941D1B8C010E94761A0E9406
:102A90003D19B801CE01DF91CF911F910F910C9498
:102AA0000213DF91CF911F910F9108950E940F1C87
:102AB0000E94201C0E94E21B0E94391C0E941721C8
:102AC0000E946A2090E080E00E94AE1090E080E0DA
:102AD0000C94C4100E94FE1B0C9456150E94131BEC
:102AE000E92FE295EF70E250EE30E0F4F0E0E558C7
:102AF000FA4E0C946729891589159215921594152B
:102B00009215921592158915891599159215921598
:102B10009915803F19F020F4803E20F481E008955B
:102B2000843FE1F380E00895803EC0F3813FD1F718
:102B3000F5CF93FB882780F90895CF93DF9300D0DA
:102B400000D01F92CDB7DEB70F900F900F900F906F
:102B50000F90DF91CF910895CF93DF9300D000D0F5
:102B600000D0CDB7DEB726960FB6F894DEBF0FBE05
:102B7000CDBFDF91CF9108951F93CF93DF93C09185
:102B8000860116E0809187018C1304C0DF91CF91FC
:102B90001F910895D0E01C9FF0011D9FF00D11249E
:102BA000E857FE4F40815181628173818481958114
:102BB0000E94AC152196C770E5CF4091B8015091A5
:102BC000B9016091BA017091BB018091BC019091F3
:102BD000BD010C94AC151F93CF93DF938091BD0181
:102BE000807FD1F48091BA018823B1F08091860171
:102BF000D0918701B091B801C091B9014091BB015A
:102C00005091BC01A1E0BF3F09F0A0E0BA0160957E
:102C1000709516E0D81304C0DF91CF911F910895ED
:102C200021E04115510521F02A2FCF3F09F020E086
:102C300090E020FD38C0189FF001199FF00D11247D
:102C4000E857FE4F21812C132EC020812B132BC05F
:102C50002281211128C0238134812417350700F1F6
:102C6000241B350B283C3105F0F42091BD012F7059
:102C700020612093BD0126E0289FF001299FF00DDF
:102C80001124E357FE4F80818F708061808388EB31
:102C900091E00E942515DF91CF911F910C94BC15F6
:102CA000260F371FDFCF01968770B4CFAF92BF9248
:102CB000CF92DF92EF92FF920F931F93CF93DF9308
:102CC000CDB7DEB761970FB6F894DEBF0FBECDBFAC
:102CD0008C0185E0F801DE011D9601900D928A9528
:102CE000E1F7D8014C9111965C9111971296EC90F6
:102CF0003091B8016091B9018091BB019091BC0104
:102D000021E0009731F06F3F19F421E03F3F09F0D7
:102D100020E0B22FB170BB2E20FD80C1F801C3802E
:102D2000D480A090BA01AA2009F427C1C816D906F8
:102D3000D0F1D601A81BB90BCD01FF24F394883C38
:102D4000910508F0F12C8091BD01982F907FFF2014
:102D500009F4CAC0911187C0FE2C651329C0341331
:102D600027C0E11025C08F7080618093BD010E9453
:102D7000DD1588EB91E00E9425158091BD01F801D9
:102D800085838F2D61960FB6F894DEBF0FBECDBF41
:102D9000DF91CF911F910F91FF90EF90DF90CF9037
:102DA000BF90AF900895809590958C0D9D1DC5CFD7
:102DB00081E0CD2831F05F3F19F481E04F3F09F009
:102DC00080E080FD24C081E08E25F82FF170DF2E99
:102DD00080FF3FC0809186012091870136E08213F9
:102DE00018C04D875E878D859E850E94131B292FF5
:102DF00022952F70223008F1243030F59F7009F1B0
:102E0000D80115969C91907FE1F4FB2CBACF80E01D
:102E1000DCCF90E0389FF001399FF00D1124E85786
:102E2000FE4F6181561306C06081461303C0628164
:102E30006E110FC001968770D2CF9F7011F088235A
:102E400021F3805E883008F3C8010E942515BD2C4F
:102E5000DCCFEE2009F495CF8091BD018160809395
:102E6000BD01F12C8ECF651312C0341310C0E110D8
:102E70000EC0F8018583C8010E94251586E0F8017F
:102E8000A8EBB1E001900D928A95E1F741C04D8722
:102E90005E878D859E850E946E15882309F4C8C0C3
:102EA000EE2009F4C5C08091BD01803270F0209100
:102EB000B8013091B90138872F831986DB86CA861D
:102EC0008C87CE0107960E94251586E0F801A8EBB5
:102ED000B1E001900D928A95E1F70E94EB150E94F6
:102EE000DD15FF24F3944DCF911115C07C2DD98AA7
:102EF000C88A6E2D89890E949D1588EB91E00E94F9
:102F0000251586E0E8EBF1E0DF011D928A95E9F7EF
:102F10000E94DD1536CF651312C0341310C0E110C6
:102F20000EC0F8018583C8010E942515E8EBF1E089
:102F300086E0DF011D928A95E9F7FA2C22CF4D87B2
:102F40005E878D859E850E946E15882309F470C06A
:102F5000EE2009F46DC08091BD01803208F4B5CF38
:102F60002091B8013091B9013A8329831B82DD8217
:102F7000CC828E83CE010196A6CFC816D90638F131
:102F8000F601E81BF90BCF01F12C883C910508F004
:102F90003DC0FE2CEE2009F44BC0651326C034134F
:102FA00024C08091BD0180FD17C0982F907FA1F0B3
:102FB000D80115968C931597903F09F45CCF982F04
:102FC000907F905F8F70892B15968C9354CF80954E
:102FD00090958C0D9D1DD8CF86E0F801A8EBB1E04F
:102FE00001900D928A95E1F7CCCE4D875E878D8555
:102FF0009E850E946E15811168CF8091BD01816010
:103000008093BD01C8010E942515BBCE7C2DD98AB5
:10301000C88A6E2D89890E949D1573CFEE2041F0DC
:103020004D875E878D859E850E946E1581114DCFDF
:10303000C8010E94251555CF1F93CF93DF93CDB7BD
:10304000DEB72C970FB6F894DEBF0FBECDBF4F830F
:10305000588769877A878B879C87CE0107960E945D
:103060005616882309F442C09F8188852A853B85AE
:10307000232B39F08F3F19F481E09F3F19F080E056
:1030800001C081E080FD08C04F81588569857A853F
:103090008B859C850E94AC1516E0809186019091ED
:1030A0008701891709F467C0819FC00111248857DF
:1030B0009E4F0E945616882309F45DC0E091860158
:1030C0001E9FF0011124E857FE4F4081518162811B
:1030D0007381848195810E94AC158091860190E076
:1030E00001968770992780938601D7CF86E0FE01ED
:1030F0003796DE01119601900D928A95E1F79F8136
:1031000088852A853B85232B39F08F3F19F481E090
:103110009F3F19F080E001C081E080FDBDCF20918C
:10312000870130E0C9010196877099274091860197
:103130004817190699F096E0929FD001939FB00D21
:103140001124A857BE4FFE01319601900D929A9519
:10315000E1F7809387010E94BC159ECF0E946A15FB
:10316000109287011092860186E0E8EBF1E0DF0122
:103170001D928A95E9F72C960FB6F894DEBF0FBE24
:10318000CDBFDF91CF911F910895EF92FF920F93E2
:103190001F93CF93DF938C01892B81F0F12CEE24C8
:1031A000E394E8012196F8018491843770F4843027
:1031B00008F05FC08130B1F08230A1F1DF91CF9192
:1031C0001F910F91FF90EF900895853709F44CC03F
:1031D00008F43DC09CE7980F903780F78F770E94E6
:1031E000A51249C00E5F1F4FFE01849190E2980F17
:1031F000983060F48770FE2D01C0FF0F8A95EAF7C2
:103200008F2F0E94121C0E94391C02C00E94C911FB
:103210008F2D815030F2EFE9FFE03197F1F700C0D8
:103220000000F7CF0E5F1F4FFE01849190E2980FD0
:10323000983050F48770FE2D01C0FF0F8A95EAF791
:103240008F2F0E94181CDFCF0E94A512E1CF0E5FC6
:103250001F4FFE01C491C150D8F28FE99FE0019742
:10326000F1F700C00000F7CF0E5F1F4FFE01F49092
:10327000CFCF0E94C9118E01CBCF08956093E0019A
:103280007093E1018093E2019093E3010C94561551
:103290000F931F930091E0011091E1012091E20151
:1032A0003091E301DC01CB01802B912BA22BB32BBE
:1032B0008093E0019093E101A093E201B093E301D8
:1032C0001F910F910C9456150F931F930091E001DD
:1032D0001091E1012091E2013091E301DC01CB0189
:1032E00080239123A223B3238093E0019093E101F3
:1032F000A093E201B093E3011F910F910C94561536
:103300000F931F930091E0011091E1012091E201E0
:103310003091E301DC01CB0180279127A227B3275D
:103320008093E0019093E101A093E201B093E30167
:103330001F910F910C9456151092DC011092DD0133
:103340001092DE011092DF010C94561541E050E01E
:1033500060E070E004C0440F551F661F771F8A9518
:10336000D2F74093DC015093DD016093DE0170934E
:10337000DF010C94561541E050E060E070E004C0BD
:10338000440F551F661F771F8A95D2F78091DC0185
:103390009091DD01A091DE01B091DF01842B952B8E
:1033A000A62BB72B8093DC019093DD01A093DE0167
:1033B000B093DF010C94561541E050E060E070E0FE
:1033C00004C0440F551F661F771F8A95D2F740959A
:1033D0005095609570958091DC019091DD01A091F0
:1033E000DE01B091DF0184239523A623B7238093C8
:1033F000DC019093DD01A093DE01B093DF010C941A
:10340000561541E050E060E070E004C0440F551FE5
:10341000661F771F8A95D2F78091DC019091DD01BC
:10342000A091DE01B091DF0184279527A627B72759
:103430008093DC019093DD01A093DE01B093DF0166
:103440000C9456150F931F930091DC011091DD0130
:103450002091DE013091DF01DC01CB01802B912B2B
:10346000A22BB32B8093DC019093DD01A093DE01AE
:10347000B093DF011F910F910C9456150F931F937A
:103480000091DC011091DD012091DE013091DF011E
:10349000DC01CB0180239123A223B3238093DC01A1
:1034A0009093DD01A093DE01B093DF011F910F9196
:1034B0000C9456150F931F930091DC011091DD01C0
:1034C0002091DE013091DF01DC01CB0180279127C3
:1034D000A227B3278093DC019093DD01A093DE0146
:1034E000B093DF011F910F910C94561508952CE0B5
:1034F000929F800D1124982F977071E001C0770F73
:103500009A95EAF786958695869525E0829FC00173
:10351000112450E040E0A62FB0E0FC01E40FF51FBD
:10352000E254FE4F60819D01042E02C0369527951E
:103530000A94E2F721702195262727232627208346
:103540004F5F5F4F4530510541F708952CE0929F42
:10355000800D1124982F977086958695869525E085
:10356000829FA001112470E060E080E0FA01E60F84
:10357000F71FE254FE4F208130E0092E02C036953D
:1035800027950A94E2F721703327062E01C0220FF7
:103590000A94EAF7822B6F5F7F4F6530710531F730
:1035A0000895BF92CF92DF92EF92FF920F931F93F5
:1035B000CF93DF938C01C090DC01D090DD01E090CF
:1035C000DE01F090DF018091E0019091E101A09196
:1035D000E201B091E301C82AD92AEA2AFB2ACFE105
:1035E000D0E0BC2ED701C6010C2E04C0B695A7951D
:1035F000979587950A94D2F780FD0EC0219788F79A
:10360000B12C8B2DDF91CF911F910F91FF90EF90F7
:10361000DF90CF90BF900895B8018C2F0E94EC07E7
:10362000019761F3EECFCF93DF93EC010E94D11AA3
:10363000BE01DF91CF910C94EC071F93CF93DF93E2
:10364000EB0190918501992331F0CB01DF91CF916E
:103650001F910C94131B882379F0CB010E94D11A7F
:10366000182F682FCE010E94771ABE01812FDF919B
:10367000CF911F910C94EC07CB010E94A61A182F32
:10368000F4CF8091E4018595859585950895809185
:10369000E4018770089598E0899F90011124622BBE
:1036A0006093E4010C94BB199091E4018095892307
:1036B0008093E401282F277061F4282F082E000C36
:1036C000330B9217130629F08595859585950C94F3
:1036D000DC1908959091E401977081E009F480E08D
:1036E0000895909113019923E1F090916C0297FF56
:1036F00018C0E82FE695E695E695EF3139F120916F
:10370000010130910201E20FF32FF11D877021E0DA
:1037100030E001C0220F8A95EAF78181822B8183F4
:1037200008952091010130910201F90132969FEF35
:1037300040E05191851751F09F3F19F4511101C09C
:10374000942F4F5F4E31A9F79F3F09F40895290F39
:10375000311D97FD3A95F9018283089590911301E7
:103760009923F1F090916C0297FF1AC0E82FE6952B
:10377000E695E695EF3129F12091010130910201A2
:10378000E20FF32FF11D282F277081E090E001C098
:10379000880F2A95EAF7809591818923818308957E
:1037A0002091010130910201F9013296205E3F4FD4
:1037B0009191891303C0DF0111971C92E217F3075F
:1037C000B9F7089581E090E0E0910101F0910201E4
:1037D000E80FF91F1082019680329105A9F708952C
:1037E00090910802892B809308020895982F909554
:1037F000809108028923809308020895109208029C
:10380000089590910702892B809307020895982FBD
:103810009095809107028923809307020895109262
:103820000702089590910602892B8093060208955D
:10383000982F90958091060289238093060208951F
:103840001092060208958093E50108951092E50113
:1038500008952091010130910201F9013196205E15
:103860003F4F80E0919191118F5FE217F307D1F7FD
:103870000895E0910101F091020180910802808396
:10388000E0910101F0910201808190910702892B62
:103890008083E0910101F091020180819091060204
:1038A000892B80839091E501992361F0E0910101DA
:1038B000F09102018081892B80830E94291C811153
:1038C0001092E50180910101909102010C949810F1
:1038D0006DEE7EEF90E080E00E949F2960E082E044
:1038E00090E00E94812960E083E090E00E948129BD
:1038F00060E084E090E00E94812960E085E090E053
:103900000E94812940E050E0BA0188E090E00C94E8
:10391000932990E080E00E947B2921E08D3E9E4F1C
:1039200009F020E0822F089582E090E00C946D2948
:10393000682F82E090E00C94812983E090E00C9461
:103940006D29682F83E090E00C94812984E090E059
:103950000C946D29682F84E090E00C94812980916B
:103960007202843039F110920A0288E190E020E47A
:103970000FB6F894A895809360000FBE2093600066
:1039800080E00E94CD0783B7817F846083BF83B7C7
:10399000816083BF7894889583B78E7F83BF0FB68D
:1039A000F894A895809160008861809360001092DF
:1039B00060000FBE089508950895CF930E94DB1C08
:1039C0000E94970A0E94DC1CC0E08C2F0E94580BBA
:1039D000892B31F4CF5FC430C1F780E0CF910895D7
:1039E00081E0FCCF0E946A150E948C100C94CD07D8
:1039F0001F920F920FB60F9211248F939F93AF9344
:103A0000BF9380910A02811113C080916802909146
:103A10006902A0916A02B0916B024196A11DB11D8D
:103A20008093680290936902A0936A02B0936B023C
:103A3000BF91AF919F918F910F900FBE0F901F90EC
:103A4000189582E084BD93E095BD9AEF97BD809371
:103A50006E0008952FB7F8948091680290916902E2
:103A6000A0916A02B0916B022FBF0895CF92DF92AE
:103A7000EF92FF920F931F932FB7F8944091680233
:103A80005091690260916A0270916B022FBF6A01C6
:103A90007B01EE24FF248C0130E020E0C016D1062B
:103AA000E206F30650F0481B590BCA011F910F9113
:103AB000FF90EF90DF90CF90089541505109F3CFE0
:103AC0001F920F920FB60F9211248F939F93AF9373
:103AD000BF938091680290916902A0916A02B091AF
:103AE0006B020196A11DB11D80936802909369023B
:103AF000A0936A02B0936B02BF91AF919F918F9197
:103B00000F900FBE0F901F9018950E941325F894E8
:103B10002FEF87EA91E6215080409040E1F700C006
:103B2000000087E090EBDC0180937B0290937C02A5
:103B3000A0937D02B0937E0288E19CE00FB6F894DA
:103B4000A895809360000FBE90936000FFCFAF9266
:103B5000BF92CF92DF92EF92FF920F931F93CF937A
:103B6000C0E0CC24C394D12CE82EF12C8C2F0E94E1
:103B7000580B5C0110E000E0C601002E02C0880F67
:103B8000991F0A94E2F78A219B21892B99F40F5FF0
:103B90001F4F0C30110581F7CF5FC43039F780E03B
:103BA000CF911F910F91FF90EF90DF90CF90BF903A
:103BB000AF900895602F7C2F80E00E94D007E81618
:103BC000F90629F781E0ECCFCF93C82F8CE20E9451
:103BD000A71D882321F08C2FCF910C94A71D80E086
:103BE000CF910895CF930E94891C811102C00E9439
:103BF000681CC5E608C00E94970A8FE39CE90197FC
:103C0000F1F700C00000C150B1F789E20E94E41D45
:103C10008111EFC08AE20E94E41D81110E94681C9C
:103C200085E00E94E41D81110E94851D0E94941C64
:103C30008093090287E00E94E41D882371F08BE1E4
:103C40000E94E41D882309F4B1C090910902892FD4
:103C50008D7F91FF826080930902809109020E940A
:103C6000981C0E94A61C90E090936D0280936C02B9
:103C700080EE0E94E41D882341F090916C02892F10
:103C80008E7F90FF816080936C0289E30E94E41D27
:103C9000882341F090916C02892F8D7F91FF826083
:103CA00080936C0282EE0E94E41D882341F0909183
:103CB0006C02892F8B7F92FF846080936C0286EE6A
:103CC0000E94E41D882341F090916C02892F877F28
:103CD00093FF886080936C0283EE0E94E41D88232A
:103CE00041F090916C02892F8F7E94FF80618093C8
:103CF0006C0285E30E94E41D882341F090916C02E0
:103D0000892F8F7D95FF806280936C0281E30E94F2
:103D1000E41D882341F090916C02892F8F7B96FFE0
:103D2000806480936C0281E10E94E41D882341F04D
:103D300090916C02892F97FB87F9805880936C02D1
:103D400080916C020E94AA1C87E20E94E41DC82F89
:103D50008EE10E94E41D8111C2608FE10E94E41D8A
:103D60008111C46080E20E94E41D8111C86081E27B
:103D70000E94E41D8111C06182E20E94E41D811154
:103D8000C06283E20E94E41D8111C06484E20E944B
:103D9000E41D882341F1C0688C2F0E94A11C6C2F68
:103DA00070E090E080E0CF910C943E198EE00E948C
:103DB000E41D882339F090910902892F8B7F92FFAF
:103DC000846049CF80E10E94E41D9091090288231C
:103DD00029F0892F877F93FF88603DCF892F8E7FC1
:103DE00090FF816038CFC111D7CF0E949D1C682FF2
:103DF000D7CFCF91089580910D0280FF12C06091BE
:103E0000060185E0689FB001112475956795759549
:103E1000679560387105A8F561157105A1F1862FC8
:103E2000089581FF09C06091060185E0689FB00197
:103E3000112475956795EDCF82FF07C0609106014B
:103E400085E0689FB0011124E4CF20910E02222367
:103E5000A9F0909105016091060185E0689FB0018D
:103E600011242917B0F6269FA001279F500D112479
:103E7000692F70E0CA010E945329CBCF65E070E042
:103E8000CECF8FE7089581E0089580910D0280FFE5
:103E90000CC06091040170E0759567957595679504
:103EA0006115710549F1862F089581FF06C0609163
:103EB000040170E075956795F3CF6091040182FD70
:103EC0000BC090910E029923A1F0609103018091A3
:103ED0000401961738F0682F70E06038710500F320
:103EE0008FE70895899FC001112470E00E94532933
:103EF000F4CF61E070E0D7CF81E00895803F31F4E6
:103F00000E94FB1E8195809311020895813F19F450
:103F10000E94FB1EF8CF823F31F40E94FB1E819568
:103F2000809310020895833F19F40E94FB1EF8CF7E
:103F3000893F29F40E94451F8093120208958A3F09
:103F400021F40E94451F8195F7CF8B3F31F40E94E9
:103F5000451F81958093130208958C3F19F40E94A8
:103F6000451FF8CF843F31F480910F028160809328
:103F70000F020895853F21F480910F028260F7CFF0
:103F8000863F21F480910F028460F1CF873F21F4B6
:103F900080910F028860EBCF883F21F480910F025F
:103FA0008061E5CF8D3F31F480910D028160809377
:103FB0000D0208958E3F21F480910D028260F7CFAB
:103FC0008F3FB9F780910D028460F1CF803FC1F43B
:103FD0008091110287FD10921102809110028111CF
:103FE0000EC08091110281110AC0809112028111CC
:103FF00006C080911302811102C010920E02089532
:10400000813F29F48091110218162CF3E6CF90918C
:104010001002823F29F497FFE0CF10921002DDCF0B
:10402000833F19F41916CCF3D8CF893F39F4809126
:104030001202181694F610921202CFCF8A3F29F47A
:104040008091120287FFC9CFF6CF8B3F39F4809160
:10405000130287FFC2CF10921302BFCF8C3F29F407
:10406000809113021816BCF3B8CF843F31F48091CD
:104070000F028E7F80930F02B0CF853F21F4809195
:104080000F028D7FF7CF863F21F480910F028B7F47
:10409000F1CF873F21F480910F02877FEBCF883FDC
:1040A00021F480910F028F7EE5CF8D3F31F4809116
:1040B0000D028E7F80930D0290CF8E3F21F4809170
:1040C0000D028D7FF7CF8F3F09F087CF80910D02D2
:1040D0008B7FF0CF8FE092E00E94A3100E942A1DF8
:1040E00090930C0280930B0208951F93CF93DF935C
:1040F00080910B0290910C020E94361DAC019091B0
:104100000E022091070130E0911106C020910801B4
:104110008AE0289F900111244217530780F0809174
:104120001002C091110210911202D091130281115C
:104130000AC0C11178C0111176C0D11174C0DF91CD
:10414000CF911F9108959F3F19F09F5F90930E02AA
:10415000181624F40E94FB1E809310028091100216
:1041600087FF05C00E94FB1E8195809310021C16DC
:1041700024F40E94FB1E809311028091110287FF9C
:1041800005C00E94FB1E8195809311026091100270
:10419000662331F1C0911102CC2311F1062E000CDF
:1041A000770B880B990B0E94462823E333E343E304
:1041B0005FE30E94AA280E940E28609310026C2FD1
:1041C000CC0F770B880B990B0E94462823E333E32F
:1041D00043E35FE30E94AA280E940E286093110225
:1041E000111624F40E94451F80931202809112023E
:1041F00087FF05C00E94451F8195809312021D16FE
:1042000024F40E94451F809313028091130287FFBC
:1042100005C00E94451F819580931302DF91CF91C5
:104220001F910C946A209F3F09F08FCFA0CF85E0AB
:10423000EFE0F2E0DF011D928A95E9F710920E029D
:1042400010920D020895809134020895CF93DF9368
:1042500000D01F92CDB7DEB79C01809172028430EE
:1042600019F593E099833B832A839093E9008FEFBC
:104270009091E800815095FD06C095ED9A95F1F773
:1042800000008111F5CF8091E80085FF0DC050E05E
:1042900040E063E070E0CE0101960E9483238091AC
:1042A000E8008E778093E8000F900F900F90DF91D9
:1042B000CF910895CF93DF9300D01F92CDB7DEB793
:1042C00020917202243031F522E02983805891092F
:1042D0009B838A8383E08093E9008FEF9091E800CD
:1042E000815095FD06C095ED9A95F1F7000081117A
:1042F000F5CF8091E80085FF0DC050E040E063E01D
:1043000070E0CE0101960E9483238091E8008E77B1
:104310008093E8000F900F900F90DF91CF91089558
:104320009C01809172028430F9F482E08093E9006C
:104330009FEF8091E800915085FD06C085ED8A953C
:10434000F1F700009111F5CF8091E80085FF0CC0D6
:1043500050E040E065E070E0C9010E948323809155
:10436000E8008E778093E8000895CF93DF93EC0107
:10437000809172028430F1F4909113019923E9F055
:1043800090916C0297FF19C08093E9008FEF909194
:10439000E800815095FD06C095E19A95F1F700007F
:1043A0008111F5CF8091E80050E040E060E270E0DC
:1043B00085FD1AC0DF91CF91089581E08093E900D7
:1043C0008FEF9091E800815095FD06C095ED9A958C
:1043D000F1F700008111F5CF8091E80085FFEACF69
:1043E00050E040E068E070E0CE010E9483238091BD
:1043F000E8008E778093E80080E2FE01A4E1B2E05D
:1044000001900D928A95E1F7D5CF809171028111CB
:1044100009C00E9413250E9470258091E2008460EB
:104420008093E2000895109271020895089508950E
:104430000C94F21C42E061EC81E00E94912442E085
:1044400061EC82E00E94912442E061EC83E00E94F2
:10445000912442E261EC84E00C94912480917402F6
:10446000833009F455C030F4813071F1823009F4A1
:1044700091C008958A3009F47DC08B3009F463C07F
:10448000893009F044C080917302813209F03FC045
:104490008091770290917802009711F00397B9F517
:1044A0008091E800877F8093E8008091E80082FF98
:1044B0002AC08091F100809334028091E8008B77CC
:1044C0008093E8000C94C52480917302813AF9F43A
:1044D0008091E800877F8093E80080917702909137
:1044E0007802892B61F460E284E192E070E00E943E
:1044F000D2238091E8008B778093E800089560E0F4
:1045000090E080E0F3CF809172028111CECF0895C8
:1045100080917302813AD9F7809177029091780265
:10452000892BA9F78091E800877F8093E80080912C
:10453000E80080FFFCCF809113018093F10080910F
:10454000E8008E77BDCF80917302813201F78091B0
:10455000770290917802892BD1F68091E800877FCD
:104560008093E8000E94C524809175028093130116
:104570000C946A1580917302813249F68091E800AB
:10458000877F8093E8000E94C52480917602809303
:104590003502089580917302813A09F0B8CF809175
:1045A000E800877F8093E8008091E80080FFFCCFDF
:1045B00080913502C2CF84B7877F84BF0FB6F8944D
:1045C000A8958091600088618093600010926000DF
:1045D0000FBE80E880936100109261000E94DB10A2
:1045E0000E9413250E9470258091E20084608093D0
:1045F000E20078940E94F2270E94DD1089E091E0A9
:104600000E94871080917202853029F00E94E51087
:104610000E945410F7CF0E94AF1C80917002882333
:1046200089F30E94DD1C882369F30E946D23EACF81
:10463000292F33272330310579F158F42130310502
:10464000F1F02230310519F190E080E030E020E017
:104650001AC02132310599F122323105A9F76430AF
:1046600098F770E0FB01EE0FFF1FE85DFE4F208121
:1046700031816C5D7E4FFB01808190E004C082E15E
:1046800090E023E639E0FA013183208308958DE636
:1046900090E026EF38E0F7CF99278130910561F05F
:1046A00028F0029789F6E6ECF8E002C0E2EFF8E0C5
:1046B000849190E09F01E7CFEAEDF8E0F9CF643014
:1046C00008F0C2CFE62FF0E0EE0FFF1FE05DFE4FD7
:1046D0002081318189E090E0D6CF80E189BD82E1FF
:1046E00089BD09B400FEFDCF8091D8008F7D8093F5
:1046F000D8008091E00082608093E0008091E0002B
:1047000081FDFCCF0895AF92BF92CF92DF92FF92CE
:104710000F931F93CF93DF936C01EB018A010E94EB
:10472000E424F82E811123C00115110539F0F80198
:1047300080819181C81BD90BC80ED91EB12CA12C28
:104740002097A9F08091E80085FD22C08091E800C3
:104750008E778093E80001151105A1F0F8018081A2
:104760009181A80EB91EB182A08285E0F82E8F2D0E
:10477000DF91CF911F910F91FF90DF90CF90BF906D
:10478000AF9008950E94E4248823D1F2F82EEFCF51
:10479000F60181916F018093F1002197FFEFAF1A2D
:1047A000BF0ACECFFC018091790290917A028617E0
:1047B0009707A0F06115710529F49091E8009E77A4
:1047C0009093E80090E06115710551F4911108C0D3
:1047D0008091E80082FF35C080E00895BC01F2CFEF
:1047E000809172028823C9F18530C9F18091E80077
:1047F00083FD31C08091E80082FDEACF8091E8001E
:1048000080FFE1CF2091F3008091F200322F282F1A
:104810006115710519F02830310558F091E0283004
:10482000310509F090E02091E8002E772093E80010
:10483000CACF81918093F100615071092F5F3F4F82
:10484000E7CF80917202882341F0853041F080915A
:10485000E80083FFBDCF81E0089582E0089583E002
:104860000895FC018091790290917A02861797074A
:10487000A0F06115710529F48091E8008E7780938E
:10488000E80090E06115710551F4911108C0809124
:10489000E80082FF36C080E00895BC01F2CF80912D
:1048A00072028823D1F18530D1F18091E80083FD37
:1048B00032C08091E80082FDEACF8091E80080FF5D
:1048C000E1CF2091F3008091F200322F282F611563
:1048D000710519F02830310558F091E02830310584
:1048E00009F090E08091E8008E778093E800CACFCD
:1048F00084918093F1003196615071092F5F3F4F91
:10490000E6CF80917202882341F0853041F080919A
:10491000E80083FFBCCF81E0089582E0089583E042
:104920000895982F973028F08F708093E90081E0E8
:1049300008959093E900242F762F50E0981731F0D6
:104940007091EC002091ED005091F00021FD02C02B
:104950009F5FE8CF3091EB003E7F3093EB003091CA
:10496000ED003D7F3093ED003091EB0031603093EE
:10497000EB007093EC002093ED005093F000209139
:10498000EE0027FDE5CF80E008958091730287FF58
:1049900013C08091E80082FF06C08091E8008B7709
:1049A0008093E80004C0809172028111F2CF0895D3
:1049B000809172028823D9F38091E80080FFF8CFBC
:1049C0008091E8008E77ECCF2091E4003091E500F3
:1049D00085E69091EC0090FF06C09091E80090FF72
:1049E00006C080E008959091E80092FDFACF909182
:1049F0007202992391F0953091F09091EB0095FD22
:104A000010C04091E4005091E5002417350709F3E8
:104A100081509A01F1F684E0089582E0089583E0E0
:104A2000089581E008950E9481250E948925E0EE85
:104A3000F0E0808181608083E8EDF0E080818F7715
:104A4000808319BCA7EDB0E08C918E7F8C93808120
:104A50008F7E80831092710208950F931F93CF93DE
:104A6000DF930E9481250E948925C8EDD0E08881CE
:104A70008F77888388818068888388818F7D888309
:104A800019BC1092720210926E0210927002109273
:104A90006F0200EE10E0F80180818B7F80838881B7
:104AA0008160888342E060E080E00E949124E1EE32
:104AB000F0E080818E7F8083E2EEF0E08081816093
:104AC0008083808188608083F80180818E7F8083ED
:104AD000888180618883DF91CF911F910F91089524
:104AE000E8EDF0E080818F7E8083E7EDF0E080816B
:104AF0008160808384E082BF81E0809371020C94A6
:104B00002D25E8EDF0E080818E7F80831092E20019
:104B100008951092DA001092E10008951F920F920A
:104B20000FB60F9211242F933F934F935F936F9380
:104B30007F938F939F93AF93BF93EF93FF93809156
:104B4000E10082FF0BC08091E20082FF07C08091EC
:104B5000E1008B7F8093E1000E94F1278091DA00D1
:104B600080FF19C08091D80080FF15C08091DA00C5
:104B70008E7F8093DA008091D90080FF94C080E11D
:104B800089BD82E189BD09B400FEFDCF81E080933B
:104B900072020E9405228091E10080FF19C080917D
:104BA000E20080FF15C08091E2008E7F8093E200DA
:104BB0008091E20080618093E2008091D800806261
:104BC0008093D80019BC85E0809372020E9417225E
:104BD0008091E10084FF29C08091E20084FF25C01C
:104BE00080E189BD82E189BD09B400FEFDCF8091DD
:104BF000D8008F7D8093D8008091E1008F7E8093D4
:104C0000E1008091E2008F7E8093E2008091E200DB
:104C100081608093E20080916E02882309F449C08C
:104C200084E0809372020E9418228091E10083FF49
:104C300029C08091E20083FF25C08091E100877F39
:104C40008093E10082E08093720210926E02809164
:104C5000E1008E7F8093E1008091E2008E7F80935F
:104C6000E2008091E20080618093E20042E060E037
:104C700080E00E9491248091F00088608093F00091
:104C80000E941622FF91EF91BF91AF919F918F915A
:104C90007F916F915F914F913F912F910F900FBE38
:104CA0000F901F90189519BC109272020E94132247
:104CB00072CF8091E30087FD02C081E0B2CF83E034
:104CC000B0CF1F920F920FB60F9211242F933F93E4
:104CD0004F935F936F937F938F939F93AF93BF9304
:104CE000CF93EF93FF93C091E900CF708091EC00D8
:104CF0001092E9008091F000877F8093F000789413
:104D00000E949D261092E9008091F00088608093B7
:104D1000F000C093E900FF91EF91CF91BF91AF9167
:104D20009F918F917F916F915F914F913F912F91C3
:104D30000F900FBE0F901F9018951F93CF93DF9386
:104D4000CDB7DEB7AA970FB6F894DEBF0FBECDBFC2
:104D5000E3E7F2E08091F100819322E0EB37F20784
:104D6000C9F70E942E228091E80083FF42C0809103
:104D70007302909174029A3008F03BC0E92FF0E082
:104D8000EC53F94D0C946729CE26F226F926F2262B
:104D9000F9264D276F27F926C427D127803879F0C7
:104DA000823839F5809177028F708093E900809185
:104DB000EB0085FB882780F91092E90006C08091FE
:104DC0006F0290917002911182609091E800977F3C
:104DD0009093E8008093F1001092F1008091E80038
:104DE0008E772DC0282F2D7F21F48823D1F082309B
:104DF00059F18091E80083FF0AC08091E800877F25
:104E00008093E8008091EB0080628093EB00AA968B
:104E10000FB6F894DEBF0FBECDBFDF91CF911F91CB
:104E2000089580917502813021F7933009F080E078
:104E3000809370021092E9008091E800877F809350
:104E4000E8000E94C524D5CF809175028111F2CF70
:104E5000809177028F7069F28093E9002091EB00D6
:104E600020FFE8CF933031F48091EB008062809393
:104E7000EB00E0CF9091EB0090619093EB0021E08C
:104E800030E001C0220F8A95EAF72093EA001092E1
:104E9000EA008091EB008860EACF8111AACF1091DF
:104EA00075021F778091E3008078812B8093E30067
:104EB0008091E800877F8093E8000E94C52480915C
:104EC000E80080FFFCCF8091E30080688093E300DE
:104ED00083E0111101C082E0809372028ACF805872
:104EE000823008F086CF80917502909176028C3DD9
:104EF00023E09207A1F583E08A838AE289834FB792
:104F0000F894DE01139620E03EE051E2E32FF0E05A
:104F100050935700E49120FF03C0E295EF703F5F8C
:104F2000EF708E2F90E0EA30C0F0C7968D939D937E
:104F30002F5F243159F74FBF8091E800877F80931E
:104F4000E8006AE270E0CE0101960E94D2238091CF
:104F5000E8008B778093E8004CCFC096E7CFAE0196
:104F60004F5F5F4F609177020E941823BC01892B2D
:104F700009F43FCF9091E800977F9093E8008981F2
:104F80009A810E943124E3CF803809F032CF80919A
:104F9000E800877F8093E80080916E028093F100A3
:104FA0001DCF811126CF90917502923008F021CF4C
:104FB0008091E800877F8093E80090936E020E94C2
:104FC000C52480916E02882331F084E080937202C0
:104FD0000E941A220ECF8091E30087FDF6CF81E078
:104FE000F5CF0895CF9380917202882399F0C091F4
:104FF000E900CF708091EC0080FD0EC080E0C82BEE
:105000001092E9008091E80083FD0E949D26CF70F8
:10501000C093E900CF91089580E8F1CF0E94152850
:105020006894B1110C94A42808950E94892888F0EE
:105030009F5798F0B92F9927B751B0F0E1F0660F5C
:10504000771F881F991F1AF0BA95C9F714C0B1309D
:1050500091F00E94A328B1E008950C94A328672F33
:10506000782F8827B85F39F0B93FCCF386957795CC
:105070006795B395D9F73EF49095809570956195B5
:105080007F4F8F4F9F4F0895E89409C097FB3EF4E0
:1050900090958095709561957F4F8F4F9F4F992385
:1050A000A9F0F92F96E9BB279395F6958795779503
:1050B0006795B795F111F8CFFAF4BB0F11F460FFC3
:1050C0001BC06F5F7F4F8F4F9F4F16C0882311F01B
:1050D00096E911C0772321F09EE8872F762F05C02F
:1050E000662371F096E8862F70E060E02AF09A95CA
:1050F000660F771F881FDAF7880F9695879597F9BF
:10510000089557FD9058440F551F59F05F3F71F0B7
:105110004795880F97FB991F61F09F3F79F087951E
:105120000895121613061406551FF2CF4695F1DFA7
:1051300008C0161617061806991FF1CF8695710537
:10514000610508940895E894BB2766277727CB016B
:1051500097F908950E94BD280C942E290E942029B9
:1051600038F00E94272920F0952311F00C9417297C
:105170000C941D2911240C94A4280E94812870F3FA
:10518000959FC1F3950F50E0551F629FF001729FEC
:10519000BB27F00DB11D639FAA27F00DB11DAA1FFB
:1051A000649F6627B00DA11D661F829F2227B00D48
:1051B000A11D621F739FB00DA11D621F839FA00DD3
:1051C000611D221F749F3327A00D611D231F849F23
:1051D000600D211D822F762F6A2F11249F5750407A
:1051E0009AF0F1F088234AF0EE0FFF1FBB1F661FF5
:1051F000771F881F91505040A9F79E3F510580F0BE
:105200000C9417290C94A4285F3FE4F3983ED4F340
:10521000869577956795B795F795E7959F5FC1F761
:10522000FE2B880F911D9695879597F9089597F90C
:105230009F6780E870E060E008959FEF80EC08953C
:1052400000240A9416161706180609060895002465
:105250000A9412161306140605060895092E0394DF
:10526000000C11F4882352F0BB0F40F4BF2B11F453
:1052700060FF04C06F5F7F4F8F4F9F4F0895AA1B41
:10528000BB1B51E107C0AA1FBB1FA617B70710F031
:10529000A61BB70B881F991F5A95A9F78095909563
:1052A000BC01CD01089597FB072E16F4009407D09A
:1052B00077FD09D00E943F2907FC05D03EF4909568
:1052C00081959F4F0895709561957F4F0895EE0FDA
:1052D000FF1F0590F491E02D0994F999FECF92BD3E
:1052E00081BDF89A992780B50895A6E1B0E044E021
:1052F00050E00C94A729A8E1B0E042E050E00C9403
:10530000A729262FF999FECF92BD81BDF89A019762
:1053100000B4021639F01FBA20BD0FB6F894FA9AFD
:10532000F99A0FBE08950396272F0E9482290E94A2
:105330008129252F0E948229242F0C9482290196ED
:10534000272F0E9482290C948129DC01CB01FC01CA
:10535000F999FECF06C0F2BDE1BDF89A319600B4CE
:0E5360000D9241505040B8F70895F894FFCFD9
:10536E00FFE6012808140A321E2321B52190215A86
:10537E002126210130313233343536376667929328
:10538E00F0F1F4F5404D3639310AE409AE097509EC
:08539E00080921093A0953092D
:00000001FF
